:020000040800F2
:10000000E0280020C99F0008811600088316000818
:10001000871600088B1600088F16000800000000E5
:10002000000000000000000000000000931600081F
:1000300095160008000000009716000899160008A1
:10004000E39F0008E39F0008E39F0008E39F000888
:10005000E39F0008E39F0008E39F0008E39F000878
:10006000E39F0008E39F00088F890008E39F0008D2
:10007000E39F0008E39F0008E39F0008E39F000858
:10008000E39F0008E39F0008E39F0008E39F000848
:10009000E39F0008E39F0008E39F0008E39F000838
:1000A000E39F0008E39F0008E39F0008E39F000828
:1000B000E39F0008AF2C0008C72C0008E39F00084E
:1000C000E39F0008E39F0008E39F0008E39F000808
:1000D000E39F0008559C0008939D0008079F0008B7
:1000E000E39F0008E39F0008E39F0008E39F0008E8
:1000F000E39F0008E39F0008E39F0008E39F0008D8
:10010000E39F0008E39F0008DF2C0008E39F00083E
:10011000E39F0008E39F0008290300088105000809
:10012000E39F0008E39F0008E39F0008E39F0008A7
:1001300000F002F800F068F80AA090E8000C824491
:100140008344AAF10107DA4501D100F05DF8AFF26E
:10015000090EBAE80F0013F0010F18BFFB1A43F0A5
:1001600001031847401B0100601B01000A444FF0C7
:10017000000C10F8013B13F0070408BF10F8014B06
:100180001D1108BF10F8015B641E05D010F8016B4B
:10019000641E01F8016BF9D113F0080F1EBF10F8AF
:1001A000014BAD1C0C1B09D16D1E58BF01F801CBD2
:1001B000FAD505E014F8016B01F8016B6D1EF9D555
:1001C0009142D6D37047000000230024002500266A
:1001D000103A28BF78C1FBD8520728BF30C148BFAA
:1001E0000B60704769290BF00F8564290BF00C85B3
:1001F00078290BF0458573290BF06587002070473F
:100200001FB51FBD10B510BD0BF078FF1146FFF7ED
:10021000F7FF00F00FF80BF096FF03B4FFF7F2FFC3
:1002200003BC09F0B9FC000030BF72B662B680F3BF
:100230000888704700BF0020FE490860092009F0C7
:1002400052FC482009F0F2FA4FF4A06009F0DCFEFD
:100250004FF4E13009F0AFFC4FF4E13009F04CFD10
:1002600001F02EFB02F058FD08F05CFBC72141F6BF
:100270001F4001F052FD092141F61F4001F0E7FC4B
:1002800001F0FCFA01F036FC4FF407714FF08040AA
:100290000BF074F902F01BFA4FF47A7009F0FEFAD1
:1002A0000020E5490860E549C1F8940101F012FF1A
:1002B0002823E3A20021084602F091F801F0E7FEAE
:1002C0004FF4FA7009F0EAFA01F0E1FE02F070FB77
:1002D00002F0D1FB02F063FC02F017FC23E00020E7
:1002E00001F018FCD849087008460078012815D19B
:1002F0007121D6480BF0C0FACF48006808B9012038
:1003000000E00020CC49086041F61F41312001F097
:1003100045FC41F61F41632001F06CFC03F0E4F85A
:10032000642009F0BBFADAE710B50121C8480BF0E8
:1003300052F900287ED001F035FBC6480068C64956
:100340000968401AC5490968401AC5490860C1488A
:100350000068C14909680844C04909680844C1499E
:100360000860BC480068BC4909680844BB49096882
:10037000401ABD490860B7480068B7490968401A83
:10038000B64909680844B9490860B54800680228B8
:1003900007DAB348006810F1020F02DD0020B0490F
:1003A0000860B0480068022807DAAE48006810F11B
:1003B000020F02DD0020AB490860AC48006802284B
:1003C00007DAAA48006810F1020F02DD0020A749F1
:1003D0000860A5480068022807DAA348006810F101
:1003E000020F02DD0020A0490860012002F021FC7C
:1003F0009F490860032002F01CFC9E49086004200D
:1004000002F017FC9C490860052002F012FC9B4991
:100410000860934801689648006802F0CAFC984951
:100420000860904801689348006802F00DFD954906
:10043000086000E0A3E08D4801688F48006802F082
:100440004EFD91490860884801688C48006802F0B8
:1004500091FD8E4908608A48006800280EDD012160
:100460008B4809F04CFF0221894809F04AFF844873
:10047000008881B287480BF07DF80EE002218448A5
:1004800009F03DFF0121824809F03BFF7C480088CC
:10049000404281B27F480BF06DF87A48006800282E
:1004A0000EDD40217C4809F02AFF80217A4809F0BE
:1004B00028FF7448008881B276480BF061F80EE09E
:1004C0008021754809F01BFF4021734809F019FF8E
:1004D0006C480088404281B26E480BF051F86A487F
:1004E000006800280EDD01216C4809F008FF022198
:1004F0006A4809F006FF6448008881B265480BF03D
:100500003DF80EE00221654809F0F9FE012163483B
:1005100009F0F7FE5C480088404281B25D480BF06C
:100520002DF85A48006800280EDD01215A4809F0CC
:10053000E6FE0221584809F0E4FE5448008881B2E2
:1005400054480BF019F80EE00221534809F0D7FE89
:100550000121514809F0D5FE4C480088404281B243
:100560004C480BF009F8012139480BF045F84C488C
:10057000006808B9012000E000204949086010BD6A
:1005800010B5012147480BF026F8002801F06080E3
:10059000454800681A2881F04E80DFE810F01A0004
:1005A0002C00D00011014B019501FE014602D20240
:1005B000D80224038403B903F3033C04E8043E0592
:1005C000CD0562066806E5063E07A207DB0725089B
:1005D0004408002020490860801F1E4908603348F5
:1005E0004069012805D100203149086001202E49C9
:1005F000086001F020B8062017490860002015495E
:1006000008602A488068012809D1284840690128E3
:1006100005D12648C06810B9022010490860234857
:10062000C06801284BD121484069012847D11F48A3
:1006300080683FE084000020948121420000234232
:100640004E4345505500000000000020004400408B
:10065000001000404800002044000020500000200E
:100660003400002038000020400000203C00002022
:1006700054000020580000205C0000206000002092
:10068000980000209C000020A0000020A400002072
:10069000001001400034014000180140000C0140EE
:1006A000940123420014004008000020DC180020C0
:1006B0000C00002018B96FF00100FE490860FE48E8
:1006C000806828B9FC48406910B9FB48C06858B137
:1006D000F948806801280AD1F7484069012806D105
:1006E000F548C068012802D10020F24908600220C4
:1006F00001F088F9F148006806281FD10220F0496E
:1007000008600020ED490860EA490860ED4908608A
:10071000ED49086000BFED4800680028FBD00420C8
:10072000E84908604FF4967009F0B8F84FF49670F5
:1007300009F0B4F84FF4967009F0B0F859E76FF08B
:100740000500E04908600020DF490860DA48806958
:10075000012805D1D848006910B90220D5490860A0
:10076000D548806930B9D4480069012802D1C01E3B
:10077000D0490860D048806910B9CF48006938B1C5
:10078000CD488069012806D1CB480069012802D1F3
:100790000020C8490860022001F034F9C748006809
:1007A00002280CDBC4484068012808D10320C44952
:1007B00008600020C1490860642009F06FF818E75C
:1007C0000020C0490860001FBF490860BA4800689F
:1007D000012808D1B848406828B90220B949086002
:1007E000001FB4490860B448006848B9B24840687E
:1007F000012805D1C01EB34908600220AD49086038
:10080000AD48006828B9AC48406810B90020A94933
:100810000860A948006801280BD1A7484068012852
:1008200007D10020A3490860A74908600420A44913
:100830000860DEE60020A3490860A34908609D49DE
:1008400008600120A24908606321A2480BF014F857
:100850004FF42071C8050AF091FEFA2009F01EF845
:10086000FA2009F01BF80020994908606321994893
:100870000BF002F800BF964800680328FBD14FF444
:10088000DC714FF080400AF079FEFA2009F006F89A
:10089000FA2009F003F802208D49086063218D4891
:1008A0000AF0EAFF00BF8A4800680328FBD14FF432
:1008B00007714FF080400AF061FE05208049086012
:1008C000FA2008F0EBFF94E600207E4908607E499C
:1008D00008607849086003207D4908607B497E48AC
:1008E0000068401C51F820007C494968884205D1C5
:1008F0004FF407714FF080400AF040FE734976488C
:100900000068401C51F8200074490968884204D1ED
:100910004FF42071C8050AF031FE6C496E4800683A
:10092000401C51F820006D498968884205D14FF478
:10093000DC714FF080400AF021FE6948006858BB26
:10094000624965480068401C51F8200063494968C5
:10095000884203D1012163480AF08EFF5B495E485B
:100960000068401C51F820005C490968884209D0A1
:10097000564959480068401C51F820005749896879
:10098000884203D1032157480AF076FF01205449D9
:1009900008600020494908602BE6002050490860A3
:1009A000484908606FF009004749086042480068FC
:1009B000012808D14048406828B902204149086010
:1009C000001F3C4908603C48006848B93A48406804
:1009D000012805D1C01E3B49086002203549086046
:1009E0003548006828B93448406810B900203149BA
:1009F0000860042001F006F8344937480068401CBC
:100A000051F82000C0F104004000001D2B49096886
:100A1000884209DC28480069012805D100202749BF
:100A20000860072026490860E3E56FF006002549C5
:100A300008600020244908601F488069012805D10A
:100A40001D48006910B901201A4908601A488069D8
:100A500030B919480069012802D1801E1549086083
:100A60001548806910B91448006938B11248806986
:100A7000012806D110480069012802D100200D4943
:100A800008600D488069012834D10B4800690128AD
:100A900030D10948006901280BD107488069012835
:100AA00007D11148006820B904480068401C034978
:100AB00008601BE050000020DC1800200C00002023
:100AC000080000204400002048000020FC180020FE
:100AD0009000002000440040840000201C190020E9
:100AE0008800002000380140A80000200120FE49B5
:100AF000086002E00020FC490860FC480068032808
:100B00001ED10820FA4908600020F8490860F94918
:100B10000860F94908604FF4917148070AF02EFD0A
:100B20004FF4967008F0BAFE4FF4967008F0B6FED7
:100B30004FF4967008F0B2FE0221F0480AF09CFED5
:100B400057E50020EB490860EB49086051E50720B4
:100B5000E84908600020E8490860E9488068012801
:100B600009D1E7484069012805D1E548C06810B9B6
:100B70000220E4490860E248C06801280AD1E04840
:100B80004069012806D1DE48806818B96FF001007D
:100B9000DC490860DA48806828B9D948406910B94A
:100BA000D748C06858B1D648806801280AD1D448CF
:100BB0004069012806D1D248C068012802D100202E
:100BC000D0490860022000F01DFFC84800680328D3
:100BD00008D10A20C64908600020C4490860642082
:100BE00008F05CFE05E50020C24908600A20C24901
:100BF0000860C3480068012805D1C148406810B9A1
:100C00000220C0490860BE48006830B9BC4840684E
:100C1000012802D1C01EBB490860B948006828B944
:100C2000B748406810B90020B6490860012000F0BC
:100C3000E9FEB549B5480068401C51F82000C0F1F4
:100C400004004000801EA9490968884220DAAC48A7
:100C5000806801281CD10020A44908600B20A44909
:100C60000860AA480068401CA84908604FF4077152
:100C70004FF080400AF082FC4FF4967008F00EFEB0
:100C80004FF4967008F00AFE4FF4967008F006FED6
:100C90009E480068032805D104209C4908600D2067
:100CA00093490860A5E40020924908600820924911
:100CB000086093480068012805D19148406810B940
:100CC0000320904908608E48006830B98C4840681D
:100CD000012802D1001F8B4908608948006828B9A3
:100CE0008748406810B9002086490860012000F05C
:100CF00089FE7E480068052809DB81488068012854
:100D000005D10020794908600C207949086070E419
:100D1000002078490860001F77490860784800681B
:100D2000012808D17648406828B902207149086036
:100D3000001F744908607248006848B970484068EC
:100D4000012805D1C01E6B49086002206D4908606A
:100D50006B48006828B96A48406810B900206949A2
:100D600008606748006801280BD165484068012881
:100D700007D10020634908605F49086005205C498D
:100D8000086036E400205B4908606FF009005A49AA
:100D900008605B480068012808D15948406828B9B4
:100DA000022054490860001F5649086054480068F2
:100DB00048B953484068012805D1C01E4D49086014
:100DC0000220504908604E48006828B94C484068E5
:100DD00010B900204B490860042000F013FE4A4976
:100DE0004A480068401C51F82000C0F1040040004F
:100DF0003E49096888420DDC41480069012809D153
:100E00000020404908603C490860384908600E20CD
:100E10003749086092E46FF0050036490860002009
:100E20003549086036488069012805D13448006991
:100E300010B90120334908603148806930B9304821
:100E40000069012802D1801E2E4908602C48806963
:100E500010B92B48006938B129488069012806D1AA
:100E600027480069012802D100202649086024484B
:100E70000069012817D122488069012813D1204830
:100E8000006901280BD11E488069012807D1164846
:100E9000006820B915480068401C1449086001200A
:100EA0001149086002E000200F4908600F480068FF
:100EB00001280ED11648006858B94FF491714807BF
:100EC0000AF05CFB06210D480AF0D6FC012010490F
:100ED000086006480068032848D10F2004490860CC
:100EE00000200249086015E0A80000200C00002046
:100EF0000800002044000020480000200038014085
:100F0000DC18002050000020FC1800208400002085
:100F100014000020FE490860FE4908604FF49670F6
:100F200008F0BCFC4FF4967008F0B8FC4FF49670D3
:100F300008F0B4FC0421F8480AF09EFC4FF49670C7
:100F400008F0ACFC4FF4967008F0A8FC4FF49670D3
:100F500008F0A4FC4FF4967008F0A0FC4FF49670D3
:100F600008F09CFC4FF4967008F098FC63E30020B6
:100F7000EA4908600620E64908600020E549086063
:100F8000E7488068012809D1E5484069012805D172
:100F9000E348C06810B90320E2490860E048C0682F
:100FA00001280AD1DE484069012806D1DC48806862
:100FB00018B96FF00200DB490860D948806828B989
:100FC000D748406910B9D648C06858B1D44880683D
:100FD00001280AD1D2484069012806D1D048C0680A
:100FE000012802D10020CF490860022000F00AFD4C
:100FF000CD48006802280FDDC948006801280BD1E0
:101000001020CA4908600020C74908604FF40771E2
:101010004FF080400AF0B2FA0DE3C549C5480068B8
:10102000401C51F8200003283ED10020B849086038
:101030006FF00700B7490860B9480068012808D177
:10104000B748406828B90220B1490860001FB54977
:101050000860B348006848B9B1484068012805D124
:10106000C01EAB4908600220AE490860AC48006869
:1010700028B9AB48406810B90020AA49086003208D
:1010800000F0C0FCA848006804280DDDA448C06832
:10109000012809D10020A34908609E490860A2499F
:1010A00008601120A1490860A149A2480068401CBD
:1010B00051F82000022802D111209C4908609C4967
:1010C0009C480068401C51F82000012833D10020C2
:1010D0008F49086008208F490860914800680128FE
:1010E00005D18F48406810B901208E4908608C48AE
:1010F000006830B98A484068012802D1801E8949B9
:1011000008608748006828B98548406810B9002001
:1011100084490860012000F075FC834800680428B9
:1011200009DD7F488068012805D100207E490860DC
:1011300011207E4908607EE2062075490860002083
:101140007449086076488068012809D1744840696C
:10115000012805D17248C06810B9032071490860A0
:101160006F48C06801280AD16D484069012806D13E
:101170006B48806818B96FF002006A4908606848D7
:10118000806828B96648406910B96548C06858B198
:101190006348806801280AD161484069012806D166
:1011A0005F48C068012802D100205E4908605C48A1
:1011B000806801281FD15A48406901281BD158482E
:1011C000C068012817D15648806801280FD15448BB
:1011D000406901280BD15248C068012807D1564800
:1011E000006820B950480068401C4F490860012041
:1011F0005149086002E000204F4908604A480068F1
:10120000022802DB0420424908604748006803289E
:1012100026DB00203E4908603E49086041490860DD
:1012200012204249086000203F49086040F22A31FC
:1012300048070AF0A3F94FF4967008F02FFB4FF41B
:10124000967008F02BFB4FF4967008F027FB0521F1
:1012500031480AF011FB37480068401C35490860E6
:10126000E9E100202A4908602A490860E3E13148A1
:101270000068072803D115202C49086073E06FF03F
:10128000050023490860002022490860244880693D
:10129000012805D12248006910B9012021490860C0
:1012A0001F48806930B91E480069012802D1801E9C
:1012B0001C4908601A48806910B91948006938B19A
:1012C00017488069012806D115480069012802D114
:1012D0000020144908601248006901282ED11048E6
:1012E000806901282AD10E48006901280BD10C48D9
:1012F0008069012807D11048006820B90A480068B1
:10130000401C0949086001200B49086019E00000F1
:101310004400002048000020003801401400002054
:10132000DC180020500000200C00002008000020E5
:10133000FC18002084000020A80000200020C549DF
:101340000860C548006803280DDBC44840680128D0
:1013500009D11420C24908600020BF490860C14972
:101360000860C149086066E10020BE4908600820A5
:10137000BD490860B9480068012805D1B7484068F0
:1013800010B90220B9490860B448006830B9B348C0
:101390004068012802D1C01EB4490860AF48006807
:1013A00028B9AE48406810B90020B0490860012053
:1013B00000F028FBAE48AF49096850F82100401EF4
:1013C0004000A5490968884226DAA44880680128B7
:1013D00022D10020A0490860A6480068072806DA44
:1013E0000D209F49086005209F49086002E01520F4
:1013F0009B4908604FF4967008F050FA4FF49670CD
:1014000008F04CFA4FF4967008F048FA4FF4077160
:101410004FF080400AF0B2F80DE16FF005009149FD
:1014200008600020904908608C488069012805D137
:101430008A48006910B901208C4908608748806992
:1014400030B986480069012802D1801E87490860AA
:101450008248806910B98148006938B17F48806945
:10146000012806D17D480069012802D100207F496A
:1014700008607A480069012817D1784880690128F6
:1014800013D17648006901280BD17448806901287E
:1014900007D17048006820B96F480068401C6E4949
:1014A000086001206B49086002E00020694908607B
:1014B00069480068052813DB6848406801280FD197
:1014C0001620674908604FF407714FF080400AF01A
:1014D00055F8002060490860624908606249086068
:1014E000A9E000205F4908600A205F4908605B4866
:1014F0000068012805D15948406810B902205B49AD
:1015000008605648006830B954484068012802D144
:10151000C01E564908605148006828B94F484068C5
:1015200010B9002051490860042000F06BFA5048BF
:10153000C0694000401D48490968884209DC4748A5
:101540008068012805D100204349086017204449DC
:10155000086070E06FF005004249086000204249D1
:1015600008603E488069012805D13C48006910B9EF
:1015700001203E4908603948806930B93748006920
:10158000012802D1801E394908603448806910B9A9
:101590003248006938B131488069012806D12F48A6
:1015A0000069012802D1002030490860022000F0C3
:1015B00029FA29480068022815DB28488068012894
:1015C00011D12648406901280DD12448C06801285E
:1015D00009D118202249086000201F4908604FF4F3
:1015E0008C7008F05BF926E000201E49086004209A
:1015F0001D49086019201A49086000201649086032
:101600004FF4967008F04AF94FF4967008F046F9D6
:101610004FF4967008F042F9C82008F03FF9C8204E
:1016200008F03CF907E000200F4908600F49086006
:101630000C49086000BF00BF01210F4809F0DCFF22
:101640000E48006808B9012000E000200B4908603E
:1016500010BD0000A80000200C000020DC180020B5
:101660000800002044000020480000205000002016
:10167000FC18002084000020001400409401234244
:10168000704700BFFEE700BFFEE700BFFEE700BFF8
:10169000FEE7704770477047704700000CB50020A8
:1016A000019000906C48006840F480306A490860FE
:1016B00000BF6948006800F4003000900198401CA9
:1016C0000190009818B90198B0F5A06FF1D1624867
:1016D000006800F4003010B10120009001E000200B
:1016E00000900098012843D15C48006840F0100049
:1016F0005A4908600846006820F003000860084660
:10170000006840F002000860534840685249486051
:101710000846406848600846406840F48060486079
:101720000846406820F47C1048600846406840F451
:10173000E81048600846006840F08070086000BF0C
:101740004548006800F000700028F9D04248406821
:1017500020F00300404948600846406840F002001D
:10176000486000BF3C48406800F00C000828F9D1F0
:101770000CBD10B5FFF792FF10BD10B536480068DC
:1017800040F0010034490860084640683449084088
:101790003149486008460068324908402E490860CF
:1017A0000846006820F4802008600846406820F45D
:1017B000FE0048604FF41F008860FFF7DAFF4FF02B
:1017C00000602949086010BD10B5002100200022EA
:1017D000214B5B6803F00C0121B1042906D00829D4
:1017E00028D107E0214B224C236027E01F4B204CDF
:1017F000236023E0184B5B6803F47010164B5B68A2
:1018000003F48032022303EB904022B9194B434387
:10181000174C23600DE0104B5B6803F4003323B1D9
:10182000144B4343124C236003E0104B4343104CD2
:10183000236003E00D4B0E4C236000BF00BF064B3E
:101840005B68C3F303130C4CE15C094B1B68CB4092
:10185000074C236010BD0000001002400020024031
:101860000000FFF8FFFFF6FE08ED00E000127A002E
:10187000AC00002000093D00B000002008B50121A7
:10188000482008F04BFF2020ADF8000010208DF814
:10189000030003208DF8020069468F4808F082FC9F
:1018A00020218D4808F02BFD2020ADF8000069466E
:1018B0008A4808F077FC2021884808F020FD08BD00
:1018C00008B50121702008F029FF0120ADF80000C3
:1018D00048208DF8030003208DF8020069468048F7
:1018E00008F060FC0420ADF8000048208DF80300EB
:1018F00003208DF802006946784808F053FC8020E8
:10190000ADF8000048208DF8030003208DF8020098
:101910006946734808F046FC4FF40060ADF80000DB
:1019200048208DF8030003208DF8020069466D48B9
:1019300008F038FC4FF48060ADF8000048208DF8C6
:10194000030003208DF802006946664808F02AFC6F
:101950004FF40050ADF8000048208DF8030003203C
:101960008DF8020069465F4808F01CFC4020ADF885
:10197000000048208DF8030003208DF8020069461E
:10198000574808F00FFC4FF48050ADF80000482095
:101990008DF8030003208DF802006946514808F0D5
:1019A00001FC08BD10B540214D4808F08EFC4E49A1
:1019B000086080214A4808F088FC4B4948604FF491
:1019C0000061484808F081FC474988604FF4806115
:1019D000444808F07AFC4449C8604FF4005141483B
:1019E00008F073FC404908614FF480513D4808F00D
:1019F0006CFC3D4948610421384808F066FC3A49CE
:101A0000886110BD012817D137498968012910D193
:101A100035498968012908D134490978012904D157
:101A200033490968491C324A116000212F4A11705C
:101A300002E001212D4A1170022817D12A490968B4
:101A4000012910D128490968012908D127490978B5
:101A5000012904D126490968491C254A1160002141
:101A6000224A117002E00121204A1170032817D187
:101A70001D49C968012910D11B49C968012908D12C
:101A80001A490978012904D119490968491C184AD9
:101A900011600021154A117002E00121134A1170F2
:101AA000042817D110490969012910D10E49096983
:101AB000012908D10D490978012904D10C49096887
:101AC000491C0B4A11600021084A117002E00121F3
:101AD000064A117070470000000C014000180140D8
:101AE0000014014000100140DC180020C00000205C
:101AF0000C00002008B50121442008F00FFE18203A
:101B0000ADF8000048208DF803006946204808F031
:101B100049FB08BD10B5044614B101201D490870E9
:101B20001C48007818B31021194808F0CEFB50B1BA
:101B30000821174808F0C9FB28B10121164808F010
:101B4000C4FB012813D10A2007F0A8FE0020114988
:101B5000087010210E4808F0B8FB08B9012010BD2C
:101B600008210B4808F0B1FB78B90220F7E71021F3
:101B7000074808F0AAFB012807D10821044808F00B
:101B8000A4FB012801D1034908700020E7E7000009
:101B900000180140C1000020000801407FB5054643
:101BA0000C460121102008F0C6FDADF80850ADF834
:101BB00004400020ADF80A00ADF8060001A9BD48B8
:101BC00008F0E4FE01221146BA4809F056FA362020
:101BD0008DF8000000208DF801008DF80200012032
:101BE0008DF80300684608F014FA0121B14809F0A5
:101BF00029FA7FBD7FB505460C460121202008F05B
:101C00009AFDADF80850ADF804400020ADF80A0088
:101C1000ADF8060001A9A84808F0B8FE0122114657
:101C2000A54809F02AFA37208DF8000001208DF828
:101C3000010003208DF8020001208DF803006846A2
:101C400008F0E7F901219C4809F0FCF97FBD30B5A7
:101C500089B005460C460121480308F05FFD0121CB
:101C6000112008F05BFD4FF47070ADF820001820D3
:101C70008DF8230003208DF8220008A98F4808F072
:101C800091FAADF81850ADF814400020ADF81A00E4
:101C9000ADF8160005A98A4808F078FE6020ADF876
:101CA00004000120ADF806000020ADF80A00ADF8F0
:101CB0000C00ADF80800ADF81000ADF8120001A955
:101CC0007F4808F0A0FE01A97D4808F0DEFE01A9CA
:101CD0007B4808F027FF01A9794808F06EFF012131
:101CE000774809F0BBF90821754809F0DBFA0821AB
:101CF000734809F0E0FA0821714809F0E9FA08216F
:101D00006F4809F0EEFA01216D4809F09BFA0121B4
:101D10006B4809F097F909B030BD30B589B0054678
:101D20000C460121084608F006FD0121092008F0B3
:101D3000F5FC0121634808F006FB03208DF8220022
:101D400018208DF823004FF48060ADF8200008A91A
:101D50005D4808F027FAADF81850ADF8144000209F
:101D6000ADF81A00ADF8160005A94FF0804008F054
:101D70000DFE6020ADF804000120ADF80600002043
:101D8000ADF80C0001A94FF0804008F0CBFE08210F
:101D9000C80609F09DFA0121880709F053F909B036
:101DA00030BD7FB505460C460121084608F0C3FC4E
:101DB000ADF80850ADF804400020ADF80A00ADF8C9
:101DC000060001A94FF0804008F0E0FD0122114615
:101DD000900709F052F91C208DF8000000208DF8C2
:101DE000010003208DF8020001208DF803006846F1
:101DF00008F00FF90121880709F024F97FBD7FB5AC
:101E000005460C460121042008F095FCADF8085069
:101E1000ADF804400020ADF80A00ADF8060001A9B5
:101E20002A4808F0B3FD01221146284809F025F997
:101E30001E208DF8000001208DF8010002208DF891
:101E4000020001208DF80300684608F0E2F8012145
:101E50001E4809F0F7F87FBD7FB505460C46012105
:101E6000082008F068FCADF80850ADF804400020E8
:101E7000ADF80A00ADF8060001A9154808F086FD86
:101E800001221146124809F0F8F832208DF80000BE
:101E900000208DF8010003208DF8020001208DF84C
:101EA0000300684608F0B5F80121094809F0CAF8AE
:101EB0007FBD0000001000400014004000100140F1
:101EC0000034014000021800000C014000080040EE
:101ED000000C004000BF011EA0F10100FBD17047C3
:101EE00010B54FF48051FE4808F00BFA2021FD4850
:101EF00008F007FA0120FFF7EDFF4FF48051F84892
:101F000008F0FDF92021F74808F0F9F90120FFF762
:101F1000E1FF10BD10B54FF48051F14808F0F1F920
:101F20002021F04808F0EDF90120FFF7D3FF4FF42E
:101F30008051EB4808F0E3F90120FFF7CBFF4FF4A5
:101F40008051E74808F0DDF910BD70B50446002562
:101F500024E04FF48051E24808F0D3F904F0800007
:101F600020B12021DF4808F0CAF903E02021DD4834
:101F700008F0C7F94FF48051D94808F0C0F90120A2
:101F8000FFF7A8FF4FF48051D54808F0BAF90120B7
:101F9000FFF7A0FF6006040E681CC5B2082DD8DB51
:101FA00070BD10B52021CF4808F0A9F94FF4805139
:101FB000CB4808F0A4F90120FFF78CFF2021C94885
:101FC00008F09FF90120FFF785FF4FF48051C448C6
:101FD00008F097F910BD70B505460C46FFF7E1FF14
:101FE0007820FFF7B2FFFFF795FF1CB14020FFF705
:101FF000ACFF02E00020FFF7A8FFFFF78BFF2846A9
:10200000FFF7A3FFFFF786FFFFF76AFF70BD10B56C
:1020100004461CB90021A620FFF7DDFF012C03D1E7
:102020000021A720FFF7D7FF10BD10B504463CB92B
:102030000021C820FFF7CFFF0021A120FFF7CBFF31
:10204000012C07D10021C020FFF7C5FF0021A020EF
:10205000FFF7C1FF10BD10B500218D20FFF7BBFFBA
:1020600000211420FFF7B7FF0021AF20FFF7B3FFD7
:1020700010BD10B500218D20FFF7ADFF002110200D
:10208000FFF7A9FF0021AF20FFF7A5FF10BD70B536
:1020900000241CE004F1B001C8B20021FFF79BFF4F
:1020A00000210846FFF797FF00211020FFF793FF5C
:1020B000002508E08C4901EBC501085D0121FFF70F
:1020C0008AFF681CC5B2802DF4DB601CC4B2082CEA
:1020D000E0DB70BD70B500240CE0002506E00020B8
:1020E000814901EBC5010855681CC5B2802DF6DB9E
:1020F000601CC4B2082CF0DBFFF7C9FF70BD70B5DF
:102100000A46CE1701EB5676C6F3C703CE1701EB8E
:102110005676F610A1EBC606F4B20122A240D5B263
:10212000714A02EBC002D25C2A436F4E06EBC00636
:10213000F25470BD70B50B46CE1701EB5676C6F360
:10214000C702CE1701EB5676F610A1EBC606F4B225
:102150000123A340DDB2644B03EBC0039B5CDB4374
:10216000614E06EBC006B3545F4B03EBC0039B5CB0
:102170002B435D4E06EBC006B3545B4B03EBC00331
:102180009B5CDB43584E06EBC006B35470BD2DE993
:10219000F84F05460E4617469846BD420DD100241D
:1021A00006E03019C1B22846FFF7A9FF601CC4B28F
:1021B000A8EB0600A042F4DC30E046450CD1002438
:1021C00006E02919C8B23146FFF799FF601CC4B276
:1021D000781BA042F5DC21E0A8EB060000F0FF0A26
:1021E000781B00F0FF0B0AEB8A00400090FBFBF02D
:1021F00000F0FF0900240EE004FB09F00A2190FB27
:10220000F1F03044C0B229190090C8B20099FFF72C
:1022100076FF601CC4B2781BA042EDDCBDE8F88FED
:102220002DE9F04306460F469046002544463BE024
:102230003A1BD1B27219D0B2FFF761FF3A1BD1B28B
:10224000721BD0B2FFF75BFF3A19D1B2721BD0B24A
:10225000FFF755FF3A19D1B27219D0B2FFF74FFF0D
:102260007A19D1B23219D0B2FFF749FF7A1BD1B235
:102270003219D0B2FFF743FF7A1BD1B2321BD0B272
:10228000FFF73DFF7A19D1B2321BD0B2FFF737FF0B
:102290006D1C05FB05F004FB040008FB1809B9F1EF
:1022A000000F01DD641E6D1E6000604308FB08F135
:1022B0008842BDDABDE8F0832DE9FF4F81B0814649
:1022C0000F461C4600972046E31704EB5373DB10C0
:1022D00021464FEAE47C04EB5C7C4FEAEC0C05E021
:1022E000002001400014014028190020A4EBCC0C70
:1022F000BCF1000F02D04FF0010C01E04FF0000CD8
:102300006344224604EBD27C4FEA6C0C03FB0CF3D3
:1023100003F0FF0B03982038C6B200255BE00C2CBD
:1023200007D106EB4600FE4901EB800010F805805E
:1023300028E0102C05D1FB4800EB061010F80580B2
:1023400020E0182C07D106EBC600F74901EB80000E
:1023500010F8058016E0202C05D1F44800EB86101B
:1023600010F805800EE0282C09D106EBC60000EB22
:102370000610EF4901EB800010F8058002E005B07F
:10238000BDE8F08F4FF0000A1FE008F0800020B198
:1023900039464846FFF7B3FE03E039464846FFF7A3
:1023A000C9FE4FEA48604FEA1068781CC7B200982F
:1023B000381AA04205D1009F09F1010000F0FF0981
:1023C00006E00AF1010000F0FF0ABAF1080FDCDBB9
:1023D00000BF681CC5B25D45A1DB00BFCFE7F0B50B
:1023E00006460F4614461D4613E022782B46394612
:1023F0003046FFF761FF284605EBD07106EB61011F
:10240000CEB2C5F18000B04202DA0026B81CC7B2D5
:10241000641C2078202802DB20787E28E5DDF0BDD2
:1024200010B50246012000E050430B1EA1F101044B
:10243000E1B2F9D110BD2DE9F04F06468A4691462A
:102440001F46099C00252CE0781B401EC1B20A20C3
:10245000FFF7E6FFB9FBF0F00A21B0FBF1F201FB58
:102460001208B8F1000F0CD1A34604EBDB71491040
:1024700001FB0561C8B2234630225146FFF71CFF1D
:102480000DE0A34604EBDB71491001FB0561C8B206
:1024900008F13001CAB223465146FFF70DFF681C10
:1024A000C5B2BD42D0DBBDE8F08F2DE9FF4F074636
:1024B000884691461C464FF0000B0297CDF80480E9
:1024C0002046E11704EB5171C1F3C701009160E0B0
:1024D00009FB04F0C11700EB51710BEBE101CEB227
:1024E0000BF1010000F0FF0B002550E0102C05D18E
:1024F000904800EB0610405D03901BE0182C07D1BC
:1025000006EBC6008C4901EBC000405D039011E072
:10251000202C05D1894800EBC610405D039009E0EE
:10252000402C05D1864800EB4620405D039001E039
:10253000BDE8FF8F4FF0000A17E0039800F001009C
:1025400020B141463846FFF7DAFD03E04146384600
:10255000FFF7F0FD03984010039008F1010000F030
:10256000FF080AF1010000F0FF0ABAF1080FE4DBEE
:10257000781CC7B20298381AA04204D1029F019871
:102580000830C0B20190DDF80480681CC5B2A542D5
:10259000ACDB0098411EC9B20091002898D100BF61
:1025A000C6E7804689460026002749E03FB9102348
:1025B000324618218020FFF778FF701CC6B24645CE
:1025C00022D14FF0000A1AE0002410E000250AE0B2
:1025D0005C4800EBC400415D601E5A4A02EBC0003B
:1025E0004155681CC5B2082DF2DB601CC4B2902CAA
:1025F000ECDBFFF74CFD0AF1010000F0FF0A4FEAA7
:1026000009105045E0DC0026781CC7B2102F00D11D
:102610000027002410E000250AE04A4800EBC4002F
:10262000415D601E474A02EBC0004155681CC5B2BF
:10263000082DF2DB601CC4B2902CECDBFFF727FD09
:10264000B4E770B504460D4605F1B001C8B20021EB
:10265000FFF7C1FC102141EA14100021FFF7BBFC79
:1026600004F00F000021FFF7B6FC70BD2DE9F05F0C
:1026700005460E4617469846DDF828B04FF000098B
:10268000CA460024E11704EB5171C910A4EBC10143
:1026900001B901E0601CC4B2344614E0214628466A
:1026A000FFF7CFFFAA460AE01BF809000121FFF758
:1026B00092FC09F101090AF1010000F0FF0ABA4594
:1026C000F2DB601CC4B24445E8DBBDE8F09F08B50E
:1026D00001214FF4B07008F021F84FF48050ADF8AC
:1026E000000010208DF8030003208DF802006946D9
:1026F000154807F057FD4FF48051134807F0FFFDD0
:1027000048F22200ADF8000010208DF803000320ED
:102710008DF8020069460D4807F044FD18E00000FE
:1027200086C70008FACB0008EAD1000846DF000897
:1027300006F70008C200002022020020FA02002052
:10274000FA04002028190020002001400014014054
:1027500048F222013F4807F0D2FD4FF4A060ADF8E7
:10276000000010208DF8030003208DF80200694658
:10277000394807F017FD4FF4A061374807F0BFFD57
:102780001021344807F0BDFDC82007F087F810215C
:10279000304807F0B4FD0021FD20FFF71CFC0021AC
:1027A0001220FFF718FC0021AE20FFF714FC0021D7
:1027B000D520FFF710FC0021A020FFF70CFC002122
:1027C000A820FFF708FC00213F20FFF704FC0021B0
:1027D000D320FFF700FC00210846FFF7FCFB002197
:1027E0004020FFF7F8FB0021A120FFF7F4FB0021B8
:1027F000C820FFF7F0FB0021DA20FFF7ECFB0021F7
:102800001220FFF7E8FB00218120FFF7E4FB002105
:102810007F20FFF7E0FB0021D920FFF7DCFB002140
:102820008220FFF7D8FB0021DB20FFF7D4FB00213B
:102830003420FFF7D0FB0021A420FFF7CCFB0021C0
:10284000A620FFF7C8FBFFF745FC0021AF20FFF7EC
:10285000C2FB08BD001401400018014030B503461A
:102860001C788C545D78541C0D559D78941C0D5526
:10287000DD78D41C0D5530BD13B50C460A2C00DC98
:1028800004B91CBD0B2C43D2DFE804F042060C1245
:10289000181E242A30363C00012244496846FFF7BE
:1028A000DDFF35E0052241496846FFF7D7FF2FE0FD
:1028B00009223E496846FFF7D1FF29E00D223B4936
:1028C0006846FFF7CBFF23E0112238496846FFF73F
:1028D000C5FF1DE0152235496846FFF7BFFF17E029
:1028E000192232496846FFF7B9FF11E01D222F492E
:1028F0006846FFF7B3FF0BE021222C496846FFF73B
:10290000ADFF05E0252229496846FFF7A7FF00BF74
:1029100000BF00BFB5E701460A2900DC09B9002065
:1029200070472420214A10700B293CD2DFE801F0C7
:102930003B060B10151A1F24292F350005201B4AB2
:1029400050710620ECE70920184A50720A20E7E788
:102950000D20164A50730E20E2E71120134A5074DE
:102960001220DDE71520114A50751620D8E71920EE
:102970000E4A50761A20D3E71D200C4A50771E20AD
:10298000CEE72120094A82F821002220C8E725202D
:10299000064A82F825002620C2E72920034A82F849
:1029A00029002A20BCE70020BAE70000A81D00206B
:1029B00000B587B00121084607F0B0FE0121C8022A
:1029C00007F0ACFE0121402007F0A8FE0121CA4813
:1029D00007F0B9FC4FF40070ADF8000004208DF84A
:1029E00003006946C54807F0DDFB4FF40060ADF811
:1029F000000004208DF803006946C04807F0D2FBB0
:102A0000BF4807F0EFFE04A808F0ECFA0020ADF88C
:102A100010004FF6FF70ADF814000020ADF816005E
:102A2000ADF812008DF8180004A9B54807F0AEFF04
:102A300000231A460321B24808F0B7FB01A808F0AA
:102A4000E4FA0A20ADF80C0001A9AD4808F031FA0B
:102A50000121AB4808F0BCFD01221146A84808F04E
:102A60000CFB0021A64808F081FD0121A44808F0D4
:102A7000E9FA07B000BD00B587B00121022007F0D8
:102A80005AFE0121042007F049FEC020ADF80000E5
:102A900004208DF8030069469A4807F083FB04A8D8
:102AA00008F0A0FA0020ADF810004FF6FF70ADF866
:102AB00014000020ADF81600ADF8120004A99248E9
:102AC00007F064FF00231A4603218F4808F06DFBCE
:102AD00001A808F09AFA0A20ADF80C0001A98A486A
:102AE00008F0E7F90121884808F072FD012211463B
:102AF000854808F0C2FA0021834808F037FD01211B
:102B0000814808F09FFA07B000BD00B587B00121E9
:102B1000042007F010FE0121082007F0FFFDC0206F
:102B2000ADF8000004208DF803006946774807F0EF
:102B300039FB04A808F056FA0020ADF810004FF653
:102B4000FF70ADF814000020ADF81600ADF81200CB
:102B500004A96F4807F01AFF00231A4603216C48A6
:102B600008F023FB01A808F050FA0A20ADF80C0089
:102B700001A9674808F09DF90121654808F028FD82
:102B800001221146624808F078FA0021604808F0F6
:102B9000EDFC01215E4808F055FA07B000BD00B514
:102BA00087B00121082007F0C6FD0121042007F0AD
:102BB000B5FD0320ADF8000004208DF80300694640
:102BC000504807F0EFFA04A808F00CFA0020ADF81E
:102BD00010004FF6FF70ADF814000020ADF816009D
:102BE000ADF8120004A94B4807F0D0FE00231A46A6
:102BF0000321484808F0D9FA01A808F006FA0A208B
:102C0000ADF80C0001A9434808F053F901214148EF
:102C100008F0DEFC012211463E4808F02EFA0021A1
:102C20003C4808F0A3FC01213A4808F00BFA07B031
:102C300000BD0146012906D003290DD0042914D076
:102C4000052924D11AE02E4A2432128810B200221B
:102C50002B4B24331A801CE02B4A2432128810B2EA
:102C60000022294B24331A8013E0294A2432128887
:102C700010B20022264B24331A800AE0254A24325F
:102C8000128810B20022234B24331A8001E0002066
:102C900000BF00BF70471A48103000881848103035
:102CA000008820F00100164910310880704716484E
:102CB0001030008814481030008820F001001249BC
:102CC00010310880704712481030008810481030CA
:102CD000008820F001000E491031088070470D482F
:102CE000103000880B481030008820F0010009499E
:102CF0001031088070470000C00016000018014025
:102D0000002C01400008014000040040000C01407C
:102D100000080040000C004008B50121582007F0D1
:102D2000FDFC0320ADF8000010208DF80300032007
:102D30008DF802006946FE4807F034FA0320ADF82A
:102D4000000010208DF8030003208DF80200694672
:102D5000F84807F027FAC320ADF8000010208DF8DE
:102D6000030003208DF802006946F34807F01AFAC1
:102D70000121EF4807F0C5FA0221ED4807F0C1FA3A
:102D80000121EC4807F0BDFA0221EA4807F0B9FA40
:102D90000121E94807F0B5FA0221E74807F0B1FA46
:102DA0004021E54807F0ADFA8021E34807F0A9FA91
:102DB00008BD2DE9F05F04460D4660422844DF4916
:102DC00008600846006809F01FFB8346DC4801687C
:102DD000584609F065FB8046D8490968D94A126807
:102DE000881A09F011FB8346D7480168584609F054
:102DF00057FB8146414609F0BBF90746D3480068B6
:102E000009F002FB8246394609F0B2F9064609F09C
:102E1000DFFACE4908600846006840F6B8318842BB
:102E200002DD0846C9490860C8480068C8498842A8
:102E300002DA0846C5490860C0480068C149086010
:102E4000C2480068BDE8F09F2DE9F05F04460D46DA
:102E500060422844BF4908600846006809F0D4FA77
:102E60008346B7480168584609F01AFB8046B949BD
:102E70000968B94A1268881A09F0C6FA8346B24846
:102E80000168584609F00CFB8146414609F070F98B
:102E90000746B248006809F0B7FA8246394609F099
:102EA00067F9064609F094FAAC49086008460068DC
:102EB00040F6B831884202DD0846A8490860A748B4
:102EC0000068A349884202DA0846A4490860A1487C
:102ED0000068A1490860A1480068BDE8F09F2DE99D
:102EE000F05F04460D46604228449D49086008464C
:102EF000006809F089FA834691480168584609F04C
:102F0000CFFA804696490968964A1268881A09F0ED
:102F10007BFA83468C480168584609F0C1FA81461D
:102F2000414609F025F907468F48006809F06CFA18
:102F30008246394609F01CF9064609F049FA8A49E1
:102F400008600846006840F6B831884202DD08464D
:102F500085490860844800687D49884202DA08464D
:102F6000814908607E4800687E4908607E480068A4
:102F7000BDE8F09F2DE9F05F04460D46604228440D
:102F80007A4908600846006809F03EFA83466C48B2
:102F90000168584609F084FA804674490968744A01
:102FA0001268881A09F030FA834667480168584663
:102FB00009F076FA8146414609F0DAF807466D488D
:102FC000006809F021FA8246394609F0D1F8064630
:102FD00009F0FEF9674908600846006840F6B83114
:102FE000884202DD08466349086062480068584923
:102FF000884202DA08465F4908605C4800685C491C
:1030000008605C480068BDE8F09F2DE9F047044681
:103010000D46601B09F0F8F9574908600846016839
:103020005648006809F0A4F85449086054495348C8
:10303000006809F001FB02D2524850490860524929
:103040004E48006809F0F8F902D250484B49086030
:103050004F4801684848006809F020FB80464D4809
:103060000168404609F01CFA06464B494B48006887
:1030700009F0ECF8824641480168504609F010FA20
:1030800080463D4801684648006809F009FA8146D3
:10309000414609F06DF80746314609F069F84149A3
:1030A0000860354800683A4908603E48006809F001
:1030B0008FF9BDE8F0872DE9F04704460D46601B07
:1030C00009F0A2F9384908600846016837480068E5
:1030D00009F04EF83549086029493448006809F07C
:1030E000ABFA02D227483149086027492F480068C7
:1030F00009F0A2F902D225482C4908602C48016841
:103100002948006809F0CAFA80462248016840460A
:1031100009F0C6F9064620492048006809F096F8EB
:10312000824622480168504609F0BAF9804641E0DB
:10313000000C01400010014000180140041500205F
:10314000740000200C1500207000002008150020DD
:1031500048F4FFFF1015002018150020141500205A
:103160001C15002024150020201500202815002003
:10317000301500202C150020341500203C150020AF
:103180000050C34700401C460050C3C700401CC647
:10319000401500206C0000200000C842680000209C
:1031A0006400002038150020441500204C15002034
:1031B00050150020AD480168AD48006809F070F96D
:1031C0008146414608F0D4FF0746314608F0D0FF5B
:1031D000A8490860A5480068A7490860A548006894
:1031E00009F0F6F8BDE8F0872DE9F04704460D46F2
:1031F000601B09F009F9A149086008460168A04868
:10320000006808F0B5FF9E4908609E499C48006828
:1032100009F012FA02D29C48994908609B499848E3
:10322000006809F009F902D299489549086099485F
:1032300001689248006809F031FA804696480168B2
:10324000404609F02DF9064694499548006808F073
:10325000FDFF82468A480168504609F021F9804600
:10326000864801688248006809F01AF9814641469B
:1032700008F07EFF0746314608F07AFF894908606A
:103280007E480068834908608648006809F0A0F815
:10329000BDE8F0872DE9F04704460D46601B09F0B4
:1032A000B3F881490860084601688048006808F062
:1032B0005FFF7E49086073497C48006809F0BCF9EB
:1032C00002D271487949086070497848006809F06D
:1032D000B3F802D26E4875490860754801687248B3
:1032E000006809F0DBF980466B480168404609F048
:1032F000D7F8064669496A48006808F0A7FF824681
:103300006A480168504609F0CBF880466648016873
:103310005748006809F0C4F88146414608F028FF84
:103320000746314608F024FF624908605E4800689D
:103330005F4908605F48006809F04AF8BDE8F08717
:103340002DE9F84F04460D465B4E5C4FDFF8708167
:10335000601B09F059F85B490860084601685A4843
:10336000006808F005FF584908605848016855484A
:10337000006809F093F98346414609F091F88146C7
:1033800051480168384609F08BF883464D4801687A
:10339000304609F085F85946009008F0E9FE82466B
:1033A000494608F0E5FE4A49086046480068474932
:1033B00008604748006809F00BF8BDE8F88F2DE970
:1033C000F84F04460D463C4E424FDFF8F480601B38
:1033D00009F01AF840490860084601683F4800684B
:1033E00008F0C6FE3D4908603D4801683A4800685B
:1033F00009F054F98346414609F052F881463748AE
:103400000168384609F04CF8834633480168304675
:1034100009F046F85946009008F0AAFE824649464F
:1034200008F0A6FE2F4908602B4800682C49086068
:103430002C48006808F0CCFFBDE8F88F4FF4967177
:1034400040F2EE22521A824202DD40F2EE22501A7F
:1034500001F2EE22824200DA10467047014600294E
:1034600001DA484200E00846704700004415002099
:10347000640000204815002050150020541500203D
:103480005C1500200050C34700401C460050C3C7D5
:1034900000401CC6601500206C0000200000C842DF
:1034A0006800002058150020641500206C150020CD
:1034B00070150020681500206666A640CDCC4C3DF6
:1034C00000004042741500207C150020801500206B
:1034D000781500208FC2753C841500208C150020C3
:1034E000901500208815002008B50C2002230090BC
:1034F00050482A2102683020FEF79DFF0C200090E2
:103500004D4801232A2102680020FEF794FF0C2079
:103510000090494801232A2142680620FEF78BFFCC
:103520000C200090444801232A2182680C20FEF7D9
:1035300082FF0C200090404801232A21C2681220FB
:10354000FEF779FF0C2000903B4801232A210269F5
:103550001820FEF770FF0C200090374801232A2125
:1035600042691E20FEF767FF0C20009032480123BD
:103570002A2182692420FEF75EFF282000902F4830
:103580000123002142680846FEF755FF28200090DD
:103590002A480123002182681420FEF74CFF2820CE
:1035A0000090264801230021C2682820FEF743FF2F
:1035B0002820009021480123002142694420FEF781
:1035C0003AFF282000901D480123002182695820DD
:1035D000FEF731FF28200090184801230021C2691E
:1035E0006C20FEF728FFFEF752FD08BD10B5032042
:1035F000FFF791F91249087000201249087012E093
:1036000000BF1148008800F040000028F9D00F48A2
:103610000C490978405C0C49091D0880094800786C
:10362000401C084908700748007805490978884215
:10363000E6DB10BD0C000020DC180020FC18002088
:10364000961500209415002000380140A81D002088
:103650000146002001220A7100224A7102228A7169
:1036600041F2D7220A6070470146002001220A7108
:1036700002224A7107228A714FF4B4620A607047CD
:10368000F8B506460C46154600276A46C221304664
:1036900005F08AFE0746012020709DF80000000911
:1036A00028703846F8BD70B504460D4600262946F8
:1036B000204603F046FE0646304670BDF8B5054686
:1036C0000C4600266A461421284605F06DFE064683
:1036D0009DF80000C0F3C30020703046F8BD70B5FF
:1036E00004460D4600262946204603F076FE06468F
:1036F000304670BD70B504460D460026294620466A
:1037000003F0CEFE0646304670BD70B504460D4649
:1037100000262946204603F0F4FE0646304670BDDA
:1037200070B504460D4600262946204603F07EFF6C
:103730000646304670BD0246002092F832310B70CA
:1037400070472DE9F04104460D46164600273246E3
:103750002946204603F096F807463846BDE8F08132
:1037600070B504460D4600262946204603F0ADF804
:103770000646304670BD2DE9F84307460D46904693
:1037800000260020009000246A460121384605F0FA
:103790000BFE06469DF80040002E36D1B8F1010F11
:1037A00019D1052D13D2DFE805F00306090C0F002F
:1037B00044F010040EE044F028040BE044F004044C
:1037C00008E044F0400405E044F0800402E06FF0BB
:1037D000030600BF19E0052D13D2DFE805F003064C
:1037E000090C0F0004F0EF040EE004F0D7040BE026
:1037F00004F0FB0408E004F0BF0405E004F07F04DB
:1038000002E06FF0030600BF00BF9DF80000844295
:1038100010D02EB922460121384605F05AFD064641
:103820000EB987F830412EB9D7F81490494638467A
:10383000FFF796FF3046BDE8F88370B506460C46A4
:10384000002522460921304605F0AEFD05461DB98A
:10385000207800F001002070284670BD70B5044645
:103860000D4600262946204603F0C2F8064630469B
:1038700070BDF8B506460C4600256A460121304663
:1038800005F092FD05466DB99DF8000086F83001FF
:103890009DF8000000F0800010B10120207001E0D0
:1038A0000020207015B9217886F84C102846F8BD04
:1038B00030B503460020062903DB001F00251570E4
:1038C00003E003F128056C5C147030BD2DE9F8436A
:1038D00005460E4617464FF00008C146062E2FD269
:1038E000DFE806F00307161A1E1F6C6B4FF0000985
:1038F00029E06A464421284605F06CFD8046B8F16F
:10390000000F02D1BDF8000044024FF001091AE097
:10391000EC6B4FF0000916E02C6C4FF0000912E040
:1039200000BF6A466421284605F054FD8046B8F180
:10393000000F02D1BDF8000044024FF0000902E080
:103940006FF0030800BF00BFB8F1000F16D1B9F146
:10395000010F12D144B905F1340050F826403C6003
:1039600000210C38815509E03C6005F1340040F835
:10397000264001210C38815500E03C604046BDE8FE
:10398000F88370B504460D4600262946204601F00E
:1039900068FC0646304670BDF8B504460E46002762
:1039A0006A462021204605F015FD074677B9BDF887
:1039B000000020B9256A35600021217706E0BDF8B6
:1039C0000000C50035602562012121773846F8BD29
:1039D0007CB506460C46002501AAF821304605F0C4
:1039E000F9FC05462DB96A460421304605F008FD6C
:1039F000054655B9BDF8040028B1BDF8041000987B
:103A0000B0FBF1F020602168B16128467CBD024620
:103A10000020137C0B7070472DE9F04107460D46DE
:103A2000002429463846FFF7F2FF04462CB905F179
:103A300008013846FFF7CCFF04460CB90020287374
:103A40002CB905F110013846FFF7A6FF04462CB942
:103A500005F114013846FFF794FF0446E4B9002647
:103A600017E04CB905F1240000EB8602B1B23846EC
:103A7000FFF72CFF044300E00DE044B905F1180006
:103A80008219B1B23846FFF713FF044300E002E0A9
:103A9000761C062EE5DB00BF2CB905F13C0138464B
:103AA000FFF7E7FE044624B9291D3846FFF7D6FE86
:103AB00004462046BDE8F081F8B506460F460024CE
:103AC000002500BF01220B21304605F002FC044610
:103AD00000220B21304605F0FCFB04436A4613210B
:103AE000304605F061FC0443681CC5B29DF8000037
:103AF00000F0070018B1032D01DA002CE2D0032DED
:103B000001DB6FF00B042046F8BD2DE9F04780463D
:103B1000894617461E46DDF820A00024B9F1000FA3
:103B200002D06FF00904A0E0142F0CD1BAF1000FFD
:103B300001D1102500E001252A468421404605F0E8
:103B4000C8FB044691E0152F5AD10122FF214046BF
:103B500005F0BFFB044300221146404605F0B9FBC7
:103B600004430022FF21404605F0B3FB0443012239
:103B70008021404605F0ADFB0443022285214046EA
:103B800005F0A7FB04430422FF21404605F0A1FBFA
:103B900004430022CD21404605F09BFB0443112243
:103BA000CC21404605F095FB04430722FF21404607
:103BB00005F08FFB04430022BE21404605F089FB3F
:103BC00004430622FF21404605F083FB04430922FB
:103BD000CC21404605F07DFB04430022FF214046F6
:103BE00005F077FB04430122FF21404605F071FBFD
:103BF000044300221146404605F06BFB044334E0C9
:103C0000A4B9052E0ED2DFE806F0030507090B0064
:103C100000250AE0012508E0022506E0032504E06E
:103C2000042502E06FF00A0400BF00BF2CB92A4649
:103C30000A21404605F04DFB044664B9BAF1000F75
:103C400001D1002500E010252B46EF2284214046BB
:103C500005F081FB044614B9DA2000F8086024B9A5
:103C600000214046FFF728FF04462046BDE8F087C4
:103C70002DE9F04397B005460024402107A808F03D
:103C80006FF900200690059081460027049003906C
:103C900000260121284602F04DF8044695F81371DC
:103CA00095F81461012E05DC01D1202F02D846B908
:103CB0000C2F06D904AA03A9284601F091FD044659
:103CC00005E032463946284601F0D3FE0446DFF8C7
:103CD000D0874CB995F85091B9F1000F02D1D5F8C1
:103CE0004C8101E0DFF8B88724B94146284602F04C
:103CF000F6FE044644B90020042302460146009023
:103D00002846FFF702FF04468CB90122FF2128460E
:103D100005F0DFFA044606AA8421284605F05AFB7E
:103D200004430022FF21284605F0D3FA044324B9B6
:103D3000BDF818000001C5F8D40024B907A9284629
:103D4000FFF76AFE04464CB905A92846FFF775FD42
:103D500004461CB99DF8140085F831012CB94022A5
:103D600007A905F1100008F0A7F854B905AA012128
:103D7000284605F019FB04461CB99DF8140085F887
:103D800030012CB9002211462846FFF7F4FC044606
:103D90002CB9002202212846FFF7EDFC044614B995
:103DA000032085F832012CB902AA00212846FFF72A
:103DB000C8FC04461CB99DF80810E82041552CB9F0
:103DC00002AA01212846FFF7BCFC04461CB99DF855
:103DD0000810E02041552CB901AA0321284602F021
:103DE000A8FA044614B9E420019941512CB901AA5A
:103DF0000421284602F09DFA044614B9DC200199FA
:103E00004151204617B0BDE8F08370B504460D4619
:103E1000002625B1022D02D06FF007061DE06DB916
:103E200000228021204605F054FA0646AEB9022051
:103E300084F83201002084F833010EE00022802152
:103E4000204605F046FA06461EB92046FFF710FF49
:103E5000064616B9022084F83301304670BDF8B525
:103E600004460E4600256A468021204605F09CFA4D
:103E7000054655B99DF80000012803D1022084F8B9
:103E8000330102E0002084F833012846F8BD70B504
:103E900004460D4600262946204601F0BDF9064697
:103EA000304670BD70B505460C460026002C02DB7E
:103EB000B4F57A7F02DD6FF003060AE0A5F85241FF
:103EC000B4F57A7F05D000222021284605F017FAA4
:103ED0000646304670BD02460020B2F852310B80D3
:103EE000704702466FF06200704702466FF0620052
:103EF000704770B588B004460D4600261C2204F1B8
:103F0000500101A807F0D8FF2A4601A9204602F077
:103F100078FE0646304608B070BD2DE9F0410546F2
:103F20000C460026274604EBD770C0F347028A21CF
:103F3000284605F0CEF906463046BDE8F0812DE969
:103F4000F04105460E461446002705F1280010F8FA
:103F50000680B8F1000F03D10C3040F8264026E06F
:103F6000062E1BD2DFE806F003050D0F11126C635D
:103F700017E0C4F34F224421284605F0C0F9074654
:103F80000FE0EC630DE02C640BE000BFC4F34F22A4
:103F90006421284605F0B3F9074602E06FF00307F5
:103FA00000BF00BF1FB905F1340040F82640384675
:103FB000BDE8F0812DE9F05F04460D4616464FF04E
:103FC0000009CB460027BA46062D02DB6FF0030935
:103FD00041E02EB94FF0000B00274FF0010A06E038
:103FE00004F1340050F825B04FF0000A0127062DE7
:103FF0002DD2DFE805F003060E1114202820075506
:1040000028E0CBF34F224421204605F078F9814681
:1040100020E084F82A701DE084F82B701AE04FEA43
:104020004A604FEA10684346FE226021204605F0B0
:1040300092F981460EE04FEA0A704FEA1068434653
:10404000EF226021204605F086F9814602E06FF0FC
:10405000030900BF00BFB9F1000F09D126B9002143
:1040600004F12800415503E0012104F128004155E5
:104070004846BDE8F09F70B592B005460024012384
:10408000FE228921284605F066F904462CB9002253
:104090008821284605F01DF904460021F0204155ED
:1040A0004FF47A70A5F852014FF4C870A5F8540186
:1040B000FC48C5F85801FC48C5F8D400296202A99B
:1040C0002846FFF7A9FC044654B900208DF80800E3
:1040D0008DF80900402202A905F1100007F0ECFE5E
:1040E000642005F59A7528804FF4617068804FF45C
:1040F000FA70A8804FF42060288101202877A5F568
:104100009A7501228021284605F0E3F80443012234
:10411000FF21284605F0DDF8044300221146284619
:1041200005F0D7F8044301AA9121284605F03CF98F
:1041300004439DF8040085F83A0101220021284635
:1041400005F0C7F804430022FF21284605F0C1F816
:10415000044300228021284605F0BBF804430026D2
:1041600009E034B9B1B201222846FFF723FF044326
:1041700000E002E0761C062EF3DB00BF2CB9002223
:1041800002212846FFF716FF04462CB9002203211E
:104190002846FFF70FFF04462CB9002204212846C9
:1041A000FFF708FF04462CB9002205212846FFF737
:1041B00001FF044634B94FF4901200212846FFF75E
:1041C000BEFE044634B94FF4804201212846FFF771
:1041D000B6FE044634B94FF40C1202212846FFF70C
:1041E000AEFE04462CB9002203212846FFF7A7FEA5
:1041F00004465CB9FF2085F83001FF2201212846E2
:1042000005F067F80446012085F8320114B9002151
:1042100085F81511204612B070BD10B50346002078
:10422000012A03D1012483F8504109E00C782CB114
:10423000C3F84C11002483F8504101E06FF00300F3
:1042400010BD10B503460020D3F84C410C6093F824
:104250005041147010BD01466FF06200704738B5D0
:10426000054600240022BF21284605F032F8044606
:1042700054B900BF6A46C021284605F095F80446A7
:104280009DF800000028F5D1284605F0CFF801225E
:10429000BF21284605F01DF8044654B900BF6A4600
:1042A000C021284605F080F804469DF8000000284B
:1042B000F5D0284605F0BAF814B9002085F8320187
:1042C000204638BDF8B504460E4600276A4601214F
:1042D000204605F069F8074636B99DF8000000F061
:1042E0007F000090002505E09DF8000040F0800070
:1042F000009001259DF800200121204604F0E9FFEF
:1043000007462FB99DF8000084F8300184F84C501E
:104310003846F8BD2DE9F04704460D46002794F8CD
:104320001C80B4F85291B8F1000F01D125620EE063
:10433000B9F57A7F02D1C5F3CF0600E000263246F8
:104340002021204604F0DBFF074607B925623846E6
:10435000BDE8F087F8B507460C4600256A46F82107
:10436000384605F037F8054675B9BDF8000020B1AC
:10437000BDF8000004FB00F600E0264632460421AA
:10438000384604F0D2FF054605B9BC612846F8BDA1
:104390000246002003290BD003DC39B101290BD1DF
:1043A00005E0142905D0152906D103E000BF00BFA0
:1043B00000BF00BF117402E06FF0070000BF00BF34
:1043C00070472DE9F04107460D460024297838460C
:1043D000FFF7DEFF044624B93846A968FFF7BAFFA5
:1043E000044624B938462969FFF794FF044624B9E6
:1043F00038466969FFF74BFD0446002617E044B9CB
:1044000005F11800825DB1B23846FFF7D3FD0443D1
:1044100000E00EE04CB905F1240050F82620B1B2BE
:104420003846FFF78CFD044300E002E0761C062EC0
:10443000E5DB00BF2CB995F83C103846FFF742FF8A
:10444000044624B938466968FFF78AF904462046CD
:10445000BDE8F08170B505460C46002622460921CC
:10446000284604F036FF06460EB985F8314130463D
:1044700070BD02466FF06200704702466FF0620046
:1044800070472DE9F04104460D4616460027324696
:104490002946204602F077F807463846BDE8F08105
:1044A0009C150020856B0100A470090030B50446FE
:1044B000002000251D70052917D2DFE801F0030751
:1044C0000B0F1300C2F300151D7011E0C2F3C005FD
:1044D0001D700DE0C2F380051D7009E0C2F3801568
:1044E0001D7005E0D5091D7002E06FF0030000BFEC
:1044F00000BF30BDF8B506460F4614460025002023
:1045000000906A460121304604F04EFF05463DB951
:1045100023469DF8002039463046FFF7C7FF054681
:104520002846F8BDF8B506460C4600250020009048
:104530006A460121304604F037FF05463DB923465F
:104540009DF8002000213046FFF7B0FF05463DB939
:10455000A31C9DF8002001213046FFF7A7FF054668
:104560003DB9631C9DF8002002213046FFF79EFFF5
:1045700005463DB9E31C9DF8002003213046FFF7B6
:1045800095FF05463DB9231D9DF8002004213046C6
:10459000FFF78CFF05462846F8BD0246002005239C
:1045A0000B70704770B504460D460026294620461C
:1045B00003F057FA0646304670BD2DE9F84F054620
:1045C0008946164600BF002706EB4600C0EBC61022
:1045D0004FF4004101EBC0004FEA104A6A464946D9
:1045E000284601F0A6FE04462CB952464946284604
:1045F00001F030FF0446A4B9D5F81480414628469E
:10460000FFF7AEF8044664B149462846009A01F027
:1046100021FF074627B941462846FFF7A1F807467C
:104620003C462046BDE8F88FF8B506460F461446CE
:1046300000256A463946304601F07BFE05466DB9D5
:10464000009800020090009800F5FA704FF47A711B
:10465000B0FBF1F020602068000220602846F8BD21
:104660002DE9F04104460D460027B4F8528115B1FA
:10467000B8F57A7F01D0002600E0266AC6F3CF02A3
:104680002021204604F03BFE07462FB915B9002132
:10469000217701E0012121773846BDE8F08110B58E
:1046A00002460020137F0B7010BD2DE9F041044637
:1046B0000D461646002732462946204601F076FA76
:1046C00007463846BDE8F0812DE9F04104460D4625
:1046D0001646002732462946204601F07EFA074654
:1046E0003846BDE8F0810146002006220A80704766
:1046F0002DE9F04104460D4616460027324629466C
:10470000204603F0D8F907463846BDE8F08130B5B9
:1047100003460020062901DB001F03E003F12E05FC
:104720006C5C147030BDF0B587B004460E4615467B
:104730000027062E01DB3F1F36E0062E30D2DFE8D1
:1047400006F0030710141D26D4F8400128602AE063
:104750001C2204F15001684607F0AEFB0398286064
:1047600021E0D4F8480128601DE01C2204F150012A
:10477000684607F0A1FB0398286014E01C2204F1AE
:104780005001684607F098FB039828600BE01C2254
:1047900004F15001684607F08FFB0398286002E09F
:1047A0006FF0030700BF00BF384607B0F0BD2DE92A
:1047B000F04104460D4616460027B84605B176B9C5
:1047C0000421204601F0B6FA4FF4907050F80480AE
:1047D0004FF4C870A4F85401C4F8588103E0A4F859
:1047E0005451C4F858613846BDE8F08110B503460D
:1047F0000020B3F854410C80D3F85841146010BD28
:104800002DE9F8430746884614461D4600266A46A9
:104810000E21384604F0DEFD0646BDF80000000516
:10482000C008206056B96A460C21384604F0D2FD13
:104830000646BDF800000005C00828603046BDE807
:10484000F8832DE9FC4106460F460024DA20855DF9
:10485000012D03D0022D01D0032D2ED16B4601AACC
:1048600001213046FFF7CCFF04460198B0F57F0FD9
:1048700003D80098B0F57F0F1FD9F4B92FB1F849CC
:10488000304602F02CF9044617E00422FF2130469E
:1048900004F01FFD044300227021304604F019FD8E
:1048A00004430022FF21304604F013FD044300229C
:1048B0008021304604F00DFD04432046BDE8FC8114
:1048C0002DE9FC4106460024012701A93046FFF7E7
:1048D0009EF801228021304604F0FBFC04460122B0
:1048E000FF21304604F0F5FC044600221146304614
:1048F00004F0EFFC044696F83A219121304604F08A
:10490000E8FC044601220021304604F0E2FC0446A3
:104910000022FF21304604F0DCFC04460022802106
:10492000304604F0D6FC04469DF8040020B101286E
:1049300023D0032843D131E001220021304604F086
:10494000C8FC04460097BCB9002500BF2DB16A46DB
:104950000021304604F028FD04466D1C9DF800003F
:104960003840B84203D114B9B5F5FA6FEED3B5F5B6
:10497000FA6F01D36FF0060424E024B90121304618
:10498000FFF75FFF044602220021304604F0A1FC3D
:10499000044614B9042086F8320113E024B9012139
:1049A0003046FFF74EFF044604220021304604F053
:1049B00090FC044614B9042086F8320102E06FF03E
:1049C000070400BF00BF2046BDE8FC8138B505469E
:1049D000002469462846FFF71AF8044634B99DF8C2
:1049E000000018B92846FFF76BFF04461CB928469B
:1049F00001F01DF904462CB99DF8000010B9032000
:104A000085F83201204638BD02466FF062007047DB
:104A10002DE9F04104460D46164600270123324693
:104A20002946204600F0B6FE07463846BDE8F0812C
:104A300030B504466FF0620030BD2DE9F041044608
:104A40000D461646002732462946204600F0DEFA7B
:104A500007463846BDE8F0812DE9F04104460D4691
:104A60001646002732462946204600F063FB0746DB
:104A70003846BDE8F08170B5054600240022114695
:104A8000284604F026FC04460122FF21284604F0B3
:104A900020FC044600221146284604F01AFC044675
:104AA00000229121284604F014FC04460122002132
:104AB000284604F00EFC04460022FF21284604F09C
:104AC00008FC044614B9032085F8320124B90021FA
:104AD0002846FFF7B6FE0446204670BDF8B50546E9
:104AE0000C4600266A461321284604F05DFC064663
:104AF0009DF8000000F0070020609DF8000000F025
:104B0000180008B16FF005063046F8BD2DE9FC41EC
:104B100005460C460026DA20475D042F0DD1694674
:104B20002846FFF7DBFF06460098042802D1012043
:104B3000207013E00020207010E001AA1421284604
:104B400004F032FC06464EB99DF8040000F0010066
:104B500010B10120207001E0002020703046BDE837
:104B6000FC8102466FF0620070472DE9F04F93B070
:104B700005460C464FF000080C230AAA14212846CB
:104B800004F08CFB8046B8F1000F6BD10020A075BB
:104B900020609DF833009DF8321000EB012087B2B1
:104BA000002060609DF82F009DF82E1000EB012082
:104BB0000004C609E6609DF831009DF8301000EB56
:104BC000012080B20F900F98400220619DF82B00C9
:104BD0009DF82A1000EB01201FFA80F9A4F8149028
:104BE0009DF828001290B5F852010D9095F831B15A
:104BF0000D98B0F57A7F2AD00D98784300F5FA70B9
:104C00004FF47A7190FBF1F087B2288C80B20E904D
:104C1000287F10901098D0B10E9800FB09F0A6EBF9
:104C2000202040B9BBF1000F02D042F2B82A0DE0BB
:104C300048F6E02A0AE007FB06F10E9800FB09F0AF
:104C4000A6EB2020B1FBF0F01FFA80FA5746BBF12B
:104C5000000F08D0B8102081B807000EE07505E0FD
:104C60008F16002013E027810020E07511A84B4625
:104C70003246CDE900402846129902F023FA40EA74
:104C80000808B8F1000F02D19DF844002076B8F171
:104C9000000F20D11C2205F1500103A807F00CF9E8
:104CA0002089ADF81400E07D8DF823006089ADF80F
:104CB000160060680490E068069020690790A08A5A
:104CC000ADF82000207E8DF824001C2203A905F1F8
:104CD000500007F0F1F8404613B0BDE8F08F78B50A
:104CE00004460D460026002000906A460221204618
:104CF000FEF7DEFD06469DF8000018B1D4F8480125
:104D0000286001E06FF01D06304678BD02466FF066
:104D10006200704770B505460E4600240021284603
:104D2000FFF736FB04461CB92846FFF74FFE044642
:104D300024B931462846FFF718FF044624B900215C
:104D40002846FEF7B9FE0446204670BD0246002004
:104D5000012900D0001F70470246002001230B707C
:104D600070470246002001230B7070472DE9F84F71
:104D700082460E4617469846DDF8289000253946AB
:104D80005046FEF744FE05464DB916B16FF00905D1
:104D900005E06A460A21504604F006FB0546C5B9FF
:104DA0009DF8000000F0070005280ED2DFE800F0B3
:104DB000030507090B0000240AE0012408E002248F
:104DC00006E0032404E0042402E06FF00A0500BFBB
:104DD00000BF2DB96A468421504604F0E5FA054625
:104DE0005DB99DF8000000F0100018B9002089F8A6
:104DF000000002E0012089F8000025B988F8004091
:104E0000DA2000F80A402846BDE8F88F2DE9F0477F
:104E10000746894614461D460026C4F34B484246C1
:104E20000E21384604F06BFA06463EB9C5F34B48EE
:104E300042460C21384604F062FA06463046BDE888
:104E4000F087F8B505460E460024002000900122A8
:104E5000FF21284604F03DFA04462CB96A46042195
:104E6000284604F0A1FA04462CB90022FF21284666
:104E700004F02FFA04469DF8000030609DF8000011
:104E800050BB01228021284604F023FA0446012267
:104E9000FF21284604F01DFA044600221146284648
:104EA00004F017FA044695F83A219121284604F0B7
:104EB00010FA044601220021284604F00AFA0446AA
:104EC0000022FF21284604F004FA04460022802133
:104ED000284604F0FEF904462046F8BD02466FF06D
:104EE0006200704770B506460D4600240122FF217E
:104EF000304604F0EEF904462A464021304604F0DC
:104F0000FEF904430022FF21304604F0E2F9044395
:104F1000204670BD70B506460D4600240122FF21D3
:104F2000304604F0D6F904462A464021304604F0C3
:104F300051FA04430022FF21304604F0CAF9044329
:104F4000204670BD2DE9F04106460D460024EFB223
:104F50000122FF21304604F0BCF904463A464221C2
:104F6000304604F0B6F904430022FF21304604F035
:104F7000B0F904432046BDE8F081F8B506460D4679
:104F800000240122FF21304604F0A3F904466A46BA
:104F90004221304604F008FA04430022FF21304643
:104FA00004F097F904439DF8000028802046F8BDDE
:104FB0002DE9F04104460D461646002732462946A3
:104FC000204600F056FD07463846BDE8F0812DE941
:104FD000F04104460D461646002732462946204633
:104FE00000F0A8FD07463846BDE8F0812DE9F04104
:104FF00004460D461646002732462946204600F054
:10500000EFFB07463846BDE8F08100002DE9F74F79
:105010008EB00D460024A34600200D900C90002673
:105020000B9005B9041F24B900210E98FFF718FB57
:1050300004462CB9002203210E98FEF7BBFF04465C
:10504000002C2FD1A34600200D900C9000260B9031
:1050500021E004A90E98FFF75DFE044604B11DE0AF
:105060009DF8280098B9BDF8180058441FFA80FB35
:1050700007990C9808440C90BDF82400C11700EB68
:1050800011610A120D99114489B20D91761C0B9889
:10509000401CC0B20B900B983228DADB00BF0EB96F
:1050A0006FF00504F4BB0C98B0FBF6F003904FEAE8
:1050B0000B40B0FBF6F80D980004B0FBF6F0029040
:1050C000029800F500404FEA104905F500404FEA0C
:1050D000104AB9F1000F04D0BAF1000F01D0A84571
:1050E00001D3002712E005F500404FEA104A03986B
:1050F000B0FBF9F00190B8FBFAF0C0F580300199EF
:1051000048430190019800F50040070C1098076093
:1051100024B901210E98FFF7A3FA044614B93946C1
:105120000E9800E002E0FFF7F5F80446204611B0C3
:10513000BDE8F08F2DE9F74F8AB00E4615460024E2
:10514000A04600270020019006B9041F24B90021C1
:105150000A98FEF79CFE04462CB902AA00210A9880
:10516000FFF7C8F904462CB9002211460A98FEF749
:1051700002FB04462CB9002203210A98FEF71AFF0D
:105180000446FCB94FF0000800270020019012E00F
:1051900003A90A98FFF7BEFD044604B10EE09DF88E
:1051A000240028B9BDF8140040441FFA80F87F1C81
:1051B0000198401C019001983228E9DB00BF0FB92B
:1051C0006FF00504D4B94FEA0840B0FBF7F909F5D0
:1051D00000404FEA104A06F500404FEA104BABEB97
:1051E0000A004FF47A71484328603CB929680A984C
:1051F000416229680A98FEF74AFE044644B99DF8C0
:10520000080028B1012200210A98FEF7B4FA0446EA
:1052100020460DB0BDE8F08F2DE9F04780460C46E2
:105220004FF00009FD4EFE4F4FF4805AB44201DDAD
:10523000344602E0BC4200DA3C46002C03DBFA2094
:1052400094FBF0F504E0FA2094FBF0F000EB0A0583
:10525000AAB22821404604F052F881464846BDE8EB
:10526000F0872DE9F84306460C46002540F2FF770B
:105270004FF480586A462821304604F0ABF80546C2
:10528000BDB9BDF80000C0F30B000090BDF80000F0
:10529000B84208DDBDF80000A0EB080000B2FA211A
:1052A0004843206005E0BDF8000000B2FA21484301
:1052B00020602846BDE8F883F8B50446002507219C
:1052C000204600F037FD054625B969462046FEF721
:1052D00058FB05465DB90098A060E0680099461843
:1052E00031462046FEF7D3FD054605B966622846DD
:1052F000F8BD2DE9F04706460F4608214FF000099A
:105300004FF0FF3AC3F800A0B2FBF1FCB2FBF1FA98
:1053100001FB1A28604619E00024355C604502D183
:1053200045FA08F544460DE005F0010ABAF1000F10
:1053300006D04FF0010900FB014AC3F800A003E0CA
:105340006D10641C8C42EFD300BF401CB84202D2E7
:10535000B9F1000FE0D0BDE8F087014601208A09CD
:10536000B04B53F8223003B900207047F0B5034624
:105370000C4600200825B2FBF5F1B2FBF5F705FB62
:105380001726A14202D36FF0310007E05F5C4FF0B7
:10539000010C0CFA06FC47EA0C075F54F0BD2DE93E
:1053A000F04F044689461546DDF824800020082683
:1053B000002200218646B5FBF6F7B5FBF6FB06FB9F
:1053C0001B5A4F4501D36FF031004FF0000BC3F86B
:1053D00000B0002225E014F802C000211EE00CF00D
:1053E000010BBBF1000F16D0D3F800B00BF1010B8D
:1053F000C3F800B0BEF1000F0DD14FF0010B88F8DB
:1054000000B0022A05D2042903D24FF0000B88F81D
:1054100000B04FF0010E4FEA6C0C491CB142DED9CE
:10542000521CA7F1010B9345D5D214F807C00021F7
:105430000BE00CF0010BBBF1000F05D0D3F800B06E
:105440000BF1010BC3F800B0491C5145F1D9BDE87F
:10545000F08F70B505460C4606232246B02128463B
:1054600003F0FEFE0646304670BD70B505460C469C
:1054700006232246B021284603F010FF0646304698
:1054800070BD2DE9FF4F85B0884691461D46DDF879
:1054900050B0DDF848A00026CDF80CB05F460020E3
:1054A00004901FE003AB3A4651464846FFF721FF00
:1054B0000398401C10B96FF0310617E0039A139956
:1054C0008818FFF74AFF404502D06FF031060DE023
:1054D000039F3A4651462846FFF748FF7F1C049831
:1054E000401C0490159904988842DBD300BF16989D
:1054F000076026B929460598FFF7ABFF064696B91F
:1055000001A90598FFF7B1FF0646002408E0285DD1
:1055100001A9095D884202D06FF0310602E0641CE7
:105520005445F4D300BF304609B0BDE8F08FF0B564
:1055300087B005460E460024002795F830712CB937
:10554000C0220121284603F0C4FE044624B969465E
:105550002846FFF7DFFB04462CB90122FF2128462D
:1055600003F0B7FE04462CB93246B621284603F0B4
:1055700031FF04462CB90022FF21284603F0A9FE82
:10558000044644B93A460121284603F0A2FE0446E7
:105590000CB985F83071204607B0F0BD2DE9F84F01
:1055A00080460D4691469A46DDE90BB60D9F0024D4
:1055B000002000900122FF21404603F08AFE0443B0
:1055C00000221146404603F084FE04430022FF21DE
:1055D000404603F07EFE044375B12EB1CB21404618
:1055E0000A9A03F0E1FE0443AFB16A46EE21404659
:1055F00003F0DAFE04430EE02EB14A46CB214046CA
:1056000003F067FE044337B153468022EE21404643
:1056100003F0A1FE04430122FF2105E018CC07009E
:105620000030F8FF48180020404603F052FE0443C3
:1056300001220021404603F04CFE04430022FF21DA
:10564000404603F046FE04439DF8000000F0EF00E2
:105650008BF800002046BDE8F88F70B506460D4671
:10566000002434B945F001020021304603F031FE38
:1056700004461CB9304600F0DAFA044624B9002189
:105680003046FEF719FA04462CB90022114630467E
:1056900003F01FFE0446204670BD2DE9F04F85B093
:1056A00005460E4690461F460024A146A246A34644
:1056B0000FB195F8309102220121284603F009FE2E
:1056C000044624B900212846FFF7C7FF04468CB9D9
:1056D000B8F1010F0ED10120002104AA5B46CDE9EB
:1056E0000026CDE90210524601462846FFF756FF34
:1056F000044601E0002030704CB947B14A46012110
:10570000284603F0E6FD04460CB985F830912046A2
:1057100005B0BDE8F08F2DE9F04F85B005460E4687
:1057200090461F460024A146A246A34600200490AE
:105730000FB195F8309101221146284603F0C9FDBA
:10574000044624B940212846FFF787FF044684B960
:10575000B8F1010F0DD10020012104AA5B46CDE96B
:105760000062CDE9021052462846FFF717FF0446B3
:1057700001E0002030704CB947B14A46012128466B
:1057800003F0A7FD04460CB985F83091204605B01A
:10579000BDE8F08F2DE9F0470546894616461F46BD
:1057A0000024A04695F8308100233A464946284611
:1057B000FFF7B1FF044634B900233A463146284684
:1057C000FFF76BFF044644B942460121284603F027
:1057D00080FD04460CB985F830812046BDE8F0878D
:1057E0002DE9F74F94B0044600254FF0B40B032089
:1057F00011902C201090002600200F900E904FF456
:105800002067804681464FF0060A0C900B900A9064
:105810000990089007900690B4F83C7100BF06E02C
:10582000002104F5927000F8091009F10109D14531
:10583000F6D30122FF21204603F04BFD05462DB98A
:1058400000224F21204603F044FD05462DB92C22AD
:105850004E21204603F03DFD05462DB90022FF21D3
:10586000204603F036FD05462DB95A46B62120469E
:1058700003F02FFD05462DB900228021204603F0BC
:1058800028FD054635B9002308AA09A92046FFF7D7
:1058900081FF05468DB900260F96B0460FA91198D5
:1058A000CDE900ABCDE902600491414604F5927365
:1058B0009A1D2046FFF7E5FD0546002D44D10F9EB9
:1058C0000DA92046FFF733FE0546002D3AD1BDF85D
:1058D0003400B84236DDA94606E0002104F5927096
:1058E00000F8091009F10109D145F6D300E0761C52
:1058F0000BEB0600FFF731FD10B910988642F6D386
:105900004FF001080FA91198CDE900ABCDE9026075
:105910000491414604F592739A1D2046FFF7B1FDAC
:1059200005468DB90F9E0DA92046FFF700FE0546DE
:1059300055B9BDF83400B84206DD01200690119833
:10594000079001E04FF00008002D7CD1BDF8340035
:10595000B84278DA08F0FF00069011980790524696
:1059600004F5927112A806F0A7FABDF83410C81B0E
:10597000002801DB014600E041420B9100200A9023
:105980005DE00EAB3246514604F59570FFF7B1FC71
:105990000E98401C10B96FF0310553E00E990BEBD7
:1059A0000100FFF7DAFC404502D001200A9049E0EF
:1059B0000798401C07900E9E3246514604F592709F
:1059C000FFF7D4FC054635B9761C04F592712046E4
:1059D000FFF73FFD054605B134E00DA92046FFF76E
:1059E000A6FD054605B12DE0BDF83410C81B002802
:1059F00001DB014600E041420C91BDF83400B842A1
:105A000015DDDDE90B1088420DD912A92046FFF7FC
:105A100020FD0546524612A904F5927006F04CFA94
:105A20000798401E079001200A9008E00BE00C98B0
:105A30000B90524604F5927112A806F03DFA0A98AE
:105A400000289ED000BF85B915990798086016995F
:105A500006980870012184F815111598017884F8CA
:105A600013111698017884F81411284617B0BDE870
:105A7000F08F2DE9F04F87B0044689461646002581
:105A800000274FF0B40A4FF0060B2C20069001229D
:105A9000FF21204603F01DFC05462DB900224F21B1
:105AA000204603F016FC05462DB92C224E21204637
:105AB00003F00FFC05462DB90022FF21204603F01C
:105AC00008FC05462DB95246B621204603F001FCDC
:105AD00005464FF0000806E0002104F5927000F83A
