:020000040800F2
:10000000500C0020A9010008C11F0008991D00081C
:10001000451F0008F9150008473D000800000000D2
:10002000000000000000000000000000A32B0008FA
:10003000F11600080000000039250008ED2E000828
:10004000C3010008C3010008C3010008C301000880
:10005000C3010008C3010008C3010008C301000870
:10006000C3010008C3010008C3010008C301000860
:10007000C3010008C3010008C3010008C301000850
:10008000C3010008C3010008C3010008C301000840
:10009000C3010008C3010008C3010008C301000830
:1000A000C301000811320008C3010008C3010008A1
:1000B0002D320008313300084D330008C301000819
:1000C000C3010008C3010008C3010008C301000800
:1000D000C3010008253B0008C3010008C301000854
:1000E000C3010008C3010008C301000800F002F8C2
:1000F00000F04AF80AA090E8000C82448344AAF178
:100100000107DA4501D100F03FF8AFF2090EBAE875
:100110000F0013F0010F18BFFB1A43F0010318473B
:10012000E853000008540000103A24BF78C878C192
:10013000FAD8520724BF30C830C144BF04680C60ED
:10014000704700000023002400250026103A28BF35
:1001500078C1FBD8520728BF30C148BF0B60704739
:10016000662904F0FE84642900F060800020704756
:100170001FB500F0B9FB04000020002103F008FFC8
:10018000E0601FBD10B510BD00F0AEFC1146FFF7DA
:10019000EFFF03F079FE00F0CCFC03B4FFF7F2FFB1
:1001A00003BC03F018FE00000948804709480047D7
:1001B000FEE7FEE7FEE7FEE7FEE7FEE7FEE7FEE717
:1001C000FEE7FEE704480549054A064B7047000074
:1001D000F12E0008ED00000850060020500C002011
:1001E0005008002050080020704700000FB4044958
:1001F00010B503AA029800F065FB10BC5DF814FB73
:10020000EC0000200FB41CB5074B06AA7B446946DE
:100210000090059800F03DFB0020694600F04CFB83
:100220001CBC5DF814FB0000A90600002DE9F0419C
:100230000646002410687529314616A510D0AFF384
:100240000080002802DA404213A507E031688A07DF
:1002500001D512A502E0490704D511A5012401E04A
:10026000AFF3008000210A2206F1240709E0B0FB69
:10027000F2FCB0FBF2F302FB1C003030785418465D
:10028000491C0028F3D123462A463046BDE8F041F8
:1002900000F093B8000000002D0000002B000000CB
:1002A000200000002DE9F0474FF0000A894604467F
:1002B000C0F820A02046E1688847002876D025288D
:1002C00006D0D4E901219047206A401C2062F1E762
:1002D000E168204600258847C4F81CA00646002790
:1002E000C4F818A02A2E09D0304603F06DFD38B3AB
:1002F00004EB8708303EC8F8186019E059F8041B71
:10030000204604EB87029161E1688847012F064689
:1003100018D1E069002820DA25F020051DE0D8F882
:10032000180000EB800006EB40003038C8F81800D9
:100330002046E1688847064603F046FD0028EED1D6
:10034000012F0AD02E2E08D12046E16888477F1C55
:100350000646022F45F02005C4DBA069002803DA19
:10036000404245F00105A061E80701D025F01005E5
:10037000B6B1A6F14100192802D8203645F400652F
:100380004A463146204625604D46FFF7E9FE58B102
:10039000012806D0ED1D25F0070000F1080989E7C6
:1003A00004E005F1040985E730468AE7206ABDE8E4
:1003B000F08770477047704770472DE9F0470D464A
:1003C00099469246044600F124080168880604D53F
:1003D000E06921F01001216000E00120A84201DD68
:1003E000471B00E00027A1697A1902EB0900081AEF
:1003F000A0612078C00602D42046AFF3008000261A
:1004000008E0D4E901211AF806009047206A401C50
:10041000761C20624E45F4DB2078C0060AD52046C3
:10042000AFF3008006E0D4E9012130209047206A34
:10043000401C2062381EA7F10107F4DC07E0D4E974
:10044000012118F805009047206A401C2062281EF0
:10045000A5F10105F3DC2046AFF30080207800060B
:1004600002D50220BDE8F0870120FBE770472DE9A7
:10047000FF4F0C461E464FF0FF378BB0D2E900010C
:10048000DDF860800A908A46C1F30A5505B93D46F9
:10049000002108464FF00000BAF1000F00F44000C0
:1004A00005DA00EB80004FF4400101EA50004FEA0A
:1004B0009059B9F1010F00DDB9460A9850EA4A0097
:1004C0000ED044F61050A5F2FF3545432F14B8F175
:1004D000000F1ED07542291E1EDDC9F100021CE06E
:1004E000B8F1010F4FF0000001D0302103E0F243DA
:1004F00005E02154401CB042FBDB304600220021C5
:1005000021540B99C1F80880C1E900200FB0BDE863
:10051000F08FBD1B6D1CDEE74A4600DA694206A873
:1005200000F06CFA06AB93E8070003AB83E8070022
:1005300050460A9900F044FB8DE80700A0F50050F2
:100540001F3800900398002D09DD42F21F014A4632
:10055000084403A90390684600F0A3FD08E0A0F555
:1005600000504A461F3803A90390684600F0ADFDCD
:100570008DE807000004000C03D04FF0FF30410865
:1005800000E01046B8F1000F03D00022009215469B
:100590001EE0751E05D400F0ABF9303262556D1EB9
:1005A000F9D5B3460122084302D000227F1C04E0A3
:1005B0002078302801D100227F1E002A099786D09A
:1005C0001DE0112D07DA00F093F9303262556D1CF1
:1005D00050EA0102F5D1084302D00098C8B10EE0FC
:1005E0000021681E05E0235C625C63542254401EB7
:1005F000491C8142F7DBAB46A81B401E0990002036
:1006000004F80B000B98099AC0F80880C0E9002B89
:100610007CE711264FF0000859E72DE9F04F884696
:100620000446D21D22F0070191B0D1E90001CDE9C5
:100630000A0103F0B5FB02460B98C00F01D02D2034
:1006400007E02068810701D52B2002E0202101EA84
:10065000C000032A099001D0072A05DB0346414662
:10066000204600F08BF90BE12078800601D5E06987
:1006700000E00620B8F1650F814606D0B8F1660F9C
:1006800018D0B8F1670F70D131E00020B9F1110F27
:10069000009001DB112301E009F101030AAA01A97D
:1006A0000CA8FFF7E4FEDDE90C70002609F1010556
:1006B000834647E001204B4600904FF000470AAACE
:1006C00001A90CA8FFF7D3FEDDE90DB00C995D463A
:1006D000002610B909F101000D18B9EB050003D48B
:1006E000C0F1FF3609F10105A5EB09002BE0B9F1D6
:1006F000010F01DA4FF001090020B9F1110F00904C
:10070000484601DD112300E003460AAA01A90CA80E
:10071000FFF7ADFEDDE90C704D46002683462078DC
:1007200000070AD4AB4500DA5D4601A8012D04DDBF
:10073000411911F8011C302907D04F4502DA17F191
:10074000040F04DA012082460FE06D1EEEE7002F51
:1007500002DCED1B3E4403E0781CA84200DD7D1C5A
:10076000B81B00F1010A4FF000472078000703D4BE
:10077000AA4501DB4FF0FF3A0021B7F1004F0DF120
:1007800043088DF8431024D002202B23002F01DAD8
:100790007F422D230A21021EA0F1010000DC5FB17F
:1007A00097FBF1FC97FBF1F201FB1C7C17460CF167
:1007B000300C08F801CDEEE7A8F1010003702188A4
:1007C000090501D5452100E06521A0F1010800F8E7
:1007D000011C09980FA9A1EB0807FF1D00B101201A
:1007E000411901EBEA70A1693844081A401EA06162
:1007F0002078C00602D42046AFF30080099828B1C3
:10080000D4E901219047206A401C20622078C0066C
:1008100022D52046AFF300801EE0002E04DBB34556
:1008200002DD01A8805D00E03020D4E9012190477D
:10083000206A401C2062761CAAF101005FEA000ACF
:100840000AD100F051F8C0680168405CD4E9012188
:100850009047206A401C2062281EA5F10105DCDCBF
:1008600007E0D4E9012118F8010B9047206A401CE9
:100870002062381EA7F10107F3DC2046AFF30080A9
:10088000032011B043E6000001694A1C02610878A8
:10089000704700B58FB0CDE90131002105910549C0
:1008A0007944CDE9031011466846FFF7FBFC0FB011
:1008B00000BD0000E5FFFFFF0A6802F8010B0A60B7
:1008C00070470000074B70B50D467B44FFF7E1FF12
:1008D0000446284600F000F910B14FF0FF3070BD1B
:1008E000204670BD9F35000000487047100600206C
:1008F00030B5B0F10A024FEA900E71F100034EEAF2
:10090000817EB0EB0E0061EB91014FEA101E4EEAC2
:10091000017E10EB0E0041EB11114FEA102E4EEA52
:10092000016E10EB0E0041EB11214FEA104E4EEA22
:10093000014E10EB0E0041EB1141401841F1000156
:100940004FEAD00040EA41704FEAD10110EB800538
:100950004FEA810444EA907444EB01046D1944EBBE
:100960000404521BA3414FF0000348BF0A3200D5D4
:1009700030BD401C41F1000130BD00002DE9F041C7
:100980001F46044603260168072A01F4006004DBC1
:1009900008B116A505E016A503E008B115A500E00D
:1009A00015A521F010002060A069C01EA0610FB144
:1009B000401EA0612046AFF300804FB1D4E9012171
:1009C00038469047206A401C2062C01C206206E026
:1009D000206AFAE7D4E9012115F8010B9047761E49
:1009E000F8D22046AFF30080BDE8F0814E414E00C2
:1009F0006E616E00494E4600696E66002DE9F04753
:100A0000814616468AB0334878440DC88DE80D00FB
:100A100030487844801C03AC0DC884E80D0041F6D2
:100A20009B300844372190FBF1F290FBF1F5A5F1E2
:100A3000800501FB12041B3C02D56442012000E04A
:100A40000020DFF890A080460027FA44AAF1BE0AF1
:100A50000DE0E00709D03246684607EB47010AEB94
:100A6000810100F032FB8DE8070064107F1C002C30
:100A7000EFD1184F7F44AC3F18E0E80714D007EBE4
:100A800004100DF1180A90E80E008AE80E00C06804
:100A9000F04201D198190890324606A903A800F047
:100AA00014FB03AB83E807006D10641C002DE4D138
:100AB00032466946B8F1000F03A802D000F0F1FAFF
:100AC00001E000F002FBC9E90001C9F808200AB002
:100AD000BDE8F087784A0000007B00F08000704796
:100AE00000487047F00500207546FFF7F9FFAE4655
:100AF00005006946534620F00700854618B020B52A
:100B0000FFF760FBBDE820404FF000064FF0000704
:100B10004FF000084FF0000B21F00701AC46ACE8A5
:100B2000C009ACE8C009ACE8C009ACE8C0098D4612
:100B300070470446AFF300802046FFF72EFB00000D
:100B40004FF0013C50F8042B51F8043B9A4221D15C
:100B5000A2EB0C03934313EACC1317D150F8042BE8
:100B600051F8043B9A4215D1A2EB0C03934313EACC
:100B7000CC130BD150F8042B51F8043B9A4209D105
:100B8000A2EB0C03934313EACC13DBD04FF000002D
:100B9000704700BFD01A01BAB1FA81F101F0180113
:100BA00022FA01F0CB40C1F12001DBB2C0B2C01A81
:100BB0002CFA01F3D11A914311EAC311E6D170471F
:100BC0005FEA400C08BF91F0000F4FEA8C234FEA18
:100BD000C12243EA51514FEA1C5018BF00F5F040C2
:100BE0004FEA300018BF41F000415FEA6C5C00F052
:100BF0002980BCF1FF3F08BF40F080407047130CD4
:100C000006BF12044FF0100C4FF0000C130E04BF7F
:100C100012020CF1080C130F04BF12010CF1040CAA
:100C2000930F04BF92000CF1020CD30F04BF5200CB
:100C30000CF1010C11464FF00002A0F11F00A0EBD7
:100C40000C00704711F0004F08BF704731F00041B1
:100C50003FF4D5AF0B0C06BF09044FF0100C4FF05A
:100C6000000C0B0E04BF09020CF1080C0B0F04BFA3
:100C700009010CF1040C8B0F04BF89000CF1020C6C
:100C8000CB0F04BF49000CF1010CCCF12003A0EB09
:100C90000C0022FA03F302FA0CF241EA030100F11C
:100CA0000100704720F07F4C80EA030023F07F476B
:100CB000ACEB070303F57C5300F0004003F1FF03A6
:100CC0002DE980494FEA154B09B44FEA144325EA50
:100CD0000B4E24EA03480FF2042606EB13274908BB
:100CE0003E785FEA320203FB0667C7F5000707FBA1
:100CF00006F64FEA54374FEAD64606F1020607FBDE
:100D0000066CCCF1005C4FEA1C472CEA074C07FB51
:100D100006F40CFB06F504EB15464FEA961634BFB5
:100D200000204FF000404FEAD13706FB07FC4FEAA6
:100D30001C4C0CFB0BF7D21B03FB0CF761EB070100
:100D40000CFB0EF7B0EB074072EB17420CFB08F7F9
:100D500034BFA2EB0742B2EB074261EB17414FEA07
:100D60000C444FEA910706FB07FC4FEA1C4C0CFBB6
:100D70000BF7B0EBC74072EB573203FB0CF734BFF5
:100D8000A2EBC742B2EBC74261EB57310CFB0EF747
:100D9000B0EBC70072EB57720CFB08F734BFA2EB45
:100DA000C702B2EBC70261EB5771039F4FEA816143
:100DB00041EA921104EBCC044FEAD1374FEA826248
:100DC00006FB07FC42EA90124FEA80604FEA1C4C97
:100DD0000CFB0BF7D21B03FB0CF761EB07010CFBC1
:100DE0000EF7B0EB074072EB17420CFB08F734BF6D
:100DF000A2EB0742B2EB074261EB17414FEA8C5579
:100E00004FEA910704EB9C2406FB07FC4FEA1C4CBD
:100E10000CFB0BF7B0EBC74072EB573203FB0CF740
:100E200034BFA2EBC742B2EBC74261EB57310CFBB8
:100E30000EF7B0EBC70072EB57720CFB08F734BF2C
:100E4000A2EBC702B2EBC70261EB577115EB4C2561
:100E50004FEA816141EA92114FEA82624FEAD1374B
:100E600042EA901206FB07FC44F100044FEA80605E
:100E70004FEA1C4C0CFB0BF7D21B03FB0CF761EB8E
:100E800007010CFB0EF7B0EB074072EB17420CFBAF
:100E900008F734BFA2EB0742B2EB074261EB174100
:100EA00015EB1C154FEA813141EA92414FEA82323B
:100EB00042EA90424FEA80304FEA0C7644F1000457
:100EC00048EA03434EEA0B484FF0000EB2EB080C21
:100ED00071EB030724BF624639464EEB0E0E4FF00E
:100EE000000B0018524149414BEB0B0BB2EB080CC5
:100EF00071EB03077BF1000B24BF624639464EEBD2
:100F00000E0E4FF0000B0018524149414BEB0B0BFA
:100F1000B2EB080C71EB03077BF1000B24BF6246B8
:100F200039464EEB0E0E51EA020718BF46F0010695
:100F300016EB0E7655F1000254F1000103D5BDE821
:100F40008901BDE80088BDE88901BDE80048B619FF
:100F5000524141EB0101A3F10103704780807F7E84
:100F60007D7C7B7A7978777676757473727171701F
:100F70006F6E6E6D6C6C6B6A6A69686867666665D1
:100F80006464636362616160605F5F5E5E5D5D5C5F
:100F90005C5B5B5A5A5959585857575656555555D0
:100FA0005454535352525251515050504F4F4F4E30
:100FB0004E4D4D4D4C4C4C4B4B4B4A4A4A4949497E
:100FC00048484847474747464646454545444444C0
:100FD000444343434342424242414141002B26D4D1
:100FE000770021D01CB54FEA370703B44FF010004B
:100FF0004FF010014FF000000FBCBDE810400BF1A6
:10100000010BBBF1010F08BF5FEA170722BF12F106
:10101000010211F101014FF0004143F1000300F022
:10102000004043EA00007047F9D35708DAE746EA80
:10103000064613F1400F4FEA16461FDD13F1200F4D
:10104000DFBF16430A46002120335B42C8D0C3F1FC
:10105000200746EA064602FA07F74FEA164646EA2E
:101060000706C3F1200722FA03F201FA07F721FA73
:1010700003F14FF0000342EA0702B1E746EA020635
:1010800046EA06464FEA164646EA0106BCBF46EA6D
:101090000646360C4FF000034FF000024FF00001FF
:1010A0009EE72DE9C048934630B491E8380007C860
:1010B00031EA400C48BF34EA430C03D5FFF7F2FD98
:1010C000FFF78CFFF0BCBDE800882DE9C0489346CF
:1010D00030B491E8380007C810F0804F08BF13F013
:1010E000804F03D100F005F8FFF778FFF0BCBDE8B2
:1010F000008820F07F4780EA030023F07F4C07EB55
:101100000C03A3F57C5300F00040A3F1FE0392F022
:10111000000F00F0B38095F0000F00F077802DE90C
:1011200001494FEA11404FEA144621EA004800FB0A
:1011300006FC24EA064708FB06F607FB08F800FB56
:1011400007F718EB06484CEB164C4FEA124B18EB1E
:1011500007484FEA15464CEB174022EA0B4E0BFBB3
:1011600006FC25EA06470EFB06F607FB0EFE0BFB08
:1011700007F71EEB064E4CEB164C4FF000061EEB2D
:10118000074E4CEB174B18EB0B0840F1000018EB27
:101190000E0B58EB000840F100008F1A4FF00001D1
:1011A0003CBFC943661B14BFB5EB040C00213CBF18
:1011B000C943F61B4FEA17444EEA8E0E27EA044550
:1011C0004FEA1C4704FB07622CEA074C05FB07F7B4
:1011D0000CFB05F604FB0CFC16EB074642EB174232
:1011E00016EB0C4642EB1C421BEB060658EB0202C8
:1011F000414146EA9E0601D5BDE80189B619524132
:1012000041EB0101A3F10103BDE801894FEA144557
:101210004FEA114724EA054621EA074C05FB07F48B
:1012200006FB07F70CFB06F105FB0CFC11EB074175
:1012300044EB17444FEA124711EB0C4144EB1C44BA
:1012400022EA074C05FB07F206FB07F70CFB06F644
:1012500005FB0CFC16EB074642EB174216EB0C465F
:1012600042EB1C456A1854F1000148BF7047B6199B
:10127000524141EB0101A3F10103704795F0000FCA
:1012800037D04FEA11424FEA144721EA024624EAD6
:10129000074C02FB07F106FB07F70CFB06F402FB09
:1012A0000CFC14EB074441EB17414FEA154714EBD4
:1012B0000C4441EB1C4125EA074C02FB07F506FBF9
:1012C00007F70CFB06F602FB0CFC16EB074645EB9A
:1012D000174516EB0C4645EB1C42121951F1000163
:1012E00048BF7047B619524141EB0101A3F1010318
:1012F00070474FEA14454FEA114724EA054621EAB0
:10130000074C05FB07F106FB07F70CFB06F24FF055
:10131000000605FB0CFC12EB074241EB174112EBF8
:101320000C4251EB1C4148BF7047921841EB010140
:10133000A3F10103704721B1826842F0010282608B
:1013400003E0826822F001028260704710B5044613
:101350001248844208D10121401501F0AFF9002163
:10136000601501F0ABF917E00D48844208D1012166
:10137000001501F0A3F90021201501F09FF90BE001
:101380000848844208D10121C80301F097F90021DF
:101390004FF4004001F092F910BD0000002401401C
:1013A00000280140003C0140014600208A6802F00C
:1013B00004020AB1012000E0002070470146C86C19
:1013C00080B270470246002013680B400BB1012029
:1013D00000E000207047014600208A6802F0080201
:1013E0000AB1012000E000207047000030B502463D
:1013F0000020002350680F4C20400D790C6844EA0F
:1014000005242043506090680B4C2040D1E90254E1
:101410002C434D7944EA450420439060D06A20F47F
:1014200070000C7C641EE4B2234340EA0350D06297
:1014300030BD0000FFFEF0FFFDF7F1FFF0B5044600
:101440000D4600200021092D11DDE068A5F10A06F6
:1014500006EB4607072606FA07F18843A5F10A06B8
:1014600006EB460603FA06F10843E0600CE020694B
:1014700005EB4507072606FA07F1884305EB450605
:1014800003FA06F108432061072A0FDA606B561E43
:1014900006EB86071F2606FA07F18843561E06EB61
:1014A000860605FA06F10843606322E00D2A0FDA8A
:1014B000206BD61F06EB86071F2606FA07F1884326
:1014C000D61F06EB860605FA06F10843206310E0F6
:1014D000E06AA2F10D0606EB86071F2606FA07F161
:1014E0008843A2F10D0606EB860605FA06F10843CD
:1014F000E062F0BD816841F008018160704721B170
:10150000826842F4A002826003E0826822F4A002B2
:1015100082607047816841F004018160704700007B
:1015200000B587B001214FF4017001F0B7F84FF416
:10153000004001F097F81C20ADF8040000208DF861
:10154000070001A91C4800F0B0F90120ADF8040023
:1015500000208DF8070001A9184800F0A6F91848E6
:10156000FFF7F4FE002002908DF80C008DF80D00BE
:101570004FF4602004900020059001208DF81800A1
:1015800002A90F48FFF732FF01210D48FFF7D3FEF4
:101590000B48FFF7AFFF00BF0948FFF71CFF00280B
:1015A000FAD10748FFF7B6FF00BF0548FFF7FCFE7A
:1015B0000028FAD107B000BD00080140000C01402E
:1015C0000024014008B50121042001F067F8202023
:1015D000ADF8000010208DF8030003208DF8020004
:1015E0006946044800F061F92021024800F03BFA06
:1015F00008BD00000008014000BFFEE72DE9F84FDC
:1016000005460E460024002717491848006803F0D5
:1016100035F983461649304603F030F959460090B3
:1016200003F002F882464FF07C5102F08FFF8146B2
:1016300003F0BCF88046A5EB0807384603F0D2F863
:1016400081460C480EC8484600F0B8FF044641F2F7
:101650008830844201DD044603E00748844200DA12
:1016600004462046BDE8F88F0000C84278000020FC
:10167000008084448800002078ECFFFF2DE9F041D1
:10168000054600242E46304603F0ACF807460948CC
:101690000EC8384600F052FF044641F288308442BA
:1016A00001DD044603E00448844200DA0446204693
:1016B000BDE8F0819400002078ECFFFF10B5102207
:1016C00009490A4801F0D2F90748407850B1064864
:1016D000C07838B10448407920B10348C07908B1D6
:1016E000012010BD0020FCE70801002000FC0008DC
:1016F000704710B500F002F810BD000000B587B0CB
:101700000121022000F0BAFF0121042000F0C6FFF1
:10171000C020ADF8000004208DF8030069461C4885
:1017200000F0C3F804A802F04FF90020ADF8100053
:101730004FF6FF70ADF814000020ADF81600ADF8BC
:10174000120004A9134802F0EDF800231A46032101
:10175000104801F0B8FE01A801F03EFF0A20ADF8E4
:101760000C0001A90B4801F0E1FE0121094801F03C
:1017700089FE01221146074801F037FF0021054884
:1017800002F0A2F80121034801F082FE07B000BD7B
:10179000000801400004004030B5044604254FF421
:1017A000302000F06FF80546042D17D10C48006971
:1017B00040F002000A49086108464461006940F0AF
:1017C000400008614FF4302000F05CF80546044802
:1017D000006941F6FD71084001490861284630BDA5
:1017E0000020024004200B49C96801F0010109B141
:1017F00001200EE00749C96801F0040109B1022087
:1018000007E00449C96801F0100109B1032000E0B4
:1018100004207047002002400348006940F0800027
:1018200001490861704700000020024070B504467D
:101830000D460426F00200F025F80646042E11D1CC
:101840000948006940F00100074908612580F0025D
:1018500000F018F806460448006941F6FE71084099
:1018600001490861304670BD00200240024803492A
:1018700048600348486070472301674500200240E4
:10188000AB89EFCD00B502460423FFF7ABFF03465B
:1018900003E0FFF7A7FF0346521E012B01D1002AE8
:1018A000F7D102B90523184600BD2DE9F0410246E3
:1018B00000250026002000230024002791F803C003
:1018C0000CF00F0591F803C00CF0100CBCF1000FE8
:1018D00003D091F802C04CEA050591F800C0BCF1B4
:1018E000000F31D0146800202BE04FF0010C0CFAEF
:1018F00000F3B1F800C00CEA03069E4220D1830039
:101900004FF00F0C0CFA03F7BC4305FA03FC4CEA4A
:10191000040491F803C0BCF1280F06D14FF0010C6C
:101920000CFA00FCC2F814C00AE091F803C0BCF144
:10193000480F05D14FF0010C0CFA00FCC2F810C0A2
:10194000401C0828D1D31460B1F800C0BCF1FF0FCF
:1019500034DD546800202EE000F1080C4FF001083F
:1019600008FA0CF3B1F800C00CEA03069E4221D13C
:1019700083004FF00F0C0CFA03F7BC4305FA03FC8D
:101980004CEA040491F803C0BCF1280F05D100F122
:10199000080C08FA0CF8C2F8148091F803C0BCF1E6
:1019A000480F07D100F1080C4FF0010808FA0CF8B5
:1019B000C2F81080401C0828CED35460BDE8F081E6
:1019C000F0B50A46002300240021002500F000465F
:1019D000B6F1004F02D11D4EF16901E01B4E716856
:1019E000C0F3034583B200F44016B6F5401F08D19A
:1019F00021F07061154E766826F07066134F7E6098
:101A000012E000F48016B6F5801F06D1032606FA10
:101A100005F4A14341F0706106E0460D360103FA7A
:101A200006F6B14341F0706122B1460D360103FA6A
:101A300006F6314300F00046B6F1004F02D1034EE6
:101A4000F16101E0014E7160F0BD00000000014055
:101A50000246002093680B400BB1012000E00020FB
:101A6000704741617047016170470000F0B585B073
:101A70000027022000F076F90546032000F072F9F5
:101A80000646042000F06EF904463A480068844295
:101A90000FDD3848046038480660601B3749096824
:101AA000014434480068C4EB4000C1EB40003449B5
:101AB000086034480068854210DD324805603248CD
:101AC0000660601B2D49096801442E480068022207
:101AD00002FB1050C1EB40002C4908602C48006804
:101AE000864201DD2A4806602F1B2A48006802282A
:101AF00021D1224807601F48006827490860214813
:101B00000068264908601C480068254908601E488E
:101B10000068244908601A480068234908601B4887
:101B200000682249086001F079F901202049086025
:101B30000020184908602346324629461DA0FEF7BA
:101B400055FB124800680E4909680F4A12680A4B93
:101B50001B68CDE90132CDE903100A480068009006
:101B60000B4803680348394602681B48FEF73EFBF2
:101B700005B0F0BD580000206400002034000020B3
:101B80006C0000205C000020680000207000002035
:101B9000600000202C000020380000203C000020C5
:101BA00044000020480000204C000020500000208D
:101BB000B401224252696768745F41443A25642047
:101BC0004D69645F41443A2564204C6566745F4109
:101BD000443A25640D0A00009C5400082DE9F047A2
:101BE000022000F0BFF80646032000F0BBF80746CD
:101BF000042000F0B7F805465048006802F0F2FDF6
:101C000082464FF07E5102F039FE8046284602F0AF
:101C1000E9FD8146414602F0FDFE27D848480068AC
:101C200002F0E0FD82464FF07E5102F027FE804632
:101C3000384602F0D7FD8146414602F0EBFE15D84A
:101C40004048006802F0CEFD82464FF07E5102F01F
:101C500015FE8046304602F0C5FD8146414602F041
:101C6000D9FE03D847F23050BDE8F087A81B3649AB
:101C70000968441835480068844203DD012034496E
:101C8000087007E0314800684042844202DA0020D0
:101C90002F4908702F480068874222DA2B480068D5
:101CA000844208DD25480068C5EB40002A490968E0
:101CB000C1EB400415E025480068844211DA24484D
:101CC000007801280DD11D490968C5EB4101224A60
:101CD0001268C2EB4100002801DB014600E04142EE
:101CE0000C461E480068874225DA184800684042C2
:101CF000844209DA13480068022101FB1060184988
:101D00000968C1EB400416E0104800684042844274
:101D100011DD0F48007870B90A490968022202FBF8
:101D200011610F4A1268C2EB4100002801DB014635
:101D300000E041424C42204696E700003800002077
:101D4000400000203C000020340000203000002033
:101D500054000020440000204C00002048000020D7
:101D60005000002010B504460723012221460948EF
:101D7000FFF764FB01210748FFF7C1FB00BF022109
:101D80000448FFF71FFB0028F9D00248FFF716FBB5
:101D900010BD00000024014000BFFEE708B501218E
:101DA000042000F07BFC4FF48050ADF80000482088
:101DB0008DF8030069460248FFF777FD08BD000073
:101DC0000008014010B52148007890B14FF48051CF
:101DD0001F48FFF73DFE60B90A2002F021F84FF4DA
:101DE00080511B48FFF734FEE0B900201749087006
:101DF00018E04FF480511648FFF72AFE012811D150
:101E00001248007870B90120104908701148008804
:101E1000282804DA00200F490880012010BD002086
:101E20000C4908800948007868B90A2001F0F8FFD9
:101E300008480088401C0749088008460088282870
:101E400001D10220EAE70020E8E70000740000204A
:101E5000000801407600002010B518490988322991
:101E60002BDD0021154A1180FFF7ACFF012819D1A5
:101E70001349096871B91349097819B90121114A3F
:101E800011701AE00F490978012916D100210D4A75
:101E9000117012E00A49096801290ED10221084A8D
:101EA00011600AE0022808D10549096829B9012111
:101EB000034A11600021044A116010BDDA000020BD
:101EC0002C000020E4000020B401224208B50121CA
:101ED000102000F0E3FB4FF40050ADF8000010209C
:101EE0008DF8030003208DF8020069460448FFF7CF
:101EF000DCFC4FF400510248FFF7B5FD08BD0000BF
:101F0000001001400B480088B0F5FA7F11DD002079
:101F1000084908800848006858B90848007801282E
:101F200007D10748006808B9012000E000200449F3
:101F300008607047D80000202C000020E40000203A
:101F4000B401224200BFFEE700B5002000F0CEFE43
:101F500000BD000008B50121082000F09FFB012111
:101F6000084600F09BFB4FF47070ADF8000018209D
:101F70008DF8030003208DF8020069460148FFF741
:101F800094FC08BD000C014010B5002141F28730DF
:101F900001F0EAF9FFF7DEFF0021084801F08BFCB1
:101FA0000021064801F089FC0021044801F087FC6B
:101FB0000021024801F085FC10BD0000000800402F
:101FC0007047000000B587B001210C2000F066FBCF
:101FD0004FF48070ADF8180010208DF81B0003201E
:101FE0008DF81A0006A93148FFF75FFC4FF48071A5
:101FF0002E48FFF736FD4FF48050ADF81800102042
:102000008DF81B0003208DF81A0006A92848FFF759
:102010004CFC4FF480512648FFF723FD4FF400405D
:10202000ADF8180028208DF81B0006A91F48FFF7FF
:102030003CFC4FF400411D48FFF713FD4FF4805165
:102040001B48FFF70EFD00F065FC0021194800F069
:10205000D5FC0020ADF804004FF48270ADF8060006
:102060000020ADF80800ADF80A00ADF80C004FF400
:102070000070ADF80E001820ADF810000020ADF88B
:1020800012000720ADF8140001A90A4800F0D0FCA6
:102090000121084800F0B2FC002007490860012037
:1020A0000649C1F8B00107B000BD000000080140BA
:1020B000000C014000380040A00121420080214274
:1020C00010B500201449086005221449302000F0A2
:1020D0002BF8052212492A2000F026F801212120A0
:1020E00000F040F80121222000F03CF81A212420C1
:1020F00000F038F82821252000F034F80F212620A0
:1021000000F030F80E21202000F02CF801200549C5
:10211000C1F8A00110BD0000A0012142FE5300083B
:1021200003540008000021422DE9F04107460C4607
:10213000154600200A490860384600F035FC804604
:10214000002605E014F8010B00F02EFC701CC6B24E
:10215000AE42F7DB0120024908604046BDE8F0814D
:10216000B081214270B505460C4600200749086041
:10217000284600F019FC0646204600F015FC012018
:102180000349C1F8B001304670BD0000B081214262
:102190000080214270B5002100230F22C47804B3CF
:1021A000154C246804F4E064C4F5E064210AC1F12C
:1021B0000403CA40447804FA03F1847814402143AC
:1021C00009010E4C0678A155047804F01F0501247E
:1021D000AC4005786D11AD0005F1E025C5F8004172
:1021E00009E0047804F01F050124AC40044D067892
:1021F000761145F8264070BD0CED00E000E400E0EB
:1022000080E100E002490143024A1160704700008A
:102210000000FA050CED00E070B50646002415E05C
:1022200004F1B001C8B200F02DF9012000F02AF944
:10223000102000F027F9002504E0304600F032F9C4
:10224000681CC5B2802DF8DB601CC4B2082CE7DB2B
:1022500070BD00000120064908600649C1F89001E0
:1022600000200349091D08600249C1F88C0170472C
:102270008C812142008021420020064908600649E5
:10228000C1F890010120034908600349C1F8900199
:10229000704700008C8121420080214210B54FF42C
:1022A000FA7001F0BDFD00F0B9F8AE2000F0EAF8D8
:1022B000002000F0E7F8102000F0E4F8402000F0E3
:1022C000E1F8812000F0DEF8CF2000F0DBF8A1205B
:1022D00000F0D8F8C82000F0D5F8A62000F0D2F819
:1022E000A82000F0CFF83F2000F0CCF8D32000F079
:1022F000C9F8002000F0C6F8D52000F0C3F880200F
:1023000000F0C0F8D92000F0BDF8F12000F0BAF8D4
:10231000DA2000F0B7F8122000F0B4F8DB2000F06B
:10232000B1F8402000F0AEF8202000F0ABF8022019
:1023300000F0A8F88D2000F0A5F8142000F0A2F815
:10234000A42000F09FF8A62000F09CF8AF2000F039
:1023500099F80020FFF760FF0021084600F07EF8A2
:1023600010BD00002DE9F04180460E4617460024BE
:102370007D013146404600F071F800BF06E00D498E
:10238000485D00F08FF86D1C601CC4B2102CF6DBA9
:10239000701CC1B2404600F061F8002406E0054917
:1023A000485D00F07FF86D1C601CC4B2102CF6DB99
:1023B000BDE8F081664B00082DE9F04304468846ED
:1023C00015464FF000090026002720E0E85D203880
:1023D00000F0FF097E2C04DD002408F1010000F06C
:1023E000FF084146204600F039F8002609E009EBD5
:1023F0004901094A02EB4101885D00F053F8701C65
:10240000C6B2062EF3DBA01DC4B2781CC7B2E85DCD
:102410000028DBD1BDE8F083E64B000808B50121B8
:10242000092000F03BF901210A48FFF7C9FA1820FA
:10243000ADF8000010208DF8030003208DF8020095
:1024400069460548FFF731FA18210348FFF70BFBEF
:1024500008BD000000023000000C014030B5044609
:102460000D4605F1B001C8B200F00CF8102141EAA8
:10247000141000F007F804F00F0141F0010000F023
:1024800001F830BD10B50446FFF7E4FE782001F0F6
:102490005DFC002001F05AFC204601F057FCFFF7DC
:1024A000EBFE10BD10B50446FFF7D4FE782001F016
:1024B0004DFC402001F04AFC204601F047FCFFF7AC
:1024C000DBFE10BD10B58EB000240E480088C82871
:1024D00016DD00200B49088000F048FCFFF77EFB6A
:1024E0000446224608A101A8FDF78CFE01AA04219A
:1024F0000120FFF761FF0948016809A0FDF776FE9A
:102500000EB010BDE2000020747261636B646174F0
:10251000653A256420202020000000001C000020D7
:10252000456E636F64655F4C6566745F414C4C3A01
:1025300025640D0A00000000704700002DE9FF4FE0
:1025400083B00446049D059E069F194804600168F7
:102550001848006801F0FAFF16490860164801683B
:102560001348006802F088FA3946029002F086F9B2
:10257000824610480168304602F080F902900C480B
:102580000168284602F07AF90190029901F0DEFF15
:102590008346514601F0DAFF814602F007F9804692
:1025A0000348006804490860404607B0BDE8F08F62
:1025B000A0000020A4000020A80000202DE9FF4F6B
:1025C00081B00446029F039DDDF81080204804601E
:1025D00001682048006801F0B9FF1E4908600846FC
:1025E0000168284602F04AF91B4908601B491A484D
:1025F000006802F00FFA05D22946184802F014F8D4
:1026000014490860164801681148006802F034FA5D
:102610004146009002F032F982460D480168384682
:1026200002F02CF900900C480168009801F08EFF30
:102630008346514601F08AFF814602F0B7F806460C
:102640000348006806490860304605B0BDE8F08FD1
:10265000B8000020BC000020C400002000409C45C1
:10266000C000002001460020034A506820F440408A
:1026700008435060704700000010024029B1064A2C
:10268000D2690243044BDA6104E0034AD26982430F
:10269000014BDA61704700000010024029B1064A80
:1026A00092690243044B9A6104E0034A92698243AF
:1026B000014B9A61704700000010024029B1064AA0
:1026C000D2680243044BDA6004E0034AD2688243D2
:1026D000014BDA60704700000010024030B5002165
:1026E0000022002400232D4D6D6805F00C0121B15E
:1026F000042905D0082923D105E0294D056022E0F1
:10270000274D05601FE0254D6D6805F47012234DBF
:102710006D6805F48034022505EB92421CB9214D09
:10272000554305600BE01D4D6D6805F400351DB186
:102730001C4D5543056002E0194D5543056002E00C
:10274000174D056000BF00BF144D6D6805F0F00126
:102750000909154D6B5C0568DD4045600F4D6D68DE
:1027600005F4E061090A104D6B5C4568DD40856049
:102770000A4D6D6805F46051C90A0B4D6B5C4568E4
:10278000DD40C560054D6D6805F44041890B074D7E
:102790006B5CC568B5FBF3F5056130BD0010024008
:1027A00000127A0000093D00F20000200201002022
:1027B00000B585B010223349334800F057F931484D
:1027C0000078000200B22F49497808442F49086078
:1027D0002C488078000200B22A49C97808442C4964
:1027E000086028480079000200B226494979084467
:1027F0002849086023488079000200B22149C9793C
:102800000844254908601F48007A000200B21D49AB
:10281000497A0844214908601A48807A000200B2C7
:102820001849C97A08441E4908601648007B00020E
:1028300000B21449497B08441A4908601148807B5A
:10284000000200B20F49C97B0844174908600846D6
:10285000006814490968124A1268104B1B68CDE9D8
:102860000132CDE903100C48006800900948036864
:1028700007480268054801680CA0FDF7B7FC05B0E1
:1028800000BD00000801002000FC0008340000200A
:1028900038000020400000203C00002044000020C0
:1028A000480000204C000020500000202564202516
:1028B0006420256420256420256420256420256467
:1028C000202564000146022904D003290BD00429E5
:1028D00017D10FE04FF08042928C10B200224FF0DF
:1028E00080439A840FE0094A128810B20022074BF5
:1028F0001A8008E0064A128810B20022044B1A809F
:1029000001E0002000BF00BF704700002404004029
:102910002408004000B587B001210820FFF7BEFE63
:1029200001218803FFF7AAFE4FF46040ADF81800BC
:1029300018208DF81B0003208DF81A0006A91848EE
:10294000FEF7B3FF4FF460411548FFF78CF8002005
:10295000ADF804004FF48270ADF806000020ADF829
:1029600008000220ADF80A000120ADF80C0040027A
:10297000ADF80E003820ADF810000020ADF81200C0
:102980000720ADF8140001A9064800F051F8012114
:10299000044800F033F8FF2000F006F807B000BD4F
:1029A000000C01400038004070B50546002405E0E9
:1029B000601CC4B2C82C01DD002070BD02210E488D
:1029C00000F028F80028F3D029460B4800F02EF834
:1029D000002405E0601CC4B2C82C01DD0020ECE737
:1029E0000121054800F016F80028F3D0024800F055
:1029F0001AF8C0B2E1E700000038004021B10288B7
:102A000042F04002028004E002884FF6BF731A4091
:102A1000028070470246002013890B400BB1012051
:102A200000E0002070470146888970478181704727
:102A300010B50022028802F441520B884C882343CF
:102A40008C882343CC8823430C8923434C8923431C
:102A50008C892343CC8923431A430280838B4FF212
:102A6000FF74234083830B8A038210BD30B5034675
:102A70000C461546002207E0184600F008F824F836
:102A800012009B1C501C82B2AA42F5DB30BD0146ED
:102A9000088870472DE9F05F80468A461746B8F1EE
:102AA000006F02D33348804501D3BDE8F09FFEF7A5
:102AB000DDFEA8F1006B4FEA9B25CBF34809C9F571
:102AC0000074A74200DC3C464DE04FF0006101EB92
:102AD00085208A142849FFF7C9FF00260BE009EB7F
:102AE0000600254931F810004FF6FF71884200D0EA
:102AF00003E0701C86B2A642F1DB00BFA6421BDADF
:102B00004FF0006101EB8520FEF746FE002608E04D
:102B10003AF8160006EB0901174A22F81100701C5A
:102B200086B2A642F4DB4FF0006101EB85208A14E7
:102B3000114900F023F804E022465146404600F0D7
:102B40001DF8A74200D10FE06D1C4FF000090AEB01
:102B5000440AA044381B87B2B7F5007F02DD4FF46A
:102B6000007400E03C46B0E700BFFEF755FE00BF32
:102B70009BE7000000000108260100202DE9F0413C
:102B800005460E461746002407E036F8141028467E
:102B9000FEF74CFEAD1C601C84B2BC42F5DBBDE808
:102BA000F081704708B501210846FFF777FD4FF423
:102BB0000060ADF8000018208DF8030003208DF8A8
:102BC000020069460648FEF770FE01210420FFF767
:102BD00065FD4FF400610248FEF745FF08BD0000A7
:102BE0000008014010B5472144F61F6000F0D0FAFC
:102BF000FFF7D8FF40F2E241014800F062FE10BD4D
:102C0000002C014010B500F001F810BD0CB50020FB
:102C1000019000903348006840F4803031490860EA
:102C200000BF3048006800F4003000900198401C5C
:102C30000190009818B90198B0F5A06FF1D129481A
:102C4000006800F4003010B10120009001E0002085
:102C500000900098012843D12348006840F01000FC
:102C6000214908600846006820F003000860084613
:102C7000006840F0020008601A484068194948603E
:102C80000846406848600846406840F480604860F4
:102C90000846406820F47C1048600846406840F4CC
:102CA000E81048600846006840F08070086000BF87
:102CB0000C48006800F000700028F9D0094840680E
:102CC00020F00300074948600846406840F00200D1
:102CD000486000BF0348406800F00C000828F9D1A4
:102CE0000CBD0000001002400020024000B5034669
:102CF000184600F005F8184600F018F800BD00006E
:102D0000002807DA41F28831074A11800144121D78
:102D1000118007E041F28831034A121D1180091A1F
:102D2000121F1180704700003C080040002807DA9D
:102D300041F28831074A11800144121F118007E0D7
:102D400041F28831034A121F1180091A121D1180A5
:102D5000704700003808004010B50446214602487C
:102D600000F0AFFD10BD0000002C01402DE9F04F38
:102D700087B0002006900820FEF7F4FF009001F0D5
:102D8000A7FA80460022124B01F04AF906460022BB
:102D9000104B01F0B1FA04464FF066320E4B01F0D1
:102DA000ABFA824601F00AF90690069801F0A2FB00
:102DB000044622460B4609A101A8FDF723FA01AA01
:102DC00006210020FFF7F8FA07B0BDE8F08F0000F9
:102DD0000000B0400000264066660A404261742050
:102DE000566F6C3A252E3166000000002DE9F04147
:102DF00005460F464FF000084FF00408002409E094
:102E000005EB0410C6B2224639463046FFF7AAFA4F
:102E1000601CC4B24445F3DBBDE8F08110B51F4827
:102E20000088000A1E4908701C48007848701D4838
:102E30000088000A88701B480078C8701A4800880B
:102E4000000A087118480078487118480088000A7C
:102E5000887116480078C87115480088000A087201
:102E600013480078487213480088000A8872114895
:102E70000078C87210480088000A08730E4800786D
:102E800048730E480088000A88730C480078C8739D
:102E900010220B48FFF7FEFD10BD0000340000209B
:102EA0000801002038000020400000203C000020E5
:102EB00044000020480000204C000020500000206A
:102EC00000FC0008042808D14FF0E021096941F016
:102ED00004014FF0E022116107E04FF0E0210969A1
:102EE00021F004014FF0E0221161704770470000AB
:102EF00010B51348006840F0010011490860084609
:102F00004068104908400E494860084600680E496C
:102F100008400B4908600846006820F480200860DB
:102F20000846406820F4FE0048604FF41F008860A7
:102F3000FFF768FE4FF000600449086010BD000014
:102F4000001002400000FFF8FFFFF6FE08ED00E071
:102F5000F0B50C46154600220021068C4FF6FE7790
:102F60003E400684028B018C4FF60C7632407E1C6C
:102F700006EA03162E433243104EB0420ED0104ED6
:102F8000B0420BD0B0F1804F08D00E4EB04205D009
:102F90000D4EB04202D00D4EB04206D14FF6FD7636
:102FA000314044F00106314305E04FF6F5763140FB
:102FB00044F00106314302830184F0BD002C01403E
:102FC000003401400004004000080040000C0040B4
:102FD000F0B50C461546002200210026078C4FF65E
:102FE000EF7C07EA0C070784028B018C4FF6FF7712
:102FF00007EA041640F6FF473A404FF6FF7707EA24
:1030000003373A434FF6FF7707EA05273A43114F54
:10301000B8420ED0104FB8420BD0B0F1804F08D05C
:103020000E4FB84205D00E4FB84202D00D4FB842F5
:1030300006D14FF6DF77394046F01007394305E0F7
:103040004FF65F77394044F010073943028301841B
:10305000F0BD0000002C014000340140000400409D
:1030600000080040000C0040F0B50C461546002258
:1030700000210026078C4FF6FF6C07EA0C07078437
:10308000828B018C4FF6FF7707EA04264FF60C7708
:103090003A404FF6FF7707EA03172F433A43114FA1
:1030A000B8420ED0104FB8420BD0B0F1804F08D0CC
:1030B0000E4FB84205D00E4FB84202D00D4FB84265
:1030C00006D14FF6FF57394046F48077394305E083
:1030D0004FF2FF57394044F48077394382830184AB
:1030E000F0BD0000002C014000340140000400400D
:1030F00000080040000C0040F0B50C4615460022C8
:1031000000210026078C4EF6FF7C07EA0C07078497
:10311000828B018C4FF6FF7707EA043640F6FF47B3
:103120003A404FF6FF7707EA05273A434FF6FF7715
:1031300007EA03373A43114FB8420ED0104FB84256
:103140000BD0B0F1804F08D00E4FB84205D00E4FD3
:10315000B84202D00D4FB84206D14DF6FF77394044
:1031600046F48057394305E047F6FF57394044F4A9
:103170008057394382830184F0BD0000002C014058
:10318000003401400004004000080040000C0040F2
:1031900030B587B005460C460121C802FFF77EFA1C
:1031A00001210420FFF77AFAADF81450ADF8104071
:1031B0000020ADF81600ADF812008DF8180004A933
:1031C000124800F0AFFB7020ADF800000120ADF810
:1031D00002000020ADF806000220ADF808006946A4
:1031E0000A4800F01BFB0821084800F053FA0121AF
:1031F000064800F03BF90121044800F055F901218F
:10320000024800F045F907B030BD0000002C014035
:1032100010B50121044800F077F918B101210248E6
:1032200000F033F910BD0000002C014010B5012161
:10323000880700F069F9002838D01D480088401C34
:103240001B4908801B480088401C1A4908801A48FE
:103250000088401C1849088018480088401C1749FD
:10326000088017480088401C1549088015480088C8
:10327000401C1449088010480088052812DB0020F3
:103280000D4908800320FFF71DFB40420E490860EE
:103290000E480068096808440C4908600A4800683C
:1032A0000B4908600121880700F0EFF810BD00000D
:1032B000D8000020DA000020DC000020DE00002022
:1032C000E0000020E2000020140000201C0000208C
:1032D000240000207FB505460C4601210846FFF773
:1032E000CDF9ADF80850ADF804400020ADF80A0063
:1032F000ADF8060001A94FF0804000F013FB012259
:103300001146900700F071F91C208DF80000002094
:103310008DF8010003208DF8020001208DF80300D4
:103320006846FEF737FF0121880700F0B1F87FBD3E
:1033300010B50121044800F0E7F818B10121024856
:1033400000F0A3F810BD00000004004010B50121FA
:10335000044800F0D9F818B10121024800F095F8AE
:1033600010BD00000008004030B589B004460D468D
:1033700001210420FFF782F9ADF81C40ADF8185088
:103380000020ADF81E00ADF81A008DF8200006A947
:10339000354800F0C7FA0121334800F067F8602093
:1033A000ADF808000120ADF80A000020ADF80C00CF
:1033B000ADF81400ADF81600ADF80E00ADF8100031
:1033C000ADF8120002A9284800F018F90821264893
:1033D00000F0BCF902A9244800F066F9082122484F
:1033E00000F012FA02A9204800F0BEF908211E4898
:1033F00000F00AFA02A91C4800F010FA08211A4845
:1034000000F04AFA2146184800F053FA0021164805
:1034100000F051FA0021144800F04FFA0021124840
:1034200000F04DFA0021104800F04BFA012211463D
:103430000D4800F0DAF81E208DF8040000208DF809
:10344000050003208DF8060001208DF8070001A873
:10345000FEF7A0FE0121044800F01AF801210248FD
:1034600000F022F809B030BD0008004021B1028808
:1034700042F08002028004E002884FF67F731A4017
:1034800002807047CA4302827047CA430282704773
:1034900021B1028842F00102028004E002884FF666
:1034A000FE731A400280704731B1B0F8442042F4F4
:1034B0000042A0F8442005E0B0F84420C2F30E0218
:1034C000A0F844207047F0B50C4615461E46002172
:1034D000002200230189028B038C4FF6F8773940D4
:1034E00021434FF6FC473A4040F201173A434FF66A
:1034F000DD773B404FF6FF7707EA06172F433B4344
:10350000018102830384F0BD30B502460020002310
:103510000024158A05EA0103958905EA010413B11F
:103520000CB1012000E0002030BD000070B5054660
:103530000C46244885420ED0234885420BD0B5F175
:10354000804F08D02148854205D02148854202D0CD
:103550002048854200D100E000BF208850B923896F
:10356000A28861882846FFF7F3FCE188284600F02E
:10357000ADF925E0208804280AD12389A288618832
:103580002846FFF725FDE188284600F0A8F917E056
:10359000208808280AD12389A28861882846FFF755
:1035A00063FDE188284600F0A7F909E02389A28895
:1035B00061882846FFF7A0FDE188284600F0A5F9BC
:1035C00070BD0000002C01400034014000040040A8
:1035D00000080040000C00400021018041800121D2
:1035E00081800021C180018170471AB183890B431A
:1035F000838102E083898B438381704770B5002407
:1036000000220023058C4FF6FE7635400584028C9F
:103610008388048B4FF68F752C40B51E2C400D8887
:103620002C43751E2A400D892A434D882A43144D88
:10363000A8420BD0134DA84208D0134DA84205D084
:10364000124DA84202D0124DA84213D14FF6F77581
:103650002A404D892A434FF6FB752A408D882A431C
:103660004FF6FF652B404FF6FF552B408D892B43BE
:10367000CD892B4383800483CD888586028470BDE9
:10368000002C014000340140004001400044014052
:10369000004801400A460021018B4FF6F77319409C
:1036A000114301837047000070B5002400220023FD
:1036B000058C4FF6EF7635400584028C8388048BA9
:1036C00048F6FF752C404FF6FF452C400D884FF60D
:1036D000FF7606EA05252C434FF6DF752A400D8953
:1036E00006EA05152A434D8806EA05152A43154DB5
:1036F000A84202D0144DA8421DD14FF67F752A4032
:103700004D894FF6FF7606EA05152A434FF6BF7539
:103710002A408D8806EA05152A434FF6FF352B40CF
:103720004FF2FF752B408D8906EA85052B43CD8925
:1037300006EA85052B4383800483CD8805870284B0
:1037400070BD0000002C0140003401400A460021F9
:10375000018B4FF2FF7319404FF6FF7303EA022308
:10376000194301837047000070B500240022002334
:10377000058C4FF6FF6635400584028C8388848B68
:103780004FF68F752C404FF6FC752C400D882C435E
:103790004FF6FF552A400D894FF6FF7606EA0525BC
:1037A0002A434D8806EA05252A43154DA84202D032
:1037B000144DA8421DD14FF2FF752A404D894FF696
:1037C000FF7606EA05252A434FF6FF352A408D8805
:1037D00006EA05252A434EF6FF752B404DF6FF7588
:1037E0002B408D8906EA05152B43CD8906EA051580
:1037F0002B4383808483CD888587028470BD00003D
:10380000002C0140003401400A460021818B4FF614
:10381000F7731940114381837047000070B500228F
:1038200000230024058C4EF6FF7635400584038C7A
:103830008488828B48F6FF752A404FF6FF452A4060
:103840000D884FF6FF7606EA05252A434DF6FF75EB
:103850002B400D8906EA05352B434D8806EA0535D0
:103860002B430B4DA84202D00A4DA84208D14BF67B
:10387000FF752C408D894FF6FF7606EA85152C439F
:1038800084808283CD88A0F84050038470BD0000FE
:10389000002C0140003401400A460021818B4FF288
:1038A000FF7319404FF6FF7303EA02231943818324
:1038B000704781857047818670470187704781878F
:1038C0007047A0F84010704781847047028B4FF614
:1038D000F3731A400283028B0A4302837047028B00
:1038E0004FF2FF331A400283028B4FF6FF7303EA55
:1038F00001231A4302837047828B4FF6F3731A40F9
:103900008283828B0A4382837047828B4FF2FF331C
:103910001A408283828B4FF6FF7303EA01231A4316
:1039200082837047002202881D4B98420ED01D4BA7
:1039300098420BD0B0F1804F08D01B4B984205D075
:103940001A4B984202D01A4B984204D14FF68F730B
:103950001A404B881A43174B984207D0164B98428F
:1039600004D04FF6FF431A40CB881A4302808B885D
:1039700083850B8803850A4B98420BD0094B9842EC
:1039800008D00E4B984205D00D4B984202D00D4BFB
:10399000984201D10B7A038601238382704700008D
:1039A000002C0140003401400004004000080040A9
:1039B000000C004000100040001400400040014096
:1039C00000440140004801404FF6FF718180002112
:1039D0000180C180418001727047000010B5094824
:1039E000008832280CDD002006490880064800685F
:1039F000012803D004480068022801D1FEF736F8F8
:103A000010BD0000E00000202C0000202DE9F04156
:103A100006460F4600240025A0463046FDF72EFE40
:103A20000446394613480068FDF7E8FD0546B4F53D
:103A3000C87F02DD4FF4C87403E014F5C87F00DAD4
:103A40000D4C41F28830854201DD054603E00B480C
:103A5000854200DA054604F2E2481FFA88F0FFF7D3
:103A60007BF92846FFF762F92846FFF749F9BDE8D8
:103A7000F08100001400002070FEFFFF78ECFFFFD3
:103A800010B500240E480088052817DD00200C49D9
:103A900008800C480078012810D1FEF79FF80446F2
:103AA00047F23050844205D1002006490870FEF7E5
:103AB0004BFA03E004492046FFF7A8FF10BD0000C1
:103AC000DE000020E40000209A99993E70B5FDF7D1
:103AD00027FDFDF7F3FD08B1FEF76AFE0B49096803
:103AE0000B4A126811440B4A1268891A0A4A126872
:103AF000881A00F077FE0546084900F095FD044657
:103B000000F054FE0649086070BD00003800002037
:103B10003C000020440000204800002000004040FD
:103B20003000002010B540F225511D4800F04AF841
:103B300010B31B4800F002F9C4B21A48008800F420
:103B40000040C8B91748008800F4804060B10A2CD2
:103B500003D000201349088020E01248008840F478
:103B600000401049088019E00D2C06D10D4800884E
:103B700040F480400B49088010E00A480088C0F3F8
:103B80000D0009490C5407480088401C054908806D
:103B900008460088C72801DD0020088010BD00000D
:103BA00000380140F00000202605002021B1828964
:103BB00042F40052828104E082894DF6FF731A407C
:103BC0008281704770B50246002400230025002042
:103BD00040F66A16B14200D100BFC1F3421501F0B0
:103BE0001F03012606FA03F3012D02D19689334003
:103BF00006E0022D02D1168A334001E0968A334056
:103C00000C12012606FA04F41688344013B10CB1E4
:103C1000012000E0002070BDF0B50346002400261E
:103C20000025002040F66A17B94200D100BF1846AF
:103C3000C1F3421401F01F06012707FA06F5012C13
:103C400001D10C3004E0022C01D1103000E014301E
:103C50001AB107682F43076002E00768AF430760A7
:103C6000F0BD00002DE9F04786B005460E46002461
:103C7000A24600BFA1460027B08900B100BF2F4671
:103C80002C8A4CF6FF700440F08804432C82AC89E7
:103C90004EF6F3100440B088318908437189084317
:103CA0000443AC81AC8A4FF6FF400440B089044322
:103CB000AC8201A8FEF712FD1F48874202D1DDF851
:103CC00010A001E0DDF80CA0A88900F4004040B18C
:103CD0000AEBCA0000EB0A1031684900B0FBF1F8AA
:103CE00007E00AEBCA0000EB0A1031688900B0FB5C
:103CF000F1F86420B8FBF0F004012009642101FB15
:103D00001089A88900F4004040B1322000EBC900BE
:103D1000B0FBF1F000F00700044308E0322000EBB4
:103D200009106421B0FBF1F000F00F0004432C8176
:103D300006B0BDE8F08700000038014001468888E1
:103D4000C0F30800704700BFFEE70000002115E047
:103D500000F080021AB101220F4B1A6002E000222B
:103D60000D4B1A6001220C4B1B1F1A6000220B4BDB
:103D7000C3F88C214206100E4A1CD1B20829E7DB99
:103D80000122054B1A60054BC3F88C210022024B1F
:103D90001B1F1A6070470000908121420080214261
:103DA000490050EAC12018BF04204A0D18BF40F056
:103DB000010040F2FF72B2EB515F08BF40F0020019
:103DC000012808BF0520704730380A2801D2012099
:103DD000704700207047014600BF704710B56FF074
:103DE0000400FFF76FF80A4800680A49B0FBF1F0D9
:103DF000094908700846007800EB4001C1EBC0108B
:103E00004FF6FF7101EAC0000449088010BD0000B0
:103E10000000002000127A00E6000020E8000020E8
:103E20000146114A12884A434FF0E0235A610022AA
:103E30009A611A46126942F001021A6100BF4FF0FE
:103E4000E022106900F001021AB100F48032002A69
:103E5000F5D04FF0E022126922F001024FF0E0238A
:103E60001A6100229A617047E800002000BF054AED
:103E7000128802F04002002AF9D0C2B2014B1B1D89
:103E80001A80704700380140FFF7A8FF4FF4A06088
:103E9000FEF7B8F94FF4E13000F02AF8FFF716FE0C
:103EA000FEF7FCF9FDF77AFFFEF710F8FDF78AFB45
:103EB000FEF76AF8FEF786F8FEF702F9FDF719FC3F
:103EC000FEF790FE00211420FEF790FF092141F635
:103ED0001F40FFF7FFF909E0FFF7D2FDFFF77EFD76
:103EE000FEF710F8FDF7B8FFFEF7ECFAF4E7000074
:103EF00010B586B00446012144F20400FEF7CEFB63
:103F00004FF40070ADF8140003208DF8160018204F
:103F10008DF8170005A91C48FDF7C7FC4FF4806019
:103F2000ADF8140004208DF8170005A91648FDF718
:103F3000BCFC25208DF8000003208DF801008DF8D1
:103F4000020001208DF803006846FEF723F9019472
:103F50000020ADF80800ADF80A00ADF80C00ADF88F
:103F600010000C20ADF80E0001A90848FFF77AFEFA
:103F7000012240F225510548FFF74EFE012103487A
:103F8000FFF714FE06B010BD0008014000380140E4
:103F900010B500290AD00878002807D005487844D1
:103FA000FCF7CEFD002801D0002010BD0248784467
:103FB00010BD00008A1500008215000021F00042AB
:103FC000A2F16052B2F5801F01F0004328BFD2F188
:103FD0007F6C0BD95FEA001C43EAC20242EB5070CF
:103FE00018BF704728BF20F001007047B2F5801F4E
:103FF000BCBF184670474FEA410C1CF5001F02D2A7
:10400000084600F002BD70B500F020FA00000089FB
:10401000FFF7F6BF4FF00040A0F5800070470000AA
:104020002DE9C04130B4DFF8A0C23CEA111418BF3A
:104030003CEA131400F0EC8081EA03051CEA111439
:1040400044EAD57418BF1CEA131500F0C780A4EB2E
:1040500005044FF0004545EAC12145EAC32341EA82
:10406000505143EA525304F17F74994204F50034ED
:104070004FEAC0204FEAC22208BF904200F09C8065
:104080004FEA13650FF24016765D4FEA134506FBC3
:1040900005F7C7F1807706FB07F74FEAD737A7FB8D
:1040A00003687642C8F58038A7FB06CE38BFA8F172
:1040B000010807FB08E64FF0000EA6FB028CE6FBAA
:1040C00003CEDCF1000CCEF1004E38BFAEF1010E94
:1040D000A6FB0C584FF000074FF00005E6FB0E87DB
:1040E000A1FB08C6A0FB07CE16EB0E0645F10005A6
:1040F000E1FB076515F1E04E7EBFA4F580345FEA71
:1041000046066D4116F1800745F100054FEA172775
:104110004FEA066647EA0567A6F1DE46B6F1805F1C
:104120004FEA15251FD9384624F0010C05EBC47160
:10413000BCF1FE6F01EB0C1102D8F0BCBDE80081B0
:1041400024425CBF01F5801E9EEAC47F02D4F0BC0D
:10415000BDE80081244238D4F0BCA1F1C041BDE8E3
:10416000004100F0C1B94FEAD22242EA43524FEA7D
:10417000D323A7FB02864FEAD02040EA415007FB39
:1041800003661EEA0E0F4FEAD12105FB026658BFF7
:10419000A6EB0056B6EB00564FEA520E4EEAC37E2F
:1041A00018EB0E0E56EB530EBDD518EB02085E4110
:1041B0007F1C55F10005B6E74FF480154FF000075E
:1041C0004FF000064FF00008ADE7F0BC4FF00000E4
:1041D00001F1C04101F00041BDE8008111EA0C1F6E
:1041E0000CEA131500D00CE013EA0C1F00F0258038
:1041F0004FF00000F0BC81EA030101F00041BDE88E
:104200000081F0BCBDE8004181EA030100F06CB917
:10421000F0BCBDE8004170B500F018F9097EFC3E25
:1042200000F007B881EA03014FF0000001F00041FF
:10423000704781EA030100F057B9F0BCBDE80041C6
:104240004FF0000021497047FFFDFBF9F7F5F4F24C
:10425000F0EEEDEBE9E8E6E4E3E1E0DEDDDBDAD821
:10426000D7D5D4D3D1D0CFCDCCCBCAC8C7C6C5C47F
:10427000C2C1C0BFBEBDBCBBBAB9B8B7B6B5B4B396
:10428000B2B1B0AFAEADACABAAA9A8A8A7A6A5A481
:10429000A3A3A2A1A09F9F9E9D9C9C9B9A99999845
:1042A0009797969595949393929191908F8F8E8EE8
:1042B0008D8C8C8B8B8A8989888887878685858475
:1042C00084838382828181800000FF070000F87F61
:1042D000B0FA80F310FA03F10AD0C3F11D0303F51D
:1042E00080634FEA41504FEA035202EBD1217047FD
:1042F0004FF0000070470000DFF848C170B51CEABD
:10430000111E1EBF1CEA13159EEA0C0F95EA0C0F36
:1043100000F06F8081EA030423EA4C134EEAD47E56
:1043200021EA4C1141F4801143F48013AE44A1FB07
:10433000024CA0FB0365AEF17F7E361955EB0C05F0
:10434000A1FB034C4CF10003A0FB021C16EB0C0676
:10435000654153F10003094218BF46F0010613F40A
:10436000007F0BD14FEA03314FEA0530340341EAB5
:10437000155140EA16506FF003020AE04FEAC321DC
:104380004FEAC520F40241EA555140EA56506FF019
:10439000020202EB2E4201EB025585EACE710AD0F1
:1043A0005FEA440C18BF24F0004450F1000041F1D2
:1043B000000120EAD47040F2FE7C624500D270BD5C
:1043C000A84214BF4FF080444FF04044002E08BF75
:1043D0000024BEF1806FA8BFA1F1C041BDE87040CC
:1043E00080F282804FF0000001F1C04101F00041F5
:1043F00070479EEA0C0F0CEA131518BF95EA0C0FD4
:1044000006D04FF0000081EA030E0EF0004170BDAF
:1044100000F01CF88900013E00F007B800F009B870
:104420004FEA430C5FEA5C5C08D081EA030100F0CC
:104430005BB84FEA410C5FEA5C5CF6D14FF00000DC
:10444000014970470000FF070000F87F0EF1020EDF
:104450002EF0030E5EF8046B364205D4012A43EBBE
:10446000030515F5001F12D8012841EB010C1CF5BE
:10447000001F0CD80ED14FEAD17C15F5001F0CEBB4
:104480004C0C0CF1020C08BF4CEBD37C04E04FF059
:10449000080C01E04FEAD37C0CEB4C0526FA05F63C
:1044A00006F00706B6F1040C06D20EEB860CBDE84A
:1044B00070404CF0010C6047DFE80CF0090B020281
:1044C0004FF000414FF00000A1F5002170BD1946EA
:1044D0001046012851EB010418BFD4F5001484BF25
:1044E000002001F0004170BD0808A0F500114FEA5E
:1044F0003101704743004FEAD30C4FEA3C0C434074
:104500001FBF40070CF1605113F0FE4F70471CF0C5
:10451000006F03D100200CF0004170470CF0004305
:1045200043EA507010B540EACC0000F028FA00BF12
:10453000000000924FEA0001FFF7D6BF4FF00041A4
:104540004FF00000A1F500217047000090EA010F34
:1045500048BF81F0004100F19682421A3CBF801AA8
:1045600089184FEAD0524FF07F4C1CEA410FA2EB62
:10457000D15318BF9CEA026F00F03B804FF0004C13
:104580004CEA00204CEA012121FA03FC10EB0C0C50
:104590001ED202F1FF325FEA1C2040EBC25038BF4E
:1045A00070471CF07F0F4FEA400C18BFBCF17F4FE3
:1045B00038BF7047C3F12003994008BF20F00100C5
:1045C000BCF17F4F38BF7047A0F1C04000F01DBA6A
:1045D0004FEA3C00000A40EBC25028BF1CF0FF0F1E
:1045E0004FEA400CE6D018BFBCF17F4F38BF704790
:1045F000EAE79CEA026F05D010EA5C0F08BF00F002
:104600000040704710B500F0BAF900BF64FBBE3E31
:10461000401058BFC0F14040491058BFC1F140415F
:104620008142EFF3008070474FF47F0C1CEAD012F8
:104630001EBF1CEAD11392EA0C0F93EA0C0F00F094
:10464000858090EA010F48BF42F4807240F4000C6C
:1046500041F400002CF07F4120F07F4000B5814202
:10466000A2EB03020FF2081CACEB504EC0F10000AD
:104670009EF800E04FEA4E0E00FB0EFC38BF4900EA
:104680004FEA2C1C02F5FA020CFB0EF34FEACE1E89
:104690004FEA112C4FEAC1210EEB635E42EB22423E
:1046A0000EFB0CFC4FEA1C5300FB03114FEA112CCC
:1046B0004FEA01310EFB0CFC4FEADC4C00FB0C1105
:1046C000C14228BF09184CEB03335DF804EB10EB33
:1046D000410143EBC250B2F57C0F38BF704729D57A
:1046E00012F0F00F1CBF00F1C04000F00040704716
:1046F000008182838485868788898B8C8D8E8F91BB
:104700009293959697999A9C9D9FA0A2A3A5A7A8DE
:10471000AAACAEB0B2B3B5B7B9BCBEC0C2C5C7C90A
:10472000CCCED1D4D7D9DCDFE2E6E9ECF0F3F7FA6E
:10473000FE0000004FEA400C0CF1807CBCF17E4F83
:1047400028BF7047B0F1C04000F05FB990EA010F98
:104750000CEAD11348BF42F48072624538BF63450A
:1047600007D213F47F0F16D080EA010000F000405A
:10477000704710B500F003F9097EFC3E00F005B863
:1047800080EA010000F00040704780EA010000F07C
:10479000004000F03AB912F47F0F04BF024870479E
:1047A00080EA010000F031B90000C07F41000B0E2B
:1047B000D3F19E0208D950F400034FEA032323FAF1
:1047C00002F048BF4042704710B500F0D8F800BF73
:1047D00049922480002070476FF0004282EA200056
:1047E0007047000010F0004148BF4042B0FA80F32B
:1047F00010FA03F2C3F19D030BD051EAC35101EB50
:104800001220530638BF704700F1010008BF20F0A6
:104810000100704750EA010C00F113801CF5000FF5
:1048200058BFBCF5000F01D48842704707D710F578
:10483000000F58BF11F5000F15D488427047894208
:1048400070471CF5000F04D5BCF5000FF7D5814269
:1048500070474FF0807C1CEB400F38BF1CEB410FC2
:1048600001D28142704710B500F089F892244900C6
:104870004FF000504FF08051FFF7CABE4FF47F0C4D
:104880001CEAD0121EBF1CEAD11392EA0C0F93EA65
:104890000C0F00F0478090EA010F48BF42F480728D
:1048A0004FF0004C4CEA00204CEA012102EB0302DD
:1048B000A0FB0113A2F50002002918BF43F0010379
:1048C0005B0028BF4FEA330342EB22425FEA132C1E
:1048D0004CEBC2502EBFBCEB436FB2F57C0F704760
:1048E0004FEA036CBCF1004F08BF20F00100B2F5A5
:1048F0007C0F38BF70470BD582F0FF0212F5803F66
:10490000C8BF704700F1C040D8BF00F000407047FA
:1049100000F5000C5FEA4C0C48BF7047B0F1C04096
:1049200000F073B890EA010F0CEAD11348BF42F4CB
:104930008072624538BF634504D280EA010000F00E
:104940000040704710B500F01AF800BF8900013E22
:1049500000F007B800F009B85FEA410C5FEA1C6C90
:1049600008D080EA010000F050B85FEA400C5FEA2E
:104970001C6CF6D14FF00040A0F5800070470EF19E
:10498000020E2EF0030E5EF8044B244204D44FEACC
:104990004102B2F17F4F11D84FEA4003B3F17F4F8C
:1049A0000CD80ED14FEAD07CB2F17F4F0CEB4C0CFF
:1049B0000CF1020C08BF4CEBD17C04E04FF0080C6A
:1049C00001E04FEAD17C0CEB4C0324FA03F404F031
:1049D0000704B4F1040C06D20EEB840CBDE81040C1
:1049E0004CF0010C6047DFE80CF0070802024FF0C2
:1049F0000040A0F5800010BD0846420018BFD2F16B
:104A0000807288BF00F0004010BDFF2141EAD05005
:104A1000C005704751EA000C00F113801CF5000F2F
:104A200058BFBCF5000F01D48142704707D711F57C
:104A3000000F58BF10F5000F15D48142704789420E
:104A400070471CF5000F04D5BCF5000FF7D5884260
:104A500070474FF0807C1CEB410F38BF1CEB400FC0
:104A600001D28842704780EA010081EA000180EAB1
:104A70000100FFF7F8BE000090EA010F48BF81F087
:104A800000413FF56AAD421A04D882F00042A0EB23
:104A9000020011444FEAD0524FF07F4C1CEA410F04
:104AA000A2EBD15318BF9CEA026F4AD04FF0004CE2
:104AB0004CEA00204CEA012121FA03FCB0EB0C0C7B
:104AC0000FD412F0FE0F36D05FEA4C001DD5001255
:104AD00040EBC25038BF70471CF03F0F18BF704703
:104AE0000BE0A2F101025FEA1C2040EBC25038BF8C
:104AF00070471CF07F0F18BF7047C3F12003994027
:104B000014BF401E20F00100704780084FEA1223B6
:104B100008BF7047B0FA80FCA2EB0C02CCF1280C65
:104B200060FA0CF093EA122F04BF00EBC2507047FA
:104B30004FEAC3707047130A5FEADC1008BF704782
:104B4000F6E79CEA026F04D010EA5C0F08BF002071
:104B5000704710B5FFF713FF40DFF63E81F00040CD
:104B60007047FBF75ABD0000FE4AAAFE9AEA83AAE4
:104B70009AFE9A2A420080609F804F4A2A1A6FBA92
:104B8000AABAEF80C00002020202C2B28E82828202
:104B900082828202020008040201FF40404040403D
:104BA0004040FF0000002424A4FEA3220022CC00E9
:104BB00000FF00000000080601FF000104040404D7
:104BC00004FF02020200101010FF1090088888886D
:104BD000FF88888808000444827F01808040432C3D
:104BE0001028468180000000000000000000002F17
:104BF000000000000700070000147F147F14002449
:104C00002A7F2A1200626408132300364955225075
:104C100000000503000000001C22410000004122AA
:104C20001C000014083E08140008083E0808000094
:104C300000A060000008080808080000606000008C
:104C4000002010080402003E5149453E0000427F0A
:104C50004000004261514946002141454B31001856
:104C600014127F10002745454539003C4A49493018
:104C700000017109050300364949493600064949D2
:104C8000291E0000363600000000563600000008DD
:104C900014224100001414141414000041221408BA
:104CA00000020151090600324959513E007C12119F
:104CB000127C007F49494936003E41414122007F34
:104CC0004141221C007F49494941007F09090901EE
:104CD000003E4149497A007F0808087F0000417F73
:104CE0004100002040413F01007F08142241007F25
:104CF00040404040007F020C027F007F0408107F8C
:104D0000003E4141413E007F09090906003E4151F4
:104D1000215E007F091929460046494949310001B1
:104D2000017F0101003F4040403F001F2040201F05
:104D3000003F4038403F00631408146300070870C8
:104D4000080700615149454300007F41410000557B
:104D50002A552A55000041417F0000040201020447
:104D60000040404040400000010204000020545434
:104D70005478007F48444438003844444420003884
:104D80004444487F00385454541800087E090102F6
:104D90000018A4A4A47C007F080404780000447DCB
:104DA0004000004080847D00007F10284400000007
:104DB000417F4000007C04180478007C08040478DB
:104DC00000384444443800FC2424241800182424C7
:104DD00018FC007C080404080048545454200004C3
:104DE0003F444020003C4040207C001C2040201CD0
:104DF000003C4030403C004428102844001CA0A047
:104E0000A07C004464544C44141414141414000082
:104E10000000000000000000000000000000000092
:104E200000F8000000000000003330000000001017
:104E30000C06100C0600000000000000000040C03E
:104E40007840C0784000043F04043F040400007030
:104E500088FC08300000001820FF211E0000F00828
:104E6000F000E018000000211C031E211E0000F0CD
:104E70000888700000001E21232419272110101615
:104E80000E00000000000000000000000000000014
:104E900000E0180402000000000718204000000293
:104EA0000418E00000000040201807000000404007
:104EB00080F0804040000202010F01020200000069
:104EC00000F0000000000101011F010101000000CD
:104ED00000000000000080B0700000000000000032
:104EE00000000000000000010101010101010000BB
:104EF0000000000000000030300000000000000052
:104F0000000080601804006018060100000000E046
:104F100010080810E000000F102020100F000010F3
:104F200010F8000000000020203F2020000000704A
:104F30000808088870000030282422213000003042
:104F40000888884830000018202020110E0000003A
:104F5000C02010F8000000070424243F240000F8BB
:104F60000888880808000019212020110E0000E0A0
:104F7000108888180000000F112020110E00003842
:104F80000808C83808000000003F0000000000705A
:104F9000880808887000001C222121221C0000E0E3
:104FA00010080810E0000000312222110F0000005C
:104FB00000C0C00000000000003030000000000011
:104FC0000080000000000000806000000000000081
:104FD000804020100800000102040810200040401A
:104FE000404040404000040404040404040000085D
:104FF0001020408000000020100804020100007012
:1050000048080808F0000000003036010000C030F9
:10501000C828E810E0000718272423140B0000001C
:10502000C038E0000000203C23020227382008F8A6
:10503000888888700000203F202020110E00C0309A
:10504000080808083800071820202010080008F871
:1050500008080810E000203F202020100F0008F86A
:105060008888E8081000203F20202320180008F836
:105070008888E8081000203F200003000000C030AE
:1050800008080838000007182020221E020008F82F
:1050900008000008F808203F210101213F200008F6
:1050A00008F8080800000020203F20200000000031
:1050B0000808F8080800C08080807F00000008F819
:1050C00088C028180800203F20012638200008F852
:1050D000080000000000203F20202020300008F8B9
:1050E000F800F8F80800203F003F003F200008F8D3
:1050F00030C00008F808203F200007183F00E010EB
:1051000008080810E0000F10202020100F0008F8F9
:1051100008080808F000203F210101010000E0100C
:1051200008080810E0000F18242438504F0008F831
:10513000888888887000203F2000030C3020007091
:105140008808080838000038202121221C0018088F
:1051500008F8080818000000203F2000000008F8A8
:1051600008000008F808001F202020201F000878F1
:10517000880000C83808000007380E010000F80851
:1051800000F80008F800033C0700073C030008187B
:1051900068808068180820302C03032C30200838E1
:1051A000C800C83808000000203F20000000100898
:1051B0000808C838080020382621202018000000E0
:1051C00000FE020202000000007F40404000000C90
:1051D00030C000000000000000010638C0000002DE
:1051E0000202FE000000004040407F00000000007E
:1051F00004020202040000000000000000000000A1
:10520000000000000000808080808080808000029C
:105210000204000000000000000000000000000088
:105220008080808000000019242222223F2008F87C
:10523000008080000000003F112020110E000000BF
:10524000008080800000000E11202020110000004E
:1052500000808088F800000E112020103F20000000
:10526000808080800000001F222222221300008004
:1052700080F0888888180020203F2020000000004F
:10528000808080808000006B94949493600008F884
:10529000008080800000203F210000203F2000800F
:1052A0009898000000000020203F2020000000000F
:1052B00000809898000000C08080807F000008F87F
:1052C000000080808000203F24022D302000000854
:1052D00008F8000000000020203F2020000080800F
:1052E000808080808000203F20003F20003F808021
:1052F000008080800000203F210000203F2000002F
:10530000808080800000001F202020201F008080DF
:1053100000808000000080FFA12020110E0000000E
:10532000008080808000000E112020A0FF808080FF
:1053300080008080800020203F21200001000000AC
:105340008080808080000033242424241900008081
:1053500080E0808000000000001F2020000080808E
:10536000000000808000001F202020103F2080804F
:1053700080000080808000010E30080601008080DF
:105380000080008080800F300C030C300F00008004
:105390008000808080000020312E0E31200080802F
:1053A00080000080808080818E701806010000805F
:1053B0008080808080000021302C2221300000007D
:1053C0000000807C020200000000003F404000001E
:1053D0000000FF00000000000000FF0000000002CD
:1053E000027C800000000040403F000000000006FA
:1053F0000101020204040000000000000000344328
:10540000101001344310100102400000000000A001
:105410000000000005400000000000C8000000007F
:105420000C4000000000409C0000000019400000FB
:105430000020BCBE0000000034400000BFC91B8E2D
:1054400000000004B5400000504BCFD06607E2CF0B
:10545000010000006C4100003E8251AADFEEA7343B
:1054600001000000D9420000DCB5A0E23A301F97ED
:10547000FFFFFFFFB4450000FD25A0C8E9A3C14F11
:10548000FFFFFFFFFF3F0000000000800000000062
:10549000FF3F00000000008000000000445F414426
:1054A0005F56414C55453A2564204C6566744D6104
:1054B000783A2564204D69644D61783A256420521C
:1054C000696768744D61783A256420204C6566747C
:1054D0005F5468657273683A25642052696768741E
:1054E0005F5468657273683A2564204C6566745F22
:1054F0005370616E3A25642052696768745F537017
:10550000616E3A25640D0A00445500080000002031
:1055100008010000280100084C560008080100207E
:10552000480B0000440100081C000000430000007C
:10553000F8FFFFFF0C0000000E0000000F0000004D
:105540002E00000000A24A0400000000000000003D
:105550000102030406070809000000000000000023
:10556000000000000000000000000000000000003B
:10557000000000000000000070FEFFFF6F0B000045
:10558000340B0000340B0000BA030000EA040000F2
:10559000B30E0000F1F4FFFF000000000000000067
:1055A00000000000000000000000000000000000FB
:1055B0000000000000000000010000004752543EBF
:1055C0006666E6BF00000000CDCC4C3F000048C23C
:1055D0000000C0C000000000CDCC4CBD00000000A9
:1055E000CDCCCCBD00000000000000000000000099
:1055F00000000000000000000000000000000000AB
:10560000000000000000000000000000000000009A
:10561000000000000000000000000000000000008A
:10562000000000000000000000000000000000007A
:10563000000000000000000000000102030401025D
:0C56400003040607080902040608000025
:04000005080001A945
:00000001FF
