:020000040800F2
:10000000A013002015480008211000082310000844
:10001000271000082B1000082F1000080000000017
:100020000000000000000000000000003310000885
:1000300035100008000000003710000839100008D3
:100040002F4800082F4800082F4800082F480008B4
:100050002F4800082F4800082F4800082F480008A4
:100060002F4800082F4800082F4800082F48000894
:100070002F4800082F4800082F4800082F48000884
:100080002F4800082F4800082F4800082F48000874
:100090002F4800082F4800082F4800082F48000864
:1000A0002F480008C11400082F4800082F480008F6
:1000B0002F4800084D250008652500082F48000836
:1000C0002F4800082F4800082F4800082F48000834
:1000D0002F4800080D42000827430008EF4400089D
:1000E0002F4800082F4800082F4800082F48000814
:1000F0002F4800082F4800082F4800082F48000804
:100100002F4800082F4800087D2500082F480008C8
:100110005946000873470008730A0008E70D0008F5
:100120002F4800082F4800082F4800082F480008D3
:1001300000F002F800F06BF80AA090E8000C82448E
:100140008344AAF10107DA4501D100F060F8AFF26B
:10015000090EBAE80F0013F0010F18BFFB1A43F0A5
:100160000103184754960000749600000A444FF0AB
:10017000000C10F8013B13F0070408BF10F8014B06
:100180001D1108BF10F8015B641E05D010F8016B4B
:10019000641E01F8016BF9D113F0080F1EBF10F8AF
:1001A000014BAD1C0C1B09D16D1E58BF01F801CBD2
:1001B000FAD505E014F8016B01F8016B6D1EF9D555
:1001C0009142D6D37047000000230024002500266A
:1001D000103A28BF78C1FBD8520728BF30C148BFAA
:1001E0000B607047642906F0F383632906F0C3842B
:1001F000002070471FB506F0B1FD0400002000216B
:1002000006F008FE401C60601FBD10B510BD06F072
:1002100080FD1146FFF7EEFF00F00EF806F0B0FD8E
:1002200003B4FFF7F2FF03BC03F07CFF30BF72B6EC
:1002300062B680F3088870471CB500BF092003F040
:1002400018FF482003F0B8FD4FF4A06004F002FB53
:100250004FF4E13003F08BFF4FF4E13004F015F878
:10026000642003F0E1FD03F05DFA01F0F5FF02F018
:1002700051F802F099F802F0E1F802F00CFA00F0FF
:10028000CDFF01F037F801F06DFE642003F0CCFDE6
:1002900003F082FC0021402003F07EFB01201023AC
:1002A000FEA20C210090002001F0ADFC01201823DB
:1002B000FDA21C210090002001F0A5FC01F0E3FA52
:1002C0004FF4FA7003F0B0FD01F000FB092141F694
:1002D0001F4001F000F94FF4E13004F0B2F84FF4A0
:1002E000E13004F067F94FF4E13004F0F2F94FF433
:1002F000967003F099FD03F08AFC03F05FFC012186
:10030000EB4806F03AF800221146EAA006F0F6FAA9
:100310004FF4967003F088FD50220121E5A006F00D
:10032000EDFA4FF4967003F07FFD08220221E1A060
:1003300006F0E4FA4FF4967003F076FD6FF01D02BC
:100340000321DCA006F0DAFA4FF4967003F06CFD9E
:1003500000220421D7A006F0D1FA4FF4967003F0E2
:1003600063FD4021002003F017FB76E301200C23FE
:10037000D2A200210090084601F045FC01F083FA6A
:1003800091E0D3498888002103F0A1FCD14908609D
:10039000002003F0C1FAD0490860002000F0BAFF45
:1003A000CE49087008460078012807D0C94800687F
:1003B000022803D0C848006801280AD1C84800684C
:1003C000401CC749086008460068072801DB012077
:1003D0000860C048006801280AD1C1480068401E72
:1003E000BF49086008460068002801DC0620086054
:1003F00001F06CFA01200C23B0A200210090084605
:1004000001F001FC00200C210123CDE90010B448CB
:1004100010210268002001F026FCB148006807287E
:100420003BD2DFE800F03A040D161F28310001200E
:100430000C23ACA210210090082001F0E4FB2CE07A
:1004400001200C23ACA210210090082001F0DBFB5E
:1004500023E001200C23ADA210210090082001F020
:10046000D2FB1AE001200C23ABA21021009008203F
:1004700001F0C9FB11E001200C23AAA21021009079
:10048000082001F0C0FB08E001200C23A8A21021E5
:100490000090082001F0B7FB00BF00BF01F0F3F9A6
:1004A000322003F0C1FC8E48006800283FF469AF99
:1004B0008A480078022808D086480068052804D0B9
:1004C000854800680D287FF45CAF01F0FFF900203B
:1004D0000C210123CDE90010814800210268084663
:1004E00001F0C1FB01200C2393A2002100901846CB
:1004F00001F089FB01F0C7F94FF4FA7003F094FCA6
:1005000001F0E4F97648006807287DD2DFE800F0C2
:100510007C04C4C3C2C1C00041F61F41312000F0B9
:1005200047FF4021002003F037FA4FE103F010F8B5
:10053000052003F079FC66498888002103F0C7FB99
:1005400064490860002000F0E5FE6449087001205D
:1005500003F0E2F960490860002003F0FBF97849F4
:1005600008605D48006809280AD1764800680A28B2
:1005700003D105207349086002E00A207149086030
:10058000554800680B2803D180206F4908600BE0B4
:10059000514800680C2804D16FF07F006A49086058
:1005A00002E0002068490860654800680E2803D012
:1005B00048480068072808D10520644908600846B3
:1005C0000021026862A006F099F95D4800681028D1
:1005D00003D040480068082809D16FF004005B4947
:1005E000086008460021026859A006F087F95448BF
:1005F0000068052803D037480068012812D1564802
:100600000068401C544900E026E208600846006883
:10061000042801DD0420086000224F4801684CA036
:1006200006F06CF946480068072803D0294800689E
:10063000042810D148480068401E47490860084611
:100640000068012801DA01200860002242480168A0
:100650003FA006F053F93A4800680F2803D01D4820
:10066000006805280AD16FF0040038490860084680
:1006700002683948016836A006F040F93048006841
:100680000D2803D013480068022871D1052065E0C9
:10069000BDE185E100E1BCE09BE069E02D2D4E432A
:1006A0004550552D2D00000043494535313000009F
:1006B0000024014053256425640D0A0057686963CE
:1006C000682050726F6772616D3F28312D362900A6
:1006D0008C07002000000020D4000020080000202B
:1006E000040000202D5053325F72656D6F746520D9
:1006F000636F6E74726F6C002D4175746F2052754C
:100700006E206F6620636875736169002D72756E67
:1007100020546573740000002D4B65792054657377
:10072000740000002D58756E6A695465737400007A
:100730002D4E6F6E6500000050726F6772616D0024
:10074000D8000020C0000020DC000020EC000020C9
:100750004D256425640D0A00E8000020FE4908606C
:1007600008460268FD480168AFF21C0006F0C6F8B2
:10077000FB4800680A2803D0FA480068032809D11A
:100780000020F5490860084604210268AFF2DC0049
:1007900006F0B4F8F2480068092803D0F148006870
:1007A000062809D12320EC49086008460421026884
:1007B000AFF2001006F0A2F8EB480078012805D14E
:1007C00001F084F80020E949086000E0AEE600BFCF
:1007D00042E10120E649086041F61F41312000F066
:1007E000E7FD41F61F41632000F00EFE0EE002F02F
:1007F00069FD642003F018FBDA480068012805D180
:1008000001F064F80020D949086000E0EFE700BF7C
:1008100022E13EE0D7498888012103F058FAD14906
:10082000086008460068012803D10021D2A006F024
:1008300065F8CC480068022803D10121CEA006F05B
:100840005DF8C8480068032803D10221CAA006F059
:1008500055F8C4480068042803D10321C6A006F057
:100860004DF8C0480068052803D10821C2A006F051
:1008700045F8052003F0D8FABE498888012103F025
:1008800026FA082805D101F021F80020B7490860B0
:1008900000E0BFE700BFDFE07FE00020B84908606C
:1008A000B849087011E0B748007800EB4000B14942
:1008B00001EB40008088B24909680844B0490860EB
:1008C000B0480078401CAF490870AE4800780A284C
:1008D000E9DBAB48006806F00DFF8146AA4906F047
:1008E0000BFE044606F07AFD07464FF06632A74B32
:1008F00006F076FC054606F0A3FAA54988600120BB
:100900000C23A4A214210090002001F07CF9012006
:100910000C21CDE90010974882880623142132204B
:1009200001F0A1F901200C239DA2002100900846AE
:1009300001F069F99649886806F0BCFE044601207A
:100940000C2106232246CDE900100021322001F0BF
:100950008AF988498888012103F0B9F90446012001
:100960000C2103462246CDE900101E21002001F093
:100970007AF900F088FF7F498888012103F0A7F900
:10098000032804D0012002F0C7FF0F2805D100F092
:100990009DFF00207549086000E07EE700BF5BE036
:1009A00041F61F41312000F003FD2FE003217F4875
:1009B000006802F07CF9002002F0AEFF7C4908607C
:1009C00008460068052804D17A480068401C794927
:1009D000086077480068072804D176480068401E00
:1009E00074490860724800680F2804D16F48006895
:1009F000401E6E4908606E4800680D2804D16B489F
:100A00000068401C6949086002F05CFCCEE70020E9
:100A10005749086041F61F41312000F0C9FC6FF0D2
:100A200063006549086041F2883003F0FDF96420F5
:100A30006249086000206049086041F2883003F094
:100A4000F3F900205D49086005E002F03BFC00215D
:100A5000084602F077F8F8E700BF87E40146084649
:100A60007D2900DD7D2011F17D0F01DA6FF07C0022
:100A700070472DE9FF5F002003900290012150484C
:100A800005F0CFF9002865D04C480068FFF7E6FF75
:100A90004A49086048480068FFF7E0FF4649086097
:100AA00048480068FFF7DAFF464908604648006892
:100AB00006F07FFB074688463F49096849423F4A9E
:100AC0001268891A3F4A1268881806F072FB0022E1
:100AD0003E4BCDE9000106F0E5F982463A46434631
:100AE00006F07EFB054606F035FB394908603648BE
:100AF000006806F05EFB82468B462F490968494232
:100B00002E4A126811442F4A1268881A06F051FBC7
:100B1000074600222D4B06F0C5F952465B46CDE94B
:100B2000000106F05DFB054606F014FB294908604C
:100B30002548006806F03DFB05460E461E4909683B
:100B400049421E4A1268891A1E4A1268881A06F01B
:100B500030FB41E015E10000EC000020E80000203F
:100B6000D800002000000020080000200400002021
:100B7000AC0000208C0700204425640D0A00000012
:100B8000E0000020E40000200000204766660A40E4
:100B9000AC020020636875736869202000000000C3
:100BA0006469616E79612020000000002801002046
:100BB000D400002024010020C8000020C400002030
:100BC00000100040DC000020C00000200000604059
:100BD000B0000020B400002007460022E74B06F0DA
:100BE00061F982462A46334606F0FAFACDE9000159
:100BF00006F0B0FAE2490860E248006806F0D9FA67
:100C0000CDE90001E04909684942E04A126811440F
:100C1000DF4A1268881806F0CCFA05460022D74B46
:100C200006F040F90746DDE9002306F0D9FA8246CE
:100C300006F090FAD7490860D748008800F40040D1
:100C4000C8B1D5480088C0F30D09002404E0D3489A
:100C5000005DD3490855641C4C45F8DB0021D04A9F
:100C6000601C11540020CC490880104605F0ECFEB1
:100C70004042CC490860CC48008800F40040C0B134
:100C8000C9480088C0F30D09002404E0C748005D8E
:100C9000C7490855641C4C45F8DB0021C44A601C58
:100CA00011540020C0490880104605F0CDFEC1490E
:100CB0000860C148008800F40040C0B1BE48008808
:100CC000C0F30D09002404E0BC48005DBC49085590
:100CD000641C4C45F8DB0021B94A601C115400200B
:100CE000B5490880104605F0AFFEB64908600120FE
:100CF00001F0EEFB4042B4490860032001F0E8FB3C
:100D0000B2490860052001F0E3FBB1490860042006
:100D100001F0DEFB4042AF490860AF480168AA48D5
:100D2000006801F005FDAD490860AD480168A748BD
:100D3000006801F048FDAB49086091480168A4488B
:100D4000006801F08BFDA849086092480168A1483D
:100D5000006801F0CEFDA5490860A04801680120A7
:100D600001F063FC9F480168022001F05EFC9E4890
:100D70000168032001F059FC9C480168042001F03F
:100D800054FC01219A4805F05DF8BDE8FF9F70B55D
:100D900005460C460BE06D1E1CB90021084601F00B
:100DA00086FF012C03D10021084602F02BF8002D0C
:100DB000F1D1002070BD00207449086072490860BC
:100DC000734908608B4908608B4908608B4908604B
:100DD0008B4908608B4908608B49086001208B496A
:100DE00008700020704710B50121894805F019F8F6
:100DF000002874D0874800680A2827D2DFE800F06E
:100E000005274570808F98999A9B64205F490860F8
:100E10005D4908604FF4967003F006F84FF4967041
:100E200003F002F80020584908604FF4967002F071
:100E3000FBFF4FF4967002F0F7FF4FF4967002F04C
:100E4000F3FFFFF7B8FF02207249086074E000204A
:100E50004E4908606FF061004B49086055480068D2
:100E600001F0A8FB64280FDA4E48006801F0A2FBED
:100E700040F29A21884207DA642044490860002041
:100E8000414908606349086056E00321642001F08D
:100E900059FE5E49087008460078F8B964203B495D
:100EA00008600020384908604FF4967002F0BCFFDB
:100EB0004FF4967002F0B8FF4FF4967002F0B4FF52
:100EC0004FF4967002F0B0FFFFF775FF0320514911
:100ED000086000BF504800680028FBD02CE038E0D4
:100EE00002216FF0630001F08DFF48490870084649
:100EF000007820B9042047490860FFF75CFF1BE039
:100F00000421642001F0D3FE4049087008460078AF
:100F100020B905203F490860FFF74DFF0CE0002194
:100F20006420FFF734FF01216420FFF730FF03E066
:100F300002E001E000E000BF00BF0121344804F0FE
:100F400081FF3648006808B9012000E000203349DD
:100F5000086010BD70B505460C460BE000BF40218F
:100F6000284605F01DF90028F9D02178284605F01B
:100F7000A9F8641C20780028F0D170BD0000604002
:100F8000B8000020C0000020C8000020C4000020DD
:100F9000DC000020BC00002010020020E80A002035
:100FA0004F020020F80000200E020020200A00203E
:100FB0006D020020F40000200C02002058090020DF
:100FC0008B020020F00000200C0000201000002008
:100FD0001400002018000020B00000208C00002029
:100FE000B400002090000020940000209800002011
:100FF00000100040340100203C0100201C010020B2
:10100000300100202001002040010020E5000020E8
:1010100000140040AC000020B802002094012342DC
:10102000704700BFFEE700BFFEE700BFFEE700BF5E
:10103000FEE7704770477047704700000CB500200E
:10104000019000906C48006840F480306A49086064
:1010500000BF6948006800F4003000900198401C0F
:101060000190009818B90198B0F5A06FF1D16248CD
:10107000006800F4003010B10120009001E0002071
:1010800000900098012843D15C48006840F01000AF
:101090005A4908600846006820F0030008600846C6
:1010A000006840F0020008605348406852494860B8
:1010B0000846406848600846406840F480604860E0
:1010C0000846406820F47C1048600846406840F4B8
:1010D000E81048600846006840F08070086000BF73
:1010E0004548006800F000700028F9D04248406888
:1010F00020F00300404948600846406840F0020084
:10110000486000BF3C48406800F00C000828F9D156
:101110000CBD10B5FFF792FF10BD10B53648006842
:1011200040F00100344908600846406834490840EE
:101130003149486008460068324908402E49086035
:101140000846006820F4802008600846406820F4C3
:10115000FE0048604FF41F008860FFF7DAFF4FF091
:1011600000602949086010BD10B500210020002250
:10117000214B5B6803F00C0121B1042906D008293A
:1011800028D107E0214B224C236027E01F4B204C45
:10119000236023E0184B5B6803F47010164B5B6808
:1011A00003F48032022303EB904022B9194B4343EE
:1011B000174C23600DE0104B5B6803F4003323B140
:1011C000144B4343124C236003E0104B4343104C39
:1011D000236003E00D4B0E4C236000BF00BF064BA5
:1011E0005B68C3F303130C4CE15C094B1B68CB40F9
:1011F000074C236010BD0000001002400020024098
:101200000000FFF8FFFFF6FE08ED00E000127A0094
:101210005001002000093D005401002008B50121C3
:10122000482003F0A1FE2020ADF8000010208DF82A
:10123000030003208DF8020069462B4803F0D8FB19
:101240002021294803F081FC2020ADF800006946E8
:10125000264803F0CDFB2021244803F076FC08BD8E
:1012600008B50121102003F07FFE0820ADF8000032
:1012700010208DF8030003208DF8020069461C48F9
:1012800003F0B6FB08211A4803F061FC08BD08B55D
:101290000121102003F068FE4FF40060ADF800005B
:1012A00010208DF8030003208DF8020069461048D5
:1012B00003F09EFB4FF400610D4803F046FC4FF431
:1012C0008050ADF8000010208DF8030003208DF849
:1012D00002006946064803F08BFB4FF48051044836
:1012E00003F035FC08BD0000000C0140001801406F
:1012F0000010014008B50121442003F035FE1C20F8
:10130000ADF8000048208DF803006946264803F038
:101310006FFB08BD10B5044614B1012023490870C5
:101320002248007848B310211F4803F0F4FB48B16D
:1013300008211D4803F0EFFB20B104211A4803F0F7
:10134000EAFBD0B9052002F06FFD002017490870B4
:101350001021154803F0DFFB08B9012010BD08215A
:10136000114803F0D8FB08B90220F7E704210E4822
:1013700003F0D1FBA8B90320F0E710210A4803F0DD
:10138000CAFB01280DD10821074803F0C4FB01283E
:1013900007D10421044803F0BEFB012801D1034911
:1013A00008700020DAE70000001801406401002006
:1013B0007FB505460C460121102003F0E2FDADF893
:1013C0000850ADF804400020ADF80A00ADF8060062
:1013D00001A9E54803F000FF01221146E24804F0AC
:1013E00072FA36208DF8000000208DF801008DF88B
:1013F000020001208DF80300684603F030FA012155
:10140000D94804F045FA7FBD7FB505460C46012159
:10141000202003F0B6FDADF80850ADF804400020E0
:10142000ADF80A00ADF8060001A9D04803F0D4FEDB
:1014300001221146CD4804F046FA37208DF800000D
:1014400001208DF8010003208DF8020001208DF8A5
:101450000300684603F003FA0121C44804F018FAB7
:101460007FBD7FB505460C460121C80203F07CFD17
:10147000ADF80850ADF804400020ADF80A008DF832
:101480000C00ADF8060001A9B94803F0A5FE012241
:101490001146B84804F017FA19208DF80000002012
:1014A0008DF8010003208DF8020001208DF8030063
:1014B000684603F0D4F90121AD4804F0E9F97FBD95
:1014C00010B50121AA4804F0ACFC18B10121A848CC
:1014D00004F0B8FC10BD30B589B005460C460121BA
:1014E000480303F041FD0121112003F03DFD4FF4BD
:1014F0007070ADF8200018208DF8230003208DF8BF
:10150000220008A99C4803F073FAADF81850ADF812
:1015100014400020ADF81A00ADF8160005A9954852
:1015200003F05AFE6020ADF804000120ADF806007B
:101530000020ADF80A00ADF80C0001A98D4803F0B9
:1015400088FE01A98B4803F0C6FE01A9894803F073
:101550000FFF01A9874803F056FF0121854804F0D9
:10156000A3F90821834804F0C3FA0821814804F054
:10157000C8FA08217F4804F0D1FA08217D4804F018
:10158000D6FA01217B4804F083FA0121794804F05E
:101590007FF909B030BD30B589B005460C46012150
:1015A000022003F0EEFC01210D2003F0DDFC0320FE
:1015B0008DF8220018208DF82300C020ADF82000FF
:1015C00008A96E4803F014FA03208DF822001820B1
:1015D0008DF823000320ADF8200008A9684803F027
:1015E00007FAADF81850ADF814400020ADF81A0015
:1015F000ADF8160005A9634803F0EEFD6020ADF8D4
:1016000004000120ADF806000020ADF80C0001A98F
:101610005C4803F01EFE08215A4804F069FA01A94B
:10162000584803F058FE0821564804F06AFA01A908
:10163000544803F09DFE0821524804F06FFA01A9B6
:10164000504803F0E0FE08214E4804F070FA0121F2
:101650004C4804F01DF909B030BD7FB505460C4675
:101660000121084603F08DFCADF80850ADF80440A8
:101670000020ADF80A00ADF8060001A94FF0804047
:1016800003F0AAFD01221146900704F01CF91C206A
:101690008DF8000000208DF8010003208DF8020075
:1016A00001208DF80300684603F0D9F8012188076E
:1016B00004F0EEF87FBD7FB505460C4601210420FD
:1016C00003F05FFCADF80850ADF804400020ADF821
:1016D0000A00ADF8060001A92B4803F07DFD0122A8
:1016E0001146294804F0EFF81E208DF80000012073
:1016F0008DF801008DF802008DF80300684603F0B4
:10170000AEF80121204804F0C3F87FBD7FB505463F
:101710000C460121082003F034FCADF80850ADF868
:1017200004400020ADF80A00ADF8060001A91748F2
:1017300003F052FD01221146144804F0C4F832208F
:101740008DF8000000208DF8010003208DF80200C4
:1017500001208DF80300684603F081F801210B4851
:1017600004F096F87FBD0000001000400014004017
:10177000002C0140003401400010014000080140ED
:10178000000C01400004004000080040000C004034
:1017900070B504460E462EB14FF40041FB4803F0ED
:1017A000D4F904E04FF40041F84803F0D0F90221E5
:1017B000F64803F0CCF9002519E04FF48051F448C5
:1017C00003F0C5F904F0800020B12021EF4803F0B8
:1017D000BCF903E02021ED4803F0B9F94FF4805142
:1017E000EB4803F0B2F96006040E681CC5B2082D80
:1017F000E3DB0221E54803F0A8F94FF40041E34898
:1018000003F0A3F970BD10B504461CB90021A62051
:10181000FFF7BEFF012C03D10021A720FFF7B8FF7F
:1018200010BD10B504463CB90021C820FFF7B0FF39
:101830000021A120FFF7ACFF012C07D10021C0201F
:10184000FFF7A6FF0021A020FFF7A2FF10BD10B5F3
:1018500000218D20FFF79CFF00211420FFF798FF47
:101860000021AF20FFF794FF10BD10B500218D209F
:10187000FFF78EFF00211020FFF78AFF0021AE2026
:10188000FFF786FF10BD70B500241CE004F1B00125
:10189000C8B20021FFF77CFF00210846FFF778FF60
:1018A00000211020FFF774FF002508E0B94901EB83
:1018B000C501085D0121FFF76BFF681CC5B2802DD3
:1018C000F4DB601CC4B2082CE0DB70BD70B50024F2
:1018D0000CE0002506E00020AE4901EBC5010855EB
:1018E000681CC5B2802DF6DB601CC4B2082CF0DB8E
:1018F000FFF7C9FF70BDF0B514460B46CF1701EBDB
:101900005777C7F3C702CF1701EB5777FF10A1EB4B
:10191000C707FEB20123B340DDB24CB19D4B03EBD0
:10192000C0039B5C2B439B4F07EBC007BB541AE0E3
:10193000984B03EBC0039B5CDB43964F07EBC00760
:10194000BB54944B03EBC0039B5C2B43914F07EBC1
:10195000C007BB548F4B03EBC0039B5CDB438D4F35
:1019600007EBC007BB54F0BD2DE9FF4F84B08146A3
:101970008A460020029083460698A0EB0904079847
:10198000A0EB0A06CDF80490CDF800A0002C01DDF4
:10199000012705E00CB9002702E04FF0FF37644251
:1019A000002E02DD4FF0010806E016B94FF00008E6
:1019B00002E04FF0FF386642B44201DD254600E008
:1019C0003546002003901EE0009AD1B2019AD0B2B1
:1019D000119AFFF790FF029820440290B3440298B6
:1019E000A84205DD0298401B0290019838440190FE
:1019F000AB4504DDABEB050B009840440090039829
:101A0000401C80B20390691C03988842DCDB08B05C
:101A1000BDE8F08F2DE9F04306460F4690460025BD
:101A2000444643E03A1BD1B27219D0B20122FFF70B
:101A300062FF3A1BD1B2721BD0B20122FFF75BFFEB
:101A40003A19D1B2721BD0B20122FFF754FF3A19F2
:101A5000D1B27219D0B20122FFF74DFF7A19D1B27B
:101A60003219D0B20122FFF746FF7A1BD1B23219E8
:101A7000D0B20122FFF73FFF7A1BD1B2321BD0B2A6
:101A80000122FFF738FF7A19D1B2321BD0B20122FE
:101A9000FFF731FF6D1C05FB05F004FB040008FB9C
:101AA0001809B9F1000F01DD641E6D1E600060436E
:101AB00008FB08F18842B5DABDE8F0832DE9FE4F56
:101AC0000746884692461C460197CDF80080082CB0
:101AD00002D14FF006091FE02046E31704EB5373D1
:101AE000DB1021464FEAE47C04EB5C7C4FEAEC0C13
:101AF000A4EBCC0CBCF1000F02D04FF0010C01E0C4
:101B00004FF0000C6344224604EBD27C4FEA6C0C8D
:101B100003FB0CF303F0FF09AAF12000C6B2002575
:101B20006DE0082C07D106EB46001B4901EB400095
:101B300010F805B01DE00C2C07D106EB4600174944
:101B400001EB800010F805B013E0102C05D114480B
:101B500000EB061010F805B00BE0182C07D106EBCF
:101B6000C600104901EB800010F805B001E0BDE8A7
:101B7000FE8F002002902BE00BF00100A0B1414647
:101B800038460C9AFFF7B7FE18E000000014014039
:101B900000200140D8020020A6790008CE7B000872
:101BA00042800008328600080C9808B9012000E045
:101BB0000020024641463846FFF79DFE4FEA6B0B78
:101BC00008F1010000F0FF080298401CC0B202902A
:101BD00002980828D0DB781CC7B2082C0BD004EB85
:101BE000D4714A100199791A8A4204D1019F009850
:101BF0000830C0B20090DDF80080681CC5B24D45C9
:101C00008FDB00BFB3E72DE9F84106460F461446C7
:101C10001D46DDF81C8013E0CDF8008022782B46AD
:101C200039463046FFF74AFF082D02D1B01DC6B233
:101C300005E0284605EBD07106EB6101CEB2641CCD
:101C40002078202802DB20787E28E5DDBDE8F881B9
:101C500010B50246012000E050430B1EA1F1010423
:101C6000E1B2F9D110BD2DE9FF4F82B00646914691
:101C70001F46DDE90F4A4FF0000B082C01D14FF051
:101C8000020B002530E0781B401EC1B20A20FFF78E
:101C9000DFFFB9FBF0F00A21B0FBF1F201FB120803
:101CA000B8F1000F0ED104EBD4710BEB610101FB15
:101CB0000561C8B223463022CDE900A40399FFF79D
:101CC000FDFE0FE004EBD4710BEB610101FB05613C
:101CD000C8B208F13001CAB22346CDE900A4039985
:101CE000FFF7ECFE681CC5B2BD42CCDB06B0BDE818
:101CF000F08F2DE9FC4F0746884616461C46BB462A
:101D0000CDF804802046E21704EB5272D21021462F
:101D1000E31704EB5373DB10A4EBC3030BB10123F4
:101D200000E000231A44624392B20092002555E07D
:101D3000102C05D1EB4800EB461010F805A01BE075
:101D4000182C07D106EBC600E74901EBC00010F8DC
:101D500005A011E0202C05D1E44800EBC61010F8D6
:101D600005A009E0402C05D1E14800EB462010F821
:101D700005A001E0BDE8FC8F4FF000091CE00AF06F
:101D8000010028B1414638460B9AFFF7B4FD09E03F
:101D90000B9808B9012000E0002002464146384671
:101DA000FFF7A9FD4FEA6A0A08F1010000F0FF08F9
:101DB00009F1010000F0FF09B9F1080FDFDB781C21
:101DC000C7B2A7EB0B00A04204D15F4601980830D0
:101DD000C0B20190DDF80480681C85B2009885428D
:101DE000A6DB00BFC6E708B58046894692460026B6
:101DF00000274BE04FB91023324618218020CDF840
:101E000000A0FFF776FF701CC6B2464522D14FF006
:101E1000000B1AE0012410E000250AE0B54800EBB1
:101E2000C400415D601EB34A02EBC0004155681C0E
:101E3000C5B2082DF2DB601CC4B2902CECDBFFF7BE
:101E400022FD0BF1010000F0FF0B4FEA091058458D
:101E5000E0DC0026781CC7B2102F00D10027012437
:101E600010E000250AE0A34800EBC400415D601EBD
:101E7000A04A02EBC0004155681CC5B2082DF2DB38
:101E8000601CC4B2902CECDBFFF7FDFCB2E72DE93F
:101E9000FF4F05460E4617461C46DDF838904FF0BA
:101EA000000A0095B3462046E21704EB5272D210A6
:101EB0002146E31704EB5373DB10A4EBC3030BB110
:101EC000012300E000231A44D4B24FF0000845E09B
:101ED000002003903BE00D9810F80A0002900AF1F0
:101EE00001001FFA80FA002001901DE0029800F026
:101EF000010028B14A4631462846FFF7FCFC0AE0BB
:101F0000B9F1000F01D1012000E000200246314666
:101F10002846FFF7F0FC029840100290701CC6B2F1
:101F20000198401CC0B2019001980828DEDB681CB3
:101F3000C5B20098281AB84204D1009D0BF10800E0
:101F400000F0FF0B5E460398401CC0B2039003985C
:101F5000B842C0DB08F1010000F0FF08A045B7DB84
:101F6000BDE8FF8F08B501214FF4B07002F0FCFF0F
:101F70004FF48050ADF8000010208DF803000320CE
:101F80008DF8020069465C4802F032FD4FF4805142
:101F9000594802F0DAFD48F22240ADF80000102066
:101FA0008DF8030003208DF802006946534802F0C3
:101FB0001FFD48F22241514802F0C7FD4FF4A060D6
:101FC000ADF8000010208DF8030003208DF802000A
:101FD00069464B4802F00CFD4FF4A061484802F0FE
:101FE000B4FD4FF48061454802F0B1FDC82001F016
:101FF0001BFF4FF48061414802F0A7FD0021AE2095
:10200000FFF7C6FB00210846FFF7C2FB00211020A6
:10201000FFF7BEFB00214020FFF7BAFB0021812023
:10202000FFF7B6FB0021CF20FFF7B2FB0021A12074
:10203000FFF7AEFB0021C820FFF7AAFB0021A62076
:10204000FFF7A6FB0021A820FFF7A2FB00213F20FD
:10205000FFF79EFB0021D320FFF79AFB00210846E3
:10206000FFF796FB0021D520FFF792FB002180208F
:10207000FFF78EFB0021D920FFF78AFB0021F1201A
:10208000FFF786FB0021DA20FFF782FB00211220F8
:10209000FFF77EFB0021DB20FFF77AFB00214020C9
:1020A000FFF776FB00212020FFF772FB00210220C2
:1020B000FFF76EFB00218D20FFF76AFB0021142043
:1020C000FFF766FB0021A420FFF762FB0021A6209A
:1020D000FFF75EFBFFF7FAFB0021AF20FFF758FB8D
:1020E00008BD00008E930008EE94000836950008A5
:1020F000B6950008D80200200020014000140140DD
:102100000018014030B503461C788C545D78541C8F
:102110000D559D78941C0D55DD78D41C0D5530BDA2
:1021200013B50C460A2C00DC04B91CBD0B2C43D2A1
:10213000DFE804F042060C12181E242A30363C0058
:10214000012244496846FFF7DDFF35E00522414999
:102150006846FFF7D7FF2FE009223E496846FFF7A0
:10216000D1FF29E00D223B496846FFF7CBFF23E072
:10217000112238496846FFF7C5FF1DE01522354991
:102180006846FFF7BFFF17E0192232496846FFF79C
:10219000B9FF11E01D222F496846FFF7B3FF0BE09E
:1021A00021222C496846FFF7ADFF05E02522294989
:1021B0006846FFF7A7FF00BF00BF00BFB5E70146B5
:1021C0000A2900DC09B9002070472420214A107038
:1021D0000B293CD2DFE801F03B060B10151A1F2437
:1021E000292F350005201B4A50710620ECE70920F5
:1021F000184A50720A20E7E70D20164A50730E2045
:10220000E2E71120134A50741220DDE71520114A2D
:1022100050751620D8E719200E4A50761A20D3E7B9
:102220001D200C4A50771E20CEE72120094A82F853
:1022300021002220C8E72520064A82F82500262012
:10224000C2E72920034A82F829002A20BCE700209F
:10225000BAE700005807002000B587B00121084602
:1022600002F082FE0121C80202F07EFE0121402020
:1022700002F07AFE0121C74802F08BFC4FF4007097
:10228000ADF8000004208DF803006946C24802F052
:10229000AFFB4FF40060ADF8000004208DF80300A0
:1022A0006946BD4802F0A4FB04A803F0C1FA00206F
:1022B000ADF810004FF6FF70ADF814000020ADF837
:1022C0001600ADF8120004A9B44802F085FF0023FF
:1022D0001A460321B14803F08EFB01A803F0BBFAB4
:1022E0000A20ADF80C0001A9AC4803F008FA01215E
:1022F000AA4803F093FD01221146A84803F0E3FA2F
:102300000021A64803F058FD0121A44803F0C0FABB
:1023100007B000BD00B587B00121022002F031FEF8
:102320000121042002F020FEC020ADF800000420AE
:102330008DF8030069469A4802F05AFB04A803F09E
:1023400077FA0020ADF810004FF6FF70ADF81400DA
:102350000020ADF81600ADF8120004A9914802F073
:102360003BFF00231A4603218E4803F044FB01A8DB
:1023700003F071FA0A20ADF80C0001A9894803F0B6
:10238000BEF90121874803F049FD01221146854825
:1023900003F099FA0021834803F00EFD01218148E2
:1023A00003F076FA07B000BD00B587B00121042024
:1023B00002F0E7FD0121082002F0D6FDC020ADF8B3
:1023C000000004208DF803006946774802F010FBF6
:1023D00004A803F02DFA0020ADF810004FF6FF70AE
:1023E000ADF814000020ADF81600ADF8120004A9F5
:1023F0006E4802F0F1FE00231A4603216B4803F0F9
:10240000FAFA01A803F027FA0A20ADF80C0001A996
:10241000664803F074F90121644803F0FFFC0122CF
:102420001146624803F04FFA0021604803F0C4FCF3
:1024300001215E4803F02CFA07B000BD00B587B05B
:102440000121082002F09DFD0121042002F08CFDF5
:102450000320ADF8000004208DF8030069465048C1
:1024600002F0C6FA04A803F0E3F90020ADF810006A
:102470004FF6FF70ADF814000020ADF81600ADF86F
:10248000120004A94A4802F0A7FE00231A460321BD
:10249000474803F0B0FA01A803F0DDF90A20ADF8CF
:1024A0000C0001A9424803F02AF90121404803F039
:1024B000B5FC012211463E4803F005FA00213C48D4
:1024C00003F07AFC01213A4803F0E2F907B000BDBD
:1024D0000146012906D003290DD0042914D005296D
:1024E00024D11AE02D4A2432128810B200222B4B3C
:1024F00024331A801CE02B4A2432128810B20022A6
:10250000284B24331A8013E0284A2432128810B250
:102510000022264B24331A800AE0254A24321288EE
:1025200010B20022224B24331A8001E0002000BFA9
:1025300000BF7047194810300088184810300088D4
:1025400020F00100154910310880704715481030FF
:10255000008814481030008820F001001149103123
:1025600008807047114810300088104810300088EB
:1025700020F001000D491031088070470C481030E0
:1025800000880B481030008820F001000849103105
:1025900008807047C000160000180140002C014060
:1025A0000008014000040040000C01400008004009
:1025B000000C00400146002901DA484200E00846CC
:1025C0007047012806D002280ED0032816D0042810
:1025D00029D11DE0FE4A116009B9012200E0002264
:1025E000FB4B1B1D1A601EE0FA4A116009B901225B
:1025F00000E00022F74B1B1F1A6014E0F64A11603E
:1026000009B9012200E00022F34B1B1F1A600AE007
:10261000F04A1C3A116009B9012200E00022ED4B9A
:10262000183B1A6000BF00BF704770B505460C46E6
:10263000002C04DA00212846FFF7C3FF03E0012144
:102640002846FFF7BEFF2046FFF7B4FF0446B4F567
:102650007A6F01DD4FF47A64012D06D0022D09D086
:10266000032D0CD0042D14D10EE0A1B2DB4803F0F1
:10267000A7FB0EE0A1B2D94803F0A4FB09E0A1B288
:10268000D64803F0A1FB04E0A1B2D44803F09EFBBE
:1026900000BF00BF70BD08B50121582002F064FCE6
:1026A0000320ADF8000010208DF8030003208DF802
:1026B00002006946CA4802F09BF90320ADF8000009
:1026C00010208DF8030003208DF802006946C548EC
:1026D00002F08EF9C320ADF8000010208DF8030041
:1026E00003208DF802006946BF4802F081F90121FC
:1026F000BB4802F02CFA0221B94802F028FA012165
:10270000B84802F024FA0221B64802F020FA01216A
:10271000B54802F01CFA0221B34802F018FA402131
:10272000B14802F014FA8021AF4802F010FA08BD57
:102730002DE9F05F04460D4660422844AB4908602D
:102740000846006804F0D6FF8346A9480168584649
:1027500004F0E8FF8046A5490968A64A1268881A6D
:1027600004F0C8FF8346A4480168584604F0DAFF25
:102770008146414604F05EFE0746A048006804F02A
:10278000B9FF8246394604F055FE064604F076FF4E
:102790009A4908600846006840F6B831884202DD70
:1027A000084696490860954800689549884202DACB
:1027B0000846924908608D4800688E4908608F4835
:1027C0000068BDE8F09F2DE9F05F04460D466042C9
:1027D00028448C4908600846006804F08BFF834653
:1027E00083480168584604F09DFF80468549096882
:1027F000854A1268881A04F07DFF83467E48016886
:10280000584604F08FFF8146414604F013FE074608
:102810007E48006804F06EFF8246394604F00AFEE6
:10282000064604F02BFF794908600846006840F628
:10283000B831884202DD0846744908607348006870
:102840006F49884202DA0846704908606D4800689E
:102850006D4908606D480068BDE8F09F2DE9F05FA4
:1028600004460D46604228446949086008460068ED
:1028700004F040FF83465E480168584604F052FF6A
:10288000804663490968634A1268881A04F032FF77
:10289000834659480168584604F044FF8146414642
:1028A00004F0C8FD07465C48006804F023FF824638
:1028B000394604F0BFFD064604F0E0FE56490860C4
:1028C0000846006840F6B831884202DD08465249A1
:1028D0000860514800684A49884202DA08464E4971
:1028E00008604B4800684B4908604B480068BDE8E9
:1028F000F09F2DE9F05F04460D46604228444749A9
:1029000008600846006804F0F5FE83463848016810
:10291000584604F007FF804640490968404A12685B
:10292000881A04F0E7FE834633480168584604F0ED
:10293000F9FE8146414604F07DFD074639480068AE
:1029400004F0D8FE8246394604F074FD064604F0D1
:1029500095FE344908600846006840F6B831884260
:1029600002DD08462F4908602E4800682449884245
:1029700002DA08462B4908602848006828490860A0
:1029800028480068BDE8F09F2DE9F84F04460D4641
:102990000026254FDFF89480601B04F0ABFE24492D
:1029A0000860084601682348006804F043FD214997
:1029B0000860214801681E48006804F07FFF8346D4
:1029C000414604F0AFFE81461A480168384635E0BA
:1029D000800122429C012342848121420034014033
:1029E000000C014000100140001801407801002057
:1029F0006C01002080010020680100207C01002083
:102A000048F4FFFF840100208C0100208801002091
:102A10009001002098010020940100209C010020DA
:102A2000A4010020A0010020CDCC4C3D000040427C
:102A3000A8010020B0010020B401002004F072FEC3
:102A40008346FE480168304604F06CFE594600900B
:102A500004F0F0FC8246494604F0ECFCF8490860BA
:102A6000F6480068F7490860F548006804F006FE7B
:102A7000BDE8F88F2DE9F04F85B004460D46F24EC3
:102A800000274FF0000860422844F04908600846DB
:102A90000068EF490968401AEE4908600846006876
:102AA000ED490968401AED4908600846006804F0DD
:102AB00021FE8346414604F035FE0490E348006859
:102AC00004F018FE8346394604F02CFE0390E148DA
:102AD000006804F00FFE3146009004F023FE8346A8
:102AE000DF48006804F006FE5946019004F0A2FC9D
:102AF0000290039904F09EFC8246049904F09AFC2B
:102B0000814604F0BBFDD6490860D0480068D04932
:102B10000860D0480068D0490860D148006805B016
:102B2000BDE8F08F4FF4967140F2EE22521A8242C5
:102B300002DD40F2EE22501A01F2EE22824200DA69
:102B40001046704700B503460A46C6480360002099
:102B5000C5490860C5490860C5480068C549096895
:102B6000401AC5490860C5480068401CC349086050
:102B70000846006808280DDD0120C14908600020D2
:102B8000BE490860BF48006808B9012000E0002085
:102B9000BC490860B8480068BB49096888420BDD39
:102BA000B5480068FFF706FD42F21071884203DA6B
:102BB000B6480068AD490860AF480068B249096886
:102BC000494288420CDAAC480068FFF7F3FC42F255
:102BD0001071884204DAAD4800684042A349086099
:102BE000A5480068FFF7E6FCA7490968884215DA9E
:102BF0009F480068FFF7DEFC9C280FDD9E480068B8
:102C0000FFF7D8FC42F21071884207DA9848006852
:102C10004042072190FBF1F0934908609C4800680E
:102C2000FFF7C8FC502802DA01209A490860994849
:102C30000068012811D196480068C8280DDD904829
:102C40000068012809D194480068401E9249086034
:102C50000020904908608A4908608E480068012871
:102C600012D18B48006810F1C80F0DDA8448006853
:102C7000012809D188480068401C87490860002065
:102C8000844908607E4908608348006890420CD1FE
:102C90005AB10020804908607E4908607149086087
:102CA000714908607149086000BD0120FCE710B55A
:102CB00003460A466B48036000206B4908606B4975
:102CC00008606B4800686B490968401A6A490860E7
:102CD0006A480068401C69490860084600683A284C
:102CE0000DDD0120664908600020644908606548E0
:102CF000006808B9012000E00020624908605E48D1
:102D00000068FFF757FC6049096888420FDD5A48A0
:102D10000068FFF74FFC41F28831884207DA5649D4
:102D20000868C11700EB11710911504C216052481D
:102D30000068FFF73FFC54490968884215DA4C489F
:102D40000068FFF737FC9C280FDD4B480068FFF751
:102D500031FC42F21071884207DA4548006840426F
:102D6000072190FBF1F04049086041480068FFF7F7
:102D700021FC47F24811884202DD012045490860E4
:102D800044480068012812D13648006810F10A0F43
:102D90000DDA3B480068012809D13F480068401E11
:102DA0003D49086000203B490860354908603948C2
:102DB0000068012811D12B4800680A280DDD304831
:102DC0000068012809D134480068401C3249086075
:102DD0000020304908602A4908602F480068904266
:102DE0000CD15AB100202C4908602A4908601D49BD
:102DF00008601D4908601D49086010BD0120FCE7FE
:102E00000246704700B503460A460020154908608F
:102E1000154803600020154908601D4800681649E0
:102E200008601E480068401C1C490860084600688D
:102E3000382842DD01201A49086033E0A80100204B
:102E4000AC010020B40100200000C040B801002007
:102E5000C0010020C4010020CC010020C8010020D6
:102E6000BC010020C4000020C8000020DC000020BD
:102E7000F4000020F8000020180100202C010020A0
:102E800030010020948121421401002024010020FF
:102E9000F0000020200100201C010020340100204F
:102EA000380100200020354908603548006808B91D
:102EB000012000E000203249086032480068FFF736
:102EC00079FB3149096888420EDD2E480068FFF71A
:102ED00071FB42F21071884206DA2C480068092121
:102EE00090FBF1F02A4908602A480068FFF762FB6E
:102EF000D32802DA01202849086027480068012801
:102F000012D124480068B0F5F47F0DDD2348006835
:102F1000012809D122480068401E2149086000208C
:102F20001D4908601F4908601B480068012812D12C
:102F30001848006810F5F47F0DDA18480068012879
:102F400009D117480068401C154908600020124943
:102F50000860144908601248006890420CD15AB1C8
:102F600000200F4908600C490860094908600E49B3
:102F700008600E49086000BD0120FCE73401002014
:102F8000948121421801002014010020F00000204B
:102F9000C4000020F400002040010020380100207F
:102FA0003C01002030010020C8000020DC0000208F
:102FB0002DE9FC5F04460E4617469846DDE90DA94B
:102FC0000C9D99F8000000EBD071491022789AF816
:102FD000003003FB01212170207808FB05008028C8
:102FE00006DD00202070307899F800100844307019
:102FF000002F17DB01200090317820782B46FEA2AD
:10300000FEF701FE0120AB4605EBDB72CDE9005077
:10301000237803EB6202D0B2317843463A46FEF79A
:1030200022FE16E001200090317820782B46F3A292
:10303000FEF7E9FD0120AB4605EBDB72CDE9005060
:10304000237803EB6202D0B2317843467A42FEF72E
:103050000AFE08F101008AF8000089F80050BDE876
:10306000FC9F00B587B0002006900C200590002042
:103070000490039004A803A90C220423CDE90021A5
:103080000290DF4805A9026806A8FFF791FF04A88F
:1030900003A90C220423CDE900210290D94805A9F7
:1030A000026806A8FFF784FF04A803A90C220423E2
:1030B000CDE900210290D44805A9026806A8FFF7CF
:1030C00077FF04A803A90C220423CDE90021029074
:1030D000CE4805A9026806A8FFF76AFFFEF7D3FBF2
:1030E00007B000BD2DE9F84304460D4690461E4644
:1030F000DDE90897387800EBD0714A10237899F809
:103100000010491C01FB02312170404603F0A9FC6C
:10311000217800FB0610802805DD0020207028782B
:1031200039780844287000200090297820783346A8
:103130004246FEF768FD404603F093FC89F8000024
:103140003E70BDE8F88310B588B0002007900C20D1
:103150000690002005900490FEF7B8FB05A804A98E
:103160000C23ABA2CDE9001006A907A8FFF7BAFF10
:10317000A848006804F082FA044605A804A90C22B5
:103180000523CDE900210290224606A907A8FFF7F2
:103190000FFF05A804A90C239FA2CDE9001006A9E2
:1031A00007A8FFF79FFF9D48006804F067FA0446F0
:1031B00005A804A90C220523CDE90021029022468E
:1031C00006A907A8FFF7F4FEFEF75DFB08B010BDE7
:1031D00000B587B0002006900C20059000200490D8
:1031E0000390FEF773FB04A803A90C238CA2CDE97E
:1031F000001005A906A8FFF775FF04A803A90C2273
:103200000523CDE900210290864805A9026806A899
:10321000FFF7CEFEFEF737FB07B000BD00B587B065
:10322000002006900C200590002004900390FEF7EB
:103230004DFB04A803A90C237BA2CDE9001005A92E
:1032400006A8FFF74FFF04A803A90C220523CDE928
:1032500000210290754805A9026806A8FFF7A8FE9C
:1032600004A803A90C2372A2CDE9001005A906A8A1
:10327000FFF738FF04A803A90C220523CDE900219C
:1032800002906C4805A9026806A8FFF791FE04A801
:1032900003A90C2368A2CDE9001005A906A8FFF731
:1032A00021FF04A803A90C220523CDE900210290E7
:1032B000634805A9026806A8FFF77AFEFEF7E3FA5D
:1032C00007B000BD00B587B0002006900C20059027
:1032D000002004900390FEF7F9FA04A803A90C2338
:1032E00058A2CDE9001005A906A8FFF7FBFE04A827
:1032F00003A90C220523CDE900210290534802685E
:1033000005A906A8FFF754FE04A803A90C2350A2A0
:10331000CDE9001005A906A8FFF7E4FE04A803A95B
:103320000C220523CDE9002102904B48026805A933
:1033300006A8FFF73DFE04A803A90C2347A2CDE988
:10334000001005A906A8FFF7CDFE04A803A90C22CA
:103350000523CDE9002102904248026805A906A88C
:10336000FFF726FE04A803A90C233FA2CDE9001015
:1033700005A906A8FFF7B6FE04A803A90C22052399
:10338000CDE9002102903A4805A9026806A8FFF796
:103390000FFE04A803A90C2327A2CDE9001005A95C
:1033A00006A8FFF79FFE04A803A90C220523CDE978
:1033B00000210290224805A9026806A8FFF7F8FD3F
:1033C000FEF761FA07B000BD00B587B00020069097
:1033D0000C200590002004900390FEF777FA04A8D3
:1033E00003A90C2317A2CDE9001005A906A8FFF731
:1033F00079FE04A803A93DE0200000002D00000094
:103400008C000020900000209400002098000020F4
:103410004B500000680100204B4900006C01002067
:103420004B45590000000020580000000C0100200E
:10343000590000001001002074656D70000000004C
:103440001C0100204C65667400000000F4000020A0
:103450005269676874000000F800002046726F6EC1
:1034600074000000F000002074656D705931000098
:10347000200100200C220523CDE90021029099486B
:10348000026805A906A8FFF793FD04A803A90C2369
:10349000AFF24402CDE9001005A906A8FFF722FE0D
:1034A00004A803A90C220523CDE9002102908E482F
:1034B000026805A906A8FFF77BFD04A803A90C2351
:1034C000AFF26802CDE9001005A906A8FFF70AFED1
:1034D00004A803A90C220523CDE90021029083480A
:1034E000026805A906A8FFF763FD04A803A90C2339
:1034F0007FA2CDE9001005A906A8FFF7F3FD04A8F7
:1035000003A90C220523CDE9002102907A4805A9E0
:10351000026806A8FFF74CFD04A803A90C23AFF22C
:10352000E802CDE9001005A906A8FFF7DBFD04A815
:1035300003A90C220523CDE9002102906F4805A9BB
:10354000026806A8FFF734FDFEF79DF907B000BD3D
:1035500000B587B0002006900C2005900020049054
:103560000390FEF7B3F904A803A90C2364A2CDE9E4
:10357000001005A906A8FFF7B5FD04A803A90C22B1
:103580000523CDE9002102905F48027805A906A82D
:10359000FFF70EFDFEF777F907B000BD2DE9FC5FE0
:1035A00006460D4617469846DDE90DA90C9C0020FD
:1035B0003070287899F8001008442870002F18DB24
:1035C00001200090297830782346AFF2D412FEF71C
:1035D0001AFB0120A34604EBDB72CDE900403378EF
:1035E00003EB6202D0B2297843463A46FEF73BFB32
:1035F00017E001200090297830782346AFF20422AA
:10360000FEF701FB0120A34604EBDB72CDE900408D
:10361000337803EB6202D0B2297843467A42FEF750
:1036200022FB08F101008AF8000089F80040BDE89B
:10363000FC9F2DE9F84305460C4616461F46DDE97A
:10364000089800202870207898F80010084420700E
:1036500001200090217828783B463246FEF7D3FAC5
:10366000304603F0FEF989F8000088F80070BDE8E4
:10367000F88310B52548006804F03CF804460121A1
:10368000FEF74EFD2248006804F034F8044602219B
:10369000FEF746FD03210020FEF742FD0320FEF762
:1036A0008EFD1C49087000201B49087012E000BF05
:1036B0001A48008800F040000028F9D01848164940
:1036C0000978405C1549091D088013480078401CA2
:1036D00011490870104800780E4909788842E6DBE5
:1036E00010BD0000F4000020F8000020F0000020D1
:1036F0004D6F646500000000AC0000203C0100201C
:1037000055415254313A0000E6000020700000207C
:1037100074000020D2010020D001002000380140B8
:103720005807002008B50121202001F01DFC40F6BB
:103730001800ADF8000010208DF8030003208DF86C
:1037400002006946FE4801F053F9FD48006820F088
:103750000F00FB4908600846006840F00800086058
:1037600008BD38B50446012000900020F549487096
:10377000012000902EE0BDF80000204018B101208B
:10378000F149086002E00020EF4908600120EE499D
:1037900020390860052000F02BFB0020EB49C1F820
:1037A0008C01052000F024FB0120E849C1F88C01C0
:1037B0000846D0F8000130B1E2484078BDF800106A
:1037C0000843E0494870BDF800004FF6FF7101EA78
:1037D00040000090BDF80000FF28CCDD102000F074
:1037E00007FB38BD10B50020D7491C390860D849FF
:1037F0000878FFF7B6FFD6494878FFF7B2FF0120F7
:10380000D249C1F89001CF484078732801D10020F7
:1038100010BD0120FCE71CB50020019001200090A4
:103820000020C9491C390860C9490878FFF799FF89
:10383000C7494878FFF795FF0220019036E0012044
:10384000009027E00120C04920390860052000F0E1
:10385000CFFA0020BD49C1F88C01052000F0C8FA5C
:103860000120BA49C1F88C010846D0F8000150B1D6
:10387000B4489DF80410405CBDF800100843B149FD
:103880009DF804208854BDF800004FF6FF7101EA4E
:1038900040000090BDF80000FF28D3DD102000F0AC
:1038A000A7FA9DF80400401CC0B201909DF80400E6
:1038B0000928C4DB0120A4491C3908601CBD002074
:1038C00004E000219F4A1154411CC8B20928F8DBCA
:1038D000704710B5FFF7F3FFFFF79DFF9948C078D9
:1038E0009849097940EA01209A49088000240FE0AC
:1038F000994810F81400401E012101FA00F0954982
:103900000988084010B9601CC0B210BD601CC4B268
:10391000102CEDDB0020F8E710B5044614B10120AF
:103920008E490870FFF7D5FF8D4908708B480078E5
:1039300040B10846007828B10020884908708848BE
:10394000007810BD8648007810B9012083490870BE
:103950000020F6E710B5044614B101208149087033
:10396000FFF7B7FF804908707E48007840B10846ED
:10397000007828B100207B4908707B48007810BD92
:103980007948007810B90120764908700020F6E7E0
:1039900001466C48405C704770B505460C460020F7
:1039A00069491C390860102000F022FA0120FFF755
:1039B000D8FE4220FFF7D5FE0020FFF7D2FE2846B2
:1039C000FFF7CFFE2046FFF7CCFE0020FFF7C9FE31
:1039D0000020FFF7C6FE0020FFF7C3FE0020FFF720
:1039E000C0FE01205949C1F89001102000F000FAF2
:1039F00070BD10B5002054491C390860102000F03B
:103A0000F7F90120FFF7ADFE4220FFF7AAFE0020E4
:103A1000FFF7A7FE0020FFF7A4FE0020FFF7A1FE9E
:103A200001204A49C1F89001102000F0E1F910BDD1
:103A300010B5002044491C390860102000F0D8F966
:103A40000120FFF78EFE4320FFF78BFE0020FFF7DB
:103A500088FE0120FFF785FE0020FFF782FE002090
:103A6000FFF77FFE0020FFF77CFE0020FFF779FEC6
:103A70000020FFF776FE01203449C1F890011020A4
:103A800000F0B6F910BD10B500202F491C390860B0
:103A90000120FFF766FE4420FFF763FE0020FFF7DA
:103AA00060FE0120FFF75DFE0320FFF75AFE0020B5
:103AB000FFF757FE0020FFF754FE0020FFF751FEEE
:103AC0000020FFF74EFE01202049C1F89001102090
:103AD00000F08EF910BD10B500201B491C3908609C
:103AE000102000F085F90120FFF73BFE4D20FFF785
:103AF00038FE0020FFF735FE0020FFF732FE0120E0
:103B0000FFF72FFE01201149C1F89001102000F0AD
:103B10006FF910BD10B500200B491C39086010204A
:103B200000F066F90120FFF71CFE4320FFF719FEA5
:103B30000020FFF716FE0020FFF713FE5A2015E0C5
:103B40000014014082070020AC8122420080224202
:103B5000DA010020D8010020DC010020FC01002057
:103B6000FD010020FE010020FF010020FFF7F9FD0C
:103B70005A20FFF7F6FD5A20FFF7F3FD5A20FFF712
:103B8000F0FD5A20FFF7EDFD01200B49C1F890012F
:103B9000102000F02DF910BD10B5FFF72AFFFFF738
:103BA00028FFFFF726FFFFF743FFFFF76CFFFFF744
:103BB00092FFFFF7AFFF10BD0080224200B58BB02F
:103BC0000121084601F0C3F9764802F06BFD764802
:103BD000009076480190002002901E200390002063
:103BE00004908020059040000690800007902020DF
:103BF00008900002099000200A906946694802F086
:103C0000F3FD0121674802F01AFE0BB000BD00B5BC
:103C100087B00420ADF8040000208DF8070001A94A
:103C2000634800F0E5FE01214FF4057001F09CF9B6
:103C30004FF4004001F0FCF80020029001208DF8C4
:103C40000C008DF80D004FF46020049000200590CA
:103C500003208DF8180002A953484C3802F021FBCC
:103C600007230122002150484C3802F0B2FB072301
:103C7000022201214C484C3802F0ABFB07230322FF
:103C80000C2149484C3802F0A4FB012146484C382D
:103C900002F03EFB012144484C3802F02EFB424822
:103CA0004C3802F04CFB00BF3F484C3802F04CFB54
:103CB0000028F9D13C484C3802F050FB00BF3A488C
:103CC0004C3802F050FB0028F9D107B000BD70B5A8
:103CD00004460D4615B10120364908703548007874
:103CE000002857D0B4F57F6F54DA052000F09CF817
:103CF00000203049087040F66A60844204DBB4F565
:103D00007F6F01DA092070BDB4F5616F05DB40F605
:103D10006A60844201DA0820F5E740F6AC5084423C
:103D200004DBB4F5616F01DA0720ECE740F6485098
:103D3000844205DB40F6AC50844201DA0620E2E71B
:103D400040F6B240844205DB40F64850844201DA36
:103D50000520D8E740F65430844205DB40F6B240F7
:103D6000844201DA0420CEE7B4F5166F05DB40F695
:103D70005430844201DA0320C5E7B4F5FA7F04DB4E
:103D8000B4F5166F01DA0220BDE7B4F5FA7F07DA61
:103D90000120B8E7B4F57F6F02DB01200549087008
:103DA0000020B0E7080002404C2401408C070020AE
:103DB00000100140000200204FF0E021096921F0CD
:103DC00004014FF0E0221161C21700EB5272C2F3FE
:103DD000C702234B1A701946097801EB4102C2EB66
:103DE000C1114FF6FF7202EAC1011E4A11807047ED
:103DF00001461B4A12784A434FF0E0235A610022E1
:103E00009A6101221A6100BF4FF0E022106900F0B0
:103E100001021AB100F48032002AF5D000224FF0DE
:103E2000E0231A619A61704701460E4A12884A439C
:103E30004FF0E0235A6100229A6101221A6100BF0B
:103E40004FF0E022106900F001021AB100F4803254
:103E5000002AF5D000224FF0E0231A619A617047E2
:103E60000202002004020020A34A0A400243A34B9E
:103E70001A6070470146072323EA010212029F4B92
:103E80001B1D18684FF6FF0318409D4B1843104345
:103E90009A4B1B1D186070472DE9F0410746884674
:103EA00014461D462846FFF7E5FFC5F1040007FA52
:103EB00000F60F20284100EA0800064306F00F062E
:103EC000E21704EBD2625211920002F1E022D2F822
:103ED00000212146E31704EBD3635B11A4EB431CE1
:103EE000012303FA0CF31A432046E31704EBD363D0
:103EF0005B119B0003F1E023C3F800218148005DC2
:103F000040EA06107F490855BDE8F08170B50446C7
:103F10000B46CE1701EB9676C6F38700CE1701EB62
:103F20009676B610A1EB8606B606350E764B9B69E3
:103F300043F00103744EB3614FEAB63353F82030B7
:103F40000F26AE40B343714E46F82030334653F847
:103F5000203004FA05F61E436C4B43F820606C4B8E
:103F60001B6801268E403343694E336002F0010323
:103F700043B1674B0C331B6801268E403343644EBC
:103F80000C36336002F0020343B1614B08331E6804
:103F900001238B401E435E4B08331E6070BD00B58D
:103FA000002059490861C8601420486100208861D8
:103FB000C8610846006840F0010008600846406893
:103FC0005449084050494860084600685249084032
:103FD0004D4908600846006820F4802008600846C3
:103FE000406820F4FE0048600020886000214FF007
:103FF0000060FFF739FF00BD10B540480830006889
:1040000040F004003D49083108603F48C06940F075
:1040100080503D49C8614148406840F480703F4944
:1040200048600846006840F00400086008460068E0
:1040300040F002000860FCF7F9F810BD3048001DA0
:104040002E49091D08607047014649062E4A9269AB
:1040500042F001022C4B9A612C4A083A526822F035
:10406000E0622A4B083B5A601A4652680A435A607B
:10407000704730B504460025FFF791FF22480068DD
:1040800040F480302049086000BF1F480068400CA1
:104090000028FAD04FF480601B494860A01EC4B2CB
:1040A0000846406840EA844048600846406840F45A
:1040B000803048601A48006840F0320018490860B3
:1040C0001148006840F080700F49086000BF0E483A
:1040D0000068400E0028FAD00B48406840F002000B
:1040E0000949486005E008484068C0F3870505F0C5
:1040F0000305022DF7D130BD80FFFF1F08ED00E062
:104100000000FA0500E400E0001002400800014051
:10411000000401400000FFF8FFFFF6FE00700040C1
:1041200000200240014600BF704700BFFD4A1288D0
:1041300002F04002002AF9D0C2B2FA4B1B1D1A80CD
:1041400000BFF94A128802F04002002AF9D0C2B238
:10415000F54B1B1D1A807047F249091D088000BFEE
:10416000F049098801F040010029F9D0704710B5E5
:1041700086B004460121042000F0F6FE01218803E8
:1041800000F0F2FE4FF40070ADF8140003208DF83B
:10419000160018208DF8170005A9E44800F028FC47
:1041A0004FF48060ADF8140004208DF8170005A9C5
:1041B000DE4800F01DFC25208DF8000003208DF85E
:1041C00001008DF8020001208DF80300684600F020
:1041D00046FB01940020ADF80800ADF80A00ADF8E8
:1041E0000C00ADF810000C20ADF80E0001A9CD4870
:1041F00001F06FFE012240F22551CA4801F001FF93
:104200000121C84801F0F1FE06B010BD10B540F222
:104210002551C44801F0DAFF20B3C24801F056FF2F
:10422000C4B2C3480470C348008800F40040C8B951
:10423000C048008800F4804060B10A2C03D0002000
:10424000BC49088020E0BB48008840F40040B949E0
:10425000088019E00D2C06D1B648008840F4804053
:10426000B449088010E0B3480088C0F30D00B2499B
:104270000C54B0480088401CAE49088008460088AD
:10428000C72801DD0020088010BD10B586B00446A7
:104290000121042000F068FE0121480400F071FEB5
:1042A0000420ADF8140003208DF8160018208DF8B6
:1042B000170005A99D4800F09BFB0820ADF81400ED
:1042C00004208DF8170005A9984800F091FB2620DE
:1042D0008DF8000000208DF8010003208DF8020009
:1042E00001208DF80300684600F0B9FA019400201F
:1042F000ADF80800ADF80A00ADF80C00ADF81000FC
:104300000C20ADF80E0001A9874801F0E2FD012262
:1043100040F22551844801F074FE0121824801F0E9
:1043200064FE06B010BD10B540F225517E4801F084
:104330004DFF002862D07C4801F0C8FEC4B2782C42
:104340000AD100207D4908707D48006808B9012025
:1043500000E000207A49086078480078092808DAE7
:10436000784876490978445474480078401C734969
:1043700008707248007808282DD17248407830388B
:10438000642148436F498978303901EB810100EBA2
:1043900041016C48C078303808446B49086069486E
:1043A000407930384FF47A71484366498979303919
:1043B00001EBC10202EB011100EB81016148C07900
:1043C000303800EB800001EB40005E49097A084478
:1043D00030385E49086021465DA002F08FFA5D48E2
:1043E000008800F4004048B95A48008800F4804032
:1043F00060B10A2C03D000205649088020E05548BF
:10440000008840F400405349088019E00D2C06D183
:104410005048008840F480404E49088010E04D48E4
:104420000088C0F30D004C490C544A480088401CD9
:104430004849088008460088C72801DD0020088018
:1044400010BD10B586B004460121202000F08CFD7F
:104450000121880400F095FD0121404800F099FBFE
:104460004FF48070ADF8140003208DF8160018206A
:104470008DF8170005A93A4800F0BAFA4FF4007019
:10448000ADF8140004208DF8170005A9344800F099
:10449000AFFA27208DF8000003208DF801008DF879
:1044A000020001208DF80300684600F0D8F901945D
:1044B0000020ADF80800ADF80A00ADF80C00ADF82A
:1044C00010000C20ADF80E0001A9264801F001FDF6
:1044D000012240F22551234801F093FD012121489A
:1044E00001F083FD00202049088006B010BD10B502
:1044F00040F225511B4801F069FEB8B3194801F09C
:10450000E5FDC4B21848008800F4004070BB1648AE
:10451000008800F4804050B30A2C29D000201249B2
:10452000088046E000380140004400400008014097
:10453000E60000200A020020900800206C00002005
:1045400020000020400200207000002078000020A1
:104550002563000008020020C80700203000140076
:1045600000140140004800400C02002021E006E059
:104570009E48008840F400409C49088019E00D2CBA
:1045800006D19A48008840F480409849088010E09D
:1045900096480088C0F30D0095490C549348008854
:1045A000401C9249088008460088C72801DD002089
:1045B000088010BD10B586B004460121112000F01E
:1045C000D3FC0121C80400F0DCFC4FF48060ADF89E
:1045D000140003208DF8160018208DF8170005A987
:1045E000844800F005FA4FF40060ADF81400042090
:1045F0008DF8170005A97F4800F0FAF934208DF8EE
:10460000000003208DF801008DF8020001208DF8D4
:104610000300684600F023F901940020ADF808007B
:10462000ADF80A00ADF80C00ADF810000C20ADF8A4
:104630000E0001A9704801F04CFC012240F2255106
:104640006D4801F0DEFC01216B4801F0CEFC00203A
:104650006A49088006B010BD10B540F22551664881
:1046600001F0B4FD10B3644801F030FDC4B26348FA
:10467000008800F40040C8B96048008800F4804019
:1046800060B10A2C03D000205C49088020E05B4820
:10469000008840F400405949088019E00D2C06D1EB
:1046A0005648008840F480405449088010E0534840
:1046B0000088C0F30D0052490C5450480088401C3B
:1046C0004E49088008460088C72801DD0020088080
:1046D00010BD10B586B004460121302000F044FC26
:1046E0000121080500F04DFC4FF48050ADF8140096
:1046F00003208DF8160018208DF8170005A93D48F5
:1047000000F076F90420ADF814008DF8170005A923
:104710003C4800F06DF935208DF8000003208DF83D
:1047200001008DF8020001208DF80300684600F0BA
:1047300096F801940020ADF80800ADF80A00ADF835
:104740000C00ADF810000C20ADF80E0001A92E48A9
:1047500001F0BFFB012240F225512B4801F051FC32
:104760000121294801F041FC00202849088006B0B9
:1047700010BD10B540F22551234801F027FD10B3BC
:10478000214801F0A3FCC4B22048008800F4004096
:10479000C8B91E48008800F4804060B10A2C03D0DC
:1047A00000201A49088020E01848008840F40040A2
:1047B0001649088019E00D2C06D11448008840F4F1
:1047C00080401249088010E010480088C0F30D00B6
:1047D0000F490C540D480088401C0C4908800846BD
:1047E0000088C72801DD0020088010BD0C020020D1
:1047F0005809002000100140004C00400E0200202B
:10480000200A002000140140005000401002002047
:10481000E80A00200948804709480047FEE7FEE70C
:10482000FEE7FEE7FEE7FEE7FEE7FEE7FEE7FEE760
:1048300004480549054A064B704700001B11000853
:1048400031010008A00D0020A0130020A00F0020BF
:10485000A00F002031490143314A1160704770B503
:10486000002100230F22C47804B32D4C246804F4E3
:10487000E064C4F5E064210AC1F10403CA4044784D
:1048800004FA03F18478144021430901254C067889
:10489000A155047804F01F050124AC4005786D1182
:1048A000AD0005F1E025C5F8004109E0047804F009
:1048B0001F050124AC401C4D0678761145F82640B2
:1048C00070BD1A4A0A400243154B1B1F1A607047FD
:1048D00039B1134A121D12680243114B1B1D1A6095
:1048E00006E00F4A121D126882430D4B1B1D1A6011
:1048F0007047042808D14FF0E021096941F0040114
:104900004FF0E022116107E04FF0E021096921F04A
:1049100004014FF0E0221161704700000000FA0529
:104920000CED00E000E400E080E100E080FFFF1F0C
:1049300010B50446CC48844208D10121042000F07F
:104940002DFB0021042000F029FB46E0C7488442EB
:1049500008D10121082000F021FB0021082000F0EF
:104960001DFB3AE0C248844208D10121102000F02A
:1049700015FB0021102000F011FB2EE0BD48844201
:1049800008D10121202000F009FB0021202000F0A7
:1049900005FB22E0B848844208D10121402000F004
:1049A000FDFA0021402000F0F9FA16E0B3488442F5
:1049B00008D10121802000F0F1FA0021802000F0D0
:1049C000EDFA0AE0AE48844207D10121801500F0DB
:1049D000E5FA0021A01500F0E1FA10BD10B50121A3
:1049E000084600F0DBFA0021012000F0D7FA10BDE4
:1049F0002DE9F04102460025002600200023002476
:104A0000002791F803C00CF00F0591F803C00CF0DB
:104A1000100CBCF1000F03D091F802C04CEA050560
:104A200091F800C0BCF1000F31D0146800202BE0D9
:104A30004FF0010C0CFA00F3B1F800C00CEA0306C9
:104A40009E4220D183004FF00F0C0CFA03F7BC43B9
:104A500005FA03FC4CEA040491F803C0BCF1280FEA
:104A600006D14FF0010C0CFA00FCC2F814C00AE0A9
:104A700091F803C0BCF1480F05D14FF0010C0CFABE
:104A800000FCC2F810C0401C0828D1D31460B1F853
:104A900000C0BCF1FF0F34DD546800202EE000F1AF
:104AA000080C4FF0010808FA0CF3B1F800C00CEA4A
:104AB00003069E4221D183004FF00F0C0CFA03F73E
:104AC000BC4305FA03FC4CEA040491F803C0BCF1B2
:104AD000280F05D100F1080C08FA0CF8C2F8148070
:104AE00091F803C0BCF1480F07D100F1080C4FF05A
:104AF000010808FA0CF8C2F81080401C0828CED330
:104B00005460BDE8F0814FF6FF7101800221817091
:104B10000421C17070470246002093680B400BB11E
:104B2000012000E0002070470146886880B270478D
:104B300002460020D3680B400BB1012000E00020AA
:104B400070470146C86880B2704701617047416193
:104B500070470AB1016100E041617047C160704770
:104B60004FF480320A438261816182618269826985
:104B7000704702460020434B18684FF68073184078
:104B800040EA021008433F4B186070473E49C86135
:104B90007047F0B50A46002300240021002500F0EC
:104BA0000046B6F1004F02D1364EF16901E0354EB4
:104BB0007168C0F3034583B200F44016B6F5401F98
:104BC00008D121F070612F4E766826F070662D4F67
:104BD0007E6012E000F48016B6F5801F06D1032631
:104BE00006FA05F4A14341F0706106E0460D360176
:104BF00003FA06F6B14341F0706122B1460D360169
:104C000003FA06F6314300F00046B6F1004F02D138
:104C10001C4EF16101E01B4E7160F0BD30B5002209
:104C20008B071C0F0F2303FA04F2164B08338C106A
:104C300053F824309343134C08348D1044F8253036
:104C400023468C1053F824308C07240F00FA04F408
:104C500023430C4C08348D1044F8253030BD0A49EC
:104C6000DC3108607047000000080140000C014082
:104C7000001001400014014000180140001C0140D8
:104C8000002001400000014000002042DF48006891
:104C900040F00100DD49086008464068DC490840F2
:104CA000DA49486008460068DA490840D749086090
:104CB0000846006820F4802008600846406820F418
:104CC000FE0048604FF41F0088607047CF490968B4
:104CD00021F48031CD4A11601146096821F4802108
:104CE0001160B0F5803F03D0B0F5802F0ED106E003
:104CF000C649096841F48031C44A116007E0C349DC
:104D0000096841F4A021C14A116000E000BF00BF62
:104D1000704710B501460022002300204A11012AE5
:104D200002D1BA4C236806E0022A02D1B74C236AAA
:104D300001E0B64C636A01F01F02012494401C405C
:104D40000CB1012000E0002010BD38B5002000901B
:104D50000024002500BF3120FFF7DBFF0546009847
:104D6000401C00900098B0F5A06F01D0002DF2D04B
:104D70003120FFF7CEFF08B1012400E000242046D7
:104D800038BD01460020A14A106820F0F80040EA32
:104D9000C10010607047A0490860704702460020BB
:104DA0009A4B586820F47C1042EA01031843974B51
:104DB0005860704798490866704701460020934A3A
:104DC000506820F003000843506070478F484068E7
:104DD00000F00C007047014600208C4A506820F01B
:104DE000F00008435060704701460020874A506831
:104DF00020F4E06008435060704701460020834A79
:104E0000506820F4605040EAC1005060704729B1FA
:104E10007E4A527A02437D4B5A7204E07B4A527AB0
:104E200082437A4B5A7270477B49D8310860704789
:104E300001460020754A506820F440400843506005
:104E400070470021714A20321170704A82F8201098
:104E5000012802D004280AD104E001216B4A203243
:104E6000117005E00521694A2032117000E000BF91
:104E700000BF70476949086070476449096A014387
:104E8000624A11627047654944390860704730B51D
:104E900000210022002400235C4D6D6805F00C0108
:104EA00021B1042905D0082923D105E05C4D056016
:104EB00022E05B4D05601FE0544D6D6805F47012F3
:104EC000524D6D6805F48034022505EB92421CB901
:104ED000544D554305600BE04C4D6D6805F40035AD
:104EE0001DB1504D5543056002E04D4D55430560E1
:104EF00002E04B4D056000BF00BF444D6D6805F0FA
:104F0000F0010909484D6B5C0568DD4045603F4D87
:104F10006D6805F4E061090A434D6B5C4568DD404E
:104F200085603A4D6D6805F46051C90A3E4D6B5C71
:104F30004568DD40C560354D6D6805F44041890B1D
:104F40003A4D6B5CC568B5FBF3F5056130BD29B121
:104F50002E4A526902432D4B5A6104E02B4A526992
:104F600082432A4B5A61704729B1284A9269024309
:104F7000264B9A6104E0254A92698243234B9A6149
:104F8000704729B1214AD2690243204BDA6104E01B
:104F90001E4AD26982431D4BDA61704729B11B4A10
:104FA000D2680243194BDA6004E0184AD26882439F
:104FB000164BDA60704729B1144A12690243134B49
:104FC0001A6104E0114A12698243104B1A6170475A
:104FD00012494039086070470F49C86470470B494F
:104FE000C87170470948406A40F0807007494862BC
:104FF000704701460020054A92680A400AB1012024
:1050000000E000207047014988727047001002409C
:105010000000FFF8FFFFF6FE00004242800442421B
:1050200000127A0000093D0018020020280200202A
:1050300010B50446FE48844208D10121C014FFF790
:10504000ADFF0021E014FFF7A9FFC4E0B4F1804FE9
:1050500008D101210846FFF7AEFF00210120FFF72C
:10506000AAFFB8E0F348844208D101210220FFF7EB
:10507000A2FF00210220FFF79EFFACE0EE48844231
:1050800008D101210420FFF796FF00210420FFF73B
:1050900092FFA0E0E948844208D101210820FFF7EF
:1050A0008AFF00210820FFF786FF94E0E44884424D
:1050B00008D101211020FFF77EFF00211020FFF70B
:1050C0007AFF88E0DF48844208D101212020FFF7E1
:1050D00072FF00212020FFF76EFF7CE0DA48844257
:1050E00008D101214014FFF759FF00216014FFF798
:1050F00055FF70E0D548844209D10121C804FFF76B
:105100004DFF00214FF40020FFF748FF63E0D04837
:10511000844209D101210805FFF740FF00214FF427
:105120008010FFF73BFF56E0CA48844209D10121B5
:105130004805FFF733FF00214FF40010FFF72EFF63
:1051400049E0C548844208D101214020FFF733FFE0
:1051500000214020FFF72FFF3DE0C048844208D1E6
:1051600001218020FFF727FF00218020FFF723FF88
:1051700031E0BB48844208D101218015FFF71BFFB5
:105180000021A015FFF717FF25E0B648844209D19A
:1051900001210804FFF702FF00214FF48030FFF7E0
:1051A000FDFE18E0B048844209D101214804FFF710
:1051B000F5FE00214FF40030FFF7F0FE0BE0AB48A6
:1051C000844208D101218804FFF7E8FE00214FF452
:1051D0008020FFF7E3FE10BD00220288944B984226
:1051E0000ED0994B98420BD0B0F1804F08D0914B24
:1051F000984205D0904B984202D0904B984204D1EF
:105200004FF68F731A404B881A438D4B984207D044
:105210008C4B984204D04FF6FF431A40CB881A4378
:1052200002808B8883850B880385814B98420BD045
:10523000854B984208D08B4B984205D08A4B9842B8
:1052400002D08A4B984201D10B7A038601238382D4
:10525000704770B5002400220023058C4FF6FE76BF
:1052600035400584028C8388048B4FF68F752C4063
:10527000B51E2C400D882C43751E2A400D892A43EB
:105280004D882A436A4DA8420BD06F4DA84208D0E2
:10529000744DA84205D0744DA84202D0734DA84267
:1052A00013D14FF6F7752A404D892A434FF6FB7507
:1052B0002A408D882A434FF6FF652B404FF6FF5555
:1052C0002B408D892B43CD892B4383800483CD884C
:1052D0008586028470BD70B5002400220023058CF1
:1052E0004FF6EF7635400584028C8388048B48F6B0
:1052F000FF752C404FF6FF452C400D884FF6FF768A
:1053000006EA05252C434FF6DF752A400D8906EA8B
:1053100005152A434D8806EA05152A43444DA8423F
:1053200002D0494DA8421DD14FF67F752A404D89C4
:105330004FF6FF7606EA05152A434FF6BF752A4059
:105340008D8806EA05152A434FF6FF352B404FF2AC
:10535000FF752B408D8906EA85052B43CD8906EA2A
:1053600085052B4383800483CD880587028470BD27
:1053700070B5002400220023058C4FF6FF663540EF
:105380000584028C8388848B4FF68F752C404FF6F2
:10539000FC752C400D882C434FF6FF552A400D8993
:1053A0004FF6FF7606EA05252A434D8806EA0525CD
:1053B0002A431F4DA84202D0234DA8421DD14FF2CF
:1053C000FF752A404D894FF6FF7606EA05252A43E8
:1053D0004FF6FF352A408D8806EA05252A434EF60A
:1053E000FF752B404DF6FF752B408D8906EA05159C
:1053F0002B43CD8906EA05152B4383808483CD8812
:105400008587028470BD70B5002200230024058CBE
:105410004EF6FF7635400584038C8488828B48F6EF
:10542000FF752A404FF6FF452A400D8820E0000016
:10543000002C01400004004000080040000C004027
:10544000001000400014004000340140004C0140B6
:10545000005001400054014000180040001C004072
:10546000002000400040014000440140004801404D
:105470004FF6FF7606EA05252A434DF6FF752B40C9
:105480000D8906EA05352B434D8806EA05352B4381
:10549000FA4DA84202D0FA4DA84208D14BF6FF754A
:1054A0002C408D894FF6FF7606EA85152C438480C3
:1054B0008283CD88A0F84050038470BD828B4FF268
:1054C000FF331A408283828B4FF6FF7303EA012376
:1054D0001A4382837047F0B50C461546002200211E
:1054E0000026078C4EF6FF7C07EA0C070784828BA8
:1054F000018C4FF6FF7707EA043640F6FF473A4043
:105500004FF6FF7707EA05273A434FF6FF7707EA9A
:1055100003373A43D94FB8420ED0D94FB8420BD0D7
:10552000B0F1804F08D0D74FB84205D0D64FB8421F
:1055300002D0D64FB84206D14DF6FF77394046F437
:105540008057394305E047F6FF57394044F4805708
:10555000394382830184F0BD828B4FF6F3731A4086
:105560008283828B0A4382837047F0B50C461546CE
:10557000002200210026078C4FF6FF6C07EA0C077B
:105580000784828B018C4FF6FF7707EA04264FF6DB
:105590000C773A404FF6FF7707EA03172F433A4359
:1055A000B64FB8420ED0B64FB8420BD0B0F1804FD4
:1055B00008D0B44FB84205D0B34FB84202D0B34F71
:1055C000B84206D14FF6FF57394046F48077394349
:1055D00005E04FF2FF57394044F480773943828326
:1055E0000184F0BD028B4FF2FF331A400283028B1D
:1055F0004FF6FF7303EA01231A4302837047F0B5A5
:105600000C461546002200210026078C4FF6EF7C41
:1056100007EA0C070784028B018C4FF6FF7707EA35
:10562000041640F6FF473A404FF6FF7707EA033784
:105630003A434FF6FF7707EA05273A438F4FB842C0
:105640000ED08F4FB8420BD0B0F1804F08D08D4FA5
:10565000B84205D08C4FB84202D08C4FB84206D128
:105660004FF6DF77394046F01007394305E04FF633
:105670005F77394044F01007394302830184F0BD5D
:10568000028B4FF6F3731A400283028B0A430283A4
:105690007047F0B50C46154600220021068C4FF6E7
:1056A000FE773E400684028B018C4FF60C7632402A
:1056B0007E1C06EA03162E433243704EB0420ED0D3
:1056C0006F4EB0420BD0B0F1804F08D06D4EB0425B
:1056D00005D06D4EB04202D06C4EB04206D14FF6AE
:1056E000FD76314044F00106314305E04FF6F57692
:1056F000314044F00106314302830184F0BD70B5AE
:1057000005460C465D4885420ED05D4885420BD06B
:10571000B5F1804F08D05B48854205D05A48854294
:1057200002D05A48854200D100E000BF208850B91D
:105730002389A28861882846FFF7ABFFE1882846C5
:10574000FFF79EFF25E0208804280AD12389A2883C
:1057500061882846FFF753FFE1882846FFF742FF9C
:1057600017E0208808280AD12389A2886188284662
:10577000FFF7FBFEE1882846FFF7EEFE09E02389EC
:10578000A28861882846FFF7A6FEE1882846FFF731
:1057900095FE70BD2DE9F04105460C460026012717
:1057A000608808B9022600E00026A088012801D1FF
:1057B000022700E001272088A0B92389A2886188F8
:1057C0002846FFF766FFE1882846FFF759FF23893F
:1057D0003A4631462846FFF712FFE1882846FFF790
:1057E00001FF13E02389A28861882846FFF707FF9D
:1057F000E1882846FFF7F6FE23893A4631462846D7
:10580000FFF747FFE1882846FFF73AFFBDE8F08140
:105810000A884B881A438B881A43CB881A430B8912
:105820001A434B891A438B891A43A0F844207047C6
:105830004FF6FF71818000210180C180418001729B
:1058400070470021018041808180C18001814181B8
:105850008181C181704700210180418001218180C7
:105860000021C18001817047002101804180818039
:10587000C18001814181818170470000002C01407D
:10588000003401400004004000080040000C0040CB
:1058900021B1028842F00102028004E002884FF642
:1058A000FE731A400280704731B1B0F8442042F4D0
:1058B0000042A0F8442005E0B0F84420C2F30E02F4
:1058C000A0F8442070471AB183890B43838102E01A
:1058D00083898B43838170478182704741EA020349
:1058E000A0F8483070471AB183890B43838102E0E6
:1058F00083898B438381704701894FF6F872114089
:10590000018170470A46002101894FF68F731940C3
:1059100011430181704730B504460D4629462046A3
:10592000FFF7F0FF208940F00700208130BD2DE90E
:10593000F04104460D4616461F46602D06D13B46F3
:10594000012231462046FFF75AFE05E03B46012280
:1059500031462046FFF79DFE29462046FFF7D2FF3D
:10596000208940F007002081BDE8F08130B50C4669
:1059700000210189C9B24FF6FF7505EA03251543D9
:1059800025432943018130BD2DE9F04105460E46EE
:1059900017469846002443463A4631462846FFF7C4
:1059A000E5FF2C894FF6F870044044F007044FF6E9
:1059B0008F70044044F070042C81BDE8F081F0B594
:1059C00004460D4616461F463B46324629462046AB
:1059D000FFF7CCFF208940F480402081F0BD018595
:1059E000828270470A46002101884FF68F73194062
:1059F000114301807047F0B50C4615461E46002144
:105A0000002200230189028B038C4FF6F87739407E
:105A100021434FF6FC473A4040F201173A434FF614
:105A2000DD773B404FF6FF7707EA06172F433B43EE
:105A3000018102830384F0BD0A460021018B4FF6E9
:105A40008F7319401143018370470A460021018B6F
:105A500048F6FF7319404FF6FF7303EA0223194318
:105A6000018370470A460021818B4FF68F731940DE
:105A70001143818370470A460021818B48F6FF73EA
:105A800019404FF6FF7303EA0223194381837047DD
:105A900021B1028842F08002028004E002884FF6C1
:105AA0007F731A400280704721B1828842F004025D
:105AB000828004E082884FF6FB731A408280704730
:105AC00021B1828842F00802828004E082884FF689
:105AD000F7731A408280704721B1828842F0010238
