:020000040800F2
:10000000F01000203D400008990D00089B0D0008ED
:100010009F0D0008A30D0008A70D000800000000B8
:10002000000000000000000000000000AB0D000810
:10003000AD0D000800000000AF0D0008B10D000874
:100040005740000857400008574000085740000834
:100050005740000857400008574000085740000824
:100060005740000857400008574000085740000814
:100070005740000857400008574000085740000804
:1000800057400008574000085740000857400008F4
:1000900057400008574000085740000857400008E4
:1000A000574000083B12000857400008574000081E
:1000B00057400008DD220008F522000857400008DC
:1000C00057400008574000085740000857400008B4
:1000D0005740000857400008533B00081B3D0008EC
:1000E0005740000857400008574000085740000894
:1000F0005740000857400008574000085740000884
:1001000057400008574000080D23000857400008DA
:10011000873E0008A13F000845090008070D0008B8
:100120005740000857400008574000085740000853
:1001300000F002F800F068F80AA090E8000C824491
:100140008344AAF10107DA4501D100F05DF8AFF26E
:10015000090EBAE80F0013F0010F18BFFB1A43F0A5
:1001600001031847888E0000A88E00000A444FF053
:10017000000C10F8013B13F0070408BF10F8014B06
:100180001D1108BF10F8015B641E05D010F8016B4B
:10019000641E01F8016BF9D113F0080F1EBF10F8AF
:1001A000014BAD1C0C1B09D16D1E58BF01F801CBD2
:1001B000FAD505E014F8016B01F8016B6D1EF9D555
:1001C0009142D6D37047000000230024002500266A
:1001D000103A28BF78C1FBD8520728BF30C148BFAA
:1001E0000B607047632906F04580002070471FB5FB
:1001F00006F032F904000020002106F089F9401CC5
:1002000060601FBD10B510BD06F001F91146FFF783
:10021000EEFF00F00FF806F031F903B4FFF7F2FF3C
:1002200003BC03F0D1FB000030BF72B662B680F3AE
:10023000088870471CB500BF092003F06CFB4820FC
:1002400003F00CFA4FF4A06003F018FF00F0C4FEB6
:100250004FF4E131482003F0D1FB4FF4E13003F0DB
:1002600028FC02F0CBFE01F0BFFE01F01BFF01F005
:1002700063FF01F0ABFF02F0D6F800F08BFE00F058
:10028000F5FE01F037FD03F0D1F80021402002F027
:10029000D1FF01201023FBA20C210090002001F0CF
:1002A0007AFB01201823FAA21C210090002001F003
:1002B00072FB01F0B0F94FF4FA7003F007FA01F0A5
:1002C000CDF9092141F61F4000F0CAFF4FF4E1309B
:1002D00003F0CDFC4FF4E13003F05CFD4FF4E1306E
:1002E00003F00EFE322003F0F1F903F0E2F803F020
:1002F000B7F80121E84805F054FC22E301200C2363
:10030000E6A200210090084601F045FB01F083F9C8
:1003100088E0E7498888002103F02BF9E549086067
:10032000002002F065FFE4490860E2480068082800
:1003300003D00846006801280AD1E0480068401C44
:10034000DE49086008460068072801DB01200860D4
:10035000D848006802280AD1D8480068401ED7490A
:10036000086008460068002801DC0620086001F0EB
:1003700075F901200C23C9A200210090084601F064
:100380000AFB00200C210123CDE90010CB481021ED
:100390000268002001F02FFBC848006807283BD204
:1003A000DFE800F03A040D161F28310001200C236D
:1003B000C3A210210090082001F0EDFA2CE00120EA
:1003C0000C23C4A210210090082001F0E4FA23E0DD
:1003D00001200C23C4A210210090082001F0DBFAB8
:1003E0001AE001200C23C3A210210090082001F084
:1003F000D2FA11E001200C23C1A2102100900820A4
:1004000001F0C9FA08E001200C23BDA210210090E0
:10041000082001F0C0FA00BF00BF01F0FCF8322054
:1004200003F054F9A548006800283FF472AFA148D2
:100430000068052804D0A04800680D287FF469AF43
:1004400001F00CF900200C210123CDE900109B489C
:1004500000210268084601F0CEFA01200C23AAA26E
:1004600000210090184601F096FA01F0D4F84FF4FC
:10047000FA7003F02BF901F0F1F8904800680728B2
:1004800070D2DFE800F06F0491D7FDFCFB0041F66D
:100490001F41312000F048FE4021002002F0CAFE3A
:1004A0007FE002F0BAFC052003F010F9072002F00B
:1004B000BDFEC0F17F0096490860082002F0B6FE3C
:1004C000C0F17F0093490860052002F0AFFEC0F143
:1004D0007F0091490860062002F0A8FEC0F17F006D
:1004E0008E4908608A4800688030A0B98948006851
:1004F000803080B988480068803060B9084600685C
:10050000803040B9002082490860824908608249F1
:10051000086082490860012002F06AFE66490860AE
:100520000846006809280AD17D4800680A2803D1D6
:1005300005207B49086002E00A20794908605E488E
:1005400000680A2803D101207649086002E00020F3
:1005500074490860584800680B2804D1802072490B
:1005600008600CE0ECE1544800680C2804D16FF0FE
:100570007F006D49086002E000206B4908604C492B
:100580008888012102F0F5FF032804D0012002F041
:100590002FFE0F2805D101F061F8002047490860BF
:1005A00000E07EE700BFCBE141F61F41312000F0C3
:1005B000BBFD01F053F801200C235CA20021009048
:1005C000084601F0E8F901200C235DA210210090FB
:1005D000002001F0E0F901F01EF828E0002000F012
:1005E00055FD3449086008460068022815D171217C
:1005F000594805F07BF95948006808B9012000E026
:1006000000205649086041F61F41312000F08CFD62
:1006100041F61F41632000F0B4FD26480068012820
:1006200005D101F01BF800202449086000E0D5E75F
:1006300000BF85E141F61F41312000F075FDAEE0BD
:100640003220334908600020324908604FF47A7044
:1006500003F03CF832202F49086000202C49086044
:100660004FF47A7003F032F86FF0310028490860D7
:100670000020284908604FF47A7071E05FE115E1CD
:1006800090E000002D2D4E434550552D2D000000CB
:100690004349453531300000002401405768696303
:1006A000682050726F6772616D3F28312D362900C6
:1006B0003007002000000020D000002004000020AF
:1006C0002D5053325F72656D6F746520636F6E7469
:1006D000726F6C002D4175746F2052756E206F66BD
:1006E00020636875736169002D72756E205465739F
:1006F000740000002D4B6579205465737400000070
:100700002D4E6F6E6500000050726F6772616D0054
:10071000C0000020C4000020C8000020CC00002041
:10072000BC0000208C012242D4000020507265736E
:1007300073204B65793120746F207374617274007B
:100740005072657373204B65793020746F20726529
:100750007475726E000000000044004094812142D4
:1007600002F0B4FF6FF03100FA4908600020FA4946
:1007700008604FF47A7002F0A9FFF84988880121D7
:1007800002F0F7FE032804D0012002F031FD0F280B
:1007900005D100F063FF0020F149086000E04FE759
:1007A00000BFCDE07FE00020EE490860EE49087010
:1007B00011E0ED48007800EB4000E84901EB400013
:1007C0008088E84909680844E6490860E6480078F6
:1007D000401CE5490870E44800780A28E9DBE14854
:1007E000006806F083FB8146E04906F081FA044682
:1007F00006F0F0F907464FF06632DD4B06F0B6F82A
:10080000054605F09BFEDB49886001200C23DAA237
:1008100014210090002001F0BEF801200C21CDE948
:100820000010CE48828806231421322001F0E3F81C
:1008300001200C23D3A200210090084601F0ABF860
:10084000CC49886806F032FB044601200C210623BF
:100850002246CDE900100021322001F0CCF8BF493A
:100860008888012102F085FE044601200C21034600
:100870002246CDE900101E21002001F0BCF800F056
:10088000CAFEB6498888012102F073FE032804D00D
:10089000012002F0ADFC0F2805D100F0DFFE0020A2
:1008A000AF49086000E07EE700BF49E046E0012074
:1008B00001F0D6FC4042B6490860032001F0D0FCAC
:1008C000B4490860052001F0CBFCB349086004205E
:1008D00001F0C6FC4042B149086001200C2106230A
:1008E000CDE90010AA4800210268084601F083F80B
:1008F00001200C210623CDE90010A6483221026810
:10090000002001F078F801200C210623CDE9001029
:10091000A14800210268322001F06DF801200C216D
:100920000623CDE900109D4832210268084601F0F7
:1009300062F800F070FE0A2002F0C8FEB7E700BFC0
:1009400000BFDBE42DE9FF5F0121954804F07DFE47
:1009500000287DD09348006893490968CDE90010CC
:100960009248036892480268924801689248006879
:1009700002F04DF891480068322800DA0126012E75
:1009800009D18E480068642805DD8D480068401C48
:100990008B4908600026012E0AD18848006810F1B2
:1009A000640F05DA86480068401E85490860002605
:1009B00080480068322801DA4FF00109B9F1010FCF
:1009C0000AD17C480068642806DD7E480068401C27
:1009D0007C4908604FF00009B9F1010F0BD175484F
:1009E000006810F1640F06DA76480068401E754909
:1009F00008604FF000097448006805F064FF07467E
:100A0000884654490968544A126811446F4A12686A
:100A1000881805F058FF00226D4BCDE9000105F064
:100A2000CBFD82463A46434605F0A0FFCDE90201E0
:100A300005F01AFF674908606348006805F043FF46
:100A4000CDE9000143490968434A1268891A00E068
:100A50004BE15E4A1268881A05F035FF074600220E
:100A60005B4B05F0A9FD8246DDE9002305F07EFF22
:100A7000CDE9020105F0F8FE5749086052480068C8
:100A800005F021FF82468B4632490968324A1268D6
:100A900011444E4A1268881A05F015FF07460022D5
:100AA0004B4B05F089FD52465B46CDE9000105F050
:100AB0005DFFCDE9020105F0D7FE484908604248D4
:100AC000006805F000FF82468B4622490968224AE9
:100AD0001268891A3D4A1268881805F0F4FE074624
:100AE00000223B4B05F068FD52465B46CDE9000114
:100AF00005F03CFFCDE9020105F0B6FE384908607B
:100B00003848008800F40040C0B136480088C0F37F
:100B10000D05002404E03448005D34490855641C88
:100B2000AC42F8DB0021314A601C115400202D49F1
:100B30000880104605F05FFB1E4908602C480088BD
:100B400000F4004028B12A480088C0F30D050024B5
:100B500055E062E0C4000020C00000203007002003
:100B600004000020D8000020DC0000200000204706
:100B700066660A4070020020636875736869202009
:100B8000000000006469616E7961202000000000AF
:100B9000080000200C00002010000020140000209D
:100BA00000100040EC000020F8000020F0000020C1
:100BB000F4000020E8000020E4000020E000002015
:100BC000FC00002000010020BC000020D400002018
:100BD00000006040AC000020B0000020B400002005
:100BE000B8000020D6010020C40900201302002014
:100BF000D40100205148005D51490855641CAC42A5
:100C0000F8DB00214E4A601C115400204D49088039
:100C1000104605F0F0FA4C4908604C48008800F492
:100C20000040C0B149480088C0F30D05002404E02D
:100C30004748005D47490855641CAC42F8DB002179
:100C4000444A601C1154002040490880104605F0B9
:100C5000D2FA41490860012001F002FB40423F49BD
:100C60000860032001F0FCFA3D490860052001F00E
:100C7000F7FA3C490860042001F0F2FA40423A4990
:100C800008603A4801683548006801F019FC3849A5
:100C90000860384801683248006801F05CFC364959
:100CA0000860364801682F48006801F09FFC34490D
:100CB0000860344801682C48006801F0E2FC3249C1
:100CC00008602B480168012001F077FB2A48016881
:100CD000022001F072FB2A480168032001F06DFB3D
:100CE00029480168042001F068FB0121274804F02D
:100CF000BDFC2748006808B9012000E00020244915
:100D00000860BDE8FF9F10B50121224804F09DFC5A
:100D100058B101211F4804F0A9FC1D48006808B91A
:100D2000012000E000201A49086010BD70B504469B
:100D3000204605F060FA0546284670BDFC080020F4
:100D400031020020D4010020E4000020D201002064
:100D5000340800204F020020E0000020080000209E
:100D60000C0000201000002014000020AC00002027
:100D700088000020B00000208C000020B40000207B
:100D800090000020B80000209400002000100040D7
:100D90009401234200140040704700BFFEE700BFEB
:100DA000FEE700BFFEE700BFFEE7704770477047F1
:100DB000704700000CB50020019000906C4800685E
:100DC00040F480306A49086000BF6948006800F458
:100DD000003000900198401C0190009818B90198CB
:100DE000B0F5A06FF1D16248006800F4003010B196
:100DF0000120009001E0002000900098012843D1DC
:100E00005C48006840F010005A49086008460068D5
:100E100020F0030008600846006840F00200086007
:100E20005348406852494860084640684860084650
:100E3000406840F4806048600846406820F47C10B8
:100E400048600846406840F4E8104860084600687A
:100E500040F08070086000BF4548006800F00070F6
:100E60000028F9D04248406820F00300404948601B
:100E70000846406840F00200486000BF3C484068B7
:100E800000F00C000828F9D10CBD10B5FFF792FF57
:100E900010BD10B53648006840F0010034490860C4
:100EA00008464068344908403149486008460068AF
:100EB000324908402E4908600846006820F4802026
:100EC00008600846406820F4FE0048604FF41F00A8
:100ED0008860FFF7DAFF4FF000602949086010BD15
:100EE00010B5002100200022214B5B6803F00C01AB
:100EF00021B1042906D0082928D107E0214B224C32
:100F0000236027E01F4B204C236023E0184B5B68D5
:100F100003F47010164B5B6803F48032022303EB7A
:100F2000904022B9194B4343174C23600DE0104BFE
:100F30005B6803F4003323B1144B4343124C23602A
:100F400003E0104B4343104C236003E00D4B0E4C69
:100F5000236000BF00BF064B5B68C3F303130C4C58
:100F6000E15C094B1B68CB40074C236010BD0000BF
:100F700000100240002002400000FFF8FFFFF6FED4
:100F800008ED00E000127A000401002000093D0095
:100F90000801002008B50121482003F0F9FB2020BA
:100FA000ADF8000010208DF8030003208DF802003A
:100FB00069462B4803F030F92021294803F0D9F97C
:100FC0002020ADF800006946264803F025F92021CD
:100FD000244803F0CEF908BD08B50121102003F024
:100FE000D7FB0820ADF8000010208DF80300032087
:100FF0008DF8020069461C4803F00EF908211A48D2
:1010000003F0B9F908BD08B50121102003F0C0FBB9
:101010004FF40060ADF8000010208DF803000320AD
:101020008DF802006946104803F0F6F84FF40061AD
:101030000D4803F09EF94FF48050ADF800001020E9
:101040008DF8030003208DF802006946064803F07E
:10105000E3F84FF48051044803F08DF908BD000017
:10106000000C0140001801400010014008B50121AA
:10107000442003F08DFB1C20ADF8000048208DF8C3
:1010800003006946264803F0C7F808BD10B50446BA
:1010900014B10120234908702248007848B3102178
:1010A0001F4803F04CF948B108211D4803F047F9E7
:1010B00020B104211A4803F042F9D0B9052002F00A
:1010C00005FB0020174908701021154803F037F977
:1010D00008B9012010BD0821114803F030F908B902
:1010E0000220F7E704210E4803F029F9A8B90320EC
:1010F000F0E710210A4803F022F901280DD1082158
:10110000074803F01CF9012807D10421044803F023
:1011100016F9012801D1034908700020DAE7000020
:1011200000180140180100207FB505460C4601213A
:10113000102003F03AFBADF80850ADF80440002051
:10114000ADF80A00ADF8060001A9EA4803F058FC22
:1011500001221146E74803F0CAFF36208DF800004F
:1011600000208DF8010002208DF8020001208DF88A
:101170000300684602F087FF0121DE4803F09CFF70
:101180007FBD7FB505460C460121202003F00DFBF5
:10119000ADF80850ADF804400020ADF80A00ADF8F5
:1011A000060001A9D44803F02BFC01221146D248C5
:1011B00003F09DFF37208DF8000000208DF801001E
:1011C00003208DF8020001208DF80300684602F02C
:1011D0005AFF0121C84803F06FFF7FBD7FB5054668
:1011E0000C460121C80203F0D3FAADF80850ADF85F
:1011F00004400020ADF80A008DF80C00ADF80600A0
:1012000001A9BE4803F0FCFB01221146BC4803F0D3
:101210006EFF19208DF8000000208DF801000320DA
:101220008DF8020001208DF80300684602F02BFFC4
:101230000121B24803F040FF7FBD10B50121AF4846
:1012400004F003FA58B10121AC4804F00FFAAD489C
:10125000006808B9012000E00020AA49086010BD1C
:1012600030B589B005460C460121480303F090FAD9
:101270000121112003F08CFA4FF47070ADF82000BA
:1012800018208DF8230003208DF8220008A99E481D
:1012900002F0C2FFADF81850ADF814400020ADF8D0
:1012A0001A00ADF8160005A9954803F0A9FB6020C7
:1012B000ADF804000120ADF806000020ADF80A00EA
:1012C000ADF80C0001A98E4803F0D7FB01A98C48AA
:1012D00003F015FC01A98A4803F05EFC01A98848C7
:1012E00003F0A5FC0121864803F0F2FE08218448A2
:1012F00004F012F80821824804F017F80821804809
:1013000004F020F808217E4804F025F801217C48EB
:1013100003F0D2FF01217A4803F0CEFE09B030BDC0
:1013200030B589B005460C460121022003F03DFA94
:1013300001210D2003F02CFA03208DF82200182043
:101340008DF82300C020ADF8200008A96F4802F0F6
:1013500063FF03208DF8220018208DF8230003205E
:10136000ADF8200008A96A4802F056FFADF8185001
:10137000ADF814400020ADF81A00ADF8160005A92C
:10138000644803F03DFB6020ADF804000120ADF897
:1013900006000020ADF80C0001A95E4803F06DFBCB
:1013A00008215C4803F0B8FF01A95A4803F0A7FBE5
:1013B0000821584803F0B9FF01A9564803F0ECFB97
:1013C0000821544803F0BEFF01A9524803F02FFC46
:1013D0000821504803F0BFFF01214E4803F06CFE86
:1013E00009B030BD7FB505460C460121084603F023
:1013F000DCF9ADF80850ADF804400020ADF80A0063
:10140000ADF8060001A94FF0804003F0F9FA01227F
:101410001146900703F06BFE1C208DF800000020A1
:101420008DF8010003208DF8020001208DF80300E3
:10143000684602F028FE0121880703F03DFE7FBDCB
:101440007FB505460C460121042003F0AEF9ADF846
:101450000850ADF804400020ADF80A00ADF80600D1
:1014600001A92D4803F0CCFA012211462A4803F0C5
:101470003EFE1E208DF8000001208DF801000220A4
:101480008DF8020001208DF80300684602F0FBFD94
:101490000121214803F010FE7FBD7FB505460C46B3
:1014A0000121082003F081F9ADF80850ADF804409F
:1014B0000020ADF80A00ADF8060001A9174803F0B6
:1014C0009FFA01221146154803F011FE32208DF8D3
:1014D000000000208DF8010003208DF8020001209B
:1014E0008DF80300684602F0CEFD01210B4803F0A1
:1014F000E3FD7FBD0010004000140040002C0140BF
:1015000000340140940123420010014000080140D2
:10151000000C01400004004000080040000C0040A6
:1015200070B504460E462EB14FF40041FB4802F060
:1015300020FF04E04FF40041F84802F01CFF0221B4
:10154000F64802F018FF002519E04FF48051F448E6
:1015500002F011FF04F0800020B12021EF4802F0DA
:1015600008FF03E02021ED4802F005FF4FF4805111
:10157000EB4802F0FEFE6006040E681CC5B2082DA2
:10158000E3DB0221E54802F0F4FE4FF40041E348BA
:1015900002F0EFFE70BD10B504461CB90021A62074
:1015A000FFF7BEFF012C03D10021A720FFF7B8FFF2
:1015B00010BD10B504463CB90021C820FFF7B0FFAC
:1015C0000021A120FFF7ACFF012C07D10021C02092
:1015D000FFF7A6FF0021A020FFF7A2FF10BD10B566
:1015E00000218D20FFF79CFF00211420FFF798FFBA
:1015F0000021AF20FFF794FF10BD10B500218D2012
:10160000FFF78EFF00211020FFF78AFF0021AE2098
:10161000FFF786FF10BD70B500241CE004F1B00197
:10162000C8B20021FFF77CFF00210846FFF778FFD2
:1016300000211020FFF774FF002508E0B94901EBF5
:10164000C501085D0121FFF76BFF681CC5B2802D45
:10165000F4DB601CC4B2082CE0DB70BD70B5002464
:101660000CE0002506E00020AE4901EBC50108555D
:10167000681CC5B2802DF6DB601CC4B2082CF0DB00
:10168000FFF7C9FF70BDF0B514460B46CF1701EB4D
:101690005777C7F3C702CF1701EB5777FF10A1EBBE
:1016A000C707FEB20123B340DDB24CB19D4B03EB43
:1016B000C0039B5C2B439B4F07EBC007BB541AE056
:1016C000984B03EBC0039B5CDB43964F07EBC007D3
:1016D000BB54944B03EBC0039B5C2B43914F07EB34
:1016E000C007BB548F4B03EBC0039B5CDB438D4FA8
:1016F00007EBC007BB54F0BD2DE9FF4F84B0814616
:101700008A460020029083460698A0EB09040798B9
:10171000A0EB0A06CDF80490CDF800A0002C01DD66
:10172000012705E00CB9002702E04FF0FF376442C3
:10173000002E02DD4FF0010806E016B94FF0000858
:1017400002E04FF0FF386642B44201DD254600E07A
:101750003546002003901EE0009AD1B2019AD0B223
:10176000119AFFF790FF029820440290B344029828
:10177000A84205DD0298401B029001983844019070
:10178000AB4504DDABEB050B00984044009003989B
:10179000401C80B20390691C03988842DCDB08B0CF
:1017A000BDE8F08F2DE9F04306460F469046002530
:1017B000444643E03A1BD1B27219D0B20122FFF77E
:1017C00062FF3A1BD1B2721BD0B20122FFF75BFF5E
:1017D0003A19D1B2721BD0B20122FFF754FF3A1965
:1017E000D1B27219D0B20122FFF74DFF7A19D1B2EE
:1017F0003219D0B20122FFF746FF7A1BD1B232195B
:10180000D0B20122FFF73FFF7A1BD1B2321BD0B218
:101810000122FFF738FF7A19D1B2321BD0B2012270
:10182000FFF731FF6D1C05FB05F004FB040008FB0E
:101830001809B9F1000F01DD641E6D1E60006043E0
:1018400008FB08F18842B5DABDE8F0832DE9FE4FC8
:101850000746884692461C460197CDF80080082C22
:1018600002D14FF006091FE02046E31704EB537343
:10187000DB1021464FEAE47C04EB5C7C4FEAEC0C85
:10188000A4EBCC0CBCF1000F02D04FF0010C01E036
:101890004FF0000C6344224604EBD27C4FEA6C0C00
:1018A00003FB0CF303F0FF09AAF12000C6B20025E8
:1018B0006DE0082C07D106EB46001B4901EB400008
:1018C00010F805B01DE00C2C07D106EB46001749B7
:1018D00001EB800010F805B013E0102C05D114487E
:1018E00000EB061010F805B00BE0182C07D106EB42
:1018F000C600104901EB800010F805B001E0BDE81A
:10190000FE8F002002902BE00BF00100A0B14146B9
:1019100038460C9AFFF7B7FE18E0000000140140AB
:10192000002001407C020020DA71000802740008E7
:1019300076780008667E00080C9808B9012000E05F
:101940000020024641463846FFF79DFE4FEA6B0BEA
:1019500008F1010000F0FF080298401CC0B202909C
:1019600002980828D0DB781CC7B2082C0BD004EBF7
:10197000D4714A100199791A8A4204D1019F0098C2
:101980000830C0B20090DDF80080681CC5B24D453B
:101990008FDB00BFB3E72DE9F84106460F4614463A
:1019A0001D46DDF81C8013E0CDF8008022782B4620
:1019B00039463046FFF74AFF082D02D1B01DC6B2A6
:1019C00005E0284605EBD07106EB6101CEB2641C40
:1019D0002078202802DB20787E28E5DDBDE8F8812C
:1019E00010B50246012000E050430B1EA1F1010496
:1019F000E1B2F9D110BD2DE9FF4F82B00646914604
:101A00001F46DDE90F4A4FF0000B082C01D14FF0C3
:101A1000020B002530E0781B401EC1B20A20FFF700
:101A2000DFFFB9FBF0F00A21B0FBF1F201FB120875
:101A3000B8F1000F0ED104EBD4710BEB610101FB87
:101A40000561C8B223463022CDE900A40399FFF70F
:101A5000FDFE0FE004EBD4710BEB610101FB0561AE
:101A6000C8B208F13001CAB22346CDE900A40399F7
:101A7000FFF7ECFE681CC5B2BD42CCDB06B0BDE88A
:101A8000F08F2DE9FC4F0746884616461C46BB469C
:101A9000CDF804802046E21704EB5272D2102146A2
:101AA000E31704EB5373DB10A4EBC3030BB1012367
:101AB00000E000231A44624392B20092002555E0F0
:101AC000102C05D1EB4800EB461010F805A01BE0E8
:101AD000182C07D106EBC600E74901EBC00010F84F
:101AE00005A011E0202C05D1E44800EBC61010F849
:101AF00005A009E0402C05D1E14800EB462010F894
:101B000005A001E0BDE8FC8F4FF000091CE00AF0E1
:101B1000010028B1414638460B9AFFF7B4FD09E0B1
:101B20000B9808B9012000E00020024641463846E3
:101B3000FFF7A9FD4FEA6A0A08F1010000F0FF086B
:101B400009F1010000F0FF09B9F1080FDFDB781C93
:101B5000C7B2A7EB0B00A04204D15F460198083042
:101B6000C0B20190DDF80480681C85B200988542FF
:101B7000A6DB00BFC6E708B5804689469246002628
:101B800000274BE04FB91023324618218020CDF8B2
:101B900000A0FFF776FF701CC6B2464522D14FF079
:101BA000000B1AE0012410E000250AE0B54800EB24
:101BB000C400415D601EB34A02EBC0004155681C81
:101BC000C5B2082DF2DB601CC4B2902CECDBFFF731
:101BD00022FD0BF1010000F0FF0B4FEA0910584500
:101BE000E0DC0026781CC7B2102F00D100270124AA
:101BF00010E000250AE0A34800EBC400415D601E30
:101C0000A04A02EBC0004155681CC5B2082DF2DBAA
:101C1000601CC4B2902CECDBFFF7FDFCB2E72DE9B1
:101C2000FF4F05460E4617461C46DDF838904FF02C
:101C3000000A0095B3462046E21704EB5272D21018
:101C40002146E31704EB5373DB10A4EBC3030BB182
:101C5000012300E000231A44D4B24FF0000845E00D
:101C6000002003903BE00D9810F80A0002900AF162
:101C700001001FFA80FA002001901DE0029800F098
:101C8000010028B14A4631462846FFF7FCFC0AE02D
:101C9000B9F1000F01D1012000E0002002463146D9
:101CA0002846FFF7F0FC029840100290701CC6B264
:101CB0000198401CC0B2019001980828DEDB681C26
:101CC000C5B20098281AB84204D1009D0BF1080053
:101CD00000F0FF0B5E460398401CC0B203900398CF
:101CE000B842C0DB08F1010000F0FF08A045B7DBF7
:101CF000BDE8FF8F08B501214FF4B07002F048FD38
:101D00004FF48050ADF8000010208DF80300032040
:101D10008DF8020069465C4802F07EFA4FF480516B
:101D2000594802F026FB48F22240ADF8000010208E
:101D30008DF8030003208DF802006946534802F035
:101D40006BFA48F22241514802F013FB4FF4A060B5
:101D5000ADF8000010208DF8030003208DF802007C
:101D600069464B4802F058FA4FF4A061484802F027
:101D700000FB4FF48061454802F0FDFAC82001F0F5
:101D8000A5FC4FF48061414802F0F3FA0021AE2037
:101D9000FFF7C6FB00210846FFF7C2FB0021102019
:101DA000FFF7BEFB00214020FFF7BAFB0021812096
:101DB000FFF7B6FB0021CF20FFF7B2FB0021A120E7
:101DC000FFF7AEFB0021C820FFF7AAFB0021A620E9
:101DD000FFF7A6FB0021A820FFF7A2FB00213F2070
:101DE000FFF79EFB0021D320FFF79AFB0021084656
:101DF000FFF796FB0021D520FFF792FB0021802002
:101E0000FFF78EFB0021D920FFF78AFB0021F1208C
:101E1000FFF786FB0021DA20FFF782FB002112206A
:101E2000FFF77EFB0021DB20FFF77AFB002140203B
:101E3000FFF776FB00212020FFF772FB0021022034
:101E4000FFF76EFB00218D20FFF76AFB00211420B5
:101E5000FFF766FB0021A420FFF762FB0021A6200C
:101E6000FFF75EFBFFF7FAFB0021AF20FFF758FBFF
:101E700008BD0000C28B0008228D00086A8D000892
:101E8000EA8D00087C02002000200140001401407F
:101E90000018014030B503461C788C545D78541C02
:101EA0000D559D78941C0D55DD78D41C0D5530BD15
:101EB00013B50C460A2C00DC04B91CBD0B2C43D214
:101EC000DFE804F042060C12181E242A30363C00CB
:101ED000012244496846FFF7DDFF35E0052241490C
:101EE0006846FFF7D7FF2FE009223E496846FFF713
:101EF000D1FF29E00D223B496846FFF7CBFF23E0E5
:101F0000112238496846FFF7C5FF1DE01522354903
:101F10006846FFF7BFFF17E0192232496846FFF70E
:101F2000B9FF11E01D222F496846FFF7B3FF0BE010
:101F300021222C496846FFF7ADFF05E025222949FB
:101F40006846FFF7A7FF00BF00BF00BFB5E7014627
:101F50000A2900DC09B9002070472420214A1070AA
:101F60000B293CD2DFE801F03B060B10151A1F24A9
:101F7000292F350005201B4A50710620ECE7092067
:101F8000184A50720A20E7E70D20164A50730E20B7
:101F9000E2E71120134A50741220DDE71520114AA0
:101FA00050751620D8E719200E4A50761A20D3E72C
:101FB0001D200C4A50771E20CEE72120094A82F8C6
:101FC00021002220C8E72520064A82F82500262085
:101FD000C2E72920034A82F829002A20BCE7002012
:101FE000BAE70000FC06002000B587B001210846D2
:101FF00002F0CEFB0121C80202F0CAFB0121402001
:1020000002F0C6FB0121C74802F0D7F94FF4007077
:10201000ADF8000004208DF803006946C24802F0C4
:10202000FBF84FF40060ADF8000004208DF80300C9
:102030006946BD4802F0F0F804A803F00DF800204E
:10204000ADF810004FF6FF70ADF814000020ADF8A9
:102050001600ADF8120004A9B44802F0D1FC002328
:102060001A460321B14803F0DAF801A803F007F893
:102070000A20ADF80C0001A9AC4802F054FF012180
:10208000AA4803F0DFFA01221146A84803F02FF80E
:102090000021A64803F0A4FA0121A44803F00CF89B
:1020A00007B000BD00B587B00121022002F07DFB22
:1020B0000121042002F06CFBC020ADF800000420D8
:1020C0008DF8030069469A4802F0A6F804A802F0C9
:1020D000C3FF0020ADF810004FF6FF70ADF81400FC
:1020E0000020ADF81600ADF8120004A9914802F0E6
:1020F00087FC00231A4603218E4803F090F801A8BC
:1021000002F0BDFF0A20ADF80C0001A9894802F0D9
:102110000AFF0121874803F095FA012211468548FC
:1021200002F0E5FF0021834803F05AFA01218148BB
:1021300002F0C2FF07B000BD00B587B00121042046
:1021400002F033FB0121082002F022FBC020ADF891
:10215000000004208DF803006946774802F05CF81F
:1021600004A802F079FF0020ADF810004FF6FF70D0
:10217000ADF814000020ADF81600ADF8120004A967
:102180006E4802F03DFC00231A4603216B4803F021
:1021900046F801A802F073FF0A20ADF80C0001A96F
:1021A000664802F0C0FE0121644803F04BFA0122A8
:1021B0001146624802F09BFF0021604803F010FACC
:1021C00001215E4802F078FF07B000BD00B587B07E
:1021D0000121082002F0E9FA0121042002F0D8FAD6
:1021E0000320ADF8000004208DF803006946504834
:1021F00002F012F804A802F02FFF0020ADF8100042
:102200004FF6FF70ADF814000020ADF81600ADF8E1
:10221000120004A94A4802F0F3FB00231A460321E6
:10222000474802F0FCFF01A802F029FF0A20ADF8A0
:102230000C0001A9424802F076FE0121404803F05B
:1022400001FA012211463E4802F051FF00213C48AC
:1022500003F0C6F901213A4802F02EFF07B000BD95
:102260000146012906D003290DD0042914D00529DF
:1022700024D11AE02D4A2432128810B200222B4BAE
:1022800024331A801CE02B4A2432128810B2002218
:10229000284B24331A8013E0284A2432128810B2C3
:1022A0000022264B24331A800AE0254A2432128861
:1022B00010B20022224B24331A8001E0002000BF1C
:1022C00000BF704719481030008818481030008847
:1022D00020F0010015491031088070471548103072
:1022E000008814481030008820F001001149103196
:1022F000088070471148103000881048103000885E
:1023000020F001000D491031088070470C48103052
:1023100000880B481030008820F001000849103177
:1023200008807047C000160000180140002C0140D2
:102330000008014000040040000C0140000800407B
:10234000000C00400146002901DA484200E008463E
:102350007047012806D002280ED0032816D0042882
:1023600029D11DE0FE4A116009B9012200E00022D6
:10237000FB4B1B1D1A601EE0FA4A116009B90122CD
:1023800000E00022F74B1B1F1A6014E0F64A1160B0
:1023900009B9012200E00022F34B1B1F1A600AE07A
:1023A000F04A1C3A116009B9012200E00022ED4B0D
:1023B000183B1A6000BF00BF704770B505460C4659
:1023C000002C04DA00212846FFF7C3FF03E00121B7
:1023D0002846FFF7BEFF2046FFF7B4FF0446B4F5DA
:1023E0007A6F01DD4FF47A64012D06D0022D09D0F9
:1023F000032D0CD0042D14D10EE0A1B2DB4803F064
:10240000F3F80EE0A1B2D94803F0F0F809E0A1B268
:10241000D64803F0EDF804E0A1B2D44803F0EAF89E
:1024200000BF00BF70BD08B50121582002F0B0F90F
:102430000320ADF8000010208DF8030003208DF874
:1024400002006946CA4801F0E7FE0320ADF800002B
:1024500010208DF8030003208DF802006946C5485E
:1024600001F0DAFEC320ADF8000010208DF8030063
:1024700003208DF802006946BF4801F0CDFE01211E
:10248000BB4801F078FF0221B94801F074FF012137
:10249000B84801F070FF0221B64801F06CFF01213D
:1024A000B54801F068FF0221B34801F064FF402104
:1024B000B14801F060FF8021AF4801F05CFF08BD2A
:1024C0002DE9F05F04460D4660422844AB490860A0
:1024D0000846006804F00AFD8346A948016858468A
:1024E00004F030FD8046A5490968A64A1268881A9A
:1024F00004F0FCFC8346A4480168584604F022FD21
:102500008146414604F092FB0746A048006804F06B
:10251000EDFC8246394604F089FB064604F0AAFC2D
:102520009A4908600846006840F6B831884202DDE2
:10253000084696490860954800689549884202DA3D
:102540000846924908608D4800688E4908608F48A7
:102550000068BDE8F09F2DE9F05F04460D4660423B
:1025600028448C4908600846006804F0BFFC834694
:1025700083480168584604F0E5FC804685490968AF
:10258000854A1268881A04F0B1FC83467E480168C7
:10259000584604F0D7FC8146414604F047FB074605
:1025A0007E48006804F0A2FC8246394604F03EFBF7
:1025B000064604F05FFC794908600846006840F66A
:1025C000B831884202DD08467449086073480068E3
:1025D0006F49884202DA0846704908606D48006811
:1025E0006D4908606D480068BDE8F09F2DE9F05F17
:1025F00004460D4660422844694908600846006860
:1026000004F074FC83465E480168584604F09AFC66
:10261000804663490968634A1268881A04F066FCB8
:10262000834659480168584604F08CFC814641466F
:1026300004F0FCFA07465C48006804F057FC824648
:10264000394604F0F3FA064604F014FC56490860D3
:102650000846006840F6B831884202DD0846524913
:102660000860514800684A49884202DA08464E49E3
:1026700008604B4800684B4908604B480068BDE85B
:10268000F09F2DE9F05F04460D466042284447491B
:1026900008600846006804F029FC83463848016851
:1026A000584604F04FFC804640490968404A126889
:1026B000881A04F01BFC834633480168584604F02E
:1026C00041FC8146414604F0B1FA074639480068AA
:1026D00004F00CFC8246394604F0A8FA064604F0E1
:1026E000C9FB344908600846006840F6B8318842A2
:1026F00002DD08462F4908602E48006824498842B8
:1027000002DA08462B490860284800682849086012
:1027100028480068BDE8F09F2DE9F84F04460D46B3
:102720000026254FDFF89480601B04F0DFFB24496E
:102730000860084601682348006804F077FA2149D8
:102740000860214801681E48006804F0D1FC8346F7
:10275000414604F0F7FB81461A480168384635E0E7
:10276000800122429C0123428481214200340140A5
:10277000000C014000100140001801402C01002015
:1027800020010020340100201C0100203001002025
:1027900048F4FFFF38010020400100203C010020E8
:1027A000440100204C01002048010020500100207D
:1027B0005801002054010020CDCC4C3D0000404287
:1027C0005C010020640100206801002004F0BAFBD5
:1027D0008346F6480168304604F0B4FB5946009041
:1027E00004F024FA8246494604F020FAF0490860D1
:1027F000EE480068EF490860ED48006804F03AFBD5
:10280000BDE8F88F2DE9F04F85B004460D46EA4E3D
:1028100000274FF0000860422844E8490860084655
:102820000068E7490968401AE649086008460068F8
:10283000E5490968401AE54908600846006804F05F
:1028400055FB8346414604F07DFB0490DB4800685D
:1028500004F04CFB8346394604F074FB0390D948DE
:10286000006804F043FB3146009004F06BFB8346A4
:10287000D748006804F03AFB5946019004F0D6F9B5
:102880000290039904F0D2F98246049904F0CEF93B
:10289000814604F0EFFACE490860C8480068C8498C
:1028A0000860C8480068C8490860C948006805B0A1
:1028B000BDE8F08F4FF4967140F2EE22521A824238
:1028C00002DD40F2EE22501A01F2EE22824200DADC
:1028D000104670472DE9F05F044600256042284409
:1028E000BC4908600846006804F000FB8346BA480B
:1028F0000168584604F026FB8046B6490968B74A85
:102900001268881A04F0F2FA8346B54801685846FE
:1029100004F018FB8146414604F088F90746B148A7
:10292000006804F0E3FA8246394604F07FF906466F
:1029300004F0A0FAAB490860AB480068802802DDCB
:102940008020A9490860A848006810F1800F03DAC8
:102950006FF07F00A44908609E4800689F490860A6
:10296000A1480068BDE8F09F2DE9F05F04460D46E0
:10297000604228449D4908600846006804F0B6FAA1
:10298000834695480168584604F0DCFA804697492A
:102990000968974A1268881A04F0A8FA8346904892
:1029A0000168584604F0CEFA8146414604F03EF9EB
:1029B00007468C48006804F099FA8246394604F0CC
:1029C00035F9064604F056FA8649086089480068D9
:1029D000802802DD8020874908608648006810F161
:1029E000800F03DA6FF07F00824908607F4800683B
:1029F0007F4908607F480068BDE8F09F5021884209
:102A000000DA00204A42904200DD002070472DE9A4
:102A1000F05F05460C4616469946DDF828A0B9F148
:102A2000010F14D12F1B3846FFF7E8FF0746384641
:102A3000FFF750FF6B49086047B90B98012805D193
:102A400031462046FFF790FF6B49086000BFBAF19E
:102A5000010F1ED1694800684FF47A7190FBF1F0C4
:102A60006749096800FB01FB584603F02CFF074645
:102A70004FF03332634B04F077F80AD25F480068B6
:102A80004FF47A7190FBF1F05D49096848435E4963
:102A90000860BDE8F09F0146002218E001205B4B72
:102AA000186000205A4B186001205A4B18605A4891
:102AB0000068081A002802DD80204F4B1860564835
:102AC0000068081A03D56FF07F004B4B186052481E
:102AD00000688142E2D100204B4B1860464B1860E1
:102AE0004A4B18604A4B18604A4B186070470146C1
:102AF000002217E00120454B1860454B186000206C
:102B0000444B186045480068081A002802DD802000
:102B10003D4B186041480068081A03D56FF07F00EC
:102B2000394B18603D4800688142E3D10020364BA4
:102B30001860314B1860354B1860354B1860354BB9
:102B40001860704730B504460D4634490968601A6C
:102B5000FFF7CDFF30490968681AFFF79CFF30BDC9
:102B600070B504460D460026012028490860284912
:102B70000860002027490860002C04DD224804601A
:102B8000A8B200F0A3FD002C04DA1F480460A8B22C
:102B900000F09CFD00201C490860174908601B4993
:102BA00008601B4908601B49086070BD5C0100207B
:102BB00060010020680100200000C0406C0100207E
:102BC0007401002078010020800100207C01002099
:102BD0007001002084010020280100208C010020C9
:102BE00024010020D4000020880100209001002052
:102BF0009801002094010020C4000020E000002083
:102C0000BC0000203333D33FC0000020F000002080
:102C1000EC000020F800002000010020FC00002053
:102C200070B504460D4600260120114908600020B9
:102C300010490860012010490860002C04DD0F488D
:102C40000460A8B200F042FD002C04DA0B480460D6
:102C5000A8B200F03BFD0020094908600749086060
:102C600003490860034908600349086070BD00001B
:102C7000F0000020EC000020F8000020C40000203C
:102C8000C00000202DE9FC5F04460E46174698461A
:102C9000DDE90DA90C9D99F8000000EBD0714910F9
:102CA00022789AF8003003FB01212170207808FB7C
:102CB0000500802806DD00202070307899F800108B
:102CC00008443070002F17DB012000903178207805
:102CD0002B46BAA2FEF75FFE0120AB4605EBDB7286
:102CE000CDE90050237803EB6202D0B2317843463D
:102CF0003A46FEF780FE16E00120009031782078F9
:102D00002B46AFA2FEF747FE0120AB4605EBDB7278
:102D1000CDE90050237803EB6202D0B2317843460C
:102D20007A42FEF768FE08F101008AF8000089F88F
:102D30000050BDE8FC9F00B587B0002006900C2035
:102D4000059000200490039004A803A90C220423FA
:102D5000CDE9002102909B4805A9026806A8FFF76B
:102D600091FF04A803A90C220423CDE900210290BD
:102D7000954805A9026806A8FFF784FF04A803A9DF
:102D80000C220423CDE900210290904805A9026895
:102D900006A8FFF777FF04A803A90C220423CDE9B6
:102DA000002102908A4805A9026806A8FFF76AFF79
:102DB000FEF731FC07B000BD2DE9F84304460D468F
:102DC00090461E46DDE90897387800EBD0714A102E
:102DD000237899F80010491C01FB0231217040460C
:102DE00003F016FA217800FB0610802805DD00208C
:102DF00020702878397808442870002000902978BD
:102E0000207833464246FEF7C6FD404603F000FAFE
:102E100089F800003E70BDE8F88300B587B0002057
:102E200006900C200590002004900390FEF716FCFD
:102E300004A803A90C2367A2CDE9001005A906A8E0
:102E4000FFF7BAFF04A803A90C220523CDE900214E
:102E500002906248026805A906A8FFF713FF04A8BC
:102E600003A90C235E4ACDE9001005A906A8FFF7C7
:102E7000A3FFFEF7D0FB07B000BD2DE9FC5F0646BF
:102E80000D4617469846DDE90DA90C9C00203070D0
:102E9000287899F8001008442870002F17DB0120CB
:102EA000009029783078234644A2FEF774FD012073
:102EB000A34604EBDB72CDE90040337803EB6202FA
:102EC000D0B2297843463A46FEF795FD16E0012038
:102ED000009029783078234639A2FEF75CFD012066
:102EE000A34604EBDB72CDE90040337803EB6202CA
:102EF000D0B2297843467A42FEF77DFD08F1010001
:102F00008AF8000089F80040BDE8FC9F2DE9F843ED
:102F100005460C4616461F46DDE908980020287035
:102F2000207898F800100844207001200090217843
:102F300028783B463246FEF72EFD304603F068F90E
:102F400089F8000088F80070BDE8F88310B52548BE
:102F5000006803F0CBFF04460121FEF7A9FF2248D9
:102F6000006803F0C3FF04460221FEF7A1FF03211E
:102F70000020FEF79DFF0320FEF7E9FF1B490870C4
:102F800000201B49087012E000BF1A48008800F0BA
:102F900040000028F9D0184815490978405C1549C7
:102FA000091D088012480078401C1149087010481B
:102FB00000780E4909788842E6DB10BD2000000049
:102FC0002D000000880000208C00002090000020D0
:102FD000940000206C65667400000000E40000208E
:102FE000310200206C000020700000209E010020B3
:102FF0009C01002000380140FC06002008B501219A
:10300000202001F0C5FB40F61800ADF800001020AC
:103010008DF8030003208DF802006946FA4801F09C
:10302000FBF8F948006820F00F00F74908600846EF
:10303000006840F00800086008BD38B5044601206B
:1030400000900020F1494870012000902EE0BDF86A
:103050000000204018B10120ED49086002E0002086
:10306000EB4908600120EA4920390860052000F09A
:1030700011FB0020E749C1F88C01052000F00AFB94
:103080000120E449C1F88C010846D0F8000130B1B4
:10309000DE484078BDF800100843DC494870BDF8B0
:1030A00000004FF6FF7101EA40000090BDF80000FB
:1030B000FF28CCDD102000F0EDFA38BD10B500205F
:1030C000D3491C390860D4490878FFF7B6FFD249C4
:1030D0004878FFF7B2FF0120CE49C1F89001CB48F4
:1030E0004078732801D1002010BD0120FCE71CB5F9
:1030F00000200190012000900020C5491C39086083
:10310000C5490878FFF799FFC3494878FFF795FF4D
:103110000220019036E00120009027E00120BC4908
:1031200020390860052000F0B5FA0020B949C1F83F
:103130008C01052000F0AEFA0120B649C1F88C01DF
:103140000846D0F8000150B1B0489DF80410405C2A
:10315000BDF800100843AD499DF804208854BDF81F
:1031600000004FF6FF7101EA40000090BDF800003A
:10317000FF28D3DD102000F08DFA9DF80400401CDC
:10318000C0B201909DF804000928C4DB0120A049C9
:103190001C3908601CBD002004E000219B4A11542A
:1031A000411CC8B20928F8DB704710B5FFF7F3FFE0
:1031B000FFF79DFF9548C0789449097940EA0120BE
:1031C0009649088000240FE0954810F81400401E2E
:1031D000012101FA00F091490988084010B9601CEA
:1031E000C0B210BD601CC4B2102CEDDB0020F8E7AB
:1031F00010B5044614B101208A490870FFF7D5FFC5
:10320000894908708748007840B10846007828B19D
:103210000020844908708448007810BD82480078F6
:1032200010B901207F4908700020F6E70146774871
:10323000405C704770B505460C46002074491C3947
:103240000860102000F026FA0120FFF7F6FE422069
:10325000FFF7F3FE0020FFF7F0FE2846FFF7EDFE34
:103260002046FFF7EAFE0020FFF7E7FE0020FFF709
:10327000E4FE0020FFF7E1FE0020FFF7DEFE012064
:103280006449C1F89001102000F004FA70BD10B537
:1032900000205F491C390860102000F0FBF9012074
:1032A000FFF7CBFE4220FFF7C8FE0020FFF7C5FE68
:1032B0000020FFF7C2FE0020FFF7BFFE01205549A6
:1032C000C1F89001102000F0E5F910BD10B5002004
:1032D0004F491C390860102000F0DCF90120FFF78D
:1032E000ACFE4320FFF7A9FE0020FFF7A6FE012059
:1032F000FFF7A3FE0020FFF7A0FE0020FFF79DFED2
:103300000020FFF79AFE0020FFF797FE0020FFF74E
:1033100094FE01203F49C1F89001102000F0BAF955
:1033200010BD10B500203A491C3908600120FFF794
:1033300084FE4420FFF781FE0020FFF77EFE01207F
:10334000FFF77BFE0320FFF778FE0020FFF775FEF6
:103350000020FFF772FE0020FFF76FFE0020FFF74E
:103360006CFE01202B49C1F89001102000F092F969
:1033700010BD10B5002026491C390860102000F04F
:1033800089F90120FFF759FE4D20FFF756FE002076
:10339000FFF753FE0020FFF750FE0120FFF74DFE20
:1033A00001201C49C1F89001102000F073F910BDF4
:1033B00010B5002016491C390860102000F06AF989
:1033C0000120FFF73AFE4320FFF737FE0020FFF70A
:1033D00034FE0020FFF731FE5A20FFF72EFE5A2060
:1033E000FFF72BFE5A20FFF728FE5A20FFF725FE95
:1033F0005A20FFF722FE01200649C1F89001102053
:1034000000F048F910BD000000140140260700201C
:10341000AC81224200802242A6010020A4010020AB
:10342000A8010020C8010020C901002010B5FFF745
:103430002EFFFFF72CFFFFF72AFFFFF747FFFFF7ED
:1034400070FFFFF796FFFFF7B3FF02A002F06AFEDE
:1034500010BD000057454C434F4D45210000000072
:1034600000B58BB00121084601F085F9764802F0DD
:103470002DFD7648009076480190002002901E2095
:10348000039000200490802005904000069080006A
:103490000790202008900002099000200A906946B9
:1034A000694802F0B5FD0121674802F0DCFD0BB070
:1034B00000BD00B587B00420ADF8040000208DF8F1
:1034C000070001A9634800F0A7FE01214FF4057031
:1034D00001F05EF94FF4004001F0BEF800200290C8
:1034E00001208DF80C008DF80D004FF46020049041
:1034F0000020059003208DF8180002A953484C388D
:1035000002F0E3FA07230122002150484C3802F070
:1035100074FB0723022201214C484C3802F06DFB5A
:10352000072303220C2149484C3802F066FB012195
:1035300046484C3802F000FB012144484C3802F068
:10354000F0FA42484C3802F00EFB00BF3F484C38BE
:1035500002F00EFB0028F9D13C484C3802F012FB77
:1035600000BF3A484C3802F012FB0028F9D107B0EE
:1035700000BD70B504460D4615B1012036490870EE
:1035800035480078002857D0B4F57F6F54DA05200D
:1035900000F09CF800203049087040F66A608442D0
:1035A00004DBB4F57F6F01DA092070BDB4F5616FFB
:1035B00005DB40F66A60844201DA0820F5E740F650
:1035C000AC50844204DBB4F5616F01DA0720ECE70C
:1035D00040F64850844205DB40F6AC50844201DAA4
:1035E0000620E2E740F6B240844205DB40F6485050
:1035F000844201DA0520D8E740F65430844205DBE6
:1036000040F6B240844201DA0420CEE7B4F5166FEA
:1036100005DB40F65430844201DA0320C5E7B4F5F7
:10362000FA7F04DBB4F5166F01DA0220BDE7B4F5CA
:10363000FA7F07DA0120B8E7B4F57F6F02DB0120DB
:10364000054908700020B0E7080002404C24014002
:103650003007002000100140CA0100204FF0E02197
:10366000096921F004014FF0E0221161C21700EB5B
:103670005272C2F3C702234B1A701946097801EB44
:103680004102C2EBC1114FF6FF7202EAC1011E4AAC
:103690001180704701461B4A12784A434FF0E023DD
:1036A0005A6100229A6101221A6100BF4FF0E022A4
:1036B000106900F001021AB100F48032002AF5D03E
:1036C00000224FF0E0231A619A61704701460E4ACA
:1036D00012884A434FF0E0235A6100229A61012286
:1036E0001A6100BF4FF0E022106900F001021AB128
:1036F00000F48032002AF5D000224FF0E0231A6156
:103700009A617047CC010020CE010020A34A0A40F4
:103710000243A34B1A6070470146072323EA0102C4
:1037200012029F4B1B1D18684FF6FF0318409D4B5C
:10373000184310439A4B1B1D186070472DE9F04148
:103740000746884614461D462846FFF7E5FFC5F1A3
:10375000040007FA00F60F20284100EA080006439B
:1037600006F00F06E21704EBD2625211920002F14A
:10377000E022D2F800212146E31704EBD3635B116A
:10378000A4EB431C012303FA0CF31A432046E3176E
:1037900004EBD3635B119B0003F1E023C3F800212A
:1037A0008148005D40EA06107F490855BDE8F08178
:1037B00070B504460B46CE1701EB9676C6F387002C
:1037C000CE1701EB9676B610A1EB8606B606350E3F
:1037D000764B9B6943F00103744EB3614FEAB633F5
:1037E00053F820300F26AE40B343714E46F82030D8
:1037F000334653F8203004FA05F61E436C4B43F869
:1038000020606C4B1B6801268E403343694E336049
:1038100002F0010343B1674B0C331B6801268E4055
:103820003343644E0C36336002F0020343B1614B04
:1038300008331E6801238B401E435E4B08331E6015
:1038400070BD00B5002059490861C8601420486166
:1038500000208861C8610846006840F001000860E7
:103860000846406854490840504948600846006886
:10387000524908404D4908600846006820F48020FD
:1038800008600846406820F4FE0048600020886018
:1038900000214FF00060FFF739FF00BD10B5404830
:1038A0000830006840F004003D49083108603F4896
:1038B000C06940F080503D49C8614148406840F4CB
:1038C00080703F4948600846006840F00400086086
:1038D0000846006840F002000860FCF7A5FC10BD37
:1038E0003048001D2E49091D0860704701464906F1
:1038F0002E4A926942F001022C4B9A612C4A083AF6
:10390000526822F0E0622A4B083B5A601A4652681D
:103910000A435A60704730B504460025FFF791FF0F
:103920002248006840F480302049086000BF1F48EA
:103930000068400C0028FAD04FF480601B494860B2
:10394000A01EC4B20846406840EA84404860084669
:10395000406840F4803048601A48006840F0320007
:10396000184908601148006840F080700F490860ED
:1039700000BF0E480068400E0028FAD00B4840688F
:1039800040F002000949486005E008484068C0F37B
:10399000870505F00305022DF7D130BD80FFFF1F1D
:1039A00008ED00E00000FA0500E400E0001002402D
:1039B00008000140000401400000FFF8FFFFF6FE90
:1039C0000070004000200240014600BF704700BF69
:1039D000FE4A128802F04002002AF9D0C2B2FB4B24
:1039E0001B1D1A807047F949091D088000BFF7495F
:1039F000098801F040010029F9D070472DE9F05FF6
:103A000005460E46300103F089FA8146F04905FB70
:103A100001F003F083FA8246494603F069F907464C
:103A2000384603F043FA84B2204603F077FA83461F
:103A3000394603F053FB82464FF0834103F082FA8C
:103A4000814603F033FA80464FF6FF7000EA041413
:103A500004EB080084B2DF48806940F00400DD49CF
:103A600088610846806940F480408861DA480068CF
:103A700020F47F60D84908600846006840F40B6075
:103A80000860D448C06840F48040D249C860084605
:103A9000C06820F48040C860CC4808300480001D15
:103AA000008842F20C010843C8490C310880BDE887
:103AB000F09F10B586B004460121042000F068FE96
:103AC0000121480400F071FE0420ADF81400032029
:103AD0008DF8160018208DF8170005A9BE48001FA4
:103AE00000F09AFB0820ADF8140004208DF81700B0
:103AF00005A9B948001F00F08FFB26208DF80000B3
:103B000000208DF8010003208DF8020001208DF8BF
:103B10000300684600F0B7FA01940020ADF80800F1
:103B2000ADF80A00ADF80C00ADF810000C20ADF8AF
:103B30000E0001A9A94801F0E0FD012240F2255143
:103B4000A64801F072FE0121A44801F062FE06B011
:103B500010BD10B540F22551A04801F04BFF0028E0
:103B600062D09E4801F0C6FEC4B2782C0AD1002073
:103B70009B4908709B48006808B9012000E00020BC
:103B80009849086096480078092808DA96489449C8
:103B90000978445492480078401C91490870904834
:103BA000007808282DD19048407830386421484367
:103BB0008D498978303901EB810100EB41018A4858
:103BC000C0783038084489490860874840793038DF
:103BD0004FF47A71484384498979303901EBC10245
:103BE00002EB011100EB81017F48C079303800EB16
:103BF000800001EB40007C49097A084430387C4958
:103C0000086021467BA002F08DFA7B48008800F412
:103C1000004048B97848008800F4804060B10A2C20
:103C200003D000207449088020E07348008840F4E5
:103C300000407149088019E00D2C06D16E480088BB
:103C400040F480406C49088010E06B480088C0F365
:103C50000D006A490C5468480088401C6649088079
:103C600008460088C72801DD0020088010BD10B577
:103C700086B004460121202000F08AFD012188043D
:103C800000F093FD01215E4800F097FB4FF4807037
:103C9000ADF8140003208DF8160018208DF81700D9
:103CA00005A9584800F0B8FA4FF40070ADF81400B8
:103CB00004208DF8170005A9524800F0ADFA27201E
:103CC0008DF8000003208DF801008DF8020001201E
:103CD0008DF80300684600F0D6F901940020ADF895
:103CE0000800ADF80A00ADF80C00ADF810000C208B
:103CF000ADF80E0001A9444801F0FFFC012240F29A
:103D00002551414801F091FD01213F4801F081FD1D
:103D100000203E49088006B010BD10B540F2255184
:103D2000394801F067FE10B3374801F0E3FDC4B233
:103D30003648008800F40040C8B93448008800F4D0
:103D4000804060B10A2C03D000203049088020E078
:103D50002E48008840F400402C49088019E00D2CC2
:103D600006D12A48008840F480402849088010E0A5
:103D700026480088C0F30D0025490C5423480088CC
:103D8000401C2249088008460088C72801DD002021
:103D9000088010BD10B586B004460121112000F046
:103DA000F7FC0121C80400F000FD4FF48060ADF87D
:103DB000140003208DF8160018208DF8170005A9AF
:103DC000144800F029FA4FF4006025E00038014063
:103DD00040420F000010024004080140004400402F
:103DE000680000201C000020040200206C0000205D
:103DF0007400002025630000D00100206C07002023
:103E0000300014000014014000480040D20100209E
:103E10003408002000100140ADF8140004208DF893
:103E2000170005A97D4800F0F7F934208DF800004F
:103E300003208DF801008DF8020001208DF80300A9
:103E4000684600F020F901940020ADF80800ADF8B4
:103E50000A00ADF80C00ADF810000C20ADF80E0013
:103E600001A96F4801F049FC012240F225516C483C
:103E700001F0DBFC01216A4801F0CBFC002069491C
:103E8000088006B010BD10B540F22551644801F01D
:103E9000B1FD10B3624801F02DFDC4B26148008845
:103EA00000F40040C8B95F48008800F4804060B169
:103EB0000A2C03D000205B49088020E05948008884
:103EC00040F400405749088019E00D2C06D15548B0
:103ED000008840F480405349088010E05148008831
:103EE000C0F30D0050490C544E480088401C4D4909
:103EF000088008460088C72801DD0020088010BD22
:103F000010B586B004460121302000F041FC0121AB
:103F1000080500F04AFC4FF48050ADF8140003206F
:103F20008DF8160018208DF8170005A93B4800F001
:103F300073F90420ADF814008DF8170005A93B486B
:103F400000F06AF935208DF8000003208DF801009B
:103F50008DF8020001208DF80300684600F093F808
:103F600001940020ADF80800ADF80A00ADF80C008F
:103F7000ADF810000C20ADF80E0001A92C4801F09E
:103F8000BCFB012240F22551294801F04EFC0121E1
:103F9000274801F03EFC00202649088006B010BDED
:103FA00010B540F22551224801F024FD10B32048FD
:103FB00001F0A0FCC4B21F48008800F40040C8B95A
:103FC0001C48008800F4804060B10A2C03D0002017
:103FD0001849088020E01748008840F4004015493F
:103FE000088019E00D2C06D11248008840F480406A
:103FF0001049088010E00F480088C0F30D000E49FA
:104000000C540C480088401C0A4908800846008867
:10401000C72801DD0020088010BD0000001001400D
:10402000004C0040D4010020FC0800200014014096
:1040300000500040D6010020C409002009488047F4
:1040400009480047FEE7FEE7FEE7FEE7FEE7FEE77A
:10405000FEE7FEE7FEE7FEE704480549054A064B92
:1040600070470000930E000831010008F00A00209C
:10407000F0100020F00C0020F00C0020314901432A
:10408000314A1160704770B5002100230F22C478B7
:1040900004B32D4C246804F4E064C4F5E064210A00
:1040A000C1F10403CA40447804FA03F1847814404F
:1040B00021430901254C0678A155047804F01F0519
:1040C0000124AC4005786D11AD0005F1E025C5F87F
:1040D000004109E0047804F01F050124AC401C4DA8
:1040E0000678761145F8264070BD1A4A0A40024308
:1040F000154B1B1F1A60704739B1134A121D126805
:104100000243114B1B1D1A6006E00F4A121D126874
:1041100082430D4B1B1D1A607047042808D14FF0D5
:10412000E021096941F004014FF0E022116107E04C
:104130004FF0E021096921F004014FF0E022116104
:10414000704700000000FA050CED00E000E400E01C
:1041500080E100E080FFFF1F10B50446CC48844298
:1041600008D10121042000F02DFB0021042000F0E3
:1041700029FB46E0C748844208D10121082000F00D
:1041800021FB0021082000F01DFB3AE0C2488442D8
:1041900008D10121102000F015FB0021102000F0B3
:1041A00011FB2EE0BD48844208D10121202000F0FF
:1041B00009FB0021202000F005FB22E0B8488442E2
:1041C00008D10121402000F0FDFA0021402000F03C
:1041D000F9FA16E0B348844208D10121802000F0AA
:1041E000F1FA0021802000F0EDFA0AE0AE488442A6
:1041F00007D10121801500F0E5FA0021A01500F09B
:10420000E1FA10BD10B50121084600F0DBFA0021EB
:10421000012000F0D7FA10BD2DE9F041024600253B
:104220000026002000230024002791F803C00CF092
:104230000F0591F803C00CF0100CBCF1000F03D077
:1042400091F802C04CEA050591F800C0BCF1000FDE
:1042500031D0146800202BE04FF0010C0CFA00F371
:10426000B1F800C00CEA03069E4220D183004FF053
:104270000F0C0CFA03F7BC4305FA03FC4CEA0404E8
:1042800091F803C0BCF1280F06D14FF0010C0CFAD5
:1042900000FCC2F814C00AE091F803C0BCF1480F5A
:1042A00005D14FF0010C0CFA00FCC2F810C0401C04
:1042B0000828D1D31460B1F800C0BCF1FF0F34DD81
:1042C000546800202EE000F1080C4FF0010808FAB5
:1042D0000CF3B1F800C00CEA03069E4221D1830022
:1042E0004FF00F0C0CFA03F7BC4305FA03FC4CEA41
:1042F000040491F803C0BCF1280F05D100F1080CAB
:1043000008FA0CF8C2F8148091F803C0BCF1480F09
:1043100007D100F1080C4FF0010808FA0CF8C2F8B8
:104320001080401C0828CED35460BDE8F0814FF6C1
:10433000FF710180022181700421C1707047024623
:10434000002093680B400BB1012000E00020704773
:104350000146886880B2704702460020D3680B404F
:104360000BB1012000E0002070470146C86880B210
:10437000704701617047416170470AB1016100E017
:1043800041617047C16070474FF480320A438261D7
:104390008161826182698269704702460020434BD5
:1043A00018684FF68073184040EA021008433F4BEC
:1043B000186070473E49C8617047F0B50A4600234F
:1043C00000240021002500F00046B6F1004F02D184
:1043D000364EF16901E0354E7168C0F3034583B292
:1043E00000F44016B6F5401F08D121F070612F4E41
:1043F000766826F070662D4F7E6012E000F480161D
:10440000B6F5801F06D1032606FA05F4A14341F054
:10441000706106E0460D360103FA06F6B14341F03D
:10442000706122B1460D360103FA06F6314300F001
:104430000046B6F1004F02D11C4EF16101E01B4E67
:104440007160F0BD30B500228B071C0F0F2303FAFB
:1044500004F2164B08338C1053F824309343134C5A
:1044600008348D1044F8253023468C1053F824303E
:104470008C07240F00FA04F423430C4C08348D10ED
:1044800044F8253030BD0A49DC310860704700002F
:1044900000080140000C01400010014000140140E0
:1044A00000180140001C01400020014000000140B4
:1044B00000002042DF48006840F00100DD4908604C
:1044C00008464068DC490840DA4948600846006808
:1044D000DA490840D74908600846006820F480207F
:1044E00008600846406820F4FE0048604FF41F0052
:1044F00088607047CF49096821F48031CD4A116046
:104500001146096821F480211160B0F5803F03D085
:10451000B0F5802F0ED106E0C649096841F480311C
:10452000C44A116007E0C349096841F4A021C14AA7
:10453000116000E000BF00BF704710B501460022C7
:10454000002300204A11012A02D1BA4C236806E058
:10455000022A02D1B74C236A01E0B64C636A01F02B
:104560001F02012494401C400CB1012000E00020F7
:1045700010BD38B5002000900024002500BF312078
:10458000FFF7DBFF05460098401C00900098B0F54F
:10459000A06F01D0002DF2D03120FFF7CEFF08B17F
:1045A000012400E00024204638BD01460020A14A35
:1045B000106820F0F80040EAC10010607047A04980
:1045C00008607047024600209A4B586820F47C101F
:1045D00042EA01031843974B5860704798490866B0
:1045E000704701460020934A506820F003000843BA
:1045F000506070478F48406800F00C0070470146DB
:1046000000208C4A506820F0F0000843506070474A
:1046100001460020874A506820F4E060084350605B
:10462000704701460020834A506820F4605040EAF9
:10463000C1005060704729B17E4A527A02437D4BD7
:104640005A7204E07B4A527A82437A4B5A7270471C
:104650007B49D8310860704701460020754A506890
:1046600020F440400843506070470021714A2032D6
:104670001170704A82F82010012802D004280AD153
:1046800004E001216B4A2032117005E00521694ADE
:104690002032117000E000BF00BF70476949086018
:1046A00070476449096A0143624A1162704765496B
:1046B00044390860704730B50021002200240023EF
:1046C0005C4D6D6805F00C0121B1042905D0082965
:1046D00023D105E05C4D056022E05B4D05601FE0E5
:1046E000544D6D6805F47012524D6D6805F48034B8
:1046F000022505EB92421CB9544D554305600BE071
:104700004C4D6D6805F400351DB1504D55430560A5
:1047100002E04D4D5543056002E04B4D056000BF82
:1047200000BF444D6D6805F0F0010909484D6B5C10
:104730000568DD4045603F4D6D6805F4E061090A9C
:10474000434D6B5C4568DD4085603A4D6D6805F40E
:104750006051C90A3E4D6B5C4568DD40C560354D12
:104760006D6805F44041890B3A4D6B5CC568B5FB3B
:10477000F3F5056130BD29B12E4A526902432D4B34
:104780005A6104E02B4A526982432A4B5A617047AE
:1047900029B1284A92690243264B9A6104E0254ACE
:1047A00092698243234B9A61704729B1214AD269A9
:1047B0000243204BDA6104E01E4AD26982431D4B5A
:1047C000DA61704729B11B4AD2680243194BDA609B
:1047D00004E0184AD2688243164BDA60704729B168
:1047E000144A12690243134B1A6104E0114A126918
:1047F0008243104B1A617047124940390860704774
:104800000F49C86470470B49C87170470948406A2E
:1048100040F0807007494862704701460020054A11
:1048200092680A400AB1012000E000207047014967
:1048300088727047001002400000FFF8FFFFF6FE8C
:10484000000042428004424200127A0000093D000A
:10485000DC010020EC01002010B50446FE48844233
:1048600008D10121C014FFF7ADFF0021E014FFF7CC
:10487000A9FFC4E0B4F1804F08D101210846FFF739
:10488000AEFF00210120FFF7AAFFB8E0F348844201
:1048900008D101210220FFF7A2FF00210220FFF72B
:1048A0009EFFACE0EE48844208D101210420FFF7CE
:1048B00096FF00210420FFF792FFA0E0E948844220
:1048C00008D101210820FFF78AFF00210820FFF707
:1048D00086FF94E0E448844208D101211020FFF7CC
:1048E0007EFF00211020FFF77AFF88E0DF48844236
:1048F00008D101212020FFF772FF00212020FFF7BF
:104900006EFF7CE0DA48844208D101214014FFF7B1
:1049100059FF00216014FFF755FF70E0D54884422D
:1049200009D10121C804FFF74DFF00214FF40020F9
:10493000FFF748FF63E0D048844209D10121080510
:10494000FFF740FF00214FF48010FFF73BFF56E0D8
:10495000CA48844209D101214805FFF733FF0021ED
:104960004FF40010FFF72EFF49E0C548844208D1FC
:1049700001214020FFF733FF00214020FFF72FFFE8
:104980003DE0C048844208D101218020FFF727FF85
:1049900000218020FFF723FF31E0BB48844208D18B
:1049A00001218015FFF71BFF0021A015FFF717FF5E
:1049B00025E0B648844209D101210804FFF702FF2F
:1049C00000214FF48030FFF7FDFE18E0B04884422C
:1049D00009D101214804FFF7F5FE00214FF4003012
:1049E000FFF7F0FE0BE0AB48844208D101218804B8
:1049F000FFF7E8FE00214FF48020FFF7E3FE10BD33
:104A000000220288944B98420ED0994B98420BD0CA
:104A1000B0F1804F08D0914B984205D0904B98420E
:104A200002D0904B984204D14FF68F731A404B88B6
:104A30001A438D4B984207D08C4B984204D04FF6C6
:104A4000FF431A40CB881A4302808B8883850B88EA
:104A50000385814B98420BD0854B984208D08B4BF5
:104A6000984205D08A4B984202D08A4B984201D195
:104A70000B7A038601238382704770B500240022DD
:104A80000023058C4FF6FE7635400584028C838822
:104A9000048B4FF68F752C40B51E2C400D882C438F
:104AA000751E2A400D892A434D882A436A4DA84223
:104AB0000BD06F4DA84208D0744DA84205D0744D5C
:104AC000A84202D0734DA84213D14FF6F7752A4081
:104AD0004D892A434FF6FB752A408D882A434FF6AD
:104AE000FF652B404FF6FF552B408D892B43CD8919
:104AF0002B4383800483CD888586028470BD70B586
:104B0000002400220023058C4FF6EF763540058403
:104B1000028C8388048B48F6FF752C404FF6FF45C6
:104B20002C400D884FF6FF7606EA05252C434FF6FC
:104B3000DF752A400D8906EA05152A434D8806EAE5
:104B400005152A43444DA84202D0494DA8421DD123
:104B50004FF67F752A404D894FF6FF7606EA051518
:104B60002A434FF6BF752A408D8806EA05152A4369
:104B70004FF6FF352B404FF2FF752B408D8906EA2B
:104B800085052B43CD8906EA85052B438380048365
:104B9000CD880587028470BD70B5002400220023F3
:104BA000058C4FF6FF6635400584028C8388848B24
:104BB0004FF68F752C404FF6FC752C400D882C431A
:104BC0004FF6FF552A400D894FF6FF7606EA052578
:104BD0002A434D8806EA05252A431F4DA84202D0E4
:104BE000234DA8421DD14FF2FF752A404D894FF643
:104BF000FF7606EA05252A434FF6FF352A408D88C1
:104C000006EA05252A434EF6FF752B404DF6FF7543
:104C10002B408D8906EA05152B43CD8906EA05153B
:104C20002B4383808483CD888587028470BD70B5D3
:104C3000002200230024058C4EF6FF7635400584C3
:104C4000038C8488828B48F6FF752A404FF6FF4517
:104C50002A400D8820E00000002C014000040040A4
:104C600000080040000C004000100040001400400C
:104C700000340140004C014000500140005401400C
:104C800000180040001C004000200040004001408F
:104C900000440140004801404FF6FF7606EA052532
:104CA0002A434DF6FF752B400D8906EA05352B4347
:104CB0004D8806EA05352B43FA4DA84202D0FA4D3D
:104CC000A84208D14BF6FF752C408D894FF6FF7630
:104CD00006EA85152C4384808283CD88A0F8405055
:104CE000038470BD828B4FF2FF331A408283828B24
:104CF0004FF6FF7303EA01231A4382837047F0B52E
:104D00000C461546002200210026078C4EF6FF7C3B
:104D100007EA0C070784828B018C4FF6FF7707EABE
:104D2000043640F6FF473A404FF6FF7707EA05277B
:104D30003A434FF6FF7707EA03373A43D94FB84271
:104D40000ED0D94FB8420BD0B0F1804F08D0D74F1A
:104D5000B84205D0D64FB84202D0D64FB84206D19D
:104D60004DF6FF77394046F48057394305E047F662
:104D7000FF57394044F48057394382830184F0BDA2
:104D8000828B4FF6F3731A408283828B0A438283AD
:104D90007047F0B50C461546002200210026078C0E
:104DA0004FF6FF6C07EA0C070784828B018C4FF6E5
:104DB000FF7707EA04264FF60C773A404FF6FF7765
:104DC00007EA03172F433A43B64FB8420ED0B64F07
:104DD000B8420BD0B0F1804F08D0B44FB84205D0E4
:104DE000B34FB84202D0B34FB84206D14FF6FF5787
:104DF000394046F48077394305E04FF2FF57394098
:104E000044F48077394382830184F0BD028B4FF2F2
:104E1000FF331A400283028B4FF6FF7303EA01232C
:104E20001A4302837047F0B50C4615460022002154
:104E30000026078C4FF6EF7C07EA0C070784028BED
:104E4000018C4FF6FF7707EA041640F6FF473A4019
:104E50004FF6FF7707EA03373A434FF6FF7707EA43
:104E600005273A438F4FB8420ED08F4FB8420BD030
:104E7000B0F1804F08D08D4FB84205D08C4FB8426A
:104E800002D08C4FB84206D14FF6DF77394046F05A
:104E90001007394305E04FF65F77394044F01007BB
:104EA000394302830184F0BD028B4FF6F3731A403D
:104EB0000283028B0A4302837047F0B50C46154605
:104EC00000220021068C4FF6FE773E400684028BBE
:104ED000018C4FF60C7632407E1C06EA03162E43F8
:104EE0003243704EB0420ED06F4EB0420BD0B0F194
:104EF000804F08D06D4EB04205D06D4EB04202D00A
:104F00006C4EB04206D14FF6FD76314044F00106BA
:104F1000314305E04FF6F576314044F00106314368
:104F200002830184F0BD70B505460C465D4885429C
:104F30000ED05D4885420BD0B5F1804F08D05B485C
:104F4000854205D05A48854202D05A48854200D150
:104F500000E000BF208850B92389A28861882846D4
:104F6000FFF7ABFFE1882846FFF79EFF25E020888A
:104F700004280AD12389A28861882846FFF753FFB5
:104F8000E1882846FFF742FF17E0208808280AD169
:104F90002389A28861882846FFF7FBFEE18828461E
:104FA000FFF7EEFE09E02389A28861882846FFF713
:104FB000A6FEE1882846FFF795FE70BD2DE9F04179
:104FC00005460C4600260127608808B9022600E045
:104FD0000026A088012801D1022700E001272088AF
:104FE000A0B92389A28861882846FFF766FFE18877
:104FF0002846FFF759FF23893A4631462846FFF7EE
:1050000012FFE1882846FFF701FF13E02389A288F9
:1050100061882846FFF707FFE1882846FFF7F6FE7C
:1050200023893A4631462846FFF747FFE18828465C
:10503000FFF73AFFBDE8F0810A884B881A438B8856
:105040001A43CB881A430B891A434B891A438B891D
:105050001A43A0F8442070474FF6FF718180002169
:105060000180C18041800172704700210180418030
:105070008180C180018141818181C181704700218E
:1050800001804180012181800021C1800181704720
:105090000021018041808180C18001814181818125
:1050A00070470000002C0140003401400004004023
:1050B00000080040000C004021B1028842F00102CB
:1050C000028004E002884FF6FE731A4002807047A7
:1050D00031B1B0F8442042F40042A0F8442005E089
:1050E000B0F84420C2F30E02A0F8442070471AB171
:1050F00083890B43838102E083898B4383817047DB
:105100008182704741EA0203A0F8483070471AB123
:1051100083890B43838102E083898B4383817047BA
:1051200001894FF6F8721140018170470A4600214B
:1051300001894FF68F73194011430181704730B5D3
:1051400004460D4629462046FFF7F0FF208940F02F
:105150000700208130BD2DE9F04104460D4616467A
:105160001F46602D06D13B46012231462046FFF7FF
:105170005AFE05E03B46012231462046FFF79DFEE0
:1051800029462046FFF7D2FF208940F00700208102
:10519000BDE8F08130B50C4600210189C9B24FF657
:1051A000FF7505EA0325154325432943018130BDD9
:1051B0002DE9F04105460E46174698460024434621
:1051C0003A4631462846FFF7E5FF2C894FF6F8703E
:1051D000044044F007044FF68F70044044F070041C
:1051E0002C81BDE8F081F0B504460D4616461F46F9
:1051F0003B46324629462046FFF7CCFF208940F443
:1052000080402081F0BD0185828270470A460021DE
:1052100001884FF68F731940114301807047F0B534
:105220000C4615461E460021002200230189028BF0
:10523000038C4FF6F877394021434FF6FC473A404C
:1052400040F201173A434FF6DD773B404FF6FF77C8
:1052500007EA06172F433B43018102830384F0BD15
:105260000A460021018B4FF68F73194011430183C9
:1052700070470A460021018B48F6FF7319404FF62C
:10528000FF7303EA02231943018370470A46002192
:10529000818B4FF68F7319401143818370470A4603
:1052A0000021818B48F6FF7319404FF6FF7303EA24
:1052B000022319438183704721B1028842F08002A2
:1052C000028004E002884FF67F731A400280704724
:1052D00021B1828842F00402828004E082884FF685
:1052E000FB731A408280704721B1828842F0080225
:1052F000828004E082884FF6F7731A4082807047FC
:1053000021B1828842F00102828004E082884FF657
:10531000FE731A40828070470A460021018B4FF6C7
:10532000F77319401143018370470A460021018B2E
:105330004FF2FF7319404FF6FF7303EA022319433C
:10534000018370470A460021818B4FF6F77319409D
:105350001143818370470A460021818B4FF2FF730E
:1053600019404FF6FF7303EA022319438183704704
:105370000A460021018B4FF6FB731940114301834C
:1053800070470A460021018B4FF6FF3319404FF654
:10539000FF7303EA02231943018370470A46002181
:1053A000818B4FF6FB7319401143818370470A4686
:1053B0000021818B4FF6FF3319404FF6FF7303EA4C
:1053C00002231943818370470A460021018B4FF65F
:1053D0007F7319401143018370470A460021018BF6
:1053E000C1F30E014FF6FF7303EA02231943018351
:1053F00070470A460021818B4FF67F731940114395
:10540000818370470A460021818BC1F30E014FF65C
:10541000FF7303EA02231943818370470A46002180
:10542000018C4FF6FD7319401143018470470A4601
:105430000021018C4FF6F773194011430184704726
:105440000A460021018C4FF6DF7319404FF6FF73B7
:1054500003EA02131943018470470A460021018CB4
:105460004FF67F7319404FF6FF7303EA0213194397
:10547000018470470A460021018C4FF6FF53194002
:105480004FF6FF7303EA02231943018470470A466B
:105490000021018C4FF2FF7319404FF6FF7303EAAE
:1054A00002231943018470470A460021018C4DF6FE
:1054B000FF7319404FF6FF7303EA02331943018467
:1054C000704730B5002301248C40A3B2048C9C4368
:1054D0000484048C02FA01F5ADB22C43048430BD7F
:1054E00030B5002304248C40A3B2048C9C43048474
:1054F000048C02FA01F5ADB22C43048430BD70B5C2
:105500000346002000241846183001258D40ACB217
:105510001D8CA5431D8409B1082909D100EB610048
:10552000056825F0700505600568154305600EE007
:105530000D1FC5F34E052844056825F4E0450560B8
:1055400005684FF6FF7606EA02263543056070BD12
:1055500021B1028842F00202028004E002884FF684
:10556000FD731A400280704721B1028842F00402A4
:10557000028004E002884FF6FB731A4002807047F5
:1055800021B1828842F08002828004E082884FF656
:105590007F731A408280704702884FF6F7731A4073
:1055A000028002880A430280704782884FF68F7318
:1055B0001A40828082880A438280704702894FF6AF
:1055C000F8731A40028102890A43028170470289F6
:1055D0004FF67F731A40028102890A4302817047A5
:1055E0008184704781857047818670470187704745
:1055F00081877047A0F84010704702884FF6FF433C
:105600001A40028002880A43028070470146888E51
:1056100070470146088F70470146888F70470146E2
:10562000B1F8400070470146888C70470146088DEC
:10563000704702460020138A0B400BB1012000E0A6
:1056400000207047CA430282704730B502460020EE
:1056500000230024158A05EA0103958905EA01045F
:1056600013B10CB1012000E0002030BDCA4302821A
:105670007047000010B50446FB48844209D101215F
:105680008803FFF79FF800214FF48040FFF79AF856
:1056900032E0F648844209D101214804FFF79FF81F
:1056A00000214FF40030FFF79AF825E0F0488442DB
:1056B00009D101218804FFF792F800214FF48020DE
:1056C000FFF78DF818E0EB48844209D10121C804A6
:1056D000FFF785F800214FF40020FFF780F80BE07A
:1056E000E548844208D101210805FFF778F8002138
:1056F0004FF48010FFF773F810BD2DE9F04786B026
:1057000005460E460024A24600BFA1460027B089E8
:1057100000B100BF2F462C8A4CF6FF700440F08881
:1057200004432C82AC894EF6F3100440B0883189D2
:105730000843718908430443AC81AC8A4FF6FF40AB
:105740000440B0890443AC8201A8FEF7B4FFC64808
:10575000874202D1DDF810A001E0DDF80CA0A88995
:1057600000F4004040B10AEBCA0000EB0A103168B7
:105770004900B0FBF1F807E00AEBCA0000EB0A10A1
:1057800031688900B0FBF1F86420B8FBF0F0040147
:105790002009642101FB1089A88900F4004040B170
:1057A000322000EBC900B0FBF1F000F00700044329
:1057B00008E0322000EB09106421B0FBF1F000F0AA
:1057C0000F0004432C8106B0BDE8F0874FF416515A
:1057D000016000218180C18001810C214181002173
:1057E0008181704710B502460020108A4FF2FF03F6
:1057F00018400B884C8823438C882343CC88234350
:105800001843108210BD0021018041808180C18039
:10581000704721B1828942F40052828104E082897A
:105820004DF6FF731A4082817047F0B5034600249D
:1058300000260025002040F66A17B94200D100BFBB
:105840001846C1F3421401F01F06012707FA06F5B6
:10585000012C01D10C3004E0022C01D1103000E009
:1058600014301AB107682F43076002E00768AF439E
:105870000760F0BD1AB1838A0B43838202E0838AFA
:105880008B4383827047028A4FF6F0731A4002827C
:10589000028A0A430282704782894FF2FF731A40DC
:1058A000828182890A438281704721B1828942F0D4
:1058B0000202828104E082894FF6FD731A408281E0
:1058C0007047028A4FF6DF731A400282028A0A4347
:1058D0000282704721B1028A42F48042028204E0CF
:1058E000028A4BF6FF731A4002827047C1F3080226
:1058F0008280704701468888C0F30800704781891C
:1059000041F0010181817047028BD2B20283028B88
:1059100042EA012202837047028B02F47F42028333
:10592000028B0A430283704721B1828A42F020022F
:10593000828204E0828A4FF6DF731A4082827047C7
:1059400021B1828A42F01002828204E0828A4FF6FC
:10595000EF731A408282704721B1828A42F00802B6
:10596000828204E0828A4FF6F7731A40828270477F
:1059700021B1828942F40042828103E08289C2F32C
:105980000E028281704721B1828A42F400628282D3
:1059900004E0828A4FF2FF731A4082827047828A43
:1059A0004FF6FB731A408282828A0A4382827047D2
:1059B00021B1828A42F00202828204E0828A4FF69A
:1059C000FD731A408282704702460020B1F5007FC5
:1059D00000D100BF13880B400BB1012000E0002074
:1059E000704701F40072B2F5007F00D100BFCA43D6
:1059F0000280704770B50246002400230025002075
:105A000040F66A16B14200D100BFC1F3421501F061
:105A10001F03012606FA03F3012D02D196893340B4
:105A200006E0022D02D1168A334001E0968A334007
:105A30000C12012606FA04F41688344013B10CB196
:105A4000012000E0002070BD10B50022002340F6C8
:105A50006A14A14200D100BF0A1201249440A3B2EB
:105A6000DC43048010BD00000038014000440040C9
:105A700000480040004C00400050004010B5044673
:105A8000FA48844208D101214015FEF79BFE00210F
:105A90006015FEF797FE17E0F548844208D1012112
:105AA0000015FEF78FFE00212015FEF78BFE0BE0A0
:105AB000F048844208D10121C803FEF783FE00218B
:105AC0004FF40040FEF77EFE10BD30B502460020C8
:105AD00000235068E84C20400D790C6844EA052406
