:020000040800F2
:10000000300B00202D020008D1260008F51C000846
:10001000CD26000845180008B33300080000000092
:10002000000000000000000000000000512800084F
:100030003519000800000000592700082D3100087C
:10004000470200084702000847020008470200086C
:10005000470200084702000847020008470200085C
:10006000470200084702000847020008470200084C
:10007000470200084702000847020008470200083C
:10008000470200084702000847020008470200082C
:10009000470200084702000847020008470200081C
:1000A000470200084702000847020008470200080C
:1000B00047020008470200084702000847020008FC
:1000C00047020008470200084702000847020008EC
:1000D0004702000891310008470200084702000863
:1000E00047020008470200084702000847020008CC
:1000F00047020008470200084702000847020008BC
:1001000047020008470200084702000847020008AB
:10011000470200084702000847020008470200089B
:10012000470200084702000847020008470200088B
:1001300000F002F800F06AF80AA090E8000C82448F
:100140008344AAF10107DA4501D100F05FF8AFF26C
:10015000090EBAE80F0013F0010F18BFFB1A43F0A5
:1001600001031847E0DA000000DB00000A444FF00A
:10017000000C10F8013B13F0070408BF10F8014B06
:100180001D1108BF10F8015B641E05D010F8016B4B
:10019000641E01F8016BF9D113F0080F1EBF10F8AF
:1001A000014BAD1C0C1B09D16D1E58BF01F801CBD2
:1001B000FAD505E014F8016B01F8016B6D1EF9D555
:1001C0009142D6D37047000000230024002500266A
:1001D000103A28BF78C1FBD8520728BF30C148BFAA
:1001E0000B607047662907F0A282642900F07080D6
:1001F000002070471FB500F099FC0400002000218A
:1002000006F086F9E0601FBD10B510BD00F0D6FD08
:100210001146FFF7EFFF04F08FFE00F0F4FD03B48A
:10022000FFF7F2FF03BC03F04AF9000009488047DA
:1002300009480047FEE7FEE7FEE7FEE7FEE7FEE7C8
:10024000FEE7FEE7FEE7FEE704480549054A064BE0
:1002500070470000313100083101000830050020EE
:10026000300B00203007002030070020704710B509
:100270004C1084EA530404D54042C1F1000138BF58
:10028000491E1B4204D55242C3F1000338BF5B1E16
:1002900000F02EF914F0804F04D04042C1F100016B
:1002A00038BF491E14F0004F04D05242C3F100037E
:1002B00038BF5B1E10BD00000FB4044910B503AA7F
:1002C000029800F0FFFB10BC5DF814FBD80300207F
:1002D0002DE9F0410646002410687529314616A51F
:1002E00010D0AFF30080002802DA404213A507E0E7
:1002F00031688A0701D512A502E0490704D511A586
:10030000012401E0AFF3008000210A2206F1240756
:1003100009E0B0FBF2FCB0FBF2F302FB1C00303052
:1003200078541846491C0028F3D123462A46304603
:10033000BDE8F04100F05EB9000000002D000000B3
:100340002B000000200000002DE9F05F89460446E4
:100350004FF0000ADFF824B1FB44C0F820A020468B
:10036000E168884700287DD0252806D0D4E90121FE
:100370009047206A401C2062F1E700255F46204636
:10038000E16888472028064607DB312E05D2B819D8
:1003900010F8200C08B10543F1E7A80701D525F0B6
:1003A0000405C4F81CA00027C4F818A02A2E09D000
:1003B000304603F07DF838B304EB8708303EC8F8C8
:1003C000186019E059F8041B204604EB870291617C
:1003D000E1688847012F064618D1E069002820DA35
:1003E00025F020051DE0D8F8180000EB800006EB92
:1003F00040003038C8F818002046E16888470646B3
:1004000003F056F80028EED1012F0AD02E2E08D185
:100410002046E16888477F1C0646022F45F02005EC
:10042000C4DBA069002803DA404245F00105A06161
:10043000E80701D025F01005A6B1A6F14100192862
:1004400002D8203645F400654A46314620462560EC
:100450004D46FFF7C7FE60B1012807D0ED1D25F01E
:10046000070000E007E000F1080978E705F104095A
:1004700075E730467AE7206ABDE8F09FFCD60000B9
:1004800040EA010310B59B070FD1042A0DD310C811
:1004900008C9121F9C42F8D020BA19BA884201D963
:1004A000012010BD4FF0FF3010BD1AB1D30703D0AB
:1004B000521C07E0002010BD10F8013B11F8014B61
:1004C0001B1B07D110F8013B11F8014B1B1B01D17D
:1004D000921EF1D1184610BD02F0FF0343EA032239
:1004E00042EA024200F002BB704770477047704713
:1004F00053EA020C00F069802DE9F04B4FF0000642
:10050000002B1FBFB3FA83F503FA05F424FA05F6AE
:100510005E4012BF1643B2FA82F502FA05F4C5F145
:1005200020051EBF22FA05FC44EA0C04203556EAD9
:10053000044C4FEA144418BF641C4FF000084FF0FD
:100540000009904271EB030C39D3002919BFB1FAAD
:1005500081F701FA07F6B0FA80F700FA07F6C7F15B
:1005600020071EBF20FA07FC46EA0C062037B6FB20
:10057000F4FCA7EB0507103F07F01F0BCBF120069B
:100580000CFA0BFB2CFA06F644BFB3460026202FCC
:10059000A4BF5E464FF0000B5BEA060C08BF4FF0AD
:1005A000010B19EB0B09ABFB027C48EB0608C01BE7
:1005B00006FB02CC0BFB03CC71EB0C01C1E70B4635
:1005C000024641464846BDE8F08B13B54FF00000A7
:1005D0004FF00001AFF30080BDE81C40704710B53C
:1005E00000F0A8FA006810BD10B5044600F0A2FAA9
:1005F000046010BD2DE9F0470D4699469246044629
:1006000000F124080168880604D5E06921F0100192
:10061000216000E00120A84201DD471B00E0002727
:10062000A1697A1902EB0900081AA0612078C006B6
:1006300002D42046AFF30080002608E0D4E901216F
:100640001AF806009047206A401C761C20624E452E
:10065000F4DB2078C0060AD52046AFF3008006E020
:10066000D4E9012130209047206A401C2062381EC6
:10067000A7F10107F4DC07E0D4E9012118F805002F
:100680009047206A401C2062281EA5F10105F3DC7A
:100690002046AFF300802078000602D50220BDE896
:1006A000F0870120FBE770472DE9FF4F0C461E46FF
:1006B0004FF0FF378BB0D2E90001DDF860800A907F
:1006C0008A46C1F30A5505B93D46002108464FF058
:1006D0000000BAF1000F00F4400005DA00EB8000E2
:1006E0004FF4400101EA50004FEA9059B9F1010F6F
:1006F00000DDB9460A9850EA4A000ED044F6105080
:10070000A5F2FF3545432F14B8F1000F1ED07542F6
:10071000291E1EDDC9F100021CE0B8F1010F4FF0E7
:10072000000001D0302103E0F24305E02154401CD9
:10073000B042FBDB30460022002121540B99C1F866
:100740000880C1E900200FB0BDE8F08FBD1B6D1C13
:10075000DEE74A4600DA694206A800F08DFA06ABE9
:1007600093E8070003AB83E8070050460A9900F0BE
:1007700093FB8DE80700A0F500501F380090039808
:10078000002D0ADD42F21F014A460844002303A956
:100790000390684600F0FCFD09E0A0F500504A46D1
:1007A0001F38002303A90390684600F006FE8DE879
:1007B00007000004000C03D04FF0FF30410800E0B8
:1007C0001046B8F1000F03D00022009215461EE03B
:1007D000751E05D400F0B2F9303262556D1EF9D5A0
:1007E000B3460122084302D000227F1C04E0207897
:1007F000302801D100227F1E002A099784D01DE0F5
:10080000112D07DA00F09AF9303262556D1C50EA6A
:100810000102F5D1084302D00098C8B10EE00021D2
:10082000681E05E0235C625C63542254401E491C30
:100830008142F7DBAB46A81B401E0990002004F85C
:100840000B000B98099AC0F80880C0E9002B7AE7E2
:1008500011264FF0000857E72DE9F04F884604466F
:10086000D21D22F0070191B0D1E90001CDE90A01C2
:1008700002F0A1FD02460B98C00F01D02D2007E029
:100880002068810701D52B2002E0202101EAC00069
:10089000032A099001D0072A05DB0346414620467A
:1008A00000F0AAF90BE12078800601D5E06900E0AC
:1008B0000620B8F1650F814606D0B8F1660F18D052
:1008C000B8F1670F70D131E00020B9F1110F00903D
:1008D00001DB112301E009F101030AAA01A90CA817
:1008E000FFF7E2FEDDE90C70002609F10105834601
:1008F00047E001204B4600904FF000470AAA01A9AB
:100900000CA8FFF7D1FEDDE90DB00C995D4600267D
:1009100010B909F101000D18B9EB050003D4C0F1BD
:10092000FF3609F10105A5EB09002BE0B9F1010F34
:1009300001DA4FF001090020B9F1110F009048468B
:1009400001DD112300E003460AAA01A90CA8FFF764
:10095000ABFEDDE90C704D4600268346207800078B
:100960000AD4AB4500DA5D4601A8012D04DD41192A
:1009700011F8011C302907D04F4502DA17F1040F96
:1009800004DA012082460FE06D1EEEE7002F02DC44
:10099000ED1B3E4403E0781CA84200DD7D1CB81B23
:1009A00000F1010A4FF000472078000703D4AA4560
:1009B00001DB4FF0FF3A0021B7F1004F0DF1430882
:1009C0008DF8431024D002202B23002F01DA7F4220
:1009D0002D230A21021EA0F1010000DC5FB197FB6C
:1009E000F1FC97FBF1F201FB1C7C17460CF1300C7B
:1009F00008F801CDEEE7A8F1010003702188090590
:100A000001D5452100E06521A0F1010800F8011C95
:100A100009980FA9A1EB0807FF1D00B1012041199A
:100A200001EBEA70A1693844081A401EA0612078E1
:100A3000C00602D42046AFF30080099828B1D4E95B
:100A400001219047206A401C20622078C00622D5F0
:100A50002046AFF300801EE0002E04DBB34502DD2C
:100A600001A8805D00E03020D4E901219047206A90
:100A7000401C2062761CAAF101005FEA000A0AD13C
:100A800000F054F8C0680168405CD4E90121904747
:100A9000206A401C2062281EA5F10105DCDC07E06D
:100AA000D4E9012118F8010B9047206A401C20620C
:100AB000381EA7F10107F3DC2046AFF300800320C6
:100AC00011B041E6074B70B50D467B4400F081F84C
:100AD0000446284600F042F910B14FF0FF3070BDD7
:100AE000204670BDA33D00004FF000020429C0F075
:100AF000128010F0030C00F03781CCF1040CBCF133
:100B0000020F18BF00F8012BA8BF20F8022BA1EBA1
:100B10000C0100F029B95FEAC17C24BF00F8012B69
:100B200000F8012B48BF00F8012B704700487047C0
:100B3000EC04002000487047CC04002030B5B0F130
:100B40000A024FEA900E71F100034EEA817EB0EB8B
:100B50000E0061EB91014FEA101E4EEA017E10EB90
:100B60000E0041EB11114FEA102E4EEA016E10EB10
:100B70000E0041EB11214FEA104E4EEA014E10EBF0
:100B80000E0041EB1141401841F100014FEAD00045
:100B900040EA41704FEAD10110EB80054FEA810431
:100BA00044EA907444EB01046D1944EB0404521BB5
:100BB000A3414FF0000348BF0A3200D530BD401CAE
:100BC00041F1000130BD000001694A1C0261087852
:100BD000704700B58FB0CDE901310021059105497D
:100BE0007944CDE9031011466846FFF7ADFB0FB01D
:100BF00000BD0000E5FFFFFF2DE9F0411F46044660
:100C000003260168072A01F4006004DB08B116A579
:100C100005E016A503E008B115A500E015A521F033
:100C200010002060A069C01EA0610FB1401EA0612D
:100C30002046AFF300804FB1D4E9012138469047F8
:100C4000206A401C2062C01C206206E0206AFAE78D
:100C5000D4E9012115F8010B9047761EF8D2204601
:100C6000AFF30080BDE8F0814E414E006E616E0032
:100C7000494E4600696E66002DE9F04781461646EA
:100C80008AB0354878440DC88DE80D003248784464
:100C9000801C03AC0DC884E80D0041F69B3008446D
:100CA000372190FBF1F290FBF1F5A5F1800501FBF6
:100CB00012041B3C02D56442012000E00020DFF852
:100CC00098A080460027FA44AAF1BE0A0EE0E00789
:100CD0000AD03246684607EB470101230AEB81013F
:100CE00000F06BFB8DE8070064107F1C002CEED138
:100CF000194F7F44AE3F19E0E80715D007EB041009
:100D00000DF1180A90E80E008AE80E00C068F04263
:100D100001D1981908903246012306A903A800F0D2
:100D20004CFB03AB83E807006D10641C002DE3D17E
:100D30004FF0010332466946B8F1000F03A802D014
:100D400000F026FB01E000F038FBC9E90001C9F81A
:100D500008200AB0BDE8F08754CF0000007B00F007
:100D6000800070474FF0000200B513469446964647
:100D7000203922BFA0E80C50A0E80C50B1F12001AE
:100D8000BFF4F7AF090728BFA0E80C5048BF0CC05C
:100D90005DF804EB890028BF40F8042B08BF7047BA
:100DA00048BF20F8022B11F0804F18BF00F8012B2C
:100DB0007047000000487047CC0400207546FFF7DC
:100DC000F9FFAE4605006946534620F00700854608
:100DD00018B020B5FFF738FABDE820404FF0000604
:100DE0004FF000074FF000084FF0000B21F0070113
:100DF000AC46ACE8C009ACE8C009ACE8C009ACE856
:100E0000C0098D46704710B50446AFF300802046F8
:100E1000BDE81040FFF703BA4FF0013C50F8042B37
:100E200051F8043B9A4221D1A2EB0C03934313EAFD
:100E3000CC1317D150F8042B51F8043B9A4215D12A
:100E4000A2EB0C03934313EACC130BD150F8042B01
:100E500051F8043B9A4209D1A2EB0C03934313EAE5
:100E6000CC13DBD04FF00000704700BFD01A01BA9E
:100E7000B1FA81F101F0180122FA01F0CB40C1F181
:100E80002001DBB2C0B2C01A2CFA01F3D11A91438F
:100E900011EAC311E6D170475FEA400C08BF91F038
:100EA000000F4FEA8C234FEAC12243EA51514FEA27
:100EB0001C5018BF00F5F0404FEA300018BF41F059
:100EC00000415FEA6C5C00F02980BCF1FF3F08BF85
:100ED00040F080407047130C06BF12044FF0100C16
:100EE0004FF0000C130E04BF12020CF1080C130F8C
:100EF00004BF12010CF1040C930F04BF92000CF11B
:100F0000020CD30F04BF52000CF1010C11464FF03C
:100F10000002A0F11F00A0EB0C00704711F0004F81
:100F200008BF704731F000413FF4D5AF0B0C06BF4E
:100F300009044FF0100C4FF0000C0B0E04BF090217
:100F40000CF1080C0B0F04BF09010CF1040C8B0F02
:100F500004BF89000CF1020CCB0F04BF49000CF157
:100F6000010CCCF12003A0EB0C0022FA03F302FAEF
:100F70000CF241EA030100F10100704720F07F4CC0
:100F800080EA030023F07F47ACEB070303F57C53B3
:100F900000F0004003F1FF032DE980494FEA154BB3
:100FA00009B44FEA144325EA0B4E24EA03480FF232
:100FB000042606EB132749083E785FEA320203FB5A
:100FC0000667C7F5000707FB06F64FEA54374FEAF6
:100FD000D64606F1020607FB066CCCF1005C4FEA30
:100FE0001C472CEA074C07FB06F40CFB06F504EB48
:100FF00015464FEA961634BF00204FF000404FEAE6
:10100000D13706FB07FC4FEA1C4C0CFB0BF7D21B3D
:1010100003FB0CF761EB07010CFB0EF7B0EB07408D
:1010200072EB17420CFB08F734BFA2EB0742B2EB9E
:10103000074261EB17414FEA0C444FEA910706FB68
:1010400007FC4FEA1C4C0CFB0BF7B0EBC74072EBF4
:10105000573203FB0CF734BFA2EBC742B2EBC742D7
:1010600061EB57310CFB0EF7B0EBC70072EB577218
:101070000CFB08F734BFA2EBC702B2EBC70261EB6F
:101080005771039F4FEA816141EA921104EBCC044E
:101090004FEAD1374FEA826206FB07FC42EA901220
:1010A0004FEA80604FEA1C4C0CFB0BF7D21B03FB92
:1010B0000CF761EB07010CFB0EF7B0EB074072EB8E
:1010C00017420CFB08F734BFA2EB0742B2EB074212
:1010D00061EB17414FEA8C554FEA910704EB9C24D2
:1010E00006FB07FC4FEA1C4C0CFB0BF7B0EBC740B0
:1010F00072EB573203FB0CF734BFA2EBC742B2EBE3
:10110000C74261EB57310CFB0EF7B0EBC70072EB37
:1011100057720CFB08F734BFA2EBC702B2EBC70251
:1011200061EB577115EB4C254FEA816141EA921151
:101130004FEA82624FEAD13742EA901206FB07FC7F
:1011400044F100044FEA80604FEA1C4C0CFB0BF7A3
:10115000D21B03FB0CF761EB07010CFB0EF7B0EBA6
:10116000074072EB17420CFB08F734BFA2EB0742B3
:10117000B2EB074261EB174115EB1C154FEA8131C9
:1011800041EA92414FEA823242EA90424FEA80308D
:101190004FEA0C7644F1000448EA03434EEA0B4858
:1011A0004FF0000EB2EB080C71EB030724BF624650
:1011B00039464EEB0E0E4FF0000B001852414941DC
:1011C0004BEB0B0BB2EB080C71EB03077BF1000B45
:1011D00024BF624639464EEB0E0E4FF0000B00184E
:1011E000524149414BEB0B0BB2EB080C71EB03077F
:1011F0007BF1000B24BF624639464EEB0E0E51EADE
:10120000020718BF46F0010616EB0E7655F10002F4
:1012100054F1000103D5BDE88901BDE80088BDE8AF
:101220008901BDE80048B619524141EB0101A3F123
:101230000103704780807F7E7D7C7B7A797877762A
:1012400076757473727171706F6E6E6D6C6C6B6AA3
:101250006A69686867666665646463636261616041
:10126000605F5F5E5E5D5D5C5C5B5B5A5A595958BE
:101270005857575656555555545453535252525128
:10128000515050504F4F4F4E4E4D4D4D4C4C4C4B7E
:101290004B4B4A4A4A4949494848484747474746C5
:1012A0004646454545444444444343434342424201
:1012B00042414141002B9C4630D477002BD01CB5D5
:1012C0004FEA370703B44FF010004FF01001BAF1A6
:1012D000000F06D0BCF1000FDCBF40F0080040F06A
:1012E00008014FF000000FBCBDE810400BF1010BEE
:1012F000BBF1010F08BF5FEA170722BF12F101021D
:1013000011F101014FF0004143F1000300F00040F2
:1013100043EA00007047F9D35708D0E746EA06468B
:1013200013F1400F4FEA16461FDD13F1200FDFBF08
:1013300016430A46002120335B42BED0C3F120078A
:1013400046EA064602FA07F74FEA164646EA070655
:10135000C3F1200722FA03F201FA07F721FA03F199
:101360004FF0000342EA0702A7E746EA020646EA10
:1013700006464FEA164646EA0106BCBF46EA06465E
:10138000360C4FF000034FF000024FF0000194E7DD
:101390002DE9804C9A46934670B491E8380007C80E
:1013A00031EA400C48BF34EA430C03D5FFF7E6FDB1
:1013B000FFF780FFF0BCBDE8008C2DE9804C9A4619
:1013C000934670B491E8380007C810F0804F08BF0A
:1013D00013F0804F03D100F005F8FFF76BFFF0BC6E
:1013E000BDE8008C20F07F4780EA030023F07F4CAB
:1013F00007EB0C03A3F57C5300F00040A3F1FE03C0
:1014000092F0000F00F0B38095F0000F00F07780AD
:101410002DE901494FEA11404FEA144621EA0048FC
:1014200000FB06FC24EA064708FB06F607FB08F863
:1014300000FB07F718EB06484CEB164C4FEA124B33
:1014400018EB07484FEA15464CEB174022EA0B4EC3
:101450000BFB06FC25EA06470EFB06F607FB0EFE15
:101460000BFB07F71EEB064E4CEB164C4FF000063D
:101470001EEB074E4CEB174B18EB0B0840F100002E
:1014800018EB0E0B58EB000840F100008F1A4FF0DC
:1014900000013CBFC943661B14BFB5EB040C00211F
:1014A0003CBFC943F61B4FEA17444EEA8E0E27EAAB
:1014B00004454FEA1C4704FB07622CEA074C05FB76
:1014C00007F70CFB05F604FB0CFC16EB074642EB9A
:1014D000174216EB0C4642EB1C421BEB060658EB80
:1014E0000202414146EA9E0601D5BDE80189B619CE
:1014F000524141EB0101A3F10103BDE801894FEA2B
:1015000014454FEA114724EA054621EA074C05FB3A
:1015100007F406FB07F70CFB06F105FB0CFC11EBCF
:10152000074144EB17444FEA124711EB0C4144EBDF
:101530001C4422EA074C05FB07F206FB07F70CFBED
:1015400006F605FB0CFC16EB074642EB174216EBC2
:101550000C4642EB1C456A1854F1000148BF704725
:10156000B619524141EB0101A3F10103704795F017
:10157000000F37D04FEA11424FEA144721EA0246E2
:1015800024EA074C02FB07F106FB07F70CFB06F405
:1015900002FB0CFC14EB074441EB17414FEA1547E3
:1015A00014EB0C4441EB1C4125EA074C02FB07F508
:1015B00006FB07F70CFB06F602FB0CFC16EB0746D6
:1015C00045EB174516EB0C4645EB1C42121951F141
:1015D000000148BF7047B619524141EB0101A3F128
:1015E000010370474FEA14454FEA114724EA0546C4
:1015F00021EA074C05FB07F106FB07F70CFB06F297
:101600004FF0000605FB0CFC12EB074241EB1741C3
:1016100012EB0C4251EB1C4148BF7047921841EB52
:101620000101A3F10103704708B52FE04FF47840A2
:1016300010231FA2332100903C2000F0B2FCC820F0
:1016400002F0F0FA4FF4784010231DA233210090ED
:101650003C2000F0A6FCC82002F0E4FA4FF47840E9
:1016600010231BA2332100903C2000F09AFCC820DC
:1016700002F0D8FA4FF47840102319A233210090D9
:101680003C2000F08EFCC82002F0CCFA00F038F8C4
:101690000028CBD14FF47840102315A233210090BD
:1016A0003C2000F07EFC4FF4C87002F0BBFA08BD8D
:1016B000416363656C2041646A7573742020200067
:1016C000416363656C2041646A7573742E20200049
:1016D000416363656C2041646A7573742E2E20002B
:1016E000416363656C2041646A7573742E2E2E000D
:1016F000416363656C206973204F4B2120202000DB
:1017000070B50A253224322002F08CFA00204749B5
:101710000880474908804749088033E0464A4749DE
:10172000474800F099FD68BB4548B0F900000A2120
:1017300090FBF1F03D490988084400B23B4908801C
:101740003E48B0F900000A2190FBF1F038490988C1
:10175000084400B23649088037480088A0F5804028
:1017600000B2354908800846B0F900000A2190FB14
:10177000F1F030490988084400B22E4908800A2057
:1017800002F050FA281EA5F101010DB2C6D12A4A75
:101790002A492B4800F060FDF0BB27480088A0F5DF
:1017A000804000B2244908802048B0F90000244954
:1017B000B1F90010401A6142884232DD1B48B0F98D
:1017C00000001F49B1F90010401AA04229DA184858
:1017D000B0F900001949B1F90010401A614288427D
:1017E0001FDD1348B0F900001449B1F90010401A88
:1017F000A04216DA0F48B0F900000F49B1F9001005
:10180000401A614288420CDD0A48B0F900000A49DA
:10181000B1F90010401A00E005E0A04201DA002012
:1018200070BD0120FCE700BFFAE700003E00002089
:1018300040000020420000205A00002058000020F4
:101840005600002000BFFEE708B52FE04FF47840B7
:1018500010231FA2232100903C2000F0A2FBC820EF
:1018600002F0E0F94FF4784010231EA223210090EB
:101870003C2000F096FBC82002F0D4F94FF47840E9
:1018800010231DA2232100903C2000F08AFBC820D9
:1018900002F0C8F94FF4784010231CA223210090D5
:1018A0003C2000F07EFBC82002F0BCF903F03AFDBA
:1018B0000028CBD14FF47840102319A223210090A7
:1018C0003C2000F06EFB4FF4C87002F0ABF908BD8D
:1018D0004D50553630353020436F6E6E6563742041
:1018E000202000004D50553630353020436F6E6E4D
:1018F0006563742E202000004D5055363035302061
:10190000436F6E6E6563742E2E2000004D50553669
:1019100030353020436F6E6E6563742E2E2E0000BE
:101920004D505536303530206973204F4B212020E3
:101930002020000070472DE9F041024600250026D6
:10194000002000230024002791F803C00CF00F05AD
:1019500091F803C00CF0100CBCF1000F03D091F80B
:1019600002C04CEA050591F800C0BCF1000F31D06F
:10197000146800202BE04FF0010C0CFA00F3B1F8D2
:1019800000C00CEA03069E4220D183004FF00F0CEA
:101990000CFA03F7BC4305FA03FC4CEA040491F883
:1019A00003C0BCF1280F06D14FF0010C0CFA00FC6B
:1019B000C2F814C00AE091F803C0BCF1480F05D189
:1019C0004FF0010C0CFA00FCC2F810C0401C0828B3
:1019D000D1D31460B1F800C0BCF1FF0F34DD5468FE
:1019E00000202EE000F1080C4FF0010808FA0CF37B
:1019F000B1F800C00CEA03069E4221D183004FF0EB
:101A00000F0C0CFA03F7BC4305FA03FC4CEA040480
:101A100091F803C0BCF1280F05D100F1080C08FAB9
:101A20000CF8C2F8148091F803C0BCF1480F07D13C
:101A300000F1080C4FF0010808FA0CF8C2F8108009
:101A4000401C0828CED35460BDE8F081F0B50A46AA
:101A5000002300240021002500F00046B6F1004FCD
:101A600002D11D4EF16901E01B4E7168C0F30345C0
:101A700083B200F44016B6F5401F08D121F0706122
:101A8000154E766826F07066134F7E6012E000F403
:101A90008016B6F5801F06D1032606FA05F4A14389
:101AA00041F0706106E0460D360103FA06F6B143D7
:101AB00041F0706122B1460D360103FA06F631435A
:101AC00000F00046B6F1004F02D1034EF16101E093
:101AD000014E7160F0BD000000000140416170479F
:101AE0000161704708B52FE04FF4784010231DA224
:101AF000432100903C2000F054FAC82002F092F8F4
:101B00004FF4784010231BA2432100903C2000F0AA
:101B100048FAC82002F086F84FF47840102319A242
:101B2000432100903C2000F03CFAC82002F07AF8F3
:101B30004FF47840102317A2432100903C2000F07E
:101B400030FAC82002F06EF800F034F80028CBD14B
:101B50004FF47840102313A2432100903C2000F062
:101B600020FA08BD4779726F732041646A757374F7
:101B7000202020004779726F732041646A75737466
:101B80002E2020004779726F732041646A75737448
:101B90002E2E20004779726F732041646A7573742A
:101BA0002E2E2E004779726F73206973204F4B21C0
:101BB0002020200010B50A24322002F033F8002043
:101BC00046490880464908804649088020E0464A40
:101BD0004649474800F068FBD0B94048008844496E
:101BE0000988084400B23D4908803D4800883F49C3
:101BF0000988084400B23A4908803A4800883A49BE
:101C00000988084400B2374908800A2002F00AF81F
:101C1000201EA4F10101CCB2D9D13048B0F90000A6
:101C20000A2190FBF1F000B22C4908802C48B0F951
:101C300000000A2190FBF1F000B2294908802948F0
:101C4000B0F900000A2190FBF1F000B225490880AC
:101C5000254A2649264800F027FBD0BB1F48B0F98B
:101C600000002349B1F90010401A10F1050F31DDD1
:101C70001A48B0F900001E49B1F90010401A0528B1
:101C800028DA1748B0F900001849B1F90010401AD5
:101C900010F1050F1EDD1248B0F900001349B1F92B
:101CA0000010401A052815DA0E48B0F900000E4958
:101CB000B1F90010401A10F1050F0BDD0948B0F919
:101CC00000000949B1F90010401A052802DA002085
:101CD00010BD01E00120FBE700BFF9E7380000205C
:101CE0003A0000203C000020540000205200002058
:101CF0005000002000BFFEE72DE9F04107460C46EA
:101D000015461E462A2000F08DF9384600F06EF97F
:101D1000284600F06BF92B2000F084F9204600F0F3
:101D200065F9304600F062F92C2000F07BF9BDE83F
:101D3000F08170B50646EF231A4600210846FFF7EA
:101D4000DBFF002408E0002503E0304600F04EF9F8
:101D50006D1CF02DF9D3641CF02CF4D370BD2DE96B
:101D6000F04704460D4616461F46DDF820A03B46C8
:101D7000324629462046FFF7BFFFA8460AE0A146A3
:101D800004E0504600F032F909F10109B145F8D9F3
:101D900008F10108B845F2D9BDE8F0872DE9FE4FFA
:101DA00081468A4616461C46204604EBD0714910EF
:101DB00001910094019800F0070008B1012100E0B2
:101DC0000021019801EBD008A6F12000C6B20098CE
:101DD0005044431E09EBC800421E51464846FFF7D7
:101DE0008BFF009808FB00F7002526E0102C05D19A
:101DF00006FB07501349085C029006E0202C04D132
:101E000006FB07501049085C02904FF0000B10E0F1
:101E1000029800F0010018B10C9800F0E7F803E018
:101E20000A48006800F0E2F80298401002900BF1B6
:101E3000010BBBF1080FEBD36D1CBD42D6D3BDE83F
:101E4000FE8F000068840008588A0008BC03002048
:101E50002DE9F05F81468A4693461C46102C00D13E
:101E6000194D202C00D1194D0AEB0400431E09EB3B
:101E70000400421E51464846FFF73EFF04FB04F0B3
:101E8000C11700EB5171C1F3C7080BFB08550027C0
:101E900015E000260EE028780121B140084018B175
:101EA0000A9800F0A3F803E00948006800F09EF8E3
:101EB000701CC6B2082EEEDB6D1C781CC7B24745FD
:101EC000E7DBBDE8F09F0000DC0200205C000020A2
:101ED000BC0300202DE9FF4F83B0074691461E4604
:101EE000DDE9105A00200290002436E0301B401E2D
:101EF000C1B20A2004F0F8F9B9FBF0F00A21B0FBF6
:101F0000F1F201FB12080298A8B9701EA04212DD7E
:101F1000B8F1000F0DD1AB4605EBDB71491001FBA9
:101F200004702B462022CDF800A00499FFF736FF5D
:101F300011E001200290AB4605EBDB71491001FB7B
:101F4000047008F13001CAB22B46CDF800A0049904
:101F5000FFF724FF00BF601CC4B2B442C6DB07B069
:101F6000BDE8F08F2DE9F04706460F4690469946AA
:101F7000089D4B46424639463046FFF7BDFE0024D9
:101F80000AE0012101EB4401685C00F03FF815F81C
:101F9000140000F03BF8641CB4F5616FF1DBBDE8A0
:101FA000F0872DE9F84306460F4615461C46DDF836
:101FB000208016E004EBD4714910C1F1F001B14268
:101FC00001D2BDE8F883CDF800802A78234639464F
:101FD0003046FFF7E3FE204604EBD07106EB6106C6
:101FE0006D1C28780028E5D100BFEAE710B504464B
:101FF00008210548FFF774FDC4F3072000F01EF820
:10200000E0B200F01BF810BD0008014010B5044616
:1020100008210348FFF764FD204600F00FF810BDCB
:102020000008014010B5044608210348FFF756FD9B
:10203000204600F003F810BD0008014070B50446CA
:10204000002517E001210D48FFF748FD04F080004E
:1020500020B102210948FFF743FD03E002210748B0
:10206000FFF73CFD01210548FFF73AFD6006040E2D
:10207000681CC5B2082DE5DB70BD000000080140FA
:1020800008B50121052000F069FB01217048FFF728
:10209000DDFC48F23F00ADF8000010208DF8030091
:1020A00003208DF8020069466A48FFF744FC48F2B5
:1020B0003F016848FFF714FD04216648FFF70EFD55
:1020C000142001F0AFFD04216248FFF709FD142040
:1020D00001F0A8FD10215F48FFF702FD3620FFF751
:1020E000A1FF0020FFF792FF3A20FFF79BFF05209A
:1020F000FFF78CFFB220FFF795FF0C20FFF786FF5C
:102100000C20FFF783FF0020FFF780FF3320FFF74D
:102110007DFF3320FFF77AFFB720FFF783FF3520DD
:10212000FFF774FFBB20FFF77DFF1920FFF76EFF5D
:10213000C020FFF777FF2C20FFF768FFC220FFF7D2
:1021400071FF0120FFF762FFC320FFF76BFF122032
:10215000FFF75CFFC420FFF765FF2020FFF756FF65
:10216000C620FFF75FFF0F20FFF750FFD020FFF7DB
:1021700059FFA420FFF74AFFA120FFF747FFE02007
:10218000FFF750FFD020FFF741FF0420FFF73EFF8D
:102190000D20FFF73BFF1120FFF738FF1320FFF75B
:1021A00035FF2B20FFF732FF3F20FFF72FFF542092
:1021B000FFF72CFF4C20FFF729FF1820FFF726FF21
:1021C0000D20FFF723FF0B20FFF720FF1F20FFF755
:1021D0001DFF2320FFF71AFFE120FFF723FFD02088
:1021E000FFF714FF0420FFF711FF0C20FFF70EFF8D
:1021F0001120FFF70BFF1320FFF708FF2C20FFF73C
:1022000005FF3F20FFF702FF4420FFF7FFFE5120AC
:10221000FFF7FCFE2F20FFF7F9FE1F20FFF7F6FE69
:102220001F20FFF7F3FE2020FFF7F0FE2320FFF72B
:10223000EDFE2120FFF7F6FE1120FFF7F3FE4FF62B
:10224000FF70FFF776FD2920FFF7ECFE08BD0000C8
:1022500000023000000801402DE9FC4104460D4613
:1022600016466B4606223B21682000F0C5F907465A
:10227000BFB99DF801009DF8001040EA012000B2AE
:1022800020809DF803009DF8021040EA012000B272
:1022900028809DF805009DF8041040EA012000B256
:1022A00030803846BDE8FC812DE9FC4104460D46EE
:1022B00016466B4606224321682000F09DF907462A
:1022C000BFB99DF801009DF8001040EA012000B25E
:1022D00020809DF803009DF8021040EA012000B222
:1022E00028809DF805009DF8041040EA012000B206
:1022F00030803846BDE8FC812DE9F84F6B4602225C
:102300004121682000F078F99DF801009DF8001047
:1023100040EA01200FFA80FA504604F078FB80462C
:1023200000220B4B04F0ECF906460A4A0A4B04F073
:1023300037F9044604F002F983460849584605F087
:1023400083F8044604F0E4FF00B2BDE8F88F000013
:1023500000407540A4703D0AD74342400000C84287
:1023600010B500200E4908600E48006820F4704047
:102370000C4908600846006840F44050086000209E
:102380000949C1F8AC0100F011F8012004490860C6
:1023900000F00CF800200449C1F8A80110BD0000AD
:1023A000A8812142040C01400080214210B5022086
:1023B00001F05EFC10BD000008B50121082000F00E
:1023C000CDF94FF44060ADF8000010208DF8030007
:1023D00003208DF8020069460448FFF7ACFA4FF479
:1023E00040610248FFF77CFB08BD0000000C014083
:1023F00010B500200E4908600E48006820F47040B7
:102400000C4908600846006840F44050086001200C
:102410000949C1F8AC01FFF7C9FF01200449086070
:10242000FFF7C4FF00200449C1F8A80110BD000057
:10243000A8812142040C01400080214270B505466C
:1024400000241648006820F47040144908600846CB
:10245000006840F400400860002614E000201049A5
:102460000860FFF7A3FF01200E49C1F8A80160062C
:10247000040E0B487C38006808B1601CC4B2FFF73A
:1024800095FF701CC6B2082EE8DB15B9FFF7B0FF48
:1024900001E0FFF765FF204670BD0000040C01401D
:1024A000A88121420080214270B50446124800688C
:1024B00020F47040104908600846006840F440501D
:1024C000086000200D490860002512E0E0090B4972
:1024D000091D08606006040E01200949C1F8A80121
:1024E000FFF764FF002005490860FFF75FFF681CE5
:1024F000C5B2082DEADB70BD040C0140A881214261
:102500000080214210B50E48006820F470400C494C
:1025100008600846006840F44050086001200949FE
:1025200008600949C1F8A801FFF740FF00200549EC
:102530000860FFF73BFF00200349C1F8A80110BD68
:10254000040C0140AC8121420080214210B50E48AC
:10255000006820F470400C4908600846006840F4A8
:10256000405008600020094908600949C1F8AC01E1
:10257000FFF71CFF0120054908600549C1F8AC01BF
:10258000FFF714FF10BD0000040C0140A881214298
:102590000080214210B500241448006820F47040E7
:1025A000124908600846006840F4004008600120B5
:1025B0000F490860FFF7FAFE01200E49C1F8A80193
:1025C000FFF7F4FE07E0601CC4B2FA2C03DDFFF74E
:1025D000BDFF012010BD0648803800680028F2D1F8
:1025E0000349091F086000BFF4E70000040C014024
:1025F000AC812142008021422DE9F04106460F4680
:1026000014461D46FFF77EFF002141EA4601C8B28D
:10261000FFF74AFFFFF7BEFF20B1FFF797FF01204A
:10262000BDE8F0813846FFF73FFFFFF7B3FFFFF744
:1026300069FF012101EB4601C8B2FFF735FFFFF743
:10264000A9FF0DE0012C04D10020FFF7F7FE287050
:1026500003E00120FFF7F2FE2870601EC4B26D1C7B
:10266000002CEFD1FFF772FF0020D9E72DE9F041F0
:1026700005460E4617469846FFF744FF002141EAFB
:102680004501C8B2FFF710FFFFF784FF20B1FFF745
:102690005DFF0120BDE8F0813046FFF705FFFFF741
:1026A00079FF00240CE018F80400FFF7FDFEFFF7A7
:1026B00071FF18B1FFF74AFF0120EBE7601CC4B2BD
:1026C000BC42F0DBFFF742FF0020E3E700BFFEE77C
:1026D0007047000070B5002100230F22C47804B3B6
:1026E000154C246804F4E064C4F5E064210AC1F1E7
:1026F0000403CA40447804FA03F184781440214367
:1027000009010E4C0678A155047804F01F05012438
:10271000AC4005786D11AD0005F1E025C5F800412C
:1027200009E0047804F01F050124AC40044D06784C
:10273000761145F8264070BD0CED00E000E400E0A5
:1027400080E100E002490143024A11607047000045
:102750000000FA050CED00E07047000029B1064AC0
:1027600092690243044B9A6104E0034A92698243EE
:10277000014B9A61704700000010024030B5002103
:102780000022002400232D4D6D6805F00C0121B1BD
:10279000042905D0082923D105E0294D056022E050
:1027A000274D05601FE0254D6D6805F47012234D1F
:1027B0006D6805F48034022505EB92421CB9214D69
:1027C000554305600BE01D4D6D6805F400351DB1E6
:1027D0001C4D5543056002E0194D5543056002E06C
:1027E000174D056000BF00BF144D6D6805F0F00186
:1027F0000909154D6B5C0568DD4045600F4D6D683E
:1028000005F4E061090A104D6B5C4568DD408560A8
:102810000A4D6D6805F46051C90A0B4D6B5C456843
:10282000DD40C560054D6D6805F44041890B074DDD
:102830006B5CC568B5FBF3F5056130BD0010024067
:1028400000127A0000093D00C0030020D0030020E0
:10285000704710B500F002F810BD00000CB5002064
:10286000019000903348006840F48030314908609E
:1028700000BF3048006800F4003000900198401C10
:102880000190009818B90198B0F5A06FF1D12948CE
:10289000006800F4003010B10120009001E0002039
:1028A00000900098012843D12348006840F01000B0
:1028B000214908600846006820F0030008600846C7
:1028C000006840F0020008601A48406819494860F2
:1028D0000846406848600846406840F480604860A8
:1028E0000846406820F47C1048600846406840F480
:1028F000E81048600846006840F08070086000BF3B
:102900000C48006800F000700028F9D009484068C1
:1029100020F00300074948600846406840F0020084
:10292000486000BF0348406800F00C000828F9D157
:102930000CBD000000100240002002402DE9FF47BE
:102940000646894614461D46D54AD649D648FFF75D
:1029500083FC00287ED12346D4A249463046009508
:10296000FFF71FFB274604EBD771491001EBC101AC
:1029700088192346CFA249460095FFF712FB04EBC6
:10298000D471491001EB410202EBC10188192346C1
:10299000C9A249460095FFF704FB09EB0401234651
:1029A000C7A230460095FFF7FCFA04EBD472521030
:1029B00002EBC202901909EB04012346BDA2009567
:1029C000FFF7EFFA04EBD472521002EB420303EB71
:1029D000C202901909EB04012346B7A20095FFF744
:1029E000E0FA09EB44012346B7A230460095FFF711
:1029F000D8FA04EBD472521002EBC202901909EB20
:102A000044012346ABA20095FFF7CBFA04EBD47246
:102A1000521002EB420303EBC202901909EB44018E
:102A20002346A5A20095FFF7BCFA9F480088A84955
:102A30000988401A00B29C4908800846B0F9000095
:102A400003F0E5FF0022A34BCDE9000103F0F6FF00
:102A5000002200E022E1A04BCDE9020103F050FE8C
:102A6000074603F0A5FF0FFA80FABAF1000F11DA5A
:102A7000CAF100000FFA80FA274604EBD77149101B
:102A800001EB81018819234694A249460095FFF77E
:102A900088FA0CE0274604EBD771491001EB81015D
:102AA000881923468EA249460095FFF77AFA0A2034
:102AB0009AFBF0F8274604EBD771491001EB41016E
:102AC00006EB4100032342464946CDE90045FFF7A6
:102AD00001FA0A209AFBF0F100FB11A804EBD77170
:102AE000491001EB810106EB4100012342464946B2
:102AF000CDE90045FFF7EEF96A4800887949098871
:102B0000401A00B2674908800846B0F9000003F097
:102B10007EFF00226F4BCDE9000103F08FFF0746D7
:102B200000226D4B03F0ECFDCDE9020103F040FF04
:102B30000FFA80FABAF1000F12DA274604EBD772C7
:102B4000521002EB8202901909EB0401234663A2A2
:102B50000095FFF726FACAF100000FFA80FA0DE09F
:102B6000274604EBD772521002EB8202901909EB50
:102B7000040123465AA20095FFF713FA0A209AFB94
:102B8000F0F8274604EBD772521002EB420206EB34
:102B9000420009EB040103234246CDE90045FFF75B
:102BA00099F90A209AFBF0F100FB11A804EBD77207
:102BB000521002EB820206EB420009EB04010123F2
:102BC0004246CDE90045FFF785F93548008846497A
:102BD0000988401A00B2324908800846B0F900005E
:102BE00003F015FF00223B4BCDE9000103F026FF67
:102BF00007460022384B03F083FDCDE9020103F0C4
:102C0000D7FE0FFA80FABAF1000F12DA274604EB6A
:102C1000D772521002EB8202901909EB440123464D
:102C20002EA20095FFF7BDF9CAF100000FFA80FA55
:102C30000DE0274604EBD772521002EB8202901986
:102C400009EB4401234626A20095FFF7AAF90A20C2
:102C50009AFBF0F8274604EBD772521002EB4202BF
:102C600006EB420009EB440103234246CDE900454F
:102C7000FFF730F90A209AFBF0F100FB11A804EBF2
:102C8000D772521002EB820206EB420009EB4401BC
:102C900001234246CDE90045FFF71CF9BDE8FF8757
:102CA0005A0000205800002056000020616163781F
:102CB0003A0000002E0000006D2F7332000000006B
:102CC000616163793A0000006161637A3A00000053
:102CD0003E000020008068400000E0402D00000021
:102CE0002000000040000020420000202DE9FC47A9
:102CF00006460F4614461D46B54AB649B64802F088
:102D0000FFF900287ED12346B4A23946304600950B
:102D1000FFF747F9A14604EBD971491001EB810196
:102D200006EB41002346AFA239460095FFF739F97B
:102D300004EBD971491001EB410106EB81002346F8
:102D4000A9A239460095FFF72CF939192346A7A205
:102D500030460095FFF725F904EBD972521002EBCB
:102D6000820206EB4200391923469EA20095FFF726
:102D700018F904EBD972521002EB420206EB820002
:102D80003919234698A20095FFF70BF907EB440188
:102D9000234698A230460095FFF703F904EBD97259
:102DA000521002EB820206EB420007EB440123467D
:102DB0008CA20095FFF7F5F804EBD972521002EBE4
:102DC000420206EB820007EB4401234686A20095EF
:102DD000FFF7E7F889498048006804F035FB814631
:102DE00004F096FA0FFA80F8B8F1000F14DAA14651
:102DF00004EBD971491001EB410106EB4100234678
:102E00007FA200E0E2E039460095FFF7CAF8C8F17A
:102E100000000FFA80F80DE0A14604EBD9714910CB
:102E200001EB410106EB4100234676A239460095AD
:102E3000FFF7B7F80A2098FBF0FA04EBD4714910B9
:102E4000C1EBC1018819032352463946CDE900453B
:102E5000FFF740F80A2098FBF0F100FB118A04EB21
:102E6000D471491001EB410202EBC1018819012321
:102E700052463946CDE90045FFF72CF85F495548E1
:102E8000006804F0E1FA814604F042FA0FFA80F893
:102E9000B8F1000F12DAA14604EBD972521002EB1E
:102EA000420206EB42003919234655A20095FFF76E
:102EB00078F8C8F100000FFA80F80DE0A14604EBA5
:102EC000D972521002EB420206EB42003919234636
:102ED0004CA20095FFF765F80A2098FBF0FA04EB86
:102EE000D4725210C2EBC202901939190323524610
:102EF000CDE90045FEF7EEFF0A2098FBF0F100FB5C
:102F0000118A04EBD472521002EB420303EBC202AB
:102F10009019391901235246CDE90045FEF7DAFF31
:102F200036492B48006804F08FFA814604F0F0F926
:102F30000FFA80F8B8F1000F13DAA14604EBD9724A
:102F4000521002EB420206EB420007EB440123461B
:102F50002BA20095FFF725F8C8F100000FFA80F8C2
:102F60000EE0A14604EBD972521002EB420206EBCE
:102F7000420007EB4401234622A20095FFF711F817
:102F80000A2098FBF0FA04EBD4725210C2EBC20292
:102F9000901907EB440103235246CDE90045FEF7A3
:102FA00099FF0A2098FBF0F100FB118904EBD47221
:102FB000521002EB420303EBC202901907EB4401EB
:102FC00001234A46CDE90045FEF784FFBDE8FC87B2
:102FD0004C00002048000020440000205069746329
:102FE000683A00002E00000043000000526F6C6C35
:102FF000203A000059617720203A0000000020416B
:103000002D000000200000002DE9FC470646884600
:1030100014461D46FFF770F90746234633A2414682
:1030200030460095FEF7BDFFA14604EBD97149106B
:1030300001EB810106EB410023462EA2414600959B
:10304000FEF7AFFF04EBD971491001EB410106EB2C
:103050008100234628A241460095FEF7A2FF002FDB
:103060000FDA04EBD971491001EB410106EB410085
:10307000234622A241460095FEF793FF784207B20D
:103080000DE0A14604EBD971491001EB410106EBBB
:10309000410023461AA241460095FEF782FF6420B4
:1030A00097FBF0FA04EBD4714910C1EBC101881908
:1030B000032352464146CDE90045FEF70BFF0A20A7
:1030C00097FBF0F100FB117A04EBD471491001EB8E
:1030D000410202EBC1018819012352464146CDE964
:1030E0000045FEF7F7FEBDE8FC87000054656D70F3
:1030F000203A00002E000000430000002D000000D8
:1031000020000000042808D14FF0E021096941F0B7
:1031100004014FF0E022116107E04FF0E02109695E
:1031200021F004014FF0E022116170477047000068
:1031300010B51348006840F00100114908600846C6
:103140004068104908400E494860084600680E492A
:1031500008400B4908600846006820F48020086099
:103160000846406820F4FE0048604FF41F00886065
:10317000FFF76FFB4FF000600449086010BD0000CE
:10318000001002400000FFF8FFFFF6FE08ED00E02F
:1031900010B540F225511D4800F04AF810B31B4805
:1031A00000F002F9C4B21A48008800F40040C8B91F
:1031B0001748008800F4804060B10A2C03D000203A
:1031C0001349088020E01248008840F4004010496C
:1031D000088019E00D2C06D10D48008840F480408D
:1031E0000B49088010E00A480088C0F30D00094927
:1031F0000C5407480088401C054908800846008890
:10320000C72801DD0020088010BD00000038014003
:10321000DC0300200404002021B1828942F4005222
:10322000828104E082894DF6FF731A4082817047E3
:1032300070B50246002400230025002040F66A16DF
:10324000B14200D100BFC1F3421501F01F030126B6
:1032500006FA03F3012D02D19689334006E0022DD0
:1032600002D1168A334001E0968A33400C120126BF
:1032700006FA04F41688344013B10CB1012000E0C2
:10328000002070BDF0B50346002400260025002074
:1032900040F66A17B94200D100BF1846C1F3421484
:1032A00001F01F06012707FA06F5012C01D10C30A9
:1032B00004E0022C01D1103000E014301AB107688C
:1032C0002F43076002E00768AF430760F0BD0000CE
:1032D0002DE9F04786B005460E460024A24600BF01
:1032E000A1460027B08900B100BF2F462C8A4CF6BA
:1032F000FF700440F08804432C82AC894EF6F31032
:103300000440B08831890843718908430443AC8183
:10331000AC8A4FF6FF400440B0890443AC8201A858
:10332000FFF72CFA1F48874202D1DDF810A001E018
:10333000DDF80CA0A88900F4004040B10AEBCA00F7
:1033400000EB0A1031684900B0FBF1F807E00AEB26
:10335000CA0000EB0A1031688900B0FBF1F8642064
:10336000B8FBF0F004012009642101FB1089A88951
:1033700000F4004040B1322000EBC900B0FBF1F096
:1033800000F00700044308E0322000EB091064213C
:10339000B0FBF1F000F00F0004432C8106B0BDE853
:1033A000F08700000038014001468888C0F308001B
:1033B000704700BFFEE7490050EAC12018BF042053
:1033C0004A0D18BF40F0010040F2FF72B2EB515FAE
:1033D00008BF40F00200012808BF052070472DE912
:1033E000F0414F1E00EBC7010446D1E9000115462C
:1033F0001E4637F006020DD02A46334603F01EFB68
:103400007F1E04EBC703D3E9002303F0C9F837F0AC
:103410000602F1D1022F25D0042F13D0062F18BF9A
:10342000BDE8F0812A46334603F008FBD4E90A23BD
:1034300003F0B6F82A46334603F000FBD4E908232C
:1034400003F0AEF82A46334603F0F8FAD4E906232F
:1034500003F0A6F82A46334603F0F0FAD4E9042331
:1034600003F09EF82A46334603F0E8FAD4E9022333
:1034700003F096F82A46334603F0E0FAD4E9002335
:10348000BDE8F04103F08CB8012204F084B903F0E8
:1034900087B8002213461046114603F031B90000E8
:1034A000024A0020110704F076B9000001FDFFFF79
:1034B00030380A2801D201207047002070470146A9
:1034C00000BF70472DE9FE4F06460F4600256846AF
:1034D00001F0DCF9002442E056F8240057F82410EB
:1034E000A0EB010ABAF1000F01DB514601E0CAF17D
:1034F0000001084603F048FF83464FF08F4103F078
:1035000011FE80465DF82400002103F0CDFE16D0A8
:103510005DF82410404603F005FE82464FF07E51D0
:1035200004F090F8814629F0004A0F48416A50465D
:1035300004F056F812D20120A04005430EE00A48DC
:10354000C169404603F04CFF05D30748016A404675
:1035500004F046F802D20120A0400543641C032C6D
:10356000BADB2846BDE8FE8F408400082DE9F04D07
:103570008D4F21F0004A86B005460C46BA452ADB3D
:10358000AAEB070028430AD08848824501DC1AD1FB
:10359000CDB106B02846BDE8F04DFFF775BF844AAF
:1035A000844B284603F04AFA07460E46824A834B6C
:1035B0002846214603F042FA06B03A463346BDE8B3
:1035C000F04D02F0EDBF0120FDF70EF806B0BDE8AA
:1035D000F04DFFF75EBF7A48824542DABAF1795F73
:1035E0000BDA2846FFF7E7FE042808BFFFF758FF6D
:1035F000284606B02146BDE8F08D2A460B46104607
:1036000003F01CFA834602466E480E460B4606211E
:103610007844FFF7E4FE5A46334603F00FFA80463B
:1036200069488A465A46334604217844FFF7D7FE54
:103630005A46334603F002FA00223B4602F0B0FF3E
:1036400002460B464046514603F05AF82A462346A6
:1036500003F0F4F906B02A462346BDE8F04D02F027
:103660009FBF284624F0004100223D463B4603F020
:10367000E3FA4FF0FF3204F08EF806460246534854
:103680000F460B4606217844FFF7A9FE32463B461B
:1036900003F0D4F9CDE900014D4832463B46042100
:1036A0007844FFF79CFE32463B4603F0C7F9002200
:1036B0002B4602F075FF834602913046394602F0F0
:1036C000B1FE804643480D46504517DCDDE9000158
:1036D0005A46029B03F014F842462B4603F0AEF91B
:1036E00042462B4602F05CFF012204F054F8304AB7
:1036F000304B03F093FB304A304B4CE04FF0000A64
:1037000052460B46404602F04BFFCDE903105246AD
:103710002B461046194603F091F932463B4603F01A
:103720008BFADDE9033202F0EBFF06460F46DDE9D6
:1037300000015A46029B02F0E3FF834600910122FA
:103740003046394604F027F8194A1A4B03F074FA48
:1037500006460F4601224046294604F01CF85A4608
:10376000009B03F06BF932463B4603F057FB0646DD
:103770000F4601225046294604F00DF80E4DDFF8A1
:1037800058802A46434603F057FA32463B4603F038
:1037900053FA2A46434603F04FFA002CD8BF81F073
:1037A000004106B0BDE8F08D0000F03F0000F07F62
:1037B000075C143326A6913C182D4454FB21F93F95
:1037C0000000E03F5CA4000072A40000E6A300003B
:1037D000FCA300003333EF3FFB21E93F2DE9F84F15
:1037E00004460D4621F0004000917349814211DCEE
:1037F0007249884201DC06D12CB120462946BDE839
:10380000F84FFFF741BE6E48002DCCBF6D496E49A1
:10381000BDE8F88F6D49814211DD6D498142D8BF05
:103820004FF0FF366DDD20462946FFF7C4FD042822
:1038300008BFFFF735FE20462946BDE8F88F6549E9
:10384000654F25F00045814233DD6449814219DD31
:10385000002632464FF080432046294602F0A0FE63
:1038600080468A4601222046294603F094FF002222
:103870003B4603F0D3FA4246534602F041FF04466A
:103880000D463EE001260022BA463B462046294628
:1038900002F086FE80460F46002253462046294607
:1038A00003F0BCFA42463B4602F02AFF04460D46AE
:1038B00027E04B4981421BDDDFF828A102260022C8
:1038C00053462046294603F0B9F800223B4602F051
:1038D00067FE80460F46002253462046294603F0E5
:1038E0009DFA42463B4602F00BFF04460D4608E0B7
:1038F000032622462B4600203B4902F001FF0446E6
:103900000D4622462B461046194603F097F88B4683
:10391000824602460B4603F091F8074602463348BA
:1039200088460B4606217844FFF759FD52465B4610
:1039300003F084F882462E488B463A4643460521DA
:103940007844FFF74CFD3A46434603F077F80246C9
:103950000B46002E504659460CDA02F021FE224654
:103960002B4603F06BF801B022462B46BDE8F04F22
:1039700003F062B902F014FE22462B4603F05EF813
:103980001C4A7A4402EBC603D3E9002303F046FA4B
:1039900022462B4603F042FA174A7A4402EBC6034A
:1039A000D3E9002303F048F9009A002AB8BF81F058
:1039B0000041BDE8F88F0000000010440000F07FD7
:1039C000182D4454FB21F93FFB21F9BF0000DC3FD7
:1039D0000000203E0000F33F0000F03F0000E63F03
:1039E000008003400000F83F0000F0BFFEA100008F
:1039F000BCA100005AA1000022A100002DE9F04D59
:103A00009446CCF1000423F000464CEA0404524FE3
:103A100046EAD4749A46884621F00042BC4206D851
:103A2000454240EA050442EAD474BC4204D9BDE8E8
:103A3000F04D6246FFF72BBDAAF14055A5F17F6519
:103A400055EA0C040BD0022404EAAA74434DDFF8B3
:103A500010E144EAD87452EA000B04D00CE0BDE84F
:103A6000F04DFFF7BBBE002C14BF012CBDE8F08D5C
:103A7000022C30D0032C32D056EA0C0B0AD0BE42B6
:103A800020D1BA4209D126F0804622F08042334646
:103A9000114617E000291ADB25E0DFF8C8B0FB4427
:103AA000002C04BFDBE90001BDE8F08D012C02BF52
:103AB000DBE9000181F00041BDE8F08D022C0AD065
:103AC000032C0CD0BA4212D1B8F1000F0BDA234804
:103AD0002549BDE8F08D28462449BDE8F08D2846EB
:103AE0007146BDE8F08D1D482149BDE8F08D921B5F
:103AF00012153C2AC4BF19481D490EDCBAF1000F4B
:103B0000BEBF12F13C0F0020014606DB624602F008
:103B1000F7FD21F00041FFF761FE002C08BFBDE872
:103B2000F08D012C04BF81F00041BDE8F08D114AF9
:103B3000114B022C07D003F071F92A46BDE8F04D75
:103B40000A4B03F06BB903F069F92A46BDE8F04D62
:103B5000064B03F071B800000000F07F182D4454AC
:103B6000FB2109C0B6A00000FB21F9BFFB210940E1
:103B7000FB21F93F075C143326A6A13C2DE9F04157
:103B80000446E07800F0C006E07800F03F05607879
:103B900000F0010098B1EF102846E91705EB5171CC
:103BA000C910A5EBC101491C01F0FF080B480068D2
:103BB00020B10A48414602683846904700BF607805
:103BC00000F0080030B10548406818B1B011034A50
:103BD000516888470020BDE8F0810000F403002010
:103BE00010B56FF00400FFF78DFA0A4800680A4923
:103BF000B0FBF1F0094908700846007800EB40017D
:103C0000C1EBC0104FF6FF7101EAC0000449088003
:103C100010BD0000E003002000127A00D403002051
:103C2000D60300200146114A12884A434FF0E02390
:103C30005A6100229A611A46126942F001021A6121
:103C400000BF4FF0E022106900F001021AB100F449
:103C50008032002AF5D04FF0E022126922F00102F2
:103C60004FF0E0231A6100229A617047D6030020CA
:103C70000146114A12784A434FF0E0235A6100226C
:103C80009A611A46126942F001021A6100BF4FF0B0
:103C9000E022106900F001021AB100F48032002A1B
:103CA000F5D04FF0E022126922F001024FF0E0233C
:103CB0001A6100229A617047D403002038B5044687
:103CC00064B120208DF8000028208DF801003020FC
:103CD0008DF8020038208DF8030004E0A3220421AF
:103CE0006846FCF7F9FB6A46042140F69E2002F084
:103CF000BBFA01F0A5FE38BD3EB5044602208DF8A2
:103D00000000CA208DF80100E3208DF80200092090
:103D10008DF803006A460421682002F0A5FAA3206A
:103D20008DF8000004F0400048B1C0208DF801007B
:103D3000C8208DF80200C2208DF8030006E0A32001
:103D40008DF801008DF802008DF8030004F4C070B6
:103D500048B1C4208DF80400CC208DF80500C620A1
:103D60008DF8060006E0A3208DF804008DF805000C
:103D70008DF80600A3208DF807008DF808008DF857
:103D800009006A460A2140F6A72002F06DFA04F005
:103D9000030018B120208DF8000002E0D8208DF833
:103DA00000006A46012140F6B62002F05DFA04F0F8
:103DB000200018B1012000F0ADF802E0002000F072
:103DC000A9F804F4C07008B304F4807060B1B220A4
:103DD0008DF800008B208DF80100B6208DF80200D0
:103DE0009B208DF803000BE0B0208DF800008020B0
:103DF0008DF80100B4208DF8020090208DF80300AA
:103E00006A46042140F6A22002F02EFA04F00100D6
:103E100020B3F8208DF800006A4601214FF40B60B2
:103E200002F022FAFA21072000F02CFC072000F013
:103E3000F3FB012000F013FC642000F0F3FC4FF4CE
:103E4000FA7000F002FDC821304800F0A3FB2820E2
:103E500000F0BCFB0A2000F0CCFB08E0D8208DF875
:103E600000006A4601214FF40B6002F0FDF904F0F6
:103E7000020018B1D9208DF8000002E0D8208DF89A
:103E800000006A46012140F23D7002F0EDF904F0B5
:103E9000040018B1012000F069F802E0002000F0F1
:103EA00065F804F0100018B10120FFF707FF02E0E9
:103EB0000020FFF703FF44F008001549488101F096
:103EC000BFFD00201249887304F0400018B1084675
:103ED000807B801D887304F4C07020B10C48807B07
:103EE000801D0B49887304F0140020B10848807BC2
:103EF00010300749887304F0030020B10448807B28
:103F0000001D0349887300203EBD000009E3CA027A
:103F1000F40300203EB504466CB10EA1D1E90020A7
:103F20008968CDE9002002916A4609214FF4976023
:103F300002F09AF93EBD0AA2D2E900109268CDE9DA
:103F4000010200916A4609214FF4976002F08CF952
:103F5000F0E70000B8AAB38DB4980D355D000000FD
:103F6000B8AAAAAAB088C3C5C700000038B50446DD
:103F700064B1C0208DF80000C2208DF80100C4207B
:103F80008DF80200C6208DF8030004E08B22042186
:103F90006846FCF7A1FA6A46042140F6982002F030
:103FA00063F901F04DFD38BD10B5C8234FF48062B0
:103FB000024940F6F63001F0D7FB10BD2278000828
:103FC0002DE9F04F8DB00746884615469946DDE944
:103FD000166B0024002030806B49887B5A4605A967
:103FE00001F08EFC18B1601E0DB0BDE8F08F664880
:103FF000807A00F01400002867D09DF814000006B5
:104000009DF8151040EA01409DF8161040EA012085
:104010009DF81710084328609DF8180000069DF8C9
:10402000191040EA01409DF81A1040EA01209DF85D
:104030001B10084368609DF81C0000069DF81D10C9
:1040400040EA01409DF81E1040EA01209DF81F1033
:104050000843A8609DF8200000069DF8211040EA62
:1040600001409DF8221040EA01209DF823100843EA
:10407000E86004F11000C4B2286800140190686878
:1040800000140290A86800140390E86800140490DB
:1040900001984043029901FB0100039901FB0100D3
:1040A000049901FB010ABAF1706F02DBBAF1885F73
:1040B00005DD01F0C5FC00203080401E94E7B6F914
:1040C000000040F48070308000BF2F48807A00F0FC
:1040D000400020B305A9601C085C095D40EA01208E
:1040E00000B2A8F8000005A9E01C095C05AAA01C04
:1040F000105C41EA002000B2A8F8020005A9601D8A
:10410000095C201D105C41EA002000B2A8F8040000
:10411000A01DC4B2B6F9000040F0080030801A4873
:10412000408900F4C07008B305A9601C085C095DF3
:1041300040EA012000B2388005A9E01C095C05AA0C
:10414000A01C105C41EA002000B2788005A9601D27
:10415000095C201D105C41EA002000B2B880A01D5F
:10416000C4B2B6F9000040F0700030800648807A92
:1041700000F0030018B105A90819FFF7FFFC484635
:1041800000F084FF00202FE7F403002070B588B012
:10419000064601A801F03CF9BDF804000021C9035E
:1041A00041EA5045C4034448007A00F0030056F841
:1041B000200005904048007A00F0040010B10598F6
:1041C000404205903C48007AC0F3C10056F82000F8
:1041D00006903948007A00F0200010B1069840425D
:1041E00006903548007AC0F3811056F820000790F9
:1041F0003148008900F4807010B107984042079060
:104200000598C117A0FB042301FB043100FB051036
:10421000810041EA927005900698C117A0FB042323
:1042200001FB043100FB0510810041EA9270069009
:104230000798C117A0FB042301FB043100FB051004
:10424000810041EA927007900598000E8DF80800F1
:104250000598000C8DF809000598000A8DF80A00F1
:104260000598C0B28DF80B000698000E8DF80C0072
:104270000698000C8DF80D000698000A8DF80E00C7
:104280000698C0B28DF80F000798000E8DF8100048
:104290000798000C8DF811000798000A8DF812009D
:1042A0000798C0B28DF8130002AA0C214FF42570B4
:1042B00001F0DAFF08B070BDF403002030B585B01E
:1042C000044616A207CA02AB07C3C82C03DD4FF091
:1042D000FF3005B030BDC82090FBF4F0401E85B221
:1042E000280A8DF80000E8B28DF801006A46022124
:1042F00040F2162001F0B8FF10B14FF0FF30E8E7B0
:1043000002AA0C2140F6C12001F0AEFF10B14FF01F
:10431000FF30DEE7044884810020DAE7FEF2ABC418
:10432000AAF1DFDFBBAFDFDFF40300201FB50446D7
:104330004848007A00F0030054F8200001904548F6
:10434000007A00F0040010B1019840420190414809
:10435000007AC0F3C10054F8200002903D48007A72
:1043600000F0200010B10298404202903948007AD3
:10437000C0F3811054F8200003903648008900F4FF
:10438000807010B10398404203903349019880FB3C
:104390000101800F40EA810001902F49029880FBC3
:1043A0000110820042EA917002902B49039880FB31
:1043B0000110820042EA917003900198000E8DF87E
:1043C00000000198000C8DF801000198000A8DF89A
:1043D00002000198C0B28DF803006A4604214FF430
:1043E000747001F041FF18B14FF0FF3004B010BD00
:1043F0000298000E8DF800000298000C8DF8010064
:104400000298000A8DF802000298C0B28DF80300ED
:104410006A4604214FF4757001F026FF10B14FF089
:10442000FF30E3E70398000E8DF800000398000CBE
:104430008DF801000398000A8DF802000398C0B2BD
:104440008DF803006A4604214FF4767001F00CFFEA
:10445000CCE70000F403002009E3CA0210B586B0DF
:10446000044647A00068039046A00068029046A05A
:104470000068019045A00068009004F0030003A9C3
:10448000085C8DF8140003A8C4F3C101405C8DF8EA
:10449000150003A8C4F38111405C8DF8160004F0E8
:1044A000030002A9085C8DF8100002A8C4F3C10142
:1044B000405C8DF8110002A8C4F38111405C8DF8B6
:1044C000120005AA032140F2264001F0CDFE18B1EA
:1044D0004FF0FF3006B010BD04AA032140F22A407D
:1044E00001F0C2FE10B14FF0FF30F3E701980590E4
:1044F0000098049004F0040058B19DF8140040F0B6
:1045000001008DF814009DF8100040F001008DF8B6
:10451000100004F0200058B19DF8150040F0010093
:104520008DF815009DF8110040F001008DF8110084
:1045300004F4807058B19DF8160040F001008DF829
:1045400016009DF8120040F001008DF8120005AA37
:1045500003214FF4886001F087FE10B14FF0FF3067
:10456000B8E704AA032140F2314001F07DFE10B10A
:104570004FF0FF30AEE7064804810020AAE70000B4
:104580004CCD6C000CC92C003656760026466600D1
:10459000F4030020F8B505460E464FF47A7095FBFB
:1045A000F0F000FB06F4200E8DF80000200C8DF8D2
:1045B0000100200A8DF80200E0B28DF803006A467F
:1045C00004214FF4AE7001F04FFEF8BD38B504463B
:1045D000052094FBF0F084B220128DF80000E0B2C8
:1045E0008DF801006A4602214FF4AD7001F03CFEE7
:1045F00038BD38B50446052094FBF0F084B2201293
:104600008DF80000E0B28DF801006A4602214FF4F7
:10461000AC7001F029FE38BD38B50446002000908A
:1046200004F0010020B19DF8000040F0300000903F
:1046300004F0020020B19DF8000040F00C00009052
:1046400004F0040020B19DF8000040F00300009049
:104650006A4601214FF4A47001F006FE38BD38B55A
:104660000446012C01DA012402E0042C00DD0424BC
:10467000601EC0B200906A46012140F24F1001F066
:10468000F3FD38BD2DE9FC4706460F4606F007004E
:1046900010B1B7F5C86F03DD4FF0FF30BDE8FC8700
:1046A000384602F089FE8146594902F03BFD8046BA
:1046B000684600F087FE9DF80000022806D0042816
:1046C00016D0082826D0102848D135E04FF08D416B
:1046D000404602F0B9FE814602F036FE84B24D49F2
:1046E000404602F0B1FE814602F02EFE85B238E06F
:1046F0004FF08C41404602F0A7FE814602F024FEB6
:1047000084B24549404602F09FFE814602F01CFEFD
:1047100085B226E04FF08B41404602F095FE81467F
:1047200002F012FE84B23D49404602F08DFE814601
:1047300002F00AFE85B214E04FF08A41404602F0D2
:1047400083FE814602F000FE84B23549404602F005
:104750007BFE814602F0F8FD85B202E04FF0FF30AB
:104760009CE700BF20128DF80400E0B28DF8050030
:1047700028128DF80600E8B28DF8070006F0010057
:10478000A0B101AA02214FF4EA7001F06DFD10B151
:104790004FF0FF3082E70DF1060202214FF49270D4
:1047A00001F062FD10B14FF0FF3077E706F0020034
:1047B000A0B101AA02214FF4EC7001F055FD10B137
:1047C0004FF0FF306AE70DF1060202214FF49470BA
:1047D00001F04AFD10B14FF0FF305FE706F0040032
:1047E000A0B101AA02214FF4EE7001F03DFD10B11D
:1047F0004FF0FF3052E70DF1060202214FF49670A0
:1048000001F032FD10B14FF0FF3047E7002045E7DF
:1048100000004843000040460000C04500004045FD
:104820000000C04438B50446052094FBF0F085B282
:1048300028128DF80000E8B28DF801006A460221C6
:104840004FF4EF7001F010FD38BD38B50446052077
:1048500094FBF0F085B228128DF80000E8B28DF8D4
:1048600001006A4602214FF4ED7001F0FDFC38BDF5
:1048700000BF054A128802F04002002AF9D0C2B2F5
:10488000014B1B1D1A807047003801407CB505465E
:1048900028494968087801AB04220D21FDF7ACFED8
:1048A00008B107207CBD9DF80700C0F301109DF8FA
:1048B000041001F0E00140EAE1008DF800009DF8ED
:1048C0000700C0F381009DF8051001F0E00140EA07
:1048D000E1008DF801009DF8070000F003009DF84D
:1048E000061001F0E00140EAE1008DF8020000242A
:1048F0001CE01DF8040018B9002045F8240013E05E
:104900000D4845F8240006E055F824000B4902F054
:104910009BFD45F824001DF80400401EC0B20DF8B0
:1049200004000028F0D100BF601CC4B2032CE0DBFF
:104930000020B7E7000000207B14AE3E1D5A843FE4
:104940002DE9F04F87B005460C46914601208DF8C1
:10495000100000208DF81100FE4A1268917CFD4A7B
:104960005268107804AB0222FDF780FE20B14FF0B0
:10497000FF3007B0BDE8F08FC820FFF753F90020E3
:104980008DF81000F34A1268D17BF24A5268107811
:1049900004AB0122FDF76AFE10B14FF0FF30E8E7EB
:1049A000EC4A12685179EB4A5268107804AB012244
:1049B000FDF75CFE10B14FF0FF30DAE7E54A126810
:1049C000917CE44A5268107804AB0122FDF74EFE58
:1049D00010B14FF0FF30CCE7DE4A1268D17DDD4ADE
:1049E0005268107804AB0122FDF740FE10B14FF081
:1049F000FF30BEE7D74A12681179D64A526810785C
:104A000004AB0122FDF732FE10B14FF0FF30B0E7EA
:104A10000C208DF81000CF4A12681179CD4A5268E7
:104A2000107804AB0122FDF721FE10B14FF0FF30EA
:104A30009FE70F20FFF7F6F8C648806A407A8DF8A6
:104A40001000C44A12689178C24A5268107804ABC8
:104A50000122FDF70BFE10B14FF0FF3089E7BD4892
:104A6000806A007A8DF81000BA4A12685178B94A03
:104A70005268107804AB0122FDF7F8FD10B14FF039
:104A8000FF3076E7B9F1000F07D0B248806A807A2C
:104A900040F0E0008DF8100004E0AE48806A807AB3
:104AA0008DF81000AB4A12689179AA4A52681078C2
:104AB00004AB0122FDF7DAFD10B14FF0FF3058E7EB
:104AC000B9F1000F07D0A348806AC07A40F0E00037
:104AD0008DF8100003E0A048C07A8DF810009D4AC0
:104AE0001268D1799B4A5268107804AB0122FDF715
:104AF000BDFD10B14FF0FF303BE7B9F1000F02D020
:104B0000C820FFF78FF840208DF81000914A1268F6
:104B10001179904A5268107804AB0122FDF7A6FD86
:104B200010B14FF0FF3024E778208DF81000894A4B
:104B300012685179874A5268107804AB0122FDF758
:104B400095FD10B14FF0FF3013E783498889FFF7D7
:104B500069F800208DF810007E4A126851797D4A6C
:104B60005268107804AB0122FDF780FD10B14FF0C0
:104B7000FF30FEE6774A1268917A764A52681078DA
:104B800004AB0222FDF738FD10B14FF0FF30F0E624
:104B90009DF811009DF8101040EA012B0C209BFBA2
:104BA000F0F0C6B20020A86068602860A060606075
:104BB0002060824665E0674A1268D17A654A526889
:104BC000107804AB0C22FDF717FD10B14FF0FF3049
:104BD000CFE69DF811009DF8101040EA012000B2C8
:104BE000ADF808009DF813009DF8121040EA01206E
:104BF00000B2ADF80A009DF815009DF8141040EAC7
:104C0000012000B2ADF80C00BDF90810206808447E
:104C10002060BDF90A10606808446060BDF90C109E
:104C2000A0680844A0609DF817009DF8161040EA9F
:104C3000012000B2ADF800009DF819009DF8181091
:104C400040EA012000B2ADF802009DF81B009DF87B
:104C50001A1040EA012000B2ADF80400BDF90010BE
:104C6000286808442860BDF9021068680844686034
:104C7000BDF90410A8680844A8600AF1010000F01A
:104C8000FF0AB24597DB3448D0F800C02868C11746
:104C9000090441EA10410704624600233846FBF745
:104CA000E6FA32460023CDE90201FBF7E0FA28607C
:104CB0002948D0F800C06868C117090441EA1041CA
:104CC0000704624600233846FBF7D1FA3246002338
:104CD000CDE90201FBF7CBFA68601F48D0F800C0AD
:104CE000A868C117090441EA10410704624600237D
:104CF0003846FBF7BCFA32460023CDE90201FBF748
:104D0000B6FAA8601448D0F804C02168C817000497
:104D100040EA11480F046246002338464146FBF73B
:104D2000A6FA32460023CDE90201FBF7A0FA206083
:104D30000948D0F804C06068C117090441EA10416D
:104D40000704624600233846FBF791FA32460023F7
:104D500004E000000000002040840008CDE90201CA
:104D6000FBF785FA60601148D0F804C0A068C1174D
:104D7000090441EA10410704624600233846FBF764
:104D800076FA32460023CDE90201FBF770FAA06003
:104D9000A068002804DDA068A0F58030A06003E0D2
:104DA000A06800F58030A0600020E2E540840008A3
:104DB0002DE9FC5F06460F4600253D494968087805
:104DC00001AB03220D21FDF717FC10B10720BDE850
:104DD000FC9F9DF8040000F01F008DF804009DF872
:104DE000050000F01F008DF805009DF8060000F09A
:104DF0001F008DF80600002456E056F8240057F8EE
:104E00002410A0EB010BBBF1000F01DB594601E0C0
:104E1000CBF10001084602F0B7FA4FF08F41009045
:104E200002F080F9814601A8005D68B32149086855
:104E300002F0C2FA834659461F4802F073F98046D1
:104E400004E01E49404602F0FFFA804601A8005DDA
:104E5000401EC0B201A908550028F2D1414648467B
:104E600002F060F983464FF07E5102F0EBFB824680
:104E70002AF0004B0F488169584602F0B1FB12D26C
:104E80000120A04005430EE00A480169484602F0AF
:104E9000A7FA05D307484169484602F0A1FB02D2B0
:104EA0000120A0400543641C032CA6DB28468EE7A6
:104EB000000000204084000800B04C4554E3853FCA
:104EC00010B50446204600F00FF80346E01C00F041
:104ED0000BF843EAC00083B2A01D00F005F843EAD6
:104EE000801083B2184610BD014691F90020002AB7
:104EF00001DD00201EE091F90020002A01DA0420E3
:104F000018E091F90120002A01DD012012E091F959
:104F10000120002A01DA05200CE091F90220002A84
:104F200001DD022006E091F90220002A01DA0620C4
:104F300000E00720704700001FB5FEF751FEFDF7A7
:104F40009FF84FF4A060FDF7FDFB4FF4165001F001
:104F50008FFA4FF6FF704049086040483B231A46DD
:104F6000002100900846FCF7FDFF4FF47840202315
:104F70000022114600903C20FCF76AFF4BF64040AF
:104F800020230122002100905C20FCF761FF4FF4F8
:104F9000FC6020230222002100907C20FCF758FFB7
:104FA0001F2020230322002100909C20FCF750FFAB
:104FB00000202023042201460090BC20FCF748FF7B
:104FC000FCF742FCFCF730FBFCF78CFD1F20EF23C5
:104FD0001A46DC2100900020FCF7C1FE3BE020488F
:104FE0003B231A46002100900846FCF7BBFF002334
:104FF00010225A213C20FEF707F8002310226A21D4
:105000003C20FDF773FE00231022AA213C20FDF76F
:1050100095FC1448006801F0EBFF04460D46124869
:10502000006801F0E5FF06460F461048006801F0F1
:10503000DFFF804642460B460DA0CDE90067CDE973
:105040000245FBF739F905483B231A460021009039
:105050000846FCF787FFC2E7BC03002038BE000803
:1050600018A200084C000020480000204400002046
:1050700050697463683D256620526F6C6C3D2566EF
:10508000205961773D2566200A0000007047000026
:1050900070B50446002624F00104184890F8240056
:1050A00008B1002070BD1548807A10B94FF0FF306C
:1050B000F8E71248057C807A2040104908740846B9
:1050C000007CA04202D04FF0FF3600E0002614B969
:1050D0000A48007D18B1012001F05CF902E00020CF
:1050E00001F058F93CB100F0ABFC20B10348057465
:1050F0004FF0FF30D6E73046D4E700000000002034
:105100002DE9F04F99B004460D4616464FF07E57F4
:105110004FF000084FF000094FF0000A12A813A941
:1051200018AB0EAACDE9001014A916A8FEF748FF87
:1051300018B1012019B0BDE8F08FBDF84C0000F4A3
:10514000807000287ED00E9802F01EF983464FF042
:105150009D4101F0E7FF07460F9802F015F98346DD
:105160004FF09D4101F0DEFF8046109802F00CF9EF
:1051700083464FF09D4101F0D5FF8146119802F022
:1051800003F983464FF09D4101F0CCFF824639463A
:105190004FF0804002F058F94946059002F054F96A
:1051A000414607904FF0404002F04EF951460590BD
:1051B00002F04AF90690079901F046FF834601F094
:1051C00017FFCDE90801FEF7D1F94FF06632544BD5
:1051D000CDE90A0101F032FCCDE90C0101F0AEF994
:1051E000206049464FF0804002F02EF94946029077
:1051F00002F02AF9414604904FF0404002F024F9B1
:105200004146029002F020F90390049902F01AFA44
:1052100083464FF07E5101F017FF059001F0E8FE44
:10522000CDE9080139464FF0804002F00DF94146C2
:10523000039002F009F9494604904FF0804002F0D3
:1052400003F900E068E05146039002F0FDF8834660
:10525000049901F0F9FE059001F0CAFECDE90601BE
:10526000DDE90823FEF7CAFB4FF066322C4BCDE98F
:105270000A0101F0E3FBCDE90C0101F05FF92860C0
:105280005146504602F0E0F849460490484602F084
:10529000DBF841460390404602F0D6F839460190CB
:1052A000384602F0D1F80090019901F0CDFE02904D
:1052B000039902F0C7F98346049902F0C3F90590F7
:1052C00001F096FECDE908015146384602F0BCF8DF
:1052D00049460490404602F0B7F80390049901F063
:1052E000B3FE4FF08041059002F0AEF8834601F026
:1052F0007FFECDE90601DDE90823FEF77FFB4FF0D5
:105300006632074BCDE90A0101F098FBCDE90C01AB
:1053100001F014F9306001E002200BE7002009E7FA
:1053200066A64C4070B50024FDF746F800F024F95D
:10533000002840D1782000F02FFFC4B20CB101202A
:1053400070BD7820FFF7A4FEC4B20CB10220F7E7CD
:10535000642000F0D3FEC4B20CB10320F0E7FEF7E6
:1053600023FEC4B20CB10420EAE71548FFF7A8FDFC
:105370000546FFF773F8C4B20CB10520E0E740F230
:105380007310FEF7B9FCC4B20CB10620D8E7642054
:10539000FEF794FFC4B20CB10720D1E700F0AFFFD5
:1053A00004460CB10820CBE7012000F0A3FDC4B2F5
:1053B0001CB10920C4E70A20C2E70020C0E70000B2
:1053C0002C00002001461148407A30B1012807D056
:1053D000022808D003280CD108E0022008700BE056
:1053E0000420087008E00820087005E0102008700C
:1053F00002E04FF0FF30704700BF0448C07C18B196
:1054000008784006000E08700020F4E70000002035
:1054100001461348407A30B1012808D002280AD04A
:10542000032810D10BE04FF4804008800EE041F6D5
:105430009C7008800AE04FF48050088006E04FF42A
:105440000060088002E04FF0FF30704700BF044862
:10545000C07C10B10888401008800020F5E70000EB
:105460000000002001460248007C087000207047C0
:105470000000002001460F48007A30B1012807D013
:10548000022809D003280FD10AE0FA2008800EE094
:105490004FF4FA7008800AE04FF47A70088006E052
:1054A0004FF4FA60088002E00020088000BF00BFCF
:1054B000002070470000002001460E48007A30B1FD
:1054C000012807D0022808D003280CD108E00A4898
:1054D00008600BE00948086008E00948086005E03A
:1054E0000848086002E04FF0FF30704700BF00201E
:1054F000FBE700000000002000000343000083429F
:10550000333303423333834101461248C07A0828BB
:1055100017D2DFE800F01704070A0D101318BC209B
:10552000088013E06220088010E02A2008800DE047
:10553000142008800AE00A20088007E0052008807F
:1055400004E000BF00BF0020088000BF00BF0020B3
:1055500070470000000000200146064890F8240033
:1055600010B14FF0FF3070470248C089088000201A
:10557000F9E70000000000201CB580208DF8000035
:10558000654A1268917C644A526810786B46012221
:10559000FDF76CF810B14FF0FF301CBD6420FEF732
:1055A00041FB00208DF800005B4A1268917C5A4A4A
:1055B000526810786B460122FDF758F810B14FF091
:1055C000FF30EAE7544A1268917D534A52681078D6
:1055D0006B460622FDF710F810B14FF0FF30DCE704
:1055E0009DF80500C007400F9DF8031001F0010170
:1055F00040EA41009DF8011001F0010140EA010478
:1056000094B1012C03D101214348C17431E0022C33
:1056100003D100214048C1742BE021463FA0FAF796
:105620004BFE4FF0FF30B8E73B4A1268D1783A4A58
:10563000526810786B460122FCF7DEFF10B14FF084
:10564000FF30AAE79DF8000000F00F042CB93D4898
:10565000FAF732FE4FF0FF309FE7042C06D13AA054
:10566000FAF72AFE01212C48C17402E000212A48E1
:10567000C174FF2128488172FF2027490872FF2149
:1056800025484172C1724FF6FF71C181FF2101743B
:1056900081740121017380F82210002180F8231009
:1056A000417501751630016041608160163880F8DF
:1056B000241080F82510C1844FF4FA6000F062FCD9
:1056C00010B14FF0FF3068E7022000F02BFB10B163
:1056D0004FF0FF3061E72A2000F0CEFC10B14FF010
:1056E000FF305AE7322000F009FD10B14FF0FF30D3
:1056F00053E70020FFF7CCFC10B14FF0FF304CE730
:10570000002000F051FB10B14FF0FF3045E70020C2
:1057100000F042FD002040E700000020556E737548
:1057200070706F7274656420736F667477617265F0
:105730002070726F64756374207265762025642E04
:105740000A000000F4DB000848616C662073656E97
:105750007369746976697479207061727420666FF8
:10576000756E642E0A0000002DE9F04385B00546F1
:105770000E4690469946294890F8250020B14FF0F2
:10578000FF3005B0BDE8F08316B94FF0FF30F8E701
:10579000002423E0281B102801DD102000E0281B36
:1057A00087B232193946204600F05EFD10B14FF045
:1057B000FF30E6E701AA3946204600F001F910B1B2
:1057C0004FF0FF30DDE730193A4601A9FAF758FEED
:1057D00010B16FF00100D4E7E01984B2AC42D9DB1C
:1057E0004FEA28208DF8000008F0FF008DF8010036
:1057F0000A4A1268917E094A526810786B46022262
:10580000FCF734FF10B14FF0FF30BAE70121034835
:1058100080F82510A0F826900020B2E700000020B4
:1058200038B50446282C02DD4FF0FF3038BDDCB916
:10583000002000F0EBFB00208DF8000007208DF821
:1058400001002E4A1268917C2C4A526810786B46EF
:105850000222FCF70BFF10B14FF0FF30E6E700210A
:10586000264801750020E1E7012000F0CFFB202051
:105870008DF80000012C06D100208DF801000520D4
:1058800000F0FAFB17E0052C06DC01208DF8010082
:10589000052000F0F1FB0EE0142C06DC02208DF850
:1058A00001000A2000F0E8FB05E003208DF801006C
:1058B000142000F0E1FB9DF80100072101EB8010AE
:1058C000C0B28DF801000D4A1268917C0B4A5268F3
:1058D00010786B460222FCF7C9FE10B14FF0FF3082
:1058E000A4E7082105488172002101730121017597
:1058F0000020FFF7CDFB002098E70000000000200B
:10590000F8B504460F4616462C4890F8240010B906
:105910004FF0FF30F8BD2948807A10B94FF0FF30C2
:10592000F8E7264A1268917A244A526810786B4642
:105930000222FCF761FE10B14FF0FF30EAE79DF85C
:1059400001009DF8001040EA0125A54203DA00207D
:105950003070401EDEE7194840684088B5EB600FA4
:1059600017DD164A1268517C144A526810786B464B
:105970000122FCF741FE10B14FF0FF30CAE79DF85D
:10598000000000F0100020B100F05AF86FF00100A4
:10599000C0E7E2B2094B1B68D97A084B5B681878FC
:1059A0003B46FCF729FE10B14FF0FF30B2E795FB04
:1059B000F4F0401E30700020ACE700000000002032
:1059C000F8B504460D46164616B94FF0FF30F8BD3F
:1059D0001A48807A10B94FF0FF30F8E720128DF89E
:1059E0000000E0B28DF801009DF801002844134941
:1059F00049684989884202DD4FF0FF30E7E70F4AE6
:105A00001268117E0D4A526810786B460222FCF72C
:105A10002DFE10B14FF0FF30D9E7EAB2074B1B68FB
:105A2000597D064B5B6818783346FCF7E5FD10B1ED
:105A30004FF0FF30CBE70020C9E700000000002056
:105A400008B57048807A10B94FF0FF3008BD0020CB
:105A500000906C4A1268D17B6A4A526810786B4693
:105A60000122FCF703FE10B14FF0FF30EEE7654A6C
:105A700012685179634A526810786B460122FCF72C
:105A8000F5FD10B14FF0FF30E0E75E4A1268117982
:105A90005C4A526810786B460122FCF7E7FD10B1B2
:105AA0004FF0FF30D2E7574890F82400002853D039
:105AB0000C200090534A12681179524A52681078AB
:105AC0006B460122FCF7D2FD10B14FF0FF30BDE76D
:105AD0003220FEF7A7F8C02000904A48807A00F0F4
