:101F6E00EF4E60157D087C07ED1DAA0470011C4A1A
:091F7E0070F6EF1F70EA1E80E707
:011F87002237
:101F5200121811121A4F1219C512193B121EC37B05
:0C1F620010E4FDFF12123E120AAD80F3E5
:1000030065D00000000000000000000000000000B8
:1000130000000000000000F80000000000000033B2
:100023003000000000100C06100C06000000000059
:100033000000000040C07840C0784000043F040442
:100043003F040400007088FC08300000001820FF03
:10005300211E0000F008F000E018000000211C033E
:100063001E211E0000F00888700000001E212324BA
:100073001927211010160E000000000000000000D8
:1000830000000000000000E0180402000000000768
:100093001820400000020418E0000000004020186F
:1000A30007000000404080F0804040000202010F42
:1000B30001020200000000F0000000000101011F26
:1000C30001010100000000000000000080B070008A
:1000D300000000000000000000000000000101011A
:1000E30001010101000000000000000000303000A9
:1000F3000000000000000000806018040060180683
:100103000100000000E010080810E000000F1020BC
:1001130020100F00001010F8000000000020203F06
:100123002020000000700808088870000030282490
:100133002221300000300888884830000018202031
:1001430020110E000000C02010F800000007042456
:10015300243F240000F8088888080800001921209B
:1001630020110E0000E0108888180000000F1120F5
:1001730020110E0000380808C83808000000003FAE
:10018300000000000070880808887000001C22210D
:1001930021221C0000E010080810E00000003122BA
:1001A30022110F00000000C0C0000000000000305A
:1001B30030000000000000800000000000008060AC
:1001C300000000000000804020100800000102042D
:1001D3000810200040404040404040000404040414
:1001E30004040400000810204080000000201008D0
:1001F30004020100007048080808F0000000003005
:1002030036010000C030C828E810E0000718272492
:1002130023140B000000C038E0000000203C230240
:100223000227382008F8888888700000203F2020A3
:1002330020110E00C03008080808380007182020D5
:100243002010080008F808080810E000203F2020CC
:1002530020100F0008F88888E8081000203F2020AD
:100263002320180008F88888E8081000203F2000A1
:1002730003000000C03008080838000007182020D9
:10028300221E020008F808000008F808203F210198
:1002930001213F20000808F8080800000020203F43
:1002A3002020000000000808F8080800C0808080B3
:1002B3007F00000008F888C028180800203F2001AC
:1002C3002638200008F8080000000000203F202006
:1002D3002020300008F8F800F8F80800203F003F1D
:1002E300003F200008F830C00008F808203F200035
:1002F30007183F00E01008080810E0000F10202046
:1003030020100F0008F808080808F000203F21011A
:1003130001010000E01008080810E0000F18242471
:1003230038504F0008F8888888887000203F2000E4
:10033300030C30200070880808083800003820219A
:1003430021221C00180808F8080818000000203FA4
:100353002000000008F808000008F808001F20200B
:1003630020201F000878880000C8380800000738DC
:100373000E010000F80800F80008F800033C07002D
:10038300073C0300081868808068180820302C0395
:10039300032C30200838C800C83808000000203F6C
:1003A3002000000010080808C8380800203826215B
:1003B30020201800000000FE020202000000007F5F
:1003C30040404000000C30C000000000000000016D
:1003D3000638C00000020202FE0000000040404058
:1003E3007F0000000000040202020400000000007D
:1003F30000000000000000000000000080808080FA
:1004030080808080000202040000000000000000E1
:10041300000000000000808080800000001924227A
:1004230022223F2008F8008080000000003F1120B6
:1004330020110E000000008080800000000E1120BB
:1004430020201100000000808088F800000E112099
:1004530020103F200000808080800000001F2222A7
:1004630022221300008080F0888888180020203F13
:10047300202000000000808080808000006B949426
:100483009493600008F8008080800000203F2100E2
:1004930000203F2000809898000000000020203FAB
:1004A30020200000000000809898000000C0808099
:1004B300807F000008F8000080808000203F240235
:1004C3002D302000000808F8000000000020203F25
:1004D300202000008080808080808000203F2000DA
:1004E3003F20003F8080008080800000203F21006B
:1004F30000203F200000808080800000001F20201B
:1005030020201F00808000808000000080FFA12049
:1005130020110E000000008080808000000E11205A
:1005230020A0FF80808080008080800020203F21E9
:10053300200001000000808080808000003324249C
:1005430024241900008080E0808000000000001F48
:10055300202000008080000000808000001F2020F9
:1005630020103F20808080000080808000010E30BA
:100573000806010080800080008080800F300C031B
:100583000C300F0000808000808080000020312E1E
:100593000E312000808080000080808080818E70FA
:1005A3001806010000808080808080000021302CAC
:1005B3002221300000000000807C020200000000C5
:1005C300003F404000000000FF000000000000006A
:0405D300FF00000025
:101E2700F583E5822CF582E43583F583E0FF7D01B8
:101E3700ED6004D2938002C293C294E4FEC290EF95
:101E470030E704D2918002C291D290EF25E0FF0ED5
:081E5700EEB408E9D294D29325
:011E5F002260
:101F1400AC07ED24B0FFE4FD121E37EC54F0C454BA
:101F24000F4410FF121E37EC540F4401FF021E37FA
:101EC300E4FCEC24B0FFE4FD121E37E4FF121E37DE
:101ED3007F10121E37E4FB7D01E4FF121E370BEB6C
:081EE300B480F40CECB408DA41
:011EEB0022D4
:041D4E00AA05A90732
:101D5200EB24E0FB900605E06410703BAF01121F1C
:101D620014E4FC75F010EBA42400F582E5F03400D5
:101D7200121E270CECB408EBAF01EA04FD121F148B
:101D8200E4FC75F010EBA42408F582E5F0340012AF
:071D92001E270CECB408EB66
:011D99002227
:101BC2009005F9EFF0A3EDF0A3EBF0A3EAF0A3E99F
:101BD200F09005FBE0FBA3E0FAA3E0F9120953FF42
:101BE200C394204048EFD3947E50429005F9E0FF21
:101BF200A3E0FD120953FB9005FEE0900605F012EA
:101C02001D4E9005FEE0FFC313FE9005F9E02EF095
:101C1200C374809FFFE0D39F4007E4F0A3E0240257
:0E1C2200F09005FCE475F001120A4880A4223F
:071F3400900602EFF0A90581
:101F3B007F017E00AD0119ED600C900602E0FD7C87
:061F4B00001209AB80EE5C
:011F5100226D
:0E169E009005F9EFF0A3EDF0A3EAF0A3EBF056
:1016AC00E4900601F09005FFF09005FDE0FF900539
:1016BC00FFE0FEC39F4003021758C3EF9E14FD7F4B
:1016CC000A121F349005FBE0FCA3E0FDCFCDCFCE7A
:1016DC00CCCE1209BD7C007D0A1209BD900600ED2E
:1016EC00F0A3E070369005FDE014FF9005FFE0FEDE
:1016FC00C39F5027A3E0701D9005FEE0FCC3138E22
:10170C00F0A4FF9005F9E02FFFA3E0FD900605EC97
:10171C00F07B20802B9006017401F09005FEE0FE1A
:10172C00C313FFA3E0FDEF8DF0A4FF9005F9E02FAC
:10173C00FFA3E0FD900600E02430FB900605EEF0E0
:0C174C00121D4E9005FFE004F00216B5DF
:01175800226E
:10181100C2927F647E00121F6ED292E4FD7FAE12EF
:101821001E37E4FF121E377F10121E377F40121E33
:10183100377F81121E377FCF121E377FA1121E37CD
:101841007FC8121E377FA6121E377FA8121E377F50
:101851003F121E377FD3121E37E4FF121E377FD58A
:10186100121E377F80121E377FD9121E377FF11269
:101871001E377FDA121E377F12121E377FDB121ED0
:10188100377F40121E377F20121E377F02121E370C
:101891007F8D121E377F14121E377FA4121E377FD1
:0E18A100A6121E37121EC3E4FD7FAF021E37D3
:071FA200D282121FA9D281B7
:081FA9007F02AE071FEE70FA83
:011FB100220D
:0F1FB200D282D281121FA9C282121FA9C281221C
:0E1FC100C281C282121FA9D281D282021FA940
:101F8800E4FD121FA230820D0DEDD394FA40F61233
:091F98001FC17F0122C2817F00FC
:011FA100221D
:0A1FCF00C281C282121FA4C2812247
:081FD900C281121FA2C2812285
:021EEC00AD0740
:101EEE00C281E4FBED5480FFC4131313540124FF8D
:101EFE009282ED25E0FDD281121FA9C281121FA987
:051F0E000BEBB408DF3D
:011F130022AB
:021E9900AD0793
:101E9B00E4FCFBC281121FA9D281EC25E0FC30824D
:101EAB00010C121FA90BEBB408E9ED7005121FD939
:071EBB008003121FCFAF04EA
:011EC20022FD
:101C30007D807F6B121DEA7F647E00121F6EE4FDC3
:101C40007F6B121DEA7F03121FE1E4FF121FE87F82
:101C5000327E00121C98E4FD7F38121DEAE4FD7FFD
:101C60006A121DEAE4FD7F23121DEA7D807F371290
:101C70001DEA7F75121E60EFB468177D017F6B123D
:101C80001DEAE4FD7F6C121DEA7F327E00121C9873
:071C900080037F01227F00A9
:011C9700222A
:071FE100EF7F1B121DE4223B
:071FE800EF7F1C121DE42233
:101D9A00E4FDC3EF94BCEE940040030D8036C3EF1C
:101DAA009462EE940040047D028029C3EF942AEEE7
:101DBA00940040047D03801CC3EF9414EE94004009
:101DCA00047D04800FC3EF940AEE940040047D055D
:091DDA0080027D067F1A121DEA49
:011DE30022DD
:081C98009005F4EEF0A3EFF05B
:101CA000D394E8EE9403400A9005F47403F0A3740F
:101CB000E8F0C39005F5E094049005F4E09400503A
:101CC00006E4F0A37404F09005F4E0FCA3E0FD7ECC
:101CD000037FE81209BDEF14A3F0FD7F19121DEA7E
:101CE0009005F6EFF09005F4E0C313FEA3E013FFB8
:031CF000121D9A28
:011CF30022CE
:101CF4009006097401F0A37405F0A374F9F07D4112
:101D0400121AD29005F9E0FEA3E0FDEDFFAC06EC5B
:101D1400120899E4FBFA79AA78431207F77BB87A98
:101D24001E791278421205FD9005FB120AA1E4FF08
:101D3400FE7DC87C429005FBE0F8A3E0F9A3E0FA3D
:091D4400A3E0FB1206EE1208D226
:011D4D002273
:0B1759009005F5EBF0A3EAF0A3E9F027
:101764009006097401F0A37405F0A374FEF07D43A0
:10177400121AD2900604EFF0701B9005FEE0FEA34F
:10178400E0FDEDFF9005F5E0FBA3E0FAA3E0F9EE40
:101794008FF0120A749006097401F0A37406F0A382
:1017A4007400F07B027D457F68121AD6900604EF20
:1017B400F0701B900600E0FEA3E0FDEDFF9005F83D
:1017C400E0FBA3E0FAA3E0F9EE8FF0120A749006AE
:1017D400097401F0A37406F0A37402F07B027D4740
:1017E4007F68121AD6900604EFF0701B900602E090
:1017F400FEA3E0FDEDFF9005FBE0FBA3E0FAA3E010
:0C180400F9EE8FF0120A74900604E0FF69
:0118100022B5
:0B15E2009005F6EBF0A3EAF0A3E9F09F
:1015ED009006097401F0A37405F0A374FFF07B025B
:1015FD007D3B7F68121AD6900605EFF0701B9005A3
:10160D00FFE0FEA3E0FDEDFF9005F6E0FBA3E0FAA1
:10161D00A3E0F9EE8FF0120A749006097401F0A39D
:10162D007406F0A37401F07B027D3D7F68121AD61B
:10163D00900605EFF0701B900601E0FEA3E0FDEDB6
:10164D00FF9005F9E0FBA3E0FAA3E0F9EE8FF012AD
:10165D000A749006097401F0A37406F0A37403F0E4
:10166D007B027D3F7F68121AD6900605EFF0701B46
:10167D00900603E0FEA3E0FDEDFF9005FCE0FBA36B
:10168D00E0FAA3E0F9EE8FF0120A74900605E0FF80
:01169D00222A
:0B1B530090060CEFF0A3EDF0A3EBF008
:101B5E00121FB290060CE025E0FF121EEC121F8839
:101B6E00EF6002803B90060DE0FF121EEC121F8804
:101B7E00E4900612F090060EE0FF900612E0FEC30F
:101B8E009F502B90060FE0FBA3E0FAA3E0F98E82A4
:101B9E0075830012096CFF121EEC121F88EF60068F
:101BAE00121FC17F0122900612E004F080C7121F9F
:031BBE00C17F00E4
:011BC1002201
:041AD2007B027F68AC
:101AD600900606EFF0A3EDF0A3EBF0121FB290060E
:101AE60006E025E0FF121EEC121F88EF6006121FAB
:101AF600C17F0122900607E0FF04F0121EEC121FC0
:101B060088121FB2900606E025E04401FF121EEC83
:101B1600121F88900608E0FF602DB40104E4FF80E0
:101B2600027F01121E99900609E0FBA3E0FAA3E0EA
:101B3600F9EF120999900608E014F090060AE47588
:0D1B4600F001120A4880CC121FC17F00225E
:061DE40033333354F8FD17
:101DEA009005F7EFF0A3EDF0121FB27FD0121EECB0
:101DFA00121F88EF600280199005F7E0FF121EECAF
:101E0A00121F889005F8E0FF121EEC121F88EF607F
:0D1E1A0006121FC17F0122121FC17F00228E
:051E60009005F4EFF015
:101E6500121FB27FD0121EEC121F889005F4E0FFFE
:101E7500121EEC121F88121FB27FD1121EEC121F08
:101E850088E4FF121E999005F5EFF0121FC1900529
:031E9500F5E0FF76
:011E98002227
:1014BE006779726F783A002E006779726F793A0009
:1014CE006779726F7A3A002D002000616163783A75
:1014DE00006D2F733200616163793A006161637A46
:1014EE003A0054656D70203A0043004D5055363029
:1014FE003530204C696E6B202020004D5055363013
:10150E003530204C696E6B2E2020004D50553630F4
:10151E003530204C696E6B2E2E20004D50553630D6
:10152E003530204C696E6B2E2E2E004D50553630B8
:10153E003530206973204F4B2100416363656C2069
:10154E0041646A75737420202000416363656C20CA
:10155E0041646A7573742E202000416363656C20AC
:10156E0041646A7573742E2E2000416363656C208E
:10157E0041646A7573742E2E2E00416363656C2070
:10158E006973204F4B21004779726F732041646A53
:10159E00757374202020004779726F732041646A3E
:1015AE007573742E2020004779726F732041646A20
:1015BE007573742E2E20004779726F732041646A02
:1015CE007573742E2E2E004779726F7320697320F7
:0415DE004F4B21004E
:1005D7004205E000004205E200004205E400004257
:0E05E70005D000004205D200004205D40000FD
:100DCC009005F87401F0A37405F0A374ECF0A3740F
:100DDC0001F0A37405F0A374EEF07B017A0579EAB7
:100DEC00121759EF60030210C67BFF7A1479BE907C
:100DFC0005FE7410F07D02E4FF121BC27BFF7A1417
:100E0C0079C59005FE7410F07D027F58121BC27BD1
:100E1C00FF7A1479C79005FE7410F07D04E4FF127C
:100E2C001BC27BFF7A1479C59005FE7410F07D040B
:100E3C007F58121BC27BFF7A1479CE9005FE74107A
:100E4C00F07D06E4FF121BC27BFF7A1479C5900576
:100E5C00FE7410F07D067F58121BC29005E0E0FE78
:100E6C00A3E0FFC39005EBE09FF09005EAE09EF055
:100E7C00E0FCA3E0FDEC1208997B007A40799C78A9
:100E8C00461206EEE4FBFAF978471207F71208D27D
:100E9C00900613EEF0A3EFF0C3EE648094807BFF1A
:100EAC0050287A1479D59005FE7410F07D027F30AD
:100EBC00121BC2900613E0FEA3E0FFC3E49FFFE405
:100ECC009E900613F0A3EFF080117A1479D7900559
:100EDC00FE7410F07D027F30121BC2900613E0FEF0
:100EEC00A3E0FF7C007D0A120A12AA06AB0790054C
:100EFC00FD7404F0A37410F07D027F3812169E90DE
:100F0C000613E0FEA3E0FF7C007D0A120A12AA047D
:100F1C00AB059005FD7401F0A37410F07D027F60A9
:100F2C0012169E9005E2E0FEA3E0FFC39005EDE0F3
:100F3C009FF09005ECE09EF0E0FCA3E0FDEC1208C5
:100F4C00997B007A40799C78461206EEE4FBFAF91C
:100F5C0078471207F71208D2900613EEF0A3EFF0C1
:100F6C00C3EE648094807BFF50287A1479D5900569
:100F7C00FE7410F07D047F30121BC2900613E0FE4D
:100F8C00A3E0FFC3E49FFFE49E900613F0A3EFF0F1
:100F9C0080117A1479D79005FE7410F07D047F309F
:100FAC00121BC2900613E0FEA3E0FF7C007D0A1228
:100FBC000A12AA06AB079005FD7404F0A37410F096
:100FCC007D047F3812169E900613E0FEA3E0FF7C92
:100FDC00007D0A120A12AA04AB059005FD7401F0FB
:100FEC00A37410F07D047F6012169E9005E4E0FE61
:100FFC00A3E0FFC39005EFE09FF09005EEE09EF0BC
:10100C00E0FCA3E0FDEC1208997B007A40799C7817
:10101C00461206EEE4FBFAF978471207F71208D2EB
:10102C00900613EEF0A3EFF0C3EE648094807BFF88
:10103C0050287A1479D59005FE7410F07D067F3017
:10104C00121BC2900613E0FEA3E0FFC3E49FFFE473
:10105C009E900613F0A3EFF080117A1479D79005C7
:10106C00FE7410F07D067F30121BC2900613E0FE5A
:10107C00A3E0FF7C007D0A120A12AA06AB079005BA
:10108C00FD7404F0A37410F07D067F3812169E9048
:10109C000613E0FEA3E0FF7C007D0A120A12AA04EC
:1010AC00AB059005FD7401F0A37410F07D067F6014
:0A10BC0012169E7FC87E00121F6E00
:0110C6002207
:100AAD009005F97401F0A37405F0A374DCF0A37440
:100ABD0001F0A37405F0A374DEF07B017A0579DAF9
:100ACD001215E2EF6003020DCB7BFF7A1479D990FA
:100ADD0005FE7410F07D02E4FF121BC27BFF7A1439
:100AED0079C59005FE7410F07D027F48121BC27B04
:100AFD00FF7A1479DF9005FE7410F07D027F581295
:100B0D001BC27BFF7A1479E49005FE7410F07D040E
:100B1D00E4FF121BC27BFF7A1479C59005FE741099
:100B2D00F07D047F48121BC27BFF7A1479DF90059C
:100B3D00FE7410F07D047F58121BC27BFF7A14796E
:100B4D00EA9005FE7410F07D06E4FF121BC27BFFD8
:100B5D007A1479C59005FE7410F07D067F48121B3E
:100B6D00C27BFF7A1479DF9005FE7410F07D067F4D
:100B7D0058121BC29005D0E0FEA3E0FFC39005DB29
:100B8D00E09FF09005DAE09EF0E0FCA3E0FDEC12B2
:100B9D000899E4FBFA794478431206EEE4FBFAF97E
:100BAD0078471207F71208D29005F4EEF0A3EFF094
:100BBD00C3EE64809480501D9005F4E0FEA3E0FF29
:100BCD00C3E49FFFE49E9005F4F0A3EFF07BFF7A62
:100BDD001479D580067BFF7A1479D79005FE7410B1
:100BED00F07D027F28121BC29005F4E0FEA3E0FF0A
:100BFD007C007D0A120A12AA06AB079005FD74034C
:100C0D00F0A37410F07D027F3012169E9005F4E073
:100C1D00FEA3E0FF7C007D0A120A12AA04AB059028
:100C2D0005FD7401F0A37410F07D027F5012169E25
:100C3D009005D2E0FEA3E0FFC39005DDE09FF090AC
:100C4D0005DCE09EF0E0FCA3E0FDEC120899E4FB6E
:100C5D00FA794478431206EEE4FBFAF97847120765
:100C6D00F71208D29005F4EEF0A3EFF0C3EE648016
:100C7D0094807BFF50287A1479D59005FE7410F07E
:100C8D007D047F28121BC29005F4E0FEA3E0FFC394
:100C9D00E49FFFE49E9005F4F0A3EFF080117A1429
:100CAD0079D79005FE7410F07D047F28121BC29039
:100CBD0005F4E0FEA3E0FF7C007D0A120A12AA06ED
:100CCD00AB079005FD7403F0A37410F07D047F3025
:100CDD0012169E9005F4E0FEA3E0FF7C007D0A1243
:100CED000A12AA04AB059005FD7401F0A37410F06F
:100CFD007D047F5012169E9005D4E0FEA3E0FFC345
:100D0D009005DFE09FF09005DEE09EF0E0FCA3E0B3
:100D1D00FDEC120899E4FBFA794478431206EEE4EF
:100D2D00FBFAF978471207F71208D29005F4EEF0A6
:100D3D00A3EFF0C3EE648094807BFF50287A147982
:100D4D00D59005FE7410F07D067F28121BC290050C
:100D5D00F4E0FEA3E0FFC3E49FFFE49E9005F4F0F2
:100D6D00A3EFF080117A1479D79005FE7410F07D01
:100D7D00067F28121BC29005F4E0FEA3E0FF7C0065
:100D8D007D0A120A12AA06AB079005FD7403F0A3A3
:100D9D007410F07D067F3012169E9005F4E0FEA3D0
:100DAD00E0FF7C007D0A120A12AA04AB059005FD36
:0E0DBD007401F0A37410F07D067F5012169E94
:010DCB002205
:0B123E009005F4EFF0A3EDF0A3EBF03F
:10124900121CF49005F7EEF0A3EFF09005F4E0FF1F
:10125900A3E0FD7BFF7A1479F0A3E09005FEF0127C
:101269001BC29005F6E0FEC31375F00AA4FF9005B2
:10127900F4E02FFFA3E0FD7BFF7A1479C59005FE0A
:10128900EEF0121BC29005F6E0FEC31375F00CA434
:10129900FF9005F4E02FFFA3E0FD7BFF7A1479F7B7
:1012A9009005FEEEF0121BC2C39005F7E06480942E
:1012B900809005F6E0FE75F0035030A4FF9005F428
:1012C900E02FFFA3E0FD7BFF7A1479D59005FEEEB0
:1012D900F0121BC29005F7E0FEA3E0FFC3E49FFFF5
:1012E900E49E9005F7F0A3EFF08019A4FF9005F4B0
:1012F900E02FFFA3E0FD7BFF7A1479D79005FEEE7E
:10130900F0121BC29005F7E0FEA3E0FF7C007D64AC
:10131900120A12AA06AB079005F6E0FEC31375F090
:1013290007A4FF9005F4E02FFFA3E0FD9005FD74ED
:1013390003F0A3EEF012169E9005F6E0C31375F0C4
:101349000BA4FF9005F4E02FFFC0079005F7E0FE1E
:10135900A3E0FF7C007D0A120A12AA04AB059005DE
:10136900FD7401F09005F6E09005FEF09005F5E0BA
:0D137900FDD00712169E7F647E00021F6EDD
:101386009005F4740AF0E49005E0F0A3F0A3F0A34E
:10139600F0A3F0A3F07F32FE80709005F4E0FF1416
:1013A600F0EF606B9005F87401F0A37405F0A37478
:1013B600ECF0A37401F0A37405F0A374EEF07B01C6
:1013C6007A0579EA121759EF70D09005EAE0FEA384
:1013D600E0FF9005E1E02FF09005E0E03EF090059B
:1013E600ECE0FEA3E0FF9005E3E02FF09005E2E0DD
:1013F6003EF09005EEE0FEA3E0FF9005E5E02FF05D
:101406009005E4E03EF07F0A7E00121F6E808B900E
:1014160005E0E0FEA3E0FF7C007D0A120A129005BB
:10142600E0EEF0A3EFF0A3E0FEA3E0FF7C007D0A70
:10143600120A129005E2EEF0A3EFF0A3E0FEA3E09D
:10144600FF7C007D0A120A129005E4EEF0A3EFF08D
:101456009005F87401F0A37405F0A374ECF0A3747E
:1014660001F0A37405F0A374EEF07B017A0579EA26
:10147600121759EF70419005EAE0FEA3E0FF9005D0
:10148600E0E0B50630A3E0B5072B9005ECE0FEA33F
:10149600E0FF9005E2E0B5061CA3E0B5071790054E
:1014A600EEE0FEA3E0FF9005E4E0B50608A3E0B594
:0714B60007037F00227F0104
:0114BD00220C
:1010C7009005F4E4F0A3740AF07F327E00121F6EDD
:1010D700E49005D0F0A3F0A3F0A3F0A3F0A3F09061
:1010E70005F474FFF5F0120A5E45F07003021183F0
:1010F7009005F97401F0A37405F0A374DCF0A374F0
:1011070001F0A37405F0A374DEF07B017A0579DAA8
:101117001215E2EF70C99005DAE0FEA3E0FF7C004C
:101127007D0A120A129005D1E02FF09005D0E03E1B
:10113700F09005DCE0FEA3E0FF7C007D0A120A12B6
:101147009005D3E02FF09005D2E03EF09005DFE068
:101157002400F09005DEE034C0F0E0FEA3E0FF7C61
:10116700007D0A120A129005D5E02FF09005D4E011
:101177003EF07F0A7E00121F6E0210E69005F9749A
:1011870001F0A37405F0A374DCF0A37401F0A37459
:1011970005F0A374DEF07B017A0579DA1215E2EF28
:1011A700600302123D9005DFE02400F09005DEE0C9
:1011B70034C0F09005DAE0FEA3E0FFC39005D1E06C
:1011C7009FFF9005D0E09EFED3EF94CEEE6480940F
:1011D7007F4061EF9432EE6480948050579005DC35
:1011E700E0FEA3E0FFC39005D3E09FFF9005D2E0A8
:1011F7009EFED3EF94CEEE6480947F4037EF943217
:10120700EE64809480502D9005DEE0FEA3E0FFC3DE
:101217009005D5E09FFF9005D4E09EFED3EF94CED6
:10122700EE6480947F400DEF9432EE64809480509A
:06123700037F00227F018D
:01123D00228E
:101A4F00121C30EF606A7BFF7A1479F99005FE74EF
:101A5F0010F07D02E4FF121BC27FC87E00121F6EC2
:101A6F007BFF7A1579099005FE7410F07D02E4FF73
:101A7F00121BC27FC87E00121F6E7BFF7A15791969
:101A8F009005FE7410F07D02E4FF121BC27FC87E2A
:101A9F0000121F6E7BFF7A1579299005FE7410F0E6
:101AAF007D02E4FF121BC27FC87E00121F6E809062
:101ABF007BFF7A1579399005FE7410F07D02E4FFF3
:031ACF00021BC235
:10193B001210C7EF606A7BFF7A1579489005FE7429
:10194B0010F07D06E4FF121BC27FC87E00121F6ED3
:10195B007BFF7A1579589005FE7410F07D06E4FF35
:10196B00121BC27FC87E00121F6E7BFF7A1579682F
:10197B009005FE7410F07D06E4FF121BC27FC87E3B
:10198B0000121F6E7BFF7A1579789005FE7410F0AC
:10199B007D06E4FF121BC27FC87E00121F6E809073
:1019AB007BFF7A1579889005FE7410F07D06E4FFB5
:0A19BB00121BC27FC87E00021F6EDF
:1019C500121386EF606A7BFF7A1579959005FE7490
:1019D50010F07D04E4FF121BC27FC87E00121F6E4B
:1019E5007BFF7A1579A59005FE7410F07D04E4FF60
:1019F500121BC27FC87E00121F6E7BFF7A1579B558
:101A05009005FE7410F07D04E4FF121BC27FC87EB2
:101A150000121F6E7BFF7A1579C59005FE7410F0D4
:101A25007D04E4FF121BC27FC87E00121F6E8090EA
:101A35007BFF7A1579D59005FE7410F07D04E4FFDF
:0A1A4500121BC27F907E01021F6E8B
:1005F60002093EE86480F8E933E83360110460F0EC
:10060600ED33EC337009E8FCE9FDEAFEEBFF22046A
:1006160060DED3EB9FEA9EE99DE8C2E78CF0C2F765
:1006260095F0400CE8CCF8E9CDF9EACEFAEBCFFB31
:1006360012090985D0F05804700320D5B3E8047078
:10064600075002B2D502094892D5EC0460F7E4CC13
:10065600C0E0C398F8603B94186008400DD0E0FBFA
:10066600020920E4FBFAC9FC8028E830E406E4C964
:10067600FBE4CAFCE830E305E4C9CACBFCE854074E
:100686006010F8C3E913F9EA13FAEB13FBEC13FC59
:10069600D8F130F52FC3E49CFCEF9BFFEE9AFEEDFC
:1006A60099FDD0E0FBEF4E4D4C701222DB030209A0
:1006B60045EC2CFCEF33FFEE33FEED33FDED30E77A
:1006C600EB020920EF2BFFEE3AFEED39FDD0E0FB01
:1006D60050130BBB0003020948ED13FDEE13FEEFAA
:0806E60013FFEC13FC020920D4
:1006EE00EC4D6011E8497017ED33EC3304600DE406
:1006FE00FCFFFEFD22E933E8330470F802093E12D6
:10070E00090958046009E4CC2481500628500902D6
:10071E000948284003020945C0E0EB4A7044B980FD
:10072E0006D0E0FB020934EF4E701CBD8008EBFFD3
:10073E00EAFEE9FD80EBE98DF0A4FEE5F00207D7B5
:10074E00E9CDF9EAFEEBFFEF89F0A4FCE5F0CE89E6
:10075E00F0A42EFFE435F0CD89F0A42DFEE435F0A3
:10076E008067EF4E7005BD80D780C3EF8BF0A4ACD1
:10077E00F0EE8BF0A42CFCE435F0F8EF8AF0A42C0C
:10078E00E5F038FCE433CB8DF0A42CFCE5F03BF81F
:10079E00EE8AF0A42CFCE5F038F8E433CF89F0A40F
:1007AE002CFCE5F038CF3400CE89F0A42FFFE5F015
:1007BE003EFEE433C98DF0A42EFEE5F039CD8AF06D
:1007CE00A42FFFE5F03EFEE43DFD33D0E0FB5007E5
:1007DE000BBB000F020948EC2CFCEF33FFEE33FE8F
:0607EE00ED33FD020920BD
:1007F400020948EC5D046005E85904700302093EEF
:10080400120909580460F6EC4860F2EC7004FDFE2D
:10081400FF22C860DB2481C85009C39860025006D7
:100824000209459850CAF582E9294B4A7005AB8202
:1008340002093475F0007C1A7880C3EF9BEE9AEDC0
:1008440099400DC3EF9BFFEE9AFEED99FDE842F04F
:10085400DC23ACF0D0E0FFD0E0FED0E0FDAB8220A2
:10086400E7101BEB60BAEC2CFCEF33FFEE33FEED2C
:1008740033FD020920E803F830E705C0F075F00005
:10088400EF2FFFEE33FEED33FD40B830E7C280AA10
:1008940075F020800E75F010800575F0087D007EDF
:1008A400007F003392D530D503120A93EC33401005
:1008B400EF33FFEE33FEED33FDEC33FCD5F0ED22E8
:0E08C400E5F0247EA2D513CC92E7CDCEFF2224
:1008D200EDD2E7CD33EC3392D524814006E4FFFE1E
:1008E200FDFC22FCE4CFCECDCC24E0501174FF807D
:1008F200EDC3CC13CCCD13CDCE13CECF13CF04701A
:07090200F030D5DE020A937C
:10090900E9D2E7C933E833F892D5EDD2E7CD33EC34
:0709190033FC5002B2D522AD
:10092000EC30E7100FBF000C0EBE00080DBD000438
:100930000BEB6014A2D5EB13FCED92E7FD2274FFE4
:10094000FCFDFEFF22E480F8A2D574FF13FC7D803D
:03095000E480EF51
:030000000218AF34
:0C18AF00787FE4F6D8FD7581070218F67A
:10095300BB010689828A83E0225002E722BBFE02A2
:09096300E32289828A83E49322D5
:10096C00BB010CE58229F582E5833AF583E0225040
:10097C0006E92582F8E622BBFE06E92582F8E2228A
:0D098C00E58229F582E5833AF583E49322A4
:10099900BB010689828A83F0225002F722BBFE013D
:0209A900F32237
:1009AB00EF8DF0A4A8F0CF8CF0A428CE8DF0A42E60
:0209BB00FE221A
:1009BD00BC000BBE0029EF8DF084FFADF022E4CC1E
:1009CD00F875F008EF2FFFEE33FEEC33FCEE9DECE7
:1009DD00984005FCEE9DFE0FD5F0E9E4CEFD22ED2D
:1009ED00F8F5F0EE8420D21CFEADF075F008EF2F77
:1009FD00FFED33FD4007985006D5F0F222C398FD68
:050A0D000FD5F0EA2204
:100A1200C2D5EC30E709B2D5E4C39DFDE49CFCEEFF
:100A220030E715B2D5E4C39FFFE49EFE1209BDC3B1
:100A3200E49DFDE49CFC80031209BD30D507C3E4AC
:060A42009FFFE49EFE226E
:100A4800C5F0F8A3E028F0C5F0F8E5821582700239
:060A58001583E038F022D6
:100A5E00A3F8E0C5F025F0F0E5821582700215834B
:060A6E00E0C838F0E822A8
:100A7400BB010A89828A83F0E5F0A3F0225006F7CD
:0F0A840009A7F01922BBFE06F3E5F009F31922CA
:0E0A9300C3E49FFFE49EFEE49DFDE49CFC2274
:0C0AA100ECF0A3EDF0A3EEF0A3EFF022C8
:1018BB00021F52E493A3F8E493A34003F68001F2D2
:1018CB0008DFF48029E493A3F85407240CC8C3332E
:1018DB00C4540F4420C8834004F456800146F6DFFD
:1018EB00E4800B0102040810204080900003E47E8A
:1018FB00019360BCA3FF543F30E509541FFEE493F2
:10190B00A360010ECF54C025E060A840B8E493A3B8
:10191B00FAE493A3F8E493A3C8C582C8CAC583CAE3
:10192B00F0A3C8C582C8CAC583CADFE9DEE780BE9B
:0105F5000005
:00000001FF
