:020000040800F2
:100000009016002025020008850600081D0600083D
:1000100081060008F9040008CB1800080000000061
:10002000000000000000000000000000210E000899
:10003000FD04000800000000090D0008810F000801
:100040003F0200083F0200083F0200083F0200088C
:100050003F0200083F0200083F0200083F0200087C
:100060003F0200083F0200083F0200083F0200086C
:100070003F0200083F0200083F0200083F0200085C
:100080003F0200083F0200083F0200083F0200084C
:100090003F0200083F0200083F0200083F0200083C
:1000A0003F0200083F0200083F0200083F0200082C
:1000B000E50F00083F0200083F0200083F02000869
:1000C0003F0200083F0200083F0200083F0200080C
:1000D0003F0200080D1600083F02000895160008B0
:1000E0003F0200083F0200083F0200083F020008EC
:1000F0003F0200083F0200083F0200083F020008DC
:100100003F0200083F0200083F0200083F020008CB
:100110003F0200083F0200083F0200083F020008BB
:100120003F0200083F0200083F0200083F020008AB
:1001300000F002F800F067F80AA090E8000C824492
:100140008344AAF10107DA4501D100F05CF8AFF26F
:10015000090EBAE80F0013F0010F18BFFB1A43F0A5
:1001600001031847C4480000E448000010F8013BB0
:100170000A4413F0030408BF10F8014B1D1108BF17
:1001800010F8015B641E05D010F8016B641E01F8C5
:10019000016BF9D1002D15D010F8014B03F00C03C1
:1001A0000C2BA1EB04040ABF10F8013BA4EB831451
:1001B000A4EB032405F1010314F8016B5B1E01F8A5
:1001C000016BF9D5914238BF10F8013BD1D370478C
:1001D0000023002400250026103A28BF78C1FBD850
:1001E000520728BF30C148BF0B6070471FB500F0F1
:1001F00027F904000020002102F020F9401C606073
:100200001FBD10B510BD00F0F6F81146FFF7EEFF68
:1002100001F08AFC00F026F903B4FFF7F2FF03BCFB
:1002200001F055FB0948804709480047FEE7FEE713
:10023000FEE7FEE7FEE7FEE7FEE7FEE7FEE7FEE796
:1002400004480549054A064B70470000850F000821
:10025000310100089010002090160020901200201C
:1002600090120020704770B5064600F02DF8046823
:10027000054630460A22002100F02AF82C6070BDA5
:1002800010B5431C02E010F8011B71B18107FAD1CF
:100290004FF0013202C88C1A8C4314EAC211F9D013
:1002A000C01A0A0603D0C01E10BDC01A10BD0A0431
:1002B00001D0801E10BD0902FCD0401E10BD704749
:1002C0007047704770470000004870472C100020AE
:1002D0002DE9F04791460F4680460446002614F863
:1002E000015B2DB100F030F80068405DC007F6D129
:1002F0002B2D02D02D2D18D0641E4A46394620469B
:1003000000F02AF827B13968A14201D1C7F800806E
:100310004FF0020471050BD54042002803DDFFF7C2
:10032000D3FF0460A007BDE8F08746F48066E4E7E9
:100330000028F8DAFFF7C8FF04606FF00040F2E72A
:10034000004870472C10002010B500F079F8001D0F
:1003500010BD00BFE92000002DE9F05F8246154680
:100360008B4600270AF10104B9460078302801D0F5
:100370009DB113E014F8010B0127782803D0582809
:1003800001D045B10AE00DB1102D07D1002714F8B6
:10039000010B102502E0082500E00A250026B046E2
:1003A0000EE005FB080005FB06F101271FFA80F8A7
:1003B00001EB1046B6F5803F00D3B94614F8010BA7
:1003C000294600F041F80028EBDABBF1000F05D018
:1003D0000FB1641E00E05446CBF80040B9F1000FA5
:1003E00006D0FFF771FF02210160C81EBDE8F09F33
:1003F00048EA0640FAE77546FFF7A2FFAE46050059
:100400006946534620F00700854618B020B5FFF72F
:1004100017FFBDE820404FF000064FF000074FF0F7
:1004200000084FF0000B21F00701AC46ACE8C00912
:10043000ACE8C009ACE8C009ACE8C0098D4670471B
:10044000004870474C1000203A2800D2303820F085
:100450002002412A01D3A2F13700884201D34FF094
:10046000FF30704710B50446AFF300802046BDE86A
:100470001040FFF7D1BE00004FF0013C50F8042BB4
:1004800051F8043B9A4221D1A2EB0C03934313EAA7
:10049000CC1317D150F8042B51F8043B9A4215D1D4
:1004A000A2EB0C03934313EACC130BD150F8042BAB
:1004B00051F8043B9A4209D1A2EB0C03934313EA8F
:1004C000CC13DBD04FF00000704700BFD01A01BA48
:1004D000B1FA81F101F0180122FA01F0CB40C1F12B
:1004E0002001DBB2C0B2C01A2CFA01F3D11A914339
:1004F00011EAC311E6D1704700BFFEE770472DE94E
:10050000F041024600250026002000230024002799
:1005100091F803C00CF00F0591F803C00CF0100C1B
:10052000BCF1000F03D091F802C04CEA050591F828
:1005300000C0BCF1000F31D0146800202BE04FF058
:10054000010C0CFA00F3B1F800C00CEA03069E425D
:1005500020D183004FF00F0C0CFA03F7BC4305FACF
:1005600003FC4CEA040491F803C0BCF1280F06D147
:100570004FF0010C0CFA00FCC2F814C00AE091F82C
:1005800003C0BCF1480F05D14FF0010C0CFA00FC80
:10059000C2F810C0401C0828D1D31460B1F800C0C4
:1005A000BCF1FF0F34DD546800202EE000F1080C90
:1005B0004FF0010808FA0CF3B1F800C00CEA03068A
:1005C0009E4221D183004FF00F0C0CFA03F7BC437D
:1005D00005FA03FC4CEA040491F803C0BCF1280FAF
:1005E00005D100F1080C08FA0CF8C2F8148091F853
:1005F00003C0BCF1480F07D100F1080C4FF001080F
:1006000008FA0CF8C2F81080401C0828CED35460B9
:10061000BDE8F081416170470161704700BFFEE7AE
:1006200010B510210748FFF7F7FF20210548FFF715
:10063000F3FF10210348FFF7EDFF20210148FFF7EA
:10064000E9FF10BD0008014010B520210548FFF763
:10065000E3FF10210348FFF7DDFF10210148FFF7FA
:10066000DBFF10BD0008014010B520210348FFF753
:10067000D3FF20210148FFF7CDFF10BD0008014046
:1006800000BFFEE7704710B54FF4A06000F03AF8E5
:1006900010BD000070B5002100230F22C47804B300
:1006A000154C246804F4E064C4F5E064210AC1F147
:1006B0000403CA40447804FA03F1847814402143C7
:1006C00009010E4C0678A155047804F01F05012499
:1006D000AC4005786D11AD0005F1E025C5F800418D
:1006E00009E0047804F01F050124AC40044D0678AD
:1006F000761145F8264070BD0CED00E000E400E006
:1007000080E100E002490143024A116070470000A5
:100710000000FA050CED00E070B500240CE00025A7
:1007200006E00020074901EBC5010855681CC5B269
:10073000802DF6DB601CC4B2082CF0DB00F07CF9E5
:1007400070BD00006008002070B50B46CE1701EBAD
:100750005676C6F3C702CE1701EB5676F610A1EB1C
:10076000C606F4B20123A340DDB20E4B03EBC00377
:100770009B5CDB430B4E06EBC006B354094B03EB0B
:10078000C0039B5C2B43074E06EBC006B354054BDE
:1007900003EBC0039B5CDB43024E06EBC006B35485
:1007A00070BD00006008002010B504461CB900218F
:1007B000A62000F08DFA012C03D10021A72000F023
:1007C00087FA10BD10B504463CB90021C82000F0DE
:1007D0007FFA0021A12000F07BFA012C07D1002133
:1007E000C02000F075FA0021A02000F071FA10BDC1
:1007F00070B50A46CE1701EB5676C6F3C703CE177F
:1008000001EB5676F610A1EBC606F4B20122A24027
:10081000D5B2054A02EBC002D25C2A43024E06EB77
:10082000C006F25470BD00006008002008B5012128
:10083000042000F07BFA3020ADF8000010208DF885
:10084000030003208DF8020069464848FFF757FE71
:1008500030214648FFF7E0FE01214548FFF7DCFE66
:10086000642001F059F801214148FFF7D3FEC82068
:1008700001F052F801213E48FFF7CEFE02213C482C
:10088000FFF7C8FE0021AE2000F022FA0021084642
:1008900000F01EFA0021102000F01AFA002140207A
:1008A00000F016FA0021812000F012FA0021CF207A
:1008B00000F00EFA0021A12000F00AFA0021C82061
:1008C00000F006FA0021A62000F002FA0021A8207C
:1008D00000F0FEF900213F2000F0FAF90021D320BA
:1008E00000F0F6F90021084600F0F2F90021D520C9
:1008F00000F0EEF90021802000F0EAF90021D92073
:1009000000F0E6F90021F12000F0E2F90021DA2000
:1009100000F0DEF90021122000F0DAF90021DB20DE
:1009200000F0D6F90021402000F0D2F9002120206B
:1009300000F0CEF90021022000F0CAF900218D203C
:1009400000F0C6F90021142000F0C2F90021A42013
:1009500000F0BEF90021A62000F0BAF90021AF2076
:1009600000F0B6F9FFF7D8FE08BD0000000801400E
:10097000000C01402DE9F84F04460E4617469846F4
:10098000DDE90BA90A9D99F8000000EBD071491030
:1009900022789AF8003003FB01212170207808FBAF
:1009A0000500802806DD00202070307899F80010BE
:1009B00008443070002F13DB317820782B4616A2C4
:1009C00000F018F9AB4605EBDB720095237803EBDA
:1009D0006202D0B2317843463A4600F0D1F812E0D4
:1009E000317820782B460DA200F004F9AB4605EBD8
:1009F000DB720095237803EB6202D0B23178434674
:100A00007A4200F0BDF808F101008AF8000089F888
:100A10000050BDE8F88F0000200000002D0000000D
:100A200010B50246012000E050430B1EA1F1010465
:100A3000E1B2F9D110BD000070B500241CE004F152
:100A4000B001C8B2002100F043F90021084600F0CF
:100A50003FF90021102000F03BF9002508E008498B
:100A600001EBC501085D012100F032F9681CC5B237
:100A7000802DF4DB601CC4B2082CE0DB70BD0000EC
:100A8000600800202DE9FF4F81B080460E461C46CD
:100A900000962046E31704EB5373DB1021464FEA20
:100AA000E47C04EB5C7C4FEAEC0CA4EBCC0CBCF1DA
:100AB000000F02D04FF0010C01E04FF0000C634436
:100AC000224604EBD27C4FEA6C0C03FB0CF303F0E0
:100AD000FF0B03982038C7B2002547E00C2C07D144
:100AE00007EB4700234901EB800010F805A014E054
:100AF000102C05D1204800EB071010F805A00CE0E1
:100B0000182C07D107EBC7001C4901EB800010F837
:100B100005A002E005B0BDE8F08F4FF000091FE02E
:100B20000AF0800020B131464046FFF761FE03E045
:100B300031464046FFF708FE4FEA4A604FEA106A26
:100B4000701CC6B20098301AA04205D1009E08F170
:100B5000010000F0FF0806E009F1010000F0FF09C4
:100B6000B9F1080FDCDB00BF681CC5B25D45B5DB21
:100B700000BFCFE766320008DA360008CA3C00083A
:100B80002DE9F04F06468A4691461F46099C0025EE
:100B90002CE0781B401EC1B20A20FFF741FFB9FBD1
:100BA000F0F00A21B0FBF1F201FB1208B8F1000FDE
:100BB0000CD1A34604EBDB71491001FB0561C8B2FF
:100BC000234630225146FFF75DFF0DE0A34604EBBC
:100BD000DB71491001FB0561C8B208F13001CAB2EE
:100BE00023465146FFF74EFF681CC5B2BD42D0DB1D
:100BF000BDE8F08FF0B506460F4614461D4613E0DB
:100C000022782B4639463046FFF73CFF284605EB55
:100C1000D07106EB6101CEB2C5F18000B04202DABC
:100C20000026B81CC7B2641C2078202802DB20787C
:100C30007E28E5DDF0BD2DE9F04705460C46164659
:100C40001F46DDE9089800202870207898F80010E9
:100C500008442070217828783B463246FFF7CAFFC7
:100C60003046FFF70DFB89F8000088F80070BDE8FA
:100C7000F0872DE9F04704460D4690461E46DDE913
:100C80000897387800EBD0714A10237899F8001053
:100C9000491C01FB023121704046FFF7F1FA21782F
:100CA00000FB0610802805DD0020207028783978A8
:100CB000084428702978207833464246FFF79AFF87
:100CC0004046FFF7DDFA89F800003E70BDE8F08786
:100CD00070B505460C46FFF7A3FC782000F0A2F89B
:100CE000FFF7C2FC1CB1402000F09CF802E000209D
:100CF00000F098F8FFF7B8FC284600F093F8FFF7EB
:100D0000B3FCFFF7A1FC70BD7047000029B1064A93
:100D1000D2690243044BDA6104E0034AD269824398
:100D2000014BDA61704700000010024029B1064A09
:100D300092690243044B9A6104E0034A9269824338
:100D4000014B9A61704700000010024030B500214D
:100D50000022002400232D4D6D6805F00C0121B107
:100D6000042905D0082923D105E0294D056022E09A
:100D7000274D05601FE0254D6D6805F47012234D69
:100D80006D6805F48034022505EB92421CB9214DB3
:100D9000554305600BE01D4D6D6805F400351DB130
:100DA0001C4D5543056002E0194D5543056002E0B6
:100DB000174D056000BF00BF144D6D6805F0F001D0
:100DC0000909154D6B5C0568DD4045600F4D6D6888
:100DD00005F4E061090A104D6B5C4568DD408560F3
:100DE0000A4D6D6805F46051C90A0B4D6B5C45688E
:100DF000DD40C560054D6D6805F44041890B074D28
:100E00006B5CC568B5FBF3F5056130BD00100240B1
:100E100000127A0000093D000000002010000020B0
:100E20007047000070B5044600251BE020210F48E4
:100E3000FFF7F0FB04F0800020B110210B48FFF712
:100E4000EBFB03E010210948FFF7E4FB20210748F2
:100E5000FFF7E2FB20210548FFF7DCFB6006040EEC
:100E6000681CC5B2082DE1DB70BD00000008014020
:100E700010B500F001F810BD0CB5002001900090F5
:100E80003348006840F480303149086000BF304882
:100E9000006800F4003000900198401C0190009818
:100EA00018B90198B0F5A06FF1D12948006800F495
:100EB000003010B10120009001E000200090009867
:100EC000012843D12348006840F010002149086000
:100ED0000846006820F0030008600846006840F0FB
:100EE000020008601A48406819494860084640688E
:100EF00048600846406840F48060486008464068A2
:100F000020F47C1048600846406840F4E8104860CF
:100F10000846006840F08070086000BF0C48006818
:100F200000F000700028F9D00948406820F0030064
:100F3000074948600846406840F00200486000BF2A
:100F40000348406800F00C000828F9D10CBD0000EF
:100F50000010024000200240042808D14FF0E02198
:100F6000096941F004014FF0E022116107E04FF000
:100F7000E021096921F004014FF0E022116170477E
:100F80007047000010B51348006840F00100114997
:100F9000086008464068104908400E494860084605
:100FA00000680E4908400B4908600846006820F4B4
:100FB000802008600846406820F4FE0048604FF436
:100FC0001F008860FFF754FF4FF00060044908607D
:100FD00010BD0000001002400000FFF8FFFFF6FE09
:100FE00008ED00E010B50121880700F03EF9C0B31C
:100FF000002430E004EB84011A4A52F821001A4917
:1010000002F08BF826D804EB8402164B03EB820225
:10101000D16804EB840203EB8202106901F09AFEAE
:1010200004EB84010F4A02EB8101086104EB8401A7
:1010300052F821000C4902F0A1F804EB8401094A9E
:1010400042F8210004EB840002EB80000169204695
:1010500001F0F0F8641C082CCCDB0121880700F0BB
:10106000F5F810BD380F00200000A0417FB50546FF
:101070000C4601210846FFF749FEADF80850ADF8CF
:1010800004400020ADF80A00ADF8060001A94FF0B9
:10109000804000F069FA01221146900700F0F6F84E
:1010A0001C208DF8000000208DF8010003208DF831
:1010B000020001208DF803006846FFF7EBFA0121DA
:1010C000880700F0C6F87FBD30B589B005460C46EC
:1010D00001210220FFF71AFE01210D20FFF726FE55
:1010E00003208DF8220018208DF82300C020ADF8D1
:1010F000200008A92548FFF702FA03208DF82200F6
:1011000018208DF823000320ADF8200008A92048FE
:10111000FFF7F5F9ADF81850ADF814400020ADF820
:101120001A00ADF8160005A91A4800F01DFA602053
:10113000ADF804000120ADF806000020ADF80C0069
:1011400001A9144800F0ACF80821124800F0F4F8A6
:1011500001A9104800F0FAF808210E4800F048F9FB
:1011600001A90C4800F052F908210A4800F09EF944
:1011700001A9084800F0A4F90821064800F0DEF9AA
:101180000121044800F065F809B030BD00080140B5
:10119000000C01400004004030B589B005460C4603
:1011A00001210420FFF7B2FD01210920FFF7BEFD58
:1011B00003208DF8220018208DF823004FF4707062
:1011C000ADF8200008A91F48FFF799F9ADF81850AD
:1011D000ADF814400020ADF81A00ADF8160005A9CE
:1011E000194800F0C1F96020ADF804000120ADF805
:1011F00006000020ADF80C0001A9134800F050F8DB
:101200000821114800F098F801A90F4800F09EF855
:1012100008210D4800F0ECF801A90B4800F0F6F8A1
:101220000821094800F042F901A9074800F048F9EF
:101230000821054800F082F90121034800F009F86F
:1012400009B030BD000C014000080040CA430282D2
:10125000704721B1028842F00102028004E0028856
:101260004FF6FE731A400280704730B502460020E8
:1012700000230024158A05EA0103958905EA010483
:1012800013B10CB1012000E0002030BD1AB18389F8
:101290000B43838102E083898B4383817047000085
:1012A00070B5002400220023058C4FF6FE763540F1
:1012B0000584028C8388048B4FF68F752C40B51EF5
:1012C0002C400D882C43751E2A400D892A434D88D9
:1012D0002A43144DA8420BD0134DA84208D0134DF9
:1012E000A84205D0124DA84202D0124DA84213D1F7
:1012F0004FF6F7752A404D892A434FF6FB752A4071
:101300008D882A434FF6FF652B404FF6FF552B4043
:101310008D892B43CD892B4383800483CD8885869B
:10132000028470BD002C01400034014000400140A7
:1013300000440140004801400A460021018B4FF65D
:10134000F7731940114301837047000070B5002402
:1013500000220023058C4FF6EF7635400584028C81
:101360008388048B48F6FF752C404FF6FF452C40D0
:101370000D884FF6FF7606EA05252C434FF6DF75FC
:101380002A400D8906EA05152A434D8806EA051507
:101390002A43154DA84202D0144DA8421DD14FF644
:1013A0007F752A404D894FF6FF7606EA05152A43D8
:1013B0004FF6BF752A408D8806EA05152A434FF679
:1013C000FF352B404FF2FF752B408D8906EA8505CE
:1013D0002B43CD8906EA85052B4383800483CD8882
:1013E0000587028470BD0000002C014000340140DC
:1013F0000A460021018B4FF2FF7319404FF6FF732D
:1014000003EA0223194301837047000070B50024EA
:1014100000220023058C4FF6FF6635400584028CC0
:101420008388848B4FF68F752C404FF6FC752C40CB
:101430000D882C434FF6FF552A400D894FF6FF7655
:1014400006EA05252A434D8806EA05252A43154D57
:10145000A84202D0144DA8421DD14FF2FF752A4078
:101460004D894FF6FF7606EA05252A434FF6FF35EC
:101470002A408D8806EA05252A434EF6FF752B4043
:101480004DF6FF752B408D8906EA05152B43CD8956
:1014900006EA05152B4383808483CD8885870284E3
:1014A00070BD0000002C0140003401400A460021BC
:1014B000818B4FF6F7731940114381837047000009
:1014C00070B5002200230024058C4EF6FF763540CF
:1014D0000584038C8488828B48F6FF752A404FF67A
:1014E000FF452A400D884FF6FF7606EA05252A4378
:1014F0004DF6FF752B400D8906EA05352B434D88C7
:1015000006EA05352B430B4DA84202D00A4DA842EE
:1015100008D14BF6FF752C408D894FF6FF7606EA11
:1015200085152C4384808283CD88A0F840500384A5
:1015300070BD0000002C0140003401400A4600212B
:10154000818B4FF2FF7319404FF6FF7303EA0223BA
:10155000194381837047818670470187704781876F
:101560007047A0F840107047002202881D4B984237
:101570000ED01D4B98420BD0B0F1804F08D01B4BC2
:10158000984205D01A4B984202D01A4B984204D187
:101590004FF68F731A404B881A43174B984207D067
:1015A000164B984204D04FF6FF431A40CB881A439B
:1015B00002808B8883850B8803850A4B98420BD069
:1015C000094B984208D00E4B984205D00D4B9842DB
:1015D00002D00D4B984201D10B7A038601238382FE
:1015E00070470000002C014000340140000400401E
:1015F00000080040000C00400010004000140040B3
:1016000000400140004401400048014010B540F254
:1016100025511D4800F094F810B31B4800F04CF918
:10162000C4B21A48008800F40040C8B917480088BE
:1016300000F4804060B10A2C03D0002013490880D8
:1016400020E01248008840F400401049088019E06A
:101650000D2C06D10D48008840F480400B490880CD
:1016600010E00A480088C0F30D0009490C540748EF
:101670000088401C0549088008460088C72801DD0D
:101680000020088010BD000000380140200000202C
:10169000700E002010B540F225511F4800F050F8A0
:1016A00030B31D4800F008F9C4B221461B4800F0D1
:1016B00008F91B48008800F40040C8B918480088A1
:1016C00000F4804060B10A2C03D000201449088047
:1016D00020E01348008840F400401149088019E0D8
:1016E0000D2C06D10E48008840F480400C4908803B
:1016F00010E00B480088C0F30D000A490C5408485C
:101700000088401C0649088008460088C72801DD7B
:101710000020088010BD0000004800400038014053
:101720001E000020A80D002021B1828942F4005241
:10173000828104E082894DF6FF731A4082817047EE
:1017400070B50246002400230025002040F66A16EA
:10175000B14200D100BFC1F3421501F01F030126C1
:1017600006FA03F3012D02D19689334006E0022DDB
:1017700002D1168A334001E0968A33400C120126CA
:1017800006FA04F41688344013B10CB1012000E0CD
:10179000002070BDF0B5034600240026002500207F
:1017A00040F66A17B94200D100BF1846C1F342148F
:1017B00001F01F06012707FA06F5012C01D10C30B4
:1017C00004E0022C01D1103000E014301AB1076897
:1017D0002F43076002E00768AF430760F0BD0000D9
:1017E0002DE9F04786B005460E460024A24600BF0C
:1017F000A1460027B08900B100BF2F462C8A4CF6C5
:10180000FF700440F08804432C82AC894EF6F3103C
:101810000440B08831890843718908430443AC818E
:10182000AC8A4FF6FF400440B0890443AC8201A863
:10183000FFF78CFA1F48874202D1DDF810A001E0C3
:10184000DDF80CA0A88900F4004040B10AEBCA0002
:1018500000EB0A1031684900B0FBF1F807E00AEB31
:10186000CA0000EB0A1031688900B0FBF1F864206F
:10187000B8FBF0F004012009642101FB1089A8895C
:1018800000F4004040B1322000EBC900B0FBF1F0A1
:1018900000F00700044308E0322000EB0910642147
:1018A000B0FBF1F000F00F0004432C8106B0BDE85E
:1018B000F08700000038014001468888C0F3080026
:1018C0007047C1F308028280704700BFFEE70146FF
:1018D00000BF704710B56FF00400FFF73DFB0A48EA
:1018E00000680A49B0FBF1F0094908700846007821
:1018F00000EB4001C1EBC0104FF6FF7101EAC000E0
:101900000449088010BD00002400002000127A0065
:1019100014000020160000200146114A12884A4394
:101920004FF0E0235A6100229A611A46126942F090
:1019300001021A6100BF4FF0E022106900F00102BD
:101940001AB100F48032002AF5D04FF0E02212697B
:1019500022F001024FF0E0231A6100229A617047E1
:101960001600002010B588B0002007900C200690CB
:1019700000200590049005A804A90C235BA2CDE9E2
:10198000001006A907A8FFF774F95A49086901F081
:1019900011FB044605A804A90C220323CDE900216C
:1019A0000290224606A907A8FEF7E4FF05A804A9AD
:1019B0000C2351A2CDE9001006A907A8FFF759F999
:1019C0004C49486A01F0F6FA044605A804A90C221D
:1019D0000323CDE900210290224606A907A8FEF7BD
:1019E000C9FF05A804A90C2345A2CDE9001006A94A
:1019F00007A8FFF73EF93F49886B01F0DBFA044680
:101A000005A804A90C220323CDE900210290224657
:101A100006A907A8FEF7AEFF05A804A90C233AA261
:101A2000CDE9001006A907A8FFF723F93149C86CD2
:101A300001F0C0FA044605A804A90C220323CDE94D
:101A400000210290224606A907A8FEF793FF05A8E9
:101A500004A90C232EA2CDE9001006A907A8FFF7C0
:101A600008F92449086E01F0A5FA044605A804A95E
:101A70000C220323CDE900210290224606A907A8E3
:101A8000FEF778FF05A804A90C2323A2CDE90010D6
:101A900006A907A8FFF7EDF81649486F01F08AFA82
:101AA000044605A804A90C220323CDE900210290D5
:101AB000224606A907A8FEF75DFF05A804A90C2386
:101AC00017A2CDE9001006A907A8FFF7B4F805A8EA
:101AD00004A90C23134ACDE9001006A907A8FFF7B3
:101AE000C8F8FEF7A9FF08B010BD000053564F30EC
:101AF00000000000380F002053564F310000000056
:101B000053564F320000000053564F330000000080
:101B100053564F340000000053564F35000000006C
:101B200053000000F80F0020FFF7D4FEFEF7ABFDD6
:101B3000032000F0D3FA4FF4E13000F0D3FB4FF470
:101B4000E13000F027FCFEF771FE0020FEF72CFECE
:101B50000020FEF737FEFEF76FFF2024FB4A00212E
:101B6000084600F063FAF94AF949012000F05EFAEC
:101B7000F64AF849022000F059FAF44AF6490320DF
:101B800000F054FAF14A0021042000F04FFAEF4A25
:101B90000021052000F04AFA41E2F048008800F4F4
:101BA000004000287ED0ED480088C0F30D00EC49CD
:101BB0000860002405E0EB48005DEB490855601C17
:101BC000C4B2E74800688442F5DB0020E6490855C6
:101BD000E2490880E448007853280FD1E248801C8D
:101BE000FEF741FB064601F001FA0546DE49497859
:101BF0003039C8B2DD4A294600F018FADA480078D0
:101C00004D280FD1D848801CFEF72DFB064601F069
:101C1000EDF90546D44949783039C8B2D34A294646
:101C200000F084FAD0480078562804D1CE48417894
:101C3000CF48FFF746FECC480078442832D1CA4846
:101C400040783038CB49086008460068092835D20A
:101C5000DFE800F005356391BFF1EFEEED00C34A18
:101C60000021084600F0E2F94FF41670FFF754FE29
:101C7000BE4AC149012000F0D9F94FF41670FFF7B0
:101C80004BFEBA4ABD49022000F0D0F94FF416705D
:101C9000FFF742FEB54ABA49032000F0C7F94FF4F6
:101CA000167000E0B6E1FFF737FEB04AB2490420F3
:101CB00000F0BCF94FF41670FFF72EFEA9E1AB4A15
:101CC0000021084600F0B2F94FF41670FFF724FE29
:101CD000A64AAC49012000F0A9F94FF41670FFF7AD
:101CE0001BFEA24AA849022000F0A0F94FF416708A
:101CF000FFF712FE9D4AA549032000F097F94FF423
:101D00001670FFF709FE994A0021042000F08EF9B1
:101D10004FF41670FFF700FE7BE1944A8E490020D5
:101D200000F084F94FF41670FFF7F6FD8F4A9849DA
:101D3000012000F07BF94FF41670FFF7EDFD8B4AA0
:101D40009449022000F072F94FF41670FFF7E4FD99
:101D5000864A9149032000F069F94FF41670FFF7A5
:101D6000DBFD824A0021042000F060F94FF4167078
:101D7000FFF7D2FD4DE17D4A7F49002000F056F982
:101D80004FF41670FFF7C8FD784A8149012000F032
:101D90004DF94FF41670FFF7BFFD744A7D490220DC
:101DA00000F044F94FF41670FFF7B6FD6F4A7A4918
:101DB000032000F03BF94FF41670FFF7ADFD6B4ABE
:101DC0000021042000F032F94FF41670FFF7A4FD53
:101DD0001FE1664A7149002000F028F94FF416709F
:101DE000FFF79AFD614A6A49012000F01FF94FF49C
:101DF0001670FFF791FD5D4A6949022000F016F95F
:101E00004FF41670FFF788FD584A6649032000F02A
:101E10000DF94FF41670FFF77FFD544A5649042020
:101E200000F004F94FF41670FFF776FDF1E0C1E021
:101E30005DE02EE0FFE74D4A5249002000F0F6F841
:101E40004FF41670FFF768FD484A5749012000F02B
:101E5000EDF84FF41670FFF75FFD444A4A4902203F
:101E600000F0E4F84FF41670FFF756FD3F4A4F4973
:101E7000032000F0DBF84FF41670FFF74DFD3B4AEE
:101E80003D49042000F0D2F84FF41670FFF744FDEE
:101E9000BFE0364A3849002000F0C8F84FF4167009
:101EA000FFF73AFD314A4049012000F0BFF84FF4F6
:101EB0001670FFF731FD2D4A3349022000F0B6F8C5
:101EC0004FF41670FFF728FD284A3949032000F027
:101ED000ADF84FF41670FFF71FFD244A00210420CF
:101EE00000F0A4F84FF41670FFF716FD91E01F4ABA
:101EF0000021084600F09AF84FF41670FFF70CFD29
:101F00001A4A2049012000F091F84FF41670FFF7AB
:101F100003FD164A2249022000F088F84FF416709B
:101F2000FFF7FAFC114A2249032000F07FF84FF432
:101F30001670FFF7F1FC0D4A0021042000F076F83E
:101F40004FF41670FFF7E8FC63E0000000007A44ED
:101F50000000A042000020C10000F0C120000020CD
:101F600038080020700E0020F80F00200000C84242
:101F7000004800405C08002000000C42000040C106
:101F80000000C8410000C8C10000504100005C4290
:101F9000000020C20000E041000048420000A040D4
:101FA0000000B841000070420000A0C100003442AF
:101FB000000020421A4A0021084600F037F84FF48A
:101FC0001670FFF7A9FC164A1649012000F02EF8FA
:101FD0004FF41670FFF7A0FC114A4FF08241022027
:101FE00000F024F84FF41670FFF796FC0C4A0E49E7
:101FF000032000F01BF84FF41670FFF78DFC084A21
:102000000021042000F012F84FF41670FFF784FC52
:1020100000BF00BFFFF7A6FC6420FFF77DFCBCE516
:102020000000C8420000A0420000F0C12DE9FF5F9F
:1020300004468A46914604EB8400264901EB800061
:10204000806804EB8401234A02EB8101486004EBC1
:102050008400114601EB8000406804EB840102EB30
:102060008101086104EB8400114641F8209004EBE3
:10207000840001EB8000C0F808A0484600F03EFE56
:102080000022154BCDE9000100F0C8FA074688464A
:1020900004EB84020F4B03EB8202516804EB8402D1
:1020A00003EB8202906801F069F8834600F026FE97
:1020B0003A464346CDE9020100F0B0FA054600F089
:1020C000D3F904EB8401034A02EB8101C860BDE847
:1020D000FF9F0000380F00200000344010B5044678
:1020E000012C04D0022C08D0032C17D10BE08F2137
:1020F00042F20F70FEF7E8FF10E08F2142F20F70FE
:10210000FFF74AF80AE08F2142F20F70FFF744F818
:102110008F2142F20F70FEF7D7FF00BF00BF8F2163
:1021200042F20F70FEF7A2FF10BD00002DE9FF5F25
:1021300004468A46914604EB84003A4901EB80004C
:10214000806804EB8401374A02EB8101486004EBAC
:102150008400114601EB8000406804EB840102EB2F
:102160008101086104EB8400114641F8209004EBE2
:10217000840002EB80004168504600F0EBFD04EB68
:102180008401284A02EB8101886004EB840102EBA0
:1021900081018868244900F0C0FF06D2224804EB80
:1021A0008401204A02EB8101886004EB84011D4A0E
:1021B00002EB810188681D4900F030FF06D21B4800
:1021C00004EB8401174A02EB81018860484600F065
:1021D00095FD0022164BCDE9000100F01FFA0746DD
:1021E000884604EB84020F4B03EB8202516804EB38
:1021F000840203EB8202906800F0C0FF834600F087
:102200007DFD3A464346CDE9020100F007FA054656
:1022100000F02AF904EB8401024A02EB8101C86054
:10222000BDE8FF9F380F00200000B4420000B4C298
:10223000000034402DE9FC5F81468A46244950461F
:1022400000F0F6FD834600F059FD0022214BCDE958
:10225000000100F06BFB074600221F4B00F036F92F
:10226000054600F033FB0446B9F1080F2DD2DFE834
:1022700009F0090E1D1813042227A1B21748FFF711
:102280006AF922E0A1B21548FFF767F91DE0A1B293
:102290001248FFF764F918E0A1B21048FFF761F99E
:1022A00013E0A1B20E48FFF756F90EE0A1B20C48B8
:1022B000FFF753F909E0A1B20948FFF750F904E02C
:1022C000A1B20748FFF74DF900BF00BFBDE8FC9F72
:1022D0000000B44200407F4000708740000400408E
:1022E0000008004010B586B0044601210420FEF726
:1022F0001DFD01218803FEF719FD4FF40070ADF8B4
:10230000140003208DF8160018208DF8170005A979
:102310001D48FEF7F4F84FF48060ADF81400042077
:102320008DF8170005A91848FEF7E9F825208DF863
:10233000000003208DF801008DF8020001208DF8C7
:1023400003006846FEF7A6F901940020ADF80800E6
:10235000ADF80A00ADF80C00ADF810000C20ADF897
:102360000E0001A90948FFF73BFA012240F225516E
:102370000648FFF70FFA01210448FFF7D5F90020BE
:102380000349088006B010BD000801400038014034
:102390002000002010B586B0044601210820FEF779
:1023A000C5FC01218804FEF7B1FC4FF48060ADF854
:1023B000140003208DF8160018208DF8170005A9C9
:1023C0001C48FEF79CF84FF40060ADF814000420A0
:1023D0008DF8170005A91748FEF791F827208DF80A
:1023E000000003208DF801008DF8020001208DF817
:1023F00003006846FEF74EF901940020ADF808008E
:10240000ADF80A00ADF80C00ADF810000C20ADF8E6
:102410000E0001A90848FFF7E3F9012240F2255117
:102420000548FFF7B7F901210348FFF77DF906B02A
:1024300010BD0000000C01400048004010B500290C
:102440000AD00878002807D005487844FEF714F829
:10245000002801D0002010BD0248784410BD0000C3
:10246000FE250000F625000021F00042A2F1605296
:10247000B2F5801F01F0004328BFD2F17F6C0BD969
:102480005FEA001C43EAC20242EB507018BF70477B
:1024900028BF20F001007047B2F5801FBCBF18466E
:1024A00070474FEA410C1CF5001F02D2084600F0AD
:1024B0002FBE70B500F0E4FA00000089FFF7F6BF08
:1024C0004FF00040A0F580007047000010B591EA81
:1024D000030F48BF83F0004300F12E83841A71EB91
:1024E000030C05D2121943EB0C03001B61EB0C012A
:1024F000DFF824E14FEA1154A4EB135C1EEA430F0A
:1025000018BF9EEA445F73D023EA0E03DCF1200E6D
:1025100021EA045143F4801332D322FA0CFE10EB6B
:102520000E0023FA0CFE41EB0E01CCF1200E03FA53
:102530000EFE10EB0E0051F10001B1F5801FCCF141
:10254000200E32D201EB045112FA0EF2BDE8104017
:1025500058BF7047401C38BF5FEA420218BF70473F
:10256000002814BF20F0010041F100014FEA4103AF
:1025700013F5001F38BF7047A1F1C04100F0CEBA7B
:10258000012A43EB0302ACF1200CDCF11F0E32BF39
:102590004FF0000E23FA0CF310EB030041EB045153
:1025A000B4EB115FD0D0A1EB045101F580114908C3
:1025B0005FEA300001EB04510ED350F1000038BF48
:1025C00012FA0EFE08D1BDE81040C9E7401C38BF22
:1025D0005FEA4202CAD1C3E7BDE810404FEA4103B7
:1025E00013F5001F38BF7047A1F1C04100F096BA43
:1025F0009EEA445F08D011EA5E0FBDE8104004BFB8
:1026000001F0004100207047BDE8104070B500F0B7
:1026100037FA00BF64FBBE3E0000E0FF2DE9C04179
:1026200030B4DFF8A0C23CEA111418BF3CEA13141E
:1026300000F0EC8081EA03051CEA111444EAD57429
:1026400018BF1CEA131500F0C780A4EB05044FF077
:10265000004545EAC12145EAC32341EA505143EA16
:10266000525304F17F74994204F500344FEAC020BC
:102670004FEAC22208BF904200F09C804FEA1365E7
:102680000FF24016765D4FEA134506FB05F7C7F1DA
:10269000807706FB07F74FEAD737A7FB0368764238
:1026A000C8F58038A7FB06CE38BFA8F1010807FBA4
:1026B00008E64FF0000EA6FB028CE6FB03CEDCF131
:1026C000000CCEF1004E38BFAEF1010EA6FB0C5847
:1026D0004FF000074FF00005E6FB0E87A1FB08C690
:1026E000A0FB07CE16EB0E0645F10005E1FB0765E2
:1026F00015F1E04E7EBFA4F580345FEA46066D41D9
:1027000016F1800745F100054FEA17274FEA0666E4
:1027100047EA0567A6F1DE46B6F1805F4FEA152568
:102720001FD9384624F0010C05EBC471BCF1FE6FD3
:1027300001EB0C1102D8F0BCBDE8008124425CBF63
:1027400001F5801E9EEAC47F02D4F0BCBDE8008182
:10275000244238D4F0BCA1F1C041BDE8004100F0F2
:10276000DDB94FEAD22242EA43524FEAD323A7FB14
:1027700002864FEAD02040EA415007FB03661EEA7A
:102780000E0F4FEAD12105FB026658BFA6EB00569B
:10279000B6EB00564FEA520E4EEAC37E18EB0E0E11
:1027A00056EB530EBDD518EB02085E417F1C55F168
:1027B0000005B6E74FF480154FF000074FF0000614
:1027C0004FF00008ADE7F0BC4FF0000001F1C04150
:1027D00001F00041BDE8008111EA0C1F0CEA13155D
:1027E00000D00CE013EA0C1F00F025804FF0000031
:1027F000F0BC81EA030101F00041BDE80081F0BCBA
:10280000BDE8004181EA030100F088B9F0BCBDE8F1
:10281000004170B500F034F9097EFC3E00F007B8C5
:1028200081EA03014FF0000001F00041704781EAA6
:10283000030100F073B9F0BCBDE800414FF00000A7
:1028400021497047FFFDFBF9F7F5F4F2F0EEEDEBEF
:10285000E9E8E6E4E3E1E0DEDDDBDAD8D7D5D4D39E
:10286000D1D0CFCDCCCBCAC8C7C6C5C4C2C1C0BFEA
:10287000BEBDBCBBBAB9B8B7B6B5B4B3B2B1B0AFF0
:10288000AEADACABAAA9A8A8A7A6A5A4A3A3A2A1D4
:10289000A09F9F9E9D9C9C9B9A999998979796958F
:1028A00095949393929191908F8F8E8E8D8C8C8B2B
:1028B0008B8A8989888887878685858484838382B3
:1028C000828181800000FF070000F87F4FEA41030A
:1028D0004FEA5353A3F58063D3F11E03C8BFD3F16E
:1028E000210C0CDD4FF0004242EAC12242EA505274
:1028F00032FA03FC8CEAE17CACEBE1707047102B00
:10290000C4BF0020704703F5787CBCF1FF3F04D0C2
:102910006FF0004282EA2100704770B500F0B0F815
:102920004992248000207047F2E70000DFF848C198
:1029300070B51CEA111E1EBF1CEA13159EEA0C0F8F
:1029400095EA0C0F00F06F8081EA030423EA4C1330
:102950004EEAD47E21EA4C1141F4801143F48013F5
:10296000AE44A1FB024CA0FB0365AEF17F7E36199D
:1029700055EB0C05A1FB034C4CF10003A0FB021C22
:1029800016EB0C06654153F10003094218BF46F0EF
:10299000010613F4007F0BD14FEA03314FEA0530F3
:1029A000340341EA155140EA16506FF003020AE081
:1029B0004FEAC3214FEAC520F40241EA555140EAEB
:1029C00056506FF0020202EB2E4201EB025585EAEF
:1029D000CE710AD05FEA440C18BF24F0004450F1D5
:1029E000000041F1000120EAD47040F2FE7C624513
:1029F00000D270BDA84214BF4FF080444FF0404455
:102A0000002E08BF0024BEF1806FA8BFA1F1C04115
:102A1000BDE8704080F282804FF0000001F1C041BB
:102A200001F0004170479EEA0C0F0CEA131518BF25
:102A300095EA0C0F06D04FF0000081EA030E0EF06D
:102A4000004170BD00F01CF88900013E00F007B89D
:102A500000F009B84FEA430C5FEA5C5C08D081EAF9
:102A6000030100F05BB84FEA410C5FEA5C5CF6D111
:102A70004FF00000014970470000FF070000F87F99
:102A80000EF1020E2EF0030E5EF8046B364205D4F2
:102A9000012A43EB030515F5001F12D8012841EB6D
:102AA000010C1CF5001F0CD80ED14FEAD17C15F596
:102AB000001F0CEB4C0C0CF1020C08BF4CEBD37C50
:102AC00004E04FF0080C01E04FEAD37C0CEB4C051E
:102AD00026FA05F606F00706B6F1040C06D20EEB50
:102AE000860CBDE870404CF0010C6047DFE80CF04C
:102AF000090B02024FF000414FF00000A1F5002148
:102B000070BD19461046012851EB010418BFD4F5D9
:102B1000001484BF002001F0004170BD0808A0F53A
:102B200000114FEA3101704710B591EA030F48BF19
:102B300083F000433FF5D2AC841A71EB030C07D24B
:102B400012198CF0004C43EB0C03001B61EB0C01E1
:102B5000DFF8A4E14FEA1154A4EB135C1EEA430F23
:102B600018BF9EEA445F00F0B08023EA6E03524231
:102B700021EA0451C3EB6E0338BF5B1EDCF1200E6B
:102B800025D322FA0CFE10EB0E0043FA0CFE41EBAB
:102B90000E01CCF1200E03FA0EFE10EB0E0051F1E7
:102BA0000001CCF1200E29D412FA0EF201EB0451EF
:102BB000BDE8104058BF7047401C1CBFB2F1004F29
:102BC000704700280CBF491C20F00100704712EB31
:102BD000020E43EB030218BF4FF0010E4EEA420211
:102BE000ACF1200CDCF11E0E54D943FA0CFE10EBB4
:102BF0000E0051F1FF31CCF11E0ED5D50EF1010EB4
:102C000012FA0EFE404141EB010101EB445C5FEA28
:102C10005C5C10D910EBDE7001EB045138BFBEF1E3
:102C2000004FBDE8104018BF704700280CBF491C7A
:102C300020F00100704730D24FEAD42C11F500117A
:102C400024F400641BD0B1FA81F20B3AA41AA41E3A
:102C5000D2F12003914030FA03F31943904001EB85
:102C6000CC71002C01EB0451BDE81040A8BF7047A7
:102C700001F1C0414FF0000001F000417047B0FA8F
:102C800080F310FA03F100D110BDE41A173C480597
:102C9000C90AE4E701EB045110BD491001EB0451EE
:102CA000BDE810404FEA300002E04FF000017047ED
:102CB0004A0008BF0042F8D0B2F5001F28BF704795
:102CC00001F000414FF0000070479EEA445F07D0DA
:102CD00011EA5E0FBDE8104004BF002100207047DC
:102CE000BDE8104070B5FFF7CBFE00BF40DFF63EF9
:102CF00083F00041104670470000E0FF43004FEAB8
:102D0000D30C4FEA3C0C43401FBF40070CF160510D
:102D100013F0FE4F70471CF0006F03D100200CF041
:102D2000004170470CF0004343EA507010B540EA90
:102D3000CC0000F0A7F900BF000000924FEA0001AC
:102D4000FFF7ECBE4FF000414FF00000A1F500216D
:102D50007047000090EA010F48BF81F0004100F188
:102D60001482421A3CBF801A89184FEAD0524FF0A1
:102D70007F4C1CEA410FA2EBD15318BF9CEA026FB3
:102D800000F03B804FF0004C4CEA00204CEA01215F
:102D900021FA03FC10EB0C0C1ED202F1FF325FEAA9
:102DA0001C2040EBC25038BF70471CF07F0F4FEA29
:102DB000400C18BFBCF17F4F38BF7047C3F12003F0
:102DC000994008BF20F00100BCF17F4F38BF704729
:102DD000A0F1C04000F09CB94FEA3C00000A40EB73
:102DE000C25028BF1CF0FF0F4FEA400CE6D018BFBE
:102DF000BCF17F4F38BF7047EAE79CEA026F05D00D
:102E000010EA5C0F08BF00F00040704710B500F0FA
:102E100039F900BF64FBBE3E401058BFC0F14040CE
:102E2000491058BFC1F140418142EFF30080704723
:102E30004FF47F0C1CEAD0121EBF1CEAD11392EA99
:102E40000C0F93EA0C0F00F0858090EA010F48BF49
:102E500042F4807240F4000C41F400002CF07F41F9
:102E600020F07F4000B58142A2EB03020FF2081C64
:102E7000ACEB504EC0F100009EF800E04FEA4E0E61
:102E800000FB0EFC38BF49004FEA2C1C02F5FA0289
:102E90000CFB0EF34FEACE1E4FEA112C4FEAC12174
:102EA0000EEB635E42EB22420EFB0CFC4FEA1C531E
:102EB00000FB03114FEA112C4FEA01310EFB0CFC11
:102EC0004FEADC4C00FB0C11C14228BF09184CEB47
:102ED00003335DF804EB10EB410143EBC250B2F554
:102EE0007C0F38BF704729D512F0F00F1CBF00F1DE
:102EF000C04000F00040704700818283848586874F
:102F000088898B8C8D8E8F919293959697999A9CA8
:102F10009D9FA0A2A3A5A7A8AAACAEB0B2B3B5B717
:102F2000B9BCBEC0C2C5C7C9CCCED1D4D7D9DCDFED
:102F3000E2E6E9ECF0F3F7FAFE0000004FEA400C9D
:102F40000CF1807CBCF17E4F28BF7047B0F1C040CF
:102F500000F0DEB890EA010F0CEAD11348BF42F44A
:102F60008072624538BF634507D213F47F0F16D0D5
:102F700080EA010000F00040704710B500F082F8D0
:102F8000097EFC3E00F005B880EA010000F0004038
:102F9000704780EA010000F0004000F0B9B812F478
:102FA0007F0F04BF0248704780EA010000F0B0B80C
:102FB0000000C07F41000B0ED3F19E0208D950F4EF
:102FC00000034FEA032323FA02F048BF4042704750
:102FD00010B500F057F800BF4992248000207047D8
:102FE0006FF0004282EA20007047000010F00041BC
:102FF00048BF4042B0FA80F310FA03F2C3F19D03D8
:103000000BD051EAC35101EB1220530638BF704771
:1030100000F1010008BF20F00100704750EA010CE8
:1030200000F113801CF5000F58BFBCF5000F01D450
:103030008842704707D710F5000F58BF11F5000FF1
:1030400015D488427047894270471CF5000F04D59B
:10305000BCF5000FF7D5814270474FF0807C1CEB28
:10306000400F38BF1CEB410F01D28142704710B5B1
:1030700000F008F8922449004FF000504FF08051C2
:10308000FFF7CABE0EF1020E2EF0030E5EF8044BDF
:10309000244204D44FEA4102B2F17F4F11D84FEAE3
:1030A0004003B3F17F4F0CD80ED14FEAD07CB2F180
:1030B0007F4F0CEB4C0C0CF1020C08BF4CEBD17C9D
:1030C00004E04FF0080C01E04FEAD17C0CEB4C031C
:1030D00024FA03F404F00704B4F1040C06D20EEB56
:1030E000840CBDE810404CF0010C6047DFE80CF0A8
:1030F000070802024FF00040A0F5800010BD08460E
:10310000420018BFD2F1807288BF00F0004010BDAD
:10311000FF2141EAD050C005704751EA000C00F190
:1031200013801CF5000F58BFBCF5000F01D481427D
:10313000704707D711F5000F58BF10F5000F15D4D1
:1031400081427047894270471CF5000F04D5BCF5D9
:10315000000FF7D5884270474FF0807C1CEB410F81
:1031600038BF1CEB400F01D28842704780EA010053
:1031700081EA000180EA0100FFF779BF90EA010FC0
:1031800048BF81F000413FF5ECAD421A04D882F00F
:103190000042A0EB020011444FEAD0524FF07F4CA6
:1031A0001CEA410FA2EBD15318BF9CEA026F4AD030
:1031B0004FF0004C4CEA00204CEA012121FA03FCBC
:1031C000B0EB0C0C0FD412F0FE0F36D05FEA4C00BF
:1031D0001DD5001240EBC25038BF70471CF03F0FA6
:1031E00018BF70470BE0A2F101025FEA1C2040EB20
:1031F000C25038BF70471CF07F0F18BF7047C3F133
:103200002003994014BF401E20F001007047800841
:103210004FEA122308BF7047B0FA80FCA2EB0C0201
:10322000CCF1280C60FA0CF093EA122F04BF00EBEB
:10323000C25070474FEAC3707047130A5FEADC1050
:1032400008BF7047F6E79CEA026F04D010EA5C0FF3
:1032500008BF0020704710B5FFF714FF40DFF63EAF
:1032600081F00040704700000000000000000000F6
:103270000000000000003F400000000000000000CF
:103280003000400030004000000009000BC03D004D
:103290000BC03D00090018C024407FE0224031806F
:1032A0000000180024C01B000D8032400180038004
:1032B0001C4027401C8007400040100060000000B8
:1032C0000000000000000000000000001F802040FF
:1032D00040200000402020401F8000000000090026
:1032E00006001F80060009000000040004003F8063
:1032F0000400040000000010006000000000000056
:1033000000000400040004000400040000000000A9
:1033100000400000000000000000002001C0060086
:103320003800400000001F802040204020401F80C7
:103330000000000010403FC000400000000018C026
:1033400021402240244018400000108020402440AA
:1033500024401B80000002000D0011003FC001400E
:1033600000003C80244024402440238000001F8033
:10337000244024403440038000003000200027C057
:103380003800200000001B802440244024401B8083
:1033900000001C0022C0224022401F8000000000CC
:1033A0000000084000000000000000000000046071
:1033B000000000000000000004000A00110020804E
:1033C0004040090009000900090009000000000050
:1033D0004040208011000A00040018002000234013
:1033E0002400180000001F802040274029401F4073
:1033F0000000004007C039000F0001C0004020401D
:103400003FC0244024401B8000001F8020402040FB
:1034100020403080000020403FC0204020401F80DE
:10342000000020403FC024402E4030C0000020401B
:103430003FC024402E00300000000F0010802040CC
:1034400022403380020020403FC0040004003FC0FF
:103450002040204020403FC020402040000000602D
:10346000202020203FC02000200020403FC02440DA
:103470000B0030C0204020403FC0204000400040B2
:1034800000C03FC03C0003C03C003FC000002040E3
:103490003FC00C4023003FC020001F802040204040
:1034A00020401F80000020403FC02440240018001E
:1034B00000001F802140214020E01FA0000020408C
:1034C0003FC02440260019C0004018C024402440BA
:1034D000224031800000300020403FC020403000BA
:1034E000000020003F80004000403F80200020007E
:1034F0003E0001C0070038002000380007C03C0033
:1035000007C038000000204039C0060039C0204004
:1035100000002000384007C0384020000000304044
:1035200021C02640384020C00000000000007FE09D
:10353000402040200000000070000C00038000408C
:1035400000000000402040207FE00000000000005C
:1035500020004000200000000000001000100010BB
:1035600000100010001000000000400000000000EB
:103570000000000002800540054003C0004020001C
:103580003FC004400440038000000000038004406A
:1035900004400640000000000380044024403FC077
:1035A000004000000380054005400340000000008B
:1035B00004401FC0244024402000000002E00550C9
:1035C00005500650042020403FC00440040003C0C2
:1035D00000400000044027C0004000000000001030
:1035E0000010041027E00000000020403FC0014010
:1035F000070004C00440204020403FC0004000407D
:10360000000007C0040007C0040003C0000004401D
:1036100007C00440040003C00040000003800440D1
:10362000044003800000041007F0045004400380AD
:103630000000000003800440045007F00010044024
:1036400007C00240040004000000000006400540DE
:10365000054004C00000000004001F80044000403A
:103660000000040007800040044007C00040040040
:10367000070004C0018006000400060001C0070026
:1036800001C006000000044006C0010006C004405E
:1036900000000410071004E0018006000400000090
:1036A000044005C006400440000000000000040083
:1036B0007BE040200000000000000000FFF0000060
:1036C0000000000040207BE00400000000004000FB
:1036D00080004000200020004000000000000000AA
:1036E00000000000000000000000000000000000DA
:1036F0001FCC000C0000000000000000080030009B
:1037000060000800300060000000022003FC1E2062
:10371000022003FC1E200220000000000E181104ED
:103720003FFF10840C78000000000F0010840F3859
:1037300000C0077818840078000000780F8410C457
:1037400011240E9800E4008400080800680070004E
:103750000000000000000000000000000000000069
:1037600007E0181820044002000000004002200476
:10377000181807E00000000000000240024001802D
:103780000FF00180024002400000008000800080B5
:103790000FF800800080008000000001000D000E86
:1037A0000000000000000000000000000080008019
:1037B000008000800080008000800000000C000C71
:1037C00000000000000000000000000000060018DB
:1037D00000600180060018002000000007F00808C3
:1037E00010041004080807F0000000000804080492
:1037F0001FFC000400040000000000000E0C101468
:103800001024104411840E0C000000000C18100449
:103810001104110412880C700000000000E0032065
:10382000042408241FFC0024000000001F981084BA
:1038300011041104108810700000000007F00888BF
:103840001104110418880070000000001C00100012
:1038500010FC13001C001000000000000E38114482
:103860001084108411440E38000000000700088CFA
:1038700010441044088807F0000000000000000019
:10388000030C030C00000000000000000000000119
:103890000106000000000000000000000080014060
:1038A0000220041008081004000002200220022058
:1038B000022002200220022000000000100408085C
:1038C0000410022001400080000000000E001200E1
:1038D000100C106C10800F00000003E00C1813E4B3
:1038E000142417C4082807D000000004003C03C4B7
:1038F0001C40074000E4001C000410041FFC1104DD
:10390000110411040E880070000003E00C1810046C
:103910001004100410081C10000010041FFC1004F8
:1039200010041004080807F0000010041FFC110424
:10393000110417C410040818000010041FFC11041F
:10394000110017C010000800000003E00C1810045C
:10395000100410441C780040000010041FFC108468
:103960000080008010841FFC10040000100410046C
:103970001FFC1004100400000000000300011001EF
:1039800010011FFE10001000000010041FFC1104A5
:1039900003801464181C1004000010041FFC1004A1
:1039A000000400040004000C000010041FFC1F00B1
:1039B00000FC1F001FFC1004000010041FFC0C047E
:1039C000030000E010181FFC100007F008081004A6
:1039D00010041004080807F0000010041FFC1084F5
:1039E0001080108010800F00000007F008181024CD
:1039F0001024101C080A07F2000010041FFC110418
:103A0000110011C011300E0C000400000E1C110436
:103A10001084108410441C3800001800100010049A
:103A20001FFC100410001800000010001FF8100404
:103A30000004000410041FF8100010001E0011E024
:103A4000001C007013801C0010001FC0103C00E020
:103A50001F0000E0103C1FC000001004180C1634BA
:103A600001C001C01634180C100410001C0013040F
:103A700000FC13041C00100000000804101C10645B
:103A8000108413041C041018000000000000000043
:103A90007FFE4002400240020000000030000C00A7
:103AA00003800060001C0003000000004002400290
:103AB00040027FFE00000000000000000000200027
:103AC0004000400040002000000000010001000113
:103AD0000001000100010001000100004000400061
:103AE00020000000000000000000000000980124F9
:103AF00001440144014400FC000410001FFC008844
:103B000001040104008800700000000000700088BB
:103B10000104010401040088000000000070008816
:103B20000104010411081FFC0004000000F8014416
:103B300001440144014400C80000000001040104E4
:103B40000FFC1104110411001800000000D6012917
:103B50000129012901C90106000010041FFC00848D
:103B600001000100010400FC00040000010419042C
:103B700019FC000400040000000000000003000124
:103B80000101190119FE0000000010041FFC0024AF
:103B9000004001B4010C01040000000010041004F6
:103BA0001FFC0004000400000000010401FC0104EB
:103BB000010001FC0104010000FC010401FC00847F
:103BC00001000100010400FC0004000000F80104F1
:103BD00001040104010400F80000010101FF008557
:103BE00001040104008800700000000000700088DB
:103BF00001040104010501FF00010104010401FCAD
:103C000000840104010001800000000000CC0124B8
:103C1000012401240124019800000000010001009A
:103C200007F80104010400000000010001F800048D
:103C300000040004010801FC00040100018001707F
:103C4000000C001001600180010001F0010C003047
:103C500001C00030010C01F0010000000104018CE2
:103C600000740170018C01040000010101810171E7
:103C7000000E001801600180010000000184010CA9
:103C8000013401440184010C000000000000000028
:103C9000000001003EFC4002400200000000000065
:103CA0000000FFFF00000000000000004002400292
:103CB0003EFC0100000000000000000060008000E9
:103CC00080004000400020002000000000000000B4
:103CD00000000000000000000000000000000000E4
:103CE00000000000000000000000000000000000D4
:103CF000000000000000000000000000000F8038FD
:103D00000FFE380F803800000000000000000000A7
:103D100000000000000000000100000600000C0090
:103D2000003800003100000600000C0000380000E0
:103D30003000000000000000000061800067F8070C
:103D4000F98000618000618000618000618000670F
:103D5000F807F9800061800000000000000000000A
:103D600001C0E003E0F00630080418081FFFFE045D
:103D70000E080787F00381E000000000000001F05A
:103D800000060C00040408060C7001F9C0000E00C7
:103D9000003BE000EC18070808040C180003E000E2
:103DA00000000001E00007F003F818041C080417E5
:103DB0000807E1D003C0E00023B0003C0800200861
:103DC000000010000000000000010000310000327F
:103DD00000001C00000000000000000000000000C7
:103DE00000000000000000000000000000000000D3
:103DF000000000000000000000007F0001FFC0077D
:103E000080F00C00181000042000020000000000E8
:103E1000002000021000040C00180780F001FFC011
:103E2000007F000000000000000000000000000013
:103E30000000000000004200006600006600003C38
:103E40000000180003FFC0001800003C00006600DE
:103E500000660000420000000000080000080000AA
:103E6000080000080000080001FFC000080000086A
:103E70000000080000080000080000000000000129
:103E800000003100003200001C00000000000000B3
:103E90000000000000000000000000000000000022
:103EA00000000800000800000800000800000800EA
:103EB00000080000080000080000080000080000DA
:103EC0000000000000000000000038000038000082
:103ED00038000000000000000000000000000000AA
:103EE00000000000000000000000000600001C00B0
:103EF0000070000180000E0000380000C0000700C4
:103F0000001C0000300000000000000000007F8066
:103F100001FFE00380700600180400080400080692
:103F2000001803807001FFE0007F800000000000A7
:103F30000000000001000801000801000803FFF86C
:103F400007FFF8000008000008000008000000005B
:103F5000000000000001C03802C0580400980401AD
:103F600018040218040418061C1803F81801E0F8D5
:103F700000000000000000000001C0E003C0F004E9
:103F8000000804080804080806180803F41801E7E4
:103F9000F00001E00000000000000000000003004D
:103FA000000D0000110000610000810803010807F6
:103FB000FFF80FFFF80001080001080000000000F2
:103FC000000000E007FCD0060808061008061008EC
:103FD000061008061838060FF00607C0000000009B
:103FE0000000000000003F8001FFE0038430020871
:103FF00018041008041008041008071810030FF024
:104000000007C000000000000000000003C000071F
:1040100000000600000600F80607F806180006E093
:104020000007000006000000000000000001E1E0C1
:1040300003F7F0063410041808041808040C0804E8
:104040000C0806161803F3F001C1E00000000000A0
:104050000000F80003FC30030638040208040208DC
:104060000402080404100308F001FFC0007F0000F0
:104070000000000000000000000000000000000040
:104080000000703800703800703800000000000038
:104090000000000000000000000000000000000020
:1040A000000000000000301A00301C00000000007A
:1040B0000000000000000000000000000000000000
:1040C0000008000014000022000041000080800170
:1040D000004002002004001008000800000000005A
:1040E000000021000021000021000021000021002B
:1040F000002100002100002100002100002100001B
:104100000000000000000000080008040010020089
:1041100020010040008080004100002200001400C7
:1041200000080000000000000003C00004C00004FC
:104130000000080038080F380808380810000C3054
:104140000007E00003C000000000000000003F8006
:1041500000FFE0038070020F1006708804C088041E
:104160008308047F8802C09003012000FE40000005
:10417000080000180001F8003E0801C20007020014
:1041800007E20000FE00001FC80001F80000380030
:10419000000804000807FFF807FFF80408080408EF
:1041A0000804080804080806180803F41801E7F0D2
:1041B0000001E0000000000000003F8001FFE0037C
:1041C00080700200180400080400080400080400BD
:1041D000100600200780C000000004000807FFF858
:1041E00007FFF8040008040008040008040018028F
:1041F000001003807001FFE0007F800000000400D9
:104200000807FFF807FFF80408080408080408086E
:10421000040808043E0804000806001801006000B5
:10422000000004000807FFF807FFF8040808040866
:1042300000040800040800043E0006000006000018
:10424000018000000000000000003F8001FFE0034B
:104250008070060018040008040208040208020323
:10426000F00783F000020000020004000807FFF8D6
:1042700007FFF80408080008000008000008000014
:10428000080004080807FFF807FFF804000800000A
:104290000000000004000804000804000807FFF8FC
:1042A00007FFF804000804000804000800000000EC
:1042B00000000000000000060000070000010400EC
:1042C0000104000104000307FFFE07FFFC040000D7
:1042D00004000004000004000807FFF807FFF804CA
:1042E0000C08001800003E0004C7800503C8060043
:1042F000F804003804001800000804000807FFF85C
:1043000007FFF8040008000008000008000008008B
:104310000008000008000018000060000000040011
:104320000807FFF807800807FC00007FC00003F8BB
:104330000007C000780007800807FFF807FFF804AF
:10434000000804000807FFF807000803C00000E0A9
:1043500000003800001E000007000001C00400F04B
:1043600007FFF8040000000000007F8001FFE00369
:1043700080700600180400080400080600180300F6
:104380003001FFE0007F8000000004000807FFF814
:1043900007FFF804040804040004040004040004F3
:1043A0000400060C0003F80001F00000000000000B
:1043B00000007F8001FFE003807006008804008811
:1043C0000400C806003C03003E01FFE6007F8400B5
:1043D000000004000807FFF807FFF80408080408B5
:1043E00000040C00040F00040BC00610F003F038AA
:1043F00001E00800000800000001E0F803F03006CA
:104400003010041808041808040C08040C080206EC
:10441000180207F00781E00000000180000600009C
:1044200004000004000004000807FFF807FFF80478
:1044300000080400000400000600000180000400E1
:104440000007FFE007FFF004001800000800000864
:1044500000000800000800000804001007FFE00446
:10446000000004000006000007E00007FE00041F33
:10447000E00001F80000380001E0043E0007C00041
:1044800006000004000004000007E00007FFC0046D
:104490001FF80007C007F80007FF80043FF8000777
:1044A000C004F80007000004000000000004000839
:1044B00006001807C07805F1C8003E00001F800400
:1044C00063E80780F80600180400080000000400F4
:1044D0000006000007800007E008047C08001FF8C1
:1044E0000007F800180804E00807000006000004B0
:1044F00000000000000100080600380400F8040372
:10450000E8040F08047C0805F00807C00807001835
:104510000400600000000000000000000000000037
:1045200000000000003FFFFE2000022000022000EB
:104530000220000220000200000000000000000035
:1045400008000007000000C000003800000600005E
:1045500001C000003000000E00000100000000005B
:1045600000000000200002200002200002200002C3
:104570002000023FFFFE00000000000000000000DD
:104580000000000000000000000000080000100013
:104590000030000020000030000010000008000083
:1045A0000000000000000000010000010000010008
:1045B00000010000010000010000010000010000F6
:1045C00001000001000001000001000000000000E7
:1045D000000000200000200000100000100000007B
:1045E00000000000000000000000000000000000CB
:1045F000000000F00019F8001B180022080026082F
:10460000002408002410003FF8001FF800000800F4
:10461000001800000004000007FFF80FFFF000186A
:1046200018001008002008002008003018001FF0B3
:10463000000FC00000000000000007C0001FF000D5
:104640001830002008002008002008003C08001C4A
:10465000100000600000000000000000000007C023
:10466000001FF0003818002008002008002008046F
:10467000101007FFF80FFFF000001000000000000E
:10468000000000000007C0001FF0001230002218D8
:10469000002208002208003208001E10000E200030
:1046A000000000000000200000200800200801FF9A
:1046B000F803FFF80620080420080420080720005B
:1046C00003000000000000000000000E000E6E005D
:1046D0001FF30031B10020B10020B1003191001F63
:1046E00013002E1E00200E00300000000004000801
:1046F00007FFF80FFFF8001008002000002000005E
:104700002008003FF8001FF800000800000000002B
:1047100000000000002008002008002008063FF8E4
:10472000063FF80000080000080000080000000034
:104730000000000000000000000003000003002053
:1047400001002001002003063FFE063FFC000000A0
:1047500000000000000000000004000807FFF80F40
:10476000FFF8000188000300002FC00038F8002087
:1047700038002008000008000000000000000000D1
:1047800004000804000804000807FFF80FFFF80001
:1047900000080000080000080000000000000020E1
:1047A00008003FF8003FF8001008002000003FF824
:1047B000003FF8001008002000003FF8003FF8001C
:1047C0000008000000002008003FF8003FF800103B
:1047D00008001000002000002008003FF8001FF82B
:1047E0000000080000000000000007C0000FF000FB
:1047F0001830003008002008002008003008001899
:1048000030000FF00007C000000000000000200191
:10481000003FFF003FFF00101100200900200800AA
:104820002008003038001FF0000FC000000000001A
:10483000000007C0001FF000381800200800200802
:10484000002009001011001FFF003FFF00000100C1
:104850000000002008002008002008003FF8003F6A
:10486000F8000808001008002008002000003000B0
:10487000003000000000000000000000000C780084
:104880001E18003308002308002108002188002199
:10489000980030F0003860000000000000002000A8
:1048A00000200000200000FFF003FFF800200800B7
:1048B0002008002008000030000000000000000078
:1048C00000002000003FF0007FF800001800000802
:1048D000000008002010003FF8007FF000001000EA
:1048E0000000000000002000003000003C00003FFD
:1048F000800023F0000078000070002380003C005E
:10490000003000002000002000003C00003FE000DC
:1049100023F80000E0002700003E00003FE00021F7
:10492000F80001E0003E0000200000000000200828
:10493000002008003838003E680027800003C800C7
:104940002CF8003838002018002008000000000073
:1049500000002000003003003C01003F830023ECF6
:10496000000070002380003C0000200000200000B8
:10497000000000000000000000380800203800207F
:10498000F80023E8002F88003E08003808002018AF
:1049900000007000000000000000000000000000A7
:1049A00000000000000008000014001FF7FC3000A9
:1049B00006200002000000000000000000000000CF
:1049C000000000000000000000000000FFFFFF00EA
:1049D00000000000000000000000000000000000D7
:1049E000000000002000023000061FF7FC00140049
:1049F00000080000000000000000000000000000AF
:104A000000000000001800006000004000004000AE
:104A10000020000010000008000004000004000056
:104A20000C00001000000000584B0008000000209F
:104A3000600800006C010008604D0008600800205C
:104A4000300E0000D00100081001000043000000FB
:104A5000F8FFFFFF0040404040404040404041419F
:104A60004141414040404040404040404040404043
:104A700040404040400502020202020202020202DD
:104A800002020202022020202020202020202002DA
:104A9000020202020202909090909090101010106A
:104AA0001010101010101010101010101010101006
:104AB000020202020202888888888888080808089A
:104AC0000808080808080808080808080808080866
:104AD000020202024000000000000000000000008E
:104AE00000000000000000000000000000000000C6
:104AF00000000000000000000000000000000000B6
:104B000000000000000000000000000000000000A5
:104B10000000000000000000000000000000000095
:104B20000000000000000000000000000000000085
:104B30000000000000000000000000000000000075
:104B40000000000000000000000000000000000065
:104B50000000000000000000120001200501020317
:104B60000404E00A060708090204060800016004BC
:104B7000A24A040B612850110003050911FF118995
:104B800005C300E000F000F82A00083A4428FF11AD
:104B9000AA440001500B830138448292927401832D
:104BA0001120087C44FF017D7D7D04410550047D7A
:104BB00001FF8D910271A1023B017E81419149F279
:104BC0000101011BC230083F3F0303F31311011021
:104BD0000601F1116181402005816111F1473341E6
:104BE0004107200401C12120A321C114311931370B
:104BF000040736D33303033F3F426006E0E0000082
:104C00007FA8167FB440040618060A10080000406A
:104C1000407F4040A410041F204001A3201F1433F4
:104C200000600E6004300C03460534C21004070710
:104C30000601700904040484444444840780050484
:104C400084C4041501120A71112140073D0707C9E8
:104C5000200F0000101814121100000F1010100F78
:104C60000F131F1015600D081012120D0000180010
:104C7000000D120A51295130015E01528001013BA1
:104C80004514047F030CA915DE1C0538545458251F
:104C900003080A2004047800003C40407C200009FE
:104CA0002CFFAAAAAA280800FF681006264949492D
:104CB00032101005020408100F0D6F00049D01044E
:104CC0000D9D0004156343F80801240500F81860E1
:104CD000E82404806018235720202923E01021A312
:104CE00010E01449B4313908043C886818630D1584
:104CF000FF037DEA039DFF0371144DFF031D0604AE
:104D00003D2E040942E91C0640202020C04A04111F
:104D10000721EA3E40520452600E81187129510762
:104D20000D4769031C060C0A0A090C0004156B2DBB
:104D300000042F080FDB0610060C0809090E071DDA
:104D4000180430050909090F0A512951070DFF0000
:104D5000040D2200040D15FC05D6033F00000000E1
:0400000508000131BD
:00000001FF
