:020000040800F2
:100000004028002021540008051D0008071D000895
:100010000B1D00080F1D0008131D00080000000044
:10002000000000000000000000000000171D000894
:10003000191D0008000000001B1D00081D1D000800
:100040003B5400083B5400083B5400083B54000854
:100050003B5400083B5400083B5400083B54000844
:100060003B5400083B5400083B5400083B54000834
:100070003B5400083B5400083B5400083B54000824
:100080003B5400083B5400083B5400083B54000814
:100090003B5400083B5400083B5400083B54000804
:1000A0003B540008A52100083B5400083B540008BD
:1000B0003B540008453200085D3200083B540008FC
:1000C0003B5400083B5400083B5400083B540008D4
:1000D0003B540008C74E0008DD4F000815510008CA
:1000E0003B5400083B5400083B5400083B540008B4
:1000F0003B5400083B5400083B5400083B540008A4
:100100003B5400083B540008753200083B5400087B
:100110006D52000887530008F9170008B51B000846
:100120003B5400083B5400083B5400083B54000873
:1001300000F002F800F06BF80AA090E8000C82448E
:100140008344AAF10107DA4501D100F060F8AFF26B
:10015000090EBAE80F0013F0010F18BFFB1A43F0A5
:10016000010318476CD600008CD600000A444FF0FB
:10017000000C10F8013B13F0070408BF10F8014B06
:100180001D1108BF10F8015B641E05D010F8016B4B
:10019000641E01F8016BF9D113F0080F1EBF10F8AF
:1001A000014BAD1C0C1B09D16D1E58BF01F801CBD2
:1001B000FAD505E014F8016B01F8016B6D1EF9D555
:1001C0009142D6D37047000000230024002500266A
:1001D000103A28BF78C1FBD8520728BF30C148BFAA
:1001E0000B607047642907F0F981632907F0C98221
:1001F000002070471FB507F0B7FB04000020002166
:1002000007F00EFC401C60601FBD10B510BD07F06C
:1002100086FB1146FFF7EEFF00F036F807F0B6FB5D
:1002200003B4FFF7F2FF03BC04F0DCFD30BF72B68D
:1002300062B680F3088870470020FE490860FE49D6
:100240000860FE490860FE490860FE490860FE49F2
:100250000860FE490860FE490860FE490860012008
:10026000FD4908700020FD490860FD490860FD490E
:100270000860FD490860FD490860FD490860FD49C6
:100280000870FD490870704708B500BF092004F0E8
:1002900050FD482004F0F0FB4FF4A06005F0E0F8BA
:1002A0004FF4E13004F0C3FD4FF4E13004F048FEB8
:1002B000642004F019FC04F095F802F049FE02F005
:1002C000A5FE02F0EDFE02F035FF03F060F801F04C
:1002D00017FE01F081FE02F0CAFC642004F004FC69
:1002E00004F0BAFA0021402004F0B6F90C23E3A28E
:1002F0001946002002F043FB0C23E3A21C2100203E
:1003000002F03DFB02F093F94FF4FA7004F0ECFBBD
:1003100002F0B0F9092141F61F4001F04EFF4FF401
:10032000E13004F0A1FE4FF4E13004F030FF4FF46F
:10033000E13004F0D8FF4FF4967004F0D5FB04F0E0
:10034000C6FA04F09BFA0121D14806F01CFE0022F7
:100350001146D0A007F0D8F84FF4967004F0C4FB13
:1003600050220121CBA007F0CFF84FF4967004F093
:10037000BBFB08220221C7A007F0C6F84FF4967015
:1003800004F0B2FB6FF01D020321C2A007F0BCF81D
:100390004FF4967004F0A8FB00220421BDA007F0E2
:1003A000B3F84FF4967004F09FFB4021002004F056
:1003B00053F901F014BA0C23B8A20021084602F048
:1003C000DEFA02F034F981E0B9498888002104F0AE
:1003D000DEFAB8490860002004F0FEF8B64908606B
:1003E000002001F009FEB549087008460078012890
:1003F00007D0B0480068022803D0AF480068012841
:100400000AD1AF480068401CAD4908600846006842
:10041000072801DB01200860A648006801280AD1EE
:10042000A7480068401EA6490860084600680028E2
:1004300001DC0620086002F01DF90C2397A20021C0
:10044000084602F09CFA0C20012300909C481021E1
:100450000268002002F0BFFA9948006807282FD2EE
:10046000DFE800F02E0B0412192027000C2395A2C0
:100470001021082002F083FA22E00C2396A210211A
:10048000082002F07CFA1BE00C2398A2102108201F
:1004900002F075FA14E00C2397A21021082002F054
:1004A0006EFA0DE00C2397A21021082002F067FAE3
:1004B00006E00C2396A21021082002F060FA00BF8B
:1004C00000BF02F0B4F8322004F00EFB7C48006854
:1004D00000283FF479AF79480078022808D07548A1
:1004E0000068052804D0744800680D287FF46CAFBC
:1004F00002F0C0F80C20012300907148002102682E
:10050000084602F068FA0C2383A20021184602F084
:1005100036FA02F08CF84FF4FA7004F0E5FA02F0C3
:10052000A9F867480068072881F05881DFE810F0D3
:1005300056098401070026087F08F808300941F6AB
:100540001F41312001F0A6FD4021002004F084F875
:100550006EE103F032FD052004F0C6FA54498888A4
:10056000002104F014FA53490860002001F044FD12
:1005700052490870012004F02FF84F49086000200C
:1005800004F048F8664908604B48006809280AD119
:10059000644800680A2803D105206249086002E027
:1005A0000A2060490860444800680B2803D1802075
:1005B000224908600BE0404800680C2804D16FF025
:1005C0007F001E49086002E000201C490860544872
:1005D00000680E2803D037480068072808D1052096
:1005E0005149086008460021026850A006F08CFFBF
:1005F0004B480068102803D02E480068082809D10D
:100600006FF004004849086008460021026847A0CE
:1006100006F07AFF42480068052803D025480068A4
:10062000012805D143480068401C4249086083E026
:100630008FE00000C4000020C8000020DC00002083
:100640004001002048010020240100203C0100203E
:10065000280100204C010020E5000020640100205A
:10066000680100206C01002070010020740100204E
:100670007801002060010020610100202D2D4E43F3
:100680004550552D2D0000004349453531300000BF
:100690000024014053256425640D0A0057686963EE
:1006A000682050726F6772616D3F28312D362900C6
:1006B0002C1C002000000020D40000200800002096
:1006C000040000202D5053325F72656D6F746520F9
:1006D000636F6E74726F6C002D4175746F2052756C
:1006E0006E206F6620636875736169002D72756E88
:1006F00020546573740000002D4B65792054657398
:10070000740000002D58756E6A695465737400009A
:100710002D4E6F6E6500000050726F6772616D0044
:10072000D8000020C0000020EC0000204D256425EA
:10073000640D0A00E800002008460068042801DD76
:10074000042008600022F9480168AFF2200006F09A
:10075000DBFEF7480068072803D0F6480068042845
:1007600011D1F2480068401EF04908600846006850
:10077000012801DA012008600022EC480168AFF28C
:10078000540006F0C1FEEA4800680F2803D0E9488B
:10079000006805280BD16FF00400E749086008469F
:1007A0000268E2480168AFF27C0006F0ADFEE04866
:1007B00000680D2803D0DF48006802280AD1052010
:1007C000DD49086008460268D8480168AFF2A40015
:1007D00006F09AFED64800680A2803D0D54800687B
:1007E000032809D10020D449086008460421026882
:1007F000AFF2601006F088FECD480068092803D0EB
:10080000CC480068062809D12320CB490860084657
:1008100004210268AFF2841006F076FEC748007823
:10082000012805D101F026FF0020C549086000E03D
:100830008FE600BF00F0D2BF0020C249086041F639
:100840001F41312001F026FC41F61F41632001F0D9
:100850004DFCBDA006F058FEFDE303F031FAB948A7
:1008600000680A2838D2DFE810F00A0038000D02CC
:10087000120426046206630664066F068406FFF708
:10088000DBFC4FF47A70B2490860B249086000207E
:10089000B14908606FF06300B049086000BFAC4820
:1008A000006802F003FDB0F5D37FF8DCA9480068CA
:1008B00002F0FCFCB0F5D37FF1DC0020A649086013
:1008C0006420A64908604FF4167004F00DF9012069
:1008D0009C490860FFF7B0FCD8E364209E4908609B
:1008E00000209E4908604FF47A7004F0FDF84FF440
:1008F0007A7004F0F9F84FF47A7004F0F5F8FFF725
:100900009BFCFFF799FC0120954908705A209549F6
:10091000086002209449086000BF914800780128CF
:10092000FBD0FFF789FCFFF787FC01208C4908709A
:1009300000208C4908608C4908604FF47A7004F0FC
:10094000D3F8FFF779FC6FF063008349086000205B
:10095000824908604FF4487004F0C6F8FFF76CFC59
:100960004FF47A7004F0C0F84FF47A7004F0BCF8D9
:100970004AE075A006F0C8FD40F2145004F0B4F847
:100980004FF4617004F0B0F803F09AF9774800680A
:10099000401C7649086008460068052834DD0020C0
:1009A0006D4908606FF063006C4908604FF4167081
:1009B00004F09AF84FF4167004F096F8FFF73CFC38
:1009C00061A006F0A1FD40F2145004F08DF840F251
:1009D000145004F089F840F2145004F085F8002017
:1009E0005D49086064205D4908604FF4167004F0AA
:1009F0007BF84FF4167004F077F8FFF71DFC03F056
:100A00005FF9002059490860594800680028B0D0B3
:100A100064205149086000205049086000BF5548D3
:100A2000006802F043FCB0F5967FF8DC00204A49EC
:100A300008606FF06300494908604FF4966004F065
:100A400053F8FFF7F9FB01204B4908706FF0630082
:100A50004A49086001204A49086000BF46480078BA
:100A60000128FBD0FFF7E8FBFFF7E6FB01203C493C
:100A7000087064203B49086003203B49086000BFC0
:100A8000374800780128FBD0FFF7D6FB64203249B5
:100A9000086000203149086000BF3648006802F055
:100AA00005FCB0F5967FF8DCFFF7C6FBFFF7C4FB4B
:100AB00001202B49087000202A4908602A49086053
:100AC0004FF47A7004F010F84FF47A7004F00CF8D8
:100AD000FFF7B2FBFFF7B0FB0120274908700020A9
:100AE00026490860264908604FF47A7003F0FCFF3D
:100AF0004FF47A7003F0F8FFFFF79EFBA7E0214860
:100B00000068401C1F4908600846006803283FDD54
:100B100003201D490870164800681C4908601448E5
:100B20004068486012488068886095E0E8000020CE
:100B3000D800002000000020EC0000200800002069
:100B400004000020AC00002056710D0A00000000D7
:100B5000FC00002000010020C4000020C80000208C
:100B6000600100206401002068010020F0000020E6
:100B700058170020F80000206101002070010020BB
:100B800074010020F4000020E70000205C01002038
:100B90006FF009020021AFF2045006F0B5FC4FF4EB
:100BA0007A7003F0A1FF4FF47A7003F09DFFFEA06E
:100BB00006F0AAFC4FF47A7003F096FF4FF47A70B7
:100BC00003F092FF4FF47A7003F08EFF002211467B
:100BD000AFF2405006F098FC4FF47A7003F084FFB7
:100BE0004FF47A7003F080FFEFA006F08DFC4FF415
:100BF0007A7003F079FF4FF47A7003F075FF4FF4C9
:100C00007A7003F071FF0A220021AFF2785006F0EB
:100C10007BFC4FF47A7003F067FF4FF47A7003F0B7
:100C200063FFE1A006F070FC4FF47A7003F05CFF04
:100C30004FF47A7003F058FF4FF47A7003F054FFCA
:100C4000DB480078022802DA0020D9490870D84829
:100C500000780328FFF653AF00BFD6A006F054FC7F
:100C60004FF4967003F040FF4FF4967003F03CFF92
:100C70004FF4967003F038FF0220D0490860FFF768
:100C8000DBFA29E6CBA006F03FFCCD48CD49096848
:100C900050F82100CC49096888427DD16FF063008B
:100CA000CA4908600020CA4908604FF4167003F072
:100CB0001BFF4FF4167003F017FF4FF4167003F08C
:100CC00013FFFFF7B9FAFFF7B7FA0020BF49086032
:100CD0006420BF4908604FF4966003F005FF4FF4AD
:100CE000966003F001FFFFF7A7FA0120B9490870E9
:100CF0006420B94908600120B849086000BFB548C0
:100D000000780128FBD0FFF797FAFFF795FA00204B
:100D1000AE4908605020AE4908604FF4966003F079
:100D2000E3FEFFF789FA23220421AFF2986006F070
:100D3000EBFB4FF4967003F0D7FE4FF4967003F080
:100D4000D3FE4FF4967003F0CFFEA5A006F0DCFBB7
:100D50004FF4967003F0C8FE4FF4967003F0C4FE93
:100D60004FF4967003F0C0FE64209849086000209C
:100D70009749086000BF9C48006802F097FAB0F5F8
:100D8000967FF8DC0020914908606FF0630090497D
:100D900008604FF4966000E01CE003F0A5FEFFF74A
:100DA0004BFA01208B4908706FF063008A49086094
:100DB00003208A49086000BF864800780128FBD0DC
:100DC000FFF73AFA7F480068401C7E49086003201C
:100DD0007A4908607A487B49096850F821007A49C5
:100DE000496888427ED1FFF727FA002077490860DA
:100DF0006420774908604FF4966003F075FE4FF465
:100E0000617003F071FEFFF717FA01207149087055
:100E100064207149086001207049086000BF6D4876
:100E200000780128FBD0FFF707FA66480068401CED
:100E3000644908604FF47A7003F056FEFFF7FCF93E
:100E40000020624908605020614908604FF49660B4
:100E500003F04AFEFFF7F0F94FF47A7003F044FE16
:100E60004FF47A7003F040FE23220421AFF2DC70CD
:100E700006F04AFB4FF4967003F036FE4FF496707E
:100E800003F032FE4FF4967003F02EFE54A006F0ED
:100E90003BFB4FF4967003F027FE4FF4967003F07F
:100EA00023FE4FF4967003F01FFE002047490860B0
:100EB0006FF06300464908604FF4966003F014FE3B
:100EC000FFF7BAF90120434908706FF06300424907
:100ED000086003204149086000BF3E4800780128AF
:100EE000FBD000E004E0FFF7A7F9032033490860D6
:100EF00033483449096850F82100334989688842E9
:100F000051D16420314908600020314908604FF414
:100F1000167003F0E9FD4FF42F7003F0E5FD4FF478
:100F2000167003F0E1FDFFF787F9FFF785F9002060
:100F3000264908606420264908604FF4966003F053
:100F4000D3FD4FF4966003F0CFFDFFF775F9012054
:100F50002049087064202049086001201F4908606A
:100F600000BF1C4800780128FBD0FFF765F9154841
:100F70000068401C13490860FFF75EF90020134920
:100F800008605020124908604FF4966003F0ACFDF1
:100F9000FFF752F94FF47A7003F0A6FD23220421E3
:100FA000AFF6101022E071E056630D0A0000000059
:100FB000E700002044300D0A00000000AC000020D3
:100FC00058170020580100205C010020C4000020B8
:100FD000C800002061010020700100207401002081
:100FE00044380D0A00000000F800002006F08CFADA
:100FF0004FF4967003F078FD4FF4967003F074FD93
:101000004FF4967003F070FDAFF22C0006F07CFAFE
:101010004FF4967003F068FD4FF4967003F064FD92
:101020004FF4967003F060FD6FF06300FE490860B6
:101030000020FE49086000BFFD48006802F036F954
:10104000B0F5967FF8DC0020F74908606FF0630088
:10105000F649086000E08FE24FF4966003F044FD2B
:10106000FFF7EAF80120F34908706FF06300F249D6
:1010700008600320F149086000BFEE4800780128AD
:10108000FBD0FFF7D9F80320ED49086073E2012097
:10109000EC4908706420EC4908600120EB490860C5
:1010A00000BFE84800780128FBD0FFF7C5F804200E
:1010B000E34908605FE2E6480068401EE54951F8F0
:1010C000200001287ED16420D74908606FF05900C4
:1010D000D64908604FF4617003F006FDDEA006F00B
:1010E00013FA4FF47A7003F0FFFC4FF47A7003F0B8
:1010F000FBFC4FF47A7003F0F7FC4FF47A7003F0C6
:10110000F3FC00220421AFF6742006F0FDF94FF441
:101110007A7003F0E9FC4FF47A7003F0E5FCAFF26B
:10112000401006F0F1F94FF47A7003F0DDFC4FF453
:101130007A7003F0D9FCFFF77FF80120BD490870F1
:101140006420BD4908600120BC49086000BFB9485F
:1011500000780128FBD0FFF76FF86FF06300B24909
:1011600008600020B14908604FF4617003F0BCFCD6
:101170004FF4967003F0B8FCFFF75EF80120B14918
:1011800008706FF06300B04908600120AF49086043
:1011900000BFAC4800780128FBD0FFF74DF8642071
:1011A000A14908600020A149086000BFA04800686C
:1011B00002F07CF8B0F5967FF8DCFFF73DF8FFF71A
:1011C0003BF800E024E0002097490860642097493C
:1011D00008604FF4617003F087FC4FF4617003F016
:1011E00083FCFFF729F8FFF727F8012091490870E1
:1011F00064209149086002209049086000BF8D4832
:1012000000780128FBD0FFF717F802208C4908600E
:101210008F480068401E8F4951F8200002287DD178
:10122000502081490860002080490860C82003F0F0
:101230005BFCFFF701F800207B4908606FF0590064
:101240007A4908604FF4617003F04EFCFEF7F4FF3A
:101250000120784908706FF0630077490860012029
:101260007649086000BF734800780128FBD0002051
:101270006D4908605A206D4908604FF4967003F07C
:1012800033FCFEF7D9FF74A006F03EF94FF47A70F4
:1012900003F02AFC4FF47A7003F026FC4FF47A70C6
:1012A00003F022FC4FF47A7003F01EFC00220421AC
:1012B000AFF6204006F028F94FF47A7003F014FCE2
:1012C0004FF47A7003F010FCAFF2EC2006F01CF93A
:1012D0004FF47A7003F008FC4FF47A7003F004FCCA
:1012E000FEF7AAFF012053490870642052490860A4
:1012F00001205249086000BF4E4800780128FBD009
:10130000FEF79AFF6FF063004749086000204749E5
:1013100008604FF4617003F0E7FB00E04DE04FF42C
:10132000967003F0E1FBFEF787FF01204549087046
:101330006FF063004449086001204449086000BF21
:10134000404800780128FBD0FEF776FF642036493C
:10135000086000203549086000BF3548006801F08A
:10136000A5FFB0F5967FF8DCFEF766FFFEF764FF99
:1013700000202D49086064202C4908604FF46170FA
:1013800003F0B2FB4FF4617003F0AEFBFEF754FFC5
:10139000FEF752FF012027490870642026490860A3
:1013A00002202649086000BF224800780128FBD0AF
:1013B000FEF742FF02202249086025480068401ECF
:1013C000244951F8200003287ED164201649086082
:1013D000002016490860C82003F086FBFEF72CFFAA
:1013E0001DA006F091F84FF47A7003F07DFB4FF4E6
:1013F0007A7003F079FB4FF47A7003F075FB4FF4C9
:101400007A7003F071FB00220421AFF6785006F0E9
:101410007BF84FF47A7003F067FB4FF47A7003F0B7
:1014200063FBAFF244401BE0C4000020C800002072
:10143000F8000020610100207001002074010020EC
:10144000AC00002060010020640100206801002041
:10145000580100205817002044320D0A00000000F7
:1014600006F052F84FF47A7003F03EFB4FF47A70B6
:1014700003F03AFBFEF7E0FE6FF06300FE49086000
:101480000020FE4908604FF4617003F02DFBC82076
:1014900003F02AFBFEF7D0FE0120F94908706FF037
:1014A0006300F84908600120F749086000BFF4486C
:1014B00000780128FBD0FEF7BFFE6420EE490860EB
:1014C0000020EE49086000E030E000BFEF4800680F
:1014D00001F0ECFEB0F5967FF8DCFEF7ADFEFEF70E
:1014E000ABFE0020E44908606420E44908604FF442
:1014F000617003F0F9FA4FF4167003F0F5FAFEF795
:101500009BFEFEF799FE0120E14908706420E14945
:1015100008600220E049086000BFDD48007801282B
:10152000FBD0FEF789FE0220DC49086023E022E0C0
:1015300021E00120D24908700020D2490860D24938
:10154000086002F03AFD16E0FEF776FE0120D04971
:1015500008706420CF4908600B20CF49086001E083
:1015600002F0D8FDCA4800780128F9D0FEF764FEE1
:1015700001E000BFFEE700BFFFF76FB941F61F4172
:10158000312000F087FD4FE0C5498888012103F034
:10159000FEF9C449086002F093FBC24800680128C4
:1015A00003D17121C0A005F0AFFFBE48006802283A
:1015B00003D16321BCA005F0A7FFBA480068032847
:1015C00003D13021BAA005F09FFFB6480068042877
:1015D00003D13321B6A005F097FFB2480068052873
:1015E00003D10821B4A005F08FFF09E0AFF6A820D1
:1015F00005F08AFF4FF4966003F076FA02F060FB84
:10160000AF4800780028F1D0052003F06DFAA44916
:101610008888012103F0BBF9082805D101F02AF8D8
:101620000020A849086000E0AEE700BFD6E0AFF2B6
:101630007C6005F069FF4FF4967003F055FA4FF4A3
:10164000967003F051FA4FF4967003F04DFA41F69C
:101650001F41312000F01EFD6FF0630086490860D5
:101660000020864908604FF4167003F03DFA4FF4ED
:10167000167003F039FA4FF4167003F035FAFEF7DE
:10168000DBFD00207C49086064207C4908604FF441
:10169000966003F029FA4FF4167003F025FAFEF76E
:1016A000CBFD01207A49087064207A490860012046
:1016B0007949086000BF764800780128FBD0FEF722
:1016C000BBFD4FF47A7003F00FFA4FF47A7003F019
:1016D0000BFA4FF47A7003F007FA232204217A48B8
:1016E00005F012FF4FF4967003F0FEF94FF4967078
:1016F00003F0FAF94FF4967003F0F6F9AFF22070A8
:1017000005F002FF4FF4967003F0EEF94FF4967077
:1017100003F0EAF94FF4967003F0E6F900BFFEE734
:1017200041F61F41312000F0B5FC30E000220321DA
:101730006648006802F03AF9002002F04DFF644963
:10174000086008460068052804D162480068401C0B
:10175000604908605E480068072804D15D48006859
:10176000401E5C4908605A4800680F2804D1574859
:101770000068401E55490860554800680D2804D18E
:1017800052480068401C5149086002F016FCCDE741
:1017900000204249086041F61F41312000F07AFCE8
:1017A0006FF063003549086041F2883003F09CF91E
:1017B00064203149086000203049086041F28830D7
:1017C00003F092F900202C49086006E002F0F5FBD6
:1017D00000221146104602F031F8F7E700BFFEF78D
:1017E000EABD014608467D2900DD7D2011F17D0F0F
:1017F00001DA6FF07C0070472DE9FF5F0020039055
:1018000002900121344805F012F900286ED01A48E0
:101810000068FFF7E6FF1849086018480068FFF7FE
:10182000E0FF164908602D480068FFF7DAFF2B49F2
:1018300008602B48006806F090FA074688460F4972
:10184000096849420C4A1268891A244A12688818A1
:1018500006F083FA0022234BCDE9000106F0F6F8EA
:1018600082463A46434606F08FFA054606F046FAA7
:101870001D4908601A483AE0C4000020C800002052
:10188000600100206401002068010020F8000020B1
:10189000610100207001002074010020AC000020D4
:1018A0002C1C0020000000205625630D0A000000BB
:1018B0004425630D0A0000004425640D0A00000061
:1018C0000D170020040000209406000830010020BD
:1018D000D40000202C01002000100040DC0000207B
:1018E000C000002000006040B00000205CE1006803
:1018F00006F033FA82468B46D54909684942D54AF3
:1019000012681144D44A1268881A06F026FA07466B
:101910000022D24B06F09AF852465B46CDE9000110
:1019200006F032FA054606F0E9F9CD490860CD48DF
:10193000006806F012FA05460E46C5490968494294
:10194000C44A1268891AC44A1268881A06F005FA4D
:1019500007460022C14B06F079F882462A463346F4
:1019600006F012FACDE9000106F0C8F9BE49086098
:10197000BC48006806F0F1F9CDE90001B4490968F6
:101980004942B44A12681144B34A1268881806F0F2
:10199000E4F905460022B14B06F058F80746DDE9A8
:1019A000002306F0F1F9824606F0A8F9AF49086075
:1019B000AF48008800F40040002850D0AC480088B0
:1019C000C0F30D09002404E0AA48005DAA490855A7
:1019D000641C4C45F8DB0021A74A601C1154002010
:1019E000A349088010460078512818D11046407845
:1019F0003038A24908601046807830384860104678
:101A0000C07830388860104600793038C860104699
:101A100040793038086110468079303848619648FE
:101A2000007843281BD196480078401E954951F80C
:101A30002010914840783338814210D09048007887
:101A400003280CDA8C48407833388E498C4A127857
:101A500041F822008A480078401C894908708A4869
:101A6000008800F40040C8B187480088C0F30D0921
:101A7000002404E08548005D85490855641C4C45F8
:101A8000F8DB0021824A601C115400207E49088046
:101A9000104605F0DFFD40427E4908607E48008820
:101AA00000F40040C0B17C480088C0F30D09002458
:101AB00004E07A48005D7A490855641C4C45F8DB1F
:101AC0000021774A601C1154002073490880104699
:101AD00005F0C0FD734908607348008800F40040B9
:101AE000C0B171480088C0F30D09002404E06F48BC
:101AF000005D6F490855641C4C45F8DB00216C4AB9
:101B0000601C1154002068490880104605F0A2FDB1
:101B100068490860012001F057FB404266490860AF
:101B2000032001F051FB65490860052001F04CFBE2
:101B300063490860042001F047FB404261490860A6
:101B4000614801685C48006801F06EFC5F4908600C
:101B5000434801685948006801F0B1FC5C490860DD
:101B6000414801685648006801F0F4FC5949086092
:101B70003E4801685348006801F037FD5649086047
:101B800052480168012001F0CCFB51480168022055
:101B900001F0C7FB4F480168032001F0C2FB4E482B
:101BA0000168042001F0BDFB01214C4804F050FF06
:101BB000BDE8FF9F10B50121494804F038FFD8B1B6
:101BC00048480078012807D147480268474801681B
:101BD0004748006801F0EAFE46480078012807D12E
:101BE00045480268454801684548006801F0CEFF55
:101BF00001213B4804F02CFF10BD70B505460C4692
:101C00000DE06D1E24B900221146104601F0CEFEF3
:101C1000012C04D100221146104601F0B7FF002D1F
:101C2000EFD1002070BD70B505460C460BE000BF3B
:101C30004021284605F0BAF80028F9D02178284636
:101C400005F046F8641C20780028F0D170BD000033
:101C5000C8000020C4000020DC000020000060401C
:101C6000B4000020C0000020B8000020BC0000200C
:101C70006C160020681C00200D170020581700204B
:101C8000E70000205C01002074160020881F00205F
:101C9000B31600200001002072160020C01E002094
:101CA000D1160020FC00002070160020F81D002036
:101CB000EF160020F80000200C000020100000208B
:101CC0001400002018000020B00000208C0000202C
:101CD0009000002094000020980000200010004098
:101CE00000140040600100206C0100206801002009
:101CF00064010020610100207801002074010020AF
:101D000070010020704700BFFEE700BFFEE700BF84
:101D1000FEE700BFFEE7704770477047704700005E
:101D20000CB50020019000906C48006840F48030B1
:101D30006A49086000BF6948006800F400300090FC
:101D40000198401C0190009818B90198B0F5A06F57
:101D5000F1D16248006800F4003010B10120009019
:101D600001E0002000900098012843D15C48006801
:101D700040F010005A4908600846006820F003004F
:101D800008600846006840F0020008605348406858
:101D9000524948600846406848600846406840F438
:101DA000806048600846406820F47C10486008461F
:101DB000406840F4E81048600846006840F08070D1
:101DC000086000BF4548006800F000700028F9D0A6
:101DD0004248406820F00300404948600846406897
:101DE00040F00200486000BF3C48406800F00C0032
:101DF0000828F9D10CBD10B5FFF792FF10BD10B542
:101E00003648006840F001003449086008464068E0
:101E10003449084031494860084600683249084062
:101E20002E4908600846006820F4802008600846B3
:101E3000406820F4FE0048604FF41F008860FFF700
:101E4000DAFF4FF000602949086010BD10B500218D
:101E500000200022214B5B6803F00C0121B1042912
:101E600006D0082928D107E0214B224C236027E027
:101E70001F4B204C236023E0184B5B6803F4701069
:101E8000164B5B6803F48032022303EB904022B9C7
:101E9000194B4343174C23600DE0104B5B6803F470
:101EA000003323B1144B4343124C236003E0104B27
:101EB0004343104C236003E00D4B0E4C236000BFE6
:101EC00000BF064B5B68C3F303130C4CE15C094B8A
:101ED0001B68CB40074C236010BD0000001002407F
:101EE000002002400000FFF8FFFFF6FE08ED00E0D2
:101EF00000127A007C01002000093D0080010020D2
:101F000008B50121482003F035FE2020ADF800007F
:101F100010208DF8030003208DF8020069462B483D
:101F200003F06CFB2021294803F015FC2020ADF8BC
:101F300000006946264803F061FB2021244803F095
:101F40000AFC08BD08B50121102003F013FE08208B
:101F5000ADF8000010208DF8030003208DF802007A
:101F600069461C4803F04AFB08211A4803F0F5FBB8
:101F700008BD08B50121102003F0FCFD4FF40060FE
:101F8000ADF8000010208DF8030003208DF802004A
:101F90006946104803F032FB4FF400610D4803F02E
:101FA000DAFB4FF48050ADF8000010208DF80300EC
:101FB00003208DF802006946064803F01FFB4FF42A
:101FC0008051044803F0C9FB08BD0000000C01402B
:101FD000001801400010014008B50121442003F021
:101FE000C9FD1C20ADF8000048208DF803006946AB
:101FF000264803F003FB08BD10B5044614B10120C8
:10200000234908702248007848B310211F4803F084
:1020100088FB48B108211D4803F083FB20B104214F
:102020001A4803F07EFBD0B9052002F05DFD0020C8
:10203000174908701021154803F073FB08B90120F7
:1020400010BD0821114803F06CFB08B90220F7E726
:1020500004210E4803F065FBA8B90320F0E7102126
:102060000A4803F05EFB01280DD10821074803F060
:1020700058FB012807D10421044803F052FB012832
:1020800001D1034908700020DAE700000018014080
:10209000900100207FB505460C460121102003F079
:1020A00076FDADF80850ADF804400020ADF80A0008
:1020B000ADF8060001A9E54803F094FE012211469F
:1020C000E24804F006FA36208DF8000000208DF872
:1020D00001008DF8020001208DF80300684603F02E
:1020E000C4F90121D94804F0D9F97FBD7FB505466F
:1020F0000C460121202003F04AFDADF80850ADF850
:1021000004400020ADF80A00ADF8060001A9D0484F
:1021100003F068FE01221146CD4804F0DAF93720B9
:102120008DF8000001208DF8010003208DF80200D9
:1021300001208DF80300684603F097F90121C44897
:1021400004F0ACF97FBD7FB505460C460121C802FD
:1021500003F010FDADF80850ADF804400020ADF8D4
:102160000A008DF80C00ADF8060001A9B94803F08B
:1021700039FE01221146B84804F0ABF919208DF858
:10218000000000208DF8010003208DF802000120DE
:102190008DF80300684603F068F90121AD4804F0AA
:1021A0007DF97FBD10B50121AA4804F040FC18B1AB
:1021B0000121A84804F04CFC10BD30B589B005469B
:1021C0000C460121480303F0D5FC0121112003F046
:1021D000D1FC4FF47070ADF8200018208DF823006A
:1021E00003208DF8220008A99C4803F007FAADF8F7
:1021F0001850ADF814400020ADF81A00ADF81600E4
:1022000005A9954803F0EEFD6020ADF8040001201B
:10221000ADF806000020ADF80A00ADF80C0001A9E9
:102220008D4803F01CFE01A98B4803F05AFE01A95A
:10223000894803F0A3FE01A9874803F0EAFE0121C3
:10224000854804F037F90821834804F057FA08213B
:10225000814804F05CFA08217F4804F065FA0821FF
:102260007D4804F06AFA01217B4804F017FA012145
:10227000794804F013F909B030BD30B589B005468E
:102280000C460121022003F082FC01210D2003F005
:1022900071FC03208DF8220018208DF82300C02047
:1022A000ADF8200008A96E4803F0A8F903208DF8C6
:1022B000220018208DF823000320ADF8200008A983
:1022C000684803F09BF9ADF81850ADF814400020B1
:1022D000ADF81A00ADF8160005A9634803F082FDB9
:1022E0006020ADF804000120ADF806000020ADF834
:1022F0000C0001A95C4803F0B2FD08215A4804F023
:10230000FDF901A9584803F0ECFD0821564804F0F6
:10231000FEF901A9544803F031FE0821524804F0A7
:1023200003FA01A9504803F074FE08214E4804F056
:1023300004FA01214C4804F0B1F809B030BD7FB572
:1023400005460C460121084603F021FCADF8085073
:10235000ADF804400020ADF80A00ADF8060001A970
:102360004FF0804003F03EFD01221146900704F03B
:10237000B0F81C208DF8000000208DF8010003202B
:102380008DF8020001208DF80300684603F06DF817
:102390000121880704F082F87FBD7FB505460C4611
:1023A0000121042003F0F3FBADF80850ADF8044020
:1023B0000020ADF80A00ADF8060001A92B4803F093
:1023C00011FD01221146294804F083F81E208DF8E2
:1023D000000001208DF801008DF802008DF8030047
:1023E000684603F042F80121204804F057F87FBD09
:1023F0007FB505460C460121082003F0C8FBADF867
:102400000850ADF804400020ADF80A00ADF8060011
:1024100001A9174803F0E6FC01221146144804F014
:1024200058F832208DF8000000208DF801000320BC
:102430008DF8020001208DF80300684603F015F8BE
:1024400001210B4804F02AF87FBD00000010004075
:1024500000140040002C01400034014000100140F5
:1024600000080140000C014000040040000800404A
:10247000000C004000BF011EA0F10100FBD170471D
:1024800010B54FF48051FE4803F067F92021FD4854
:1024900003F063F90120FFF7EDFF4FF48051F84896
:1024A00003F059F92021F74803F055F90120FFF70F
:1024B000E1FF10BD10B54FF48051F14803F04DF924
:1024C0002021F04803F049F90120FFF7D3FF4FF432
:1024D0008051EB4803F03FF90120FFF7CBFF4FF4A9
:1024E0008051E74803F039F910BD70B50446002566
:1024F00024E04FF48051E24803F02FF904F080000B
:1025000020B12021DF4803F026F903E02021DD4837
:1025100003F023F94FF48051D94803F01CF901204E
:10252000FFF7A8FF4FF48051D54803F016F90120BA
:10253000FFF7A0FF6006040E681CC5B2082DD8DBAB
:1025400070BD10B52021CF4803F005F94FF480513C
:10255000CB4803F000F90120FFF78CFF2021C94888
:1025600003F0FBF80120FFF785FF4FF48051C448CA
:1025700003F0F3F810BD70B505460C46FFF7E1FF18
:102580007820FFF7B2FFFFF795FF1CB14020FFF75F
:10259000ACFF02E00020FFF7A8FFFFF78BFF284603
:1025A000FFF7A3FFFFF786FFFFF76AFF70BD10B5C7
:1025B00004461CB90021A620FFF7DDFF012C03D142
:1025C0000021A720FFF7D7FF10BD10B504463CB986
:1025D0000021C820FFF7CFFF0021A120FFF7CBFF8C
:1025E000012C07D10021C020FFF7C5FF0021A0204A
:1025F000FFF7C1FF10BD10B500218D20FFF7BBFF15
:1026000000211420FFF7B7FF0021AF20FFF7B3FF31
:1026100010BD10B500218D20FFF7ADFF0021102067
:10262000FFF7A9FF0021AF20FFF7A5FF10BD70B590
:1026300000241CE004F1B001C8B20021FFF79BFFA9
:1026400000210846FFF797FF00211020FFF793FFB6
:10265000002508E08C4901EBC501085D0121FFF769
:102660008AFF681CC5B2802DF4DB601CC4B2082C44
:10267000E0DB70BD70B500240CE0002506E0002012
:10268000814901EBC5010855681CC5B2802DF6DBF8
:10269000601CC4B2082CF0DBFFF7C9FF70BD70B539
:1026A0000A46CE1701EB5676C6F3C703CE1701EBE9
:1026B0005676F610A1EBC606F4B20122A240D5B2BE
:1026C000714A02EBC002D25C2A436F4E06EBC00691
:1026D000F25470BD70B50B46CE1701EB5676C6F3BB
:1026E000C702CE1701EB5676F610A1EBC606F4B280
:1026F0000123A340DDB2644B03EBC0039B5CDB43CF
:10270000614E06EBC006B3545F4B03EBC0039B5C0A
:102710002B435D4E06EBC006B3545B4B03EBC0038B
:102720009B5CDB43584E06EBC006B35470BD2DE9ED
:10273000F84F05460E4617469846BD420DD1002477
:1027400006E03019C1B22846FFF7A9FF601CC4B2E9
:10275000A8EB0600A042F4DC30E046450CD1002492
:1027600006E02919C8B23146FFF799FF601CC4B2D0
:10277000781BA042F5DC21E0A8EB060000F0FF0A80
:10278000781B00F0FF0B0AEB8A00400090FBFBF087
:1027900000F0FF0900240EE004FB09F00A2190FB81
:1027A000F1F03044C0B229190090C8B20099FFF787
:1027B00076FF601CC4B2781BA042EDDCBDE8F88F48
:1027C0002DE9F04306460F469046002544463BE07F
:1027D0003A1BD1B27219D0B2FFF761FF3A1BD1B2E6
:1027E000721BD0B2FFF75BFF3A19D1B2721BD0B2A5
:1027F000FFF755FF3A19D1B27219D0B2FFF74FFF68
:102800007A19D1B23219D0B2FFF749FF7A1BD1B28F
:102810003219D0B2FFF743FF7A1BD1B2321BD0B2CC
:10282000FFF73DFF7A19D1B2321BD0B2FFF737FF65
:102830006D1C05FB05F004FB040008FB1809B9F149
:10284000000F01DD641E6D1E6000604308FB08F18F
:102850008842BDDABDE8F0832DE9FF4F81B08146A3
:102860000F461C4600972046E31704EB5373DB101A
:1028700021464FEAE47C04EB5C7C4FEAEC0C05E07B
:10288000002001400014014078170020A4EBCC0C7C
:10289000BCF1000F02D04FF0010C01E04FF0000C32
:1028A0006344224604EBD27C4FEA6C0C03FB0CF32E
:1028B00003F0FF0B03982038C6B200255BE00C2C18
:1028C00007D106EB4600FE4901EB800010F80580B9
:1028D00028E0102C05D1FB4800EB061010F805800D
:1028E00020E0182C07D106EBC600F74901EB800069
:1028F00010F8058016E0202C05D1F44800EB861076
:1029000010F805800EE0282C09D106EBC60000EB7C
:102910000610EF4901EB800010F8058002E005B0D9
:10292000BDE8F08F4FF0000A1FE008F0800020B1F2
:1029300039464846FFF7B3FE03E039464846FFF7FD
:10294000C9FE4FEA48604FEA1068781CC7B2009889
:10295000381AA04205D1009F09F1010000F0FF09DB
:1029600006E00AF1010000F0FF0ABAF1080FDCDB13
:1029700000BF681CC5B25D45A1DB00BFCFE7F0B565
:1029800006460F4614461D4613E022782B4639466C
:102990003046FFF761FF284605EBD07106EB610179
:1029A000CEB2C5F18000B04202DA0026B81CC7B230
:1029B000641C2078202802DB20787E28E5DDF0BD2D
:1029C00010B50246012000E050430B1EA1F10104A6
:1029D000E1B2F9D110BD2DE9F04F06468A46914685
:1029E0001F46099C00252CE0781B401EC1B20A201E
:1029F000FFF7E6FFB9FBF0F00A21B0FBF1F201FBB3
:102A00001208B8F1000F0CD1A34604EBDB7149109A
:102A100001FB0561C8B2234630225146FFF71CFF77
:102A20000DE0A34604EBDB71491001FB0561C8B260
:102A300008F13001CAB223465146FFF70DFF681C6A
:102A4000C5B2BD42D0DBBDE8F08F2DE9FF4F074690
:102A5000884691461C464FF0000B0297CDF8048043
:102A60002046E11704EB5171C1F3C701009160E00A
:102A700009FB04F0C11700EB51710BEBE101CEB281
:102A80000BF1010000F0FF0B002550E0102C05D1E8
:102A9000904800EB0610405D03901BE0182C07D116
:102AA00006EBC6008C4901EBC000405D039011E0CD
:102AB000202C05D1894800EBC610405D039009E049
:102AC000402C05D1864800EB4620405D039001E094
:102AD000BDE8FF8F4FF0000A17E0039800F00100F7
:102AE00020B141463846FFF7DAFD03E0414638465B
:102AF000FFF7F0FD03984010039008F1010000F08B
:102B0000FF080AF1010000F0FF0ABAF1080FE4DB48
:102B1000781CC7B20298381AA04204D1029F0198CB
:102B20000830C0B20190DDF80480681CC5B2A5422F
:102B3000ACDB0098411EC9B20091002898D100BFBB
:102B4000C6E7804689460026002749E03FB91023A2
:102B5000324618218020FFF778FF701CC6B2464528
:102B600022D14FF0000A1AE0002410E000250AE00C
:102B70005C4800EBC400415D601E5A4A02EBC00095
:102B80004155681CC5B2082DF2DB601CC4B2902C04
:102B9000ECDBFFF74CFD0AF1010000F0FF0A4FEA01
:102BA00009105045E0DC0026781CC7B2102F00D178
:102BB0000027002410E000250AE04A4800EBC4008A
:102BC000415D601E474A02EBC0004155681CC5B21A
:102BD000082DF2DB601CC4B2902CECDBFFF727FD64
:102BE000B4E770B504460D4605F1B001C8B2002146
:102BF000FFF7C1FC102141EA14100021FFF7BBFCD4
:102C000004F00F000021FFF7B6FC70BD2DE9F05F66
:102C100005460E4617469846DDF828B04FF00009E5
:102C2000CA460024E11704EB5171C910A4EBC1019D
:102C300001B901E0601CC4B2344614E021462846C4
:102C4000FFF7CFFFAA460AE01BF809000121FFF7B2
:102C500092FC09F101090AF1010000F0FF0ABA45EE
:102C6000F2DB601CC4B24445E8DBBDE8F09F08B568
:102C700001214FF4B07002F07DFF4FF48050ADF8A9
:102C8000000010208DF8030003208DF80200694633
:102C9000154802F0B3FC4FF48051134802F05BFD7D
:102CA00048F22200ADF8000010208DF80300032048
:102CB0008DF8020069460D4802F0A0FC18E0000003
:102CC00032830008A6870008968D0008F29A000853
:102CD000B2B2000891010020F1020020C9030020D7
:102CE000C905002078170020002001400014014091
:102CF00048F222013F4802F02EFD4FF4A060ADF8EB
:102D0000000010208DF8030003208DF802006946B2
:102D1000394802F073FC4FF4A061374802F01BFD04
:102D20001021344802F019FDC82001F0DDFE102109
:102D3000304802F010FD0021FD20FFF71CFC0021AF
:102D40001220FFF718FC0021AE20FFF714FC002131
:102D5000D520FFF710FC0021A020FFF70CFC00217C
:102D6000A820FFF708FC00213F20FFF704FC00210A
:102D7000D320FFF700FC00210846FFF7FCFB0021F1
:102D80004020FFF7F8FB0021A120FFF7F4FB002112
:102D9000C820FFF7F0FB0021DA20FFF7ECFB002151
:102DA0001220FFF7E8FB00218120FFF7E4FB002160
:102DB0007F20FFF7E0FB0021D920FFF7DCFB00219B
:102DC0008220FFF7D8FB0021DB20FFF7D4FB002196
:102DD0003420FFF7D0FB0021A420FFF7CCFB00211B
:102DE000A620FFF7C8FBFFF745FC0021AF20FFF747
:102DF000C2FB08BD001401400018014030B5034675
:102E00001C788C545D78541C0D559D78941C0D5580
:102E1000DD78D41C0D5530BD13B50C460A2C00DCF2
:102E200004B91CBD0B2C43D2DFE804F042060C129F
:102E3000181E242A30363C00012244496846FFF718
:102E4000DDFF35E0052241496846FFF7D7FF2FE057
:102E500009223E496846FFF7D1FF29E00D223B4990
:102E60006846FFF7CBFF23E0112238496846FFF799
:102E7000C5FF1DE0152235496846FFF7BFFF17E083
:102E8000192232496846FFF7B9FF11E01D222F4988
:102E90006846FFF7B3FF0BE021222C496846FFF795
:102EA000ADFF05E0252229496846FFF7A7FF00BFCF
:102EB00000BF00BFB5E701460A2900DC09B90020C0
:102EC00070472420214A10700B293CD2DFE801F022
:102ED0003B060B10151A1F24292F350005201B4A0D
:102EE00050710620ECE70920184A50720A20E7E7E3
:102EF0000D20164A50730E20E2E71120134A507439
:102F00001220DDE71520114A50751620D8E7192048
:102F10000E4A50761A20D3E71D200C4A50771E2007
:102F2000CEE72120094A82F821002220C8E7252087
:102F3000064A82F825002620C2E72920034A82F8A3
:102F400029002A20BCE70020BAE70000F81B002077
:102F500000B587B00121084602F00CFE0121C8022D
:102F600002F008FE0121402002F004FE0121C748C2
:102F700002F015FC4FF40070ADF8000004208DF84D
:102F800003006946C24802F039FB4FF40060ADF817
:102F9000000004208DF803006946BD4802F02EFBB6
:102FA00004A803F04BFA0020ADF810004FF6FF70B4
:102FB000ADF814000020ADF81600ADF8120004A919
:102FC000B44802F00FFF00231A460321B14803F072
:102FD00018FB01A803F045FA0A20ADF80C0001A97E
:102FE000AC4803F092F90121AA4803F01DFD01222B
:102FF0001146A84803F06DFA0021A64803F0E2FC50
:103000000121A44803F04AFA07B000BD00B587B01B
:103010000121022002F0BBFD0121042002F0AAFDE3
:10302000C020ADF8000004208DF8030069469A48DE
:1030300002F0E4FA04A803F001FA0020ADF8100051
:103040004FF6FF70ADF814000020ADF81600ADF893
:10305000120004A9914802F0C5FE00231A4603217C
:103060008E4803F0CEFA01A803F0FBF90A20ADF870
:103070000C0001A9894803F048F90121874803F0B1
:10308000D3FC01221146854803F023FA002183482E
:1030900003F098FC0121814803F000FA07B000BD5D
:1030A00000B587B00121042002F071FD0121082044
:1030B00002F060FDC020ADF8000004208DF8030090
:1030C0006946774802F09AFA04A803F0B7F900209D
:1030D000ADF810004FF6FF70ADF814000020ADF809
:1030E0001600ADF8120004A96E4802F07BFE002322
:1030F0001A4603216B4803F084FA01A803F0B1F9E2
:103100000A20ADF80C0001A9664803F0FEF8012181
:10311000644803F089FC01221146624803F0D9F9A2
:103120000021604803F04EFC01215E4803F0B6F92F
:1031300007B000BD00B587B00121082002F027FDCF
:103140000121042002F016FD0320ADF80000042048
:103150008DF803006946504802F050FA04A803F0C5
:103160006DF90020ADF810004FF6FF70ADF81400B7
:103170000020ADF81600ADF8120004A94A4802F08C
:1031800031FE00231A460321474803F03AFA01A80A
:1031900003F067F90A20ADF80C0001A9424803F0DA
:1031A000B4F80121404803F03FFC012211463E489B
:1031B00003F08FF900213C4803F004FC01213A4858
:1031C00003F06CF907B000BD0146012906D00329C0
:1031D0000DD0042914D0052924D11AE02D4A243217
:1031E000128810B200222B4B24331A801CE02B4A89
:1031F0002432128810B20022284B24331A8013E0A4
:10320000284A2432128810B20022264B24331A8016
:103210000AE0254A2432128810B20022224B2433BD
:103220001A8001E0002000BF00BF7047194810302D
:10323000008818481030008820F00100154910312E
:1032400008807047154810300088144810300088F6
:1032500020F00100114910310880704711481030EA
:10326000008810481030008820F001000D4910310E
:10327000088070470C48103000880B4810300088D8
:1032800020F001000849103108807047C000160086
:1032900000180140002C01400008014000040040DB
:1032A000000C014000080040000C004001460029CD
:1032B00001DA484200E008467047012806D002289B
:1032C0000ED0032816D0042829D11DE0FE4A116033
:1032D00009B9012200E00022FB4B1B1D1A601EE011
:1032E000FA4A116009B9012200E00022F74B1B1FC6
:1032F0001A6014E0F64A116009B9012200E00022C8
:10330000F34B1B1F1A600AE0F04A1C3A116009B91E
:10331000012200E00022ED4B183B1A6000BF00BF05
:10332000704770B505460C46002C04DA002128468B
:10333000FFF7C3FF03E001212846FFF7BEFF204649
:10334000FFF7B4FF0446B4F57A6F01DD4FF47A64F9
:10335000012D06D0022D09D0032D0CD0042D14D13F
:103360000EE0A1B2DB4803F031FB0EE0A1B2D94878
:1033700003F02EFB09E0A1B2D64803F02BFB04E0DA
:10338000A1B2D44803F028FB00BF00BF70BD08B550
:103390000121582002F0EEFB0320ADF800001020C0
:1033A0008DF8030003208DF802006946CA4802F038
:1033B00025F90320ADF8000010208DF8030003204C
:1033C0008DF802006946C54802F018F9C320ADF82F
:1033D000000010208DF8030003208DF802006946DC
:1033E000BF4802F00BF90121BB4802F0B6F90221F7
:1033F000B94802F0B2F90121B84802F0AEF9022151
:10340000B64802F0AAF90121B54802F0A6F9022156
:10341000B34802F0A2F94021B14802F09EF98021A0
:10342000AF4802F09AF908BD2DE9F05F04460D4659
:1034300060422844AB4908600846006804F020FE5A
:103440008346A9480168584604F032FE8046A549E3
:103450000968A64A1268881A04F012FE8346A44836
:103460000168584604F024FE8146414604F08AFD76
:103470000746A048006804F003FE8246394604F07F
:1034800081FD064604F0E0FD9A49086008460068A0
:1034900040F6B831884202DD0846964908609548F2
:1034A00000689549884202DA0846924908608D48CA
:1034B00000688E4908608F480068BDE8F09F2DE9DC
:1034C000F05F04460D46604228448C490860084677
:1034D000006804F0D5FD834683480168584604F02F
:1034E000E7FD804685490968854A1268881A04F014
:1034F000C7FD83467E480168584604F0D9FD8146E1
:10350000414604F03FFD07467E48006804F0B8FDE0
:103510008246394604F036FD064604F095FD7949A9
:1035200008600846006840F6B831884202DD084667
:1035300074490860734800686F49884202DA084697
:10354000704908606D4800686D4908606D48006802
:10355000BDE8F09F2DE9F05F04460D466042284427
:10356000694908600846006804F08AFD83465E48A1
:103570000168584604F09CFD804663490968634A27
:103580001268881A04F07CFD834659480168584641
:1035900004F08EFD8146414604F0F4FC07465C4889
:1035A000006804F06DFD8246394604F0EBFC0646E7
:1035B00004F04AFD564908600846006840F6B831F4
:1035C000884202DD084652490860514800684A496D
:1035D000884202DA08464E4908604B4800684B4969
:1035E00008604B480068BDE8F09F2DE9F05F044695
:1035F0000D4660422844474908600846006804F0C8
:103600003FFD834638480168584604F051FD804626
:1036100040490968404A1268881A04F031FD83461F
:1036200033480168584604F043FD8146414604F0A2
:10363000A9FC07463948006804F022FD8246394655
:1036400004F0A0FC064604F0FFFC3449086008467C
:10365000006840F6B831884202DD08462F4908600C
:103660002E4800682449884202DA08462B4908603F
:10367000284800682849086028480068BDE8F09F8D
:103680002DE9F84F04460D460026254FDFF89480BB
:10369000601B04F0F5FC24490860084601682348D3
:1036A000006804F06FFC21490860214801681E4849
:1036B000006804F0C9FD8346414604F0F9FC8146E8
:1036C0001A480168384635E0800122429C012342B5
:1036D0008481214200340140000C0140001001406F
:1036E00000180140DC150020D0150020E415002052
:1036F000CC150020E015002048F4FFFFE81500205D
:10370000F0150020EC150020F4150020FC15002019
:10371000F8150020001600200816002004160020CE
:10372000CDCC4C3D000040420C1600201416002069
:103730001816002004F0BCFC8346F94801683046A6
:1037400004F0B6FC5946009004F01CFC8246494641
:1037500004F018FCF3490860F1480068F249086079
:10376000F048006804F070FCBDE8F88F2DE9F04FD8
:1037700085B004460D46ED4E00274FF0000860422C
:103780002844EB49086008460068EA490968401A7D
:10379000E949086008460068E8490968401AE849AC
:1037A00008600846006804F06BFC8346414604F05C
:1037B0007FFC0490DE48006804F062FC83463946D2
:1037C00004F076FC0390DC48006804F059FC3146B4
:1037D000009004F06DFC8346DA48006804F050FC69
:1037E0005946019004F0CEFB0290039904F0CAFB05
:1037F0008246049904F0C6FB814604F025FCD149B9
:103800000860CB480068CB490860CB480068CB49CA
:103810000860CC48006805B0BDE8F08F4FF49671A1
:1038200040F2EE22521A824202DD40F2EE22501A9B
:1038300001F2EE22824200DA1046704710B50446CB
:103840000B46C14804600020C0490860C0490860B8
:10385000C0480068C0490968401AC0490860C048AB
:103860000068401CBE4908600846006808280DDD55
:103870000120BC4908600020B9490860BA480068C6
:1038800008B9012000E00020B7490860B34800688B
:10389000B649096888420BDDB0480068FFF706FDAD
:1038A00042F21071884203DAB1480068A849086002
:1038B000AA480068AD490968494288420CDAA7481D
:1038C0000068FFF7F3FC42F21071884204DAA8485E
:1038D000006840429E490860A0480068FFF7E6FC87
:1038E000A2490968884216DA9A490968881AFFF7D6
:1038F000DDFC9C280FDD99480068FFF7D7FC42F2F9
:103900001071884207DA93480068101A072190FB6B
:10391000F1F08E49086097480068FFF7C7FC50280F
:1039200002DA01209449086093480068012811D107
:1039300090480068C8280DDD8A480068012809D130
:103940008E480068401E8D49086000208A49086042
:103950008449086088480068012812D185480068B9
:1039600010F1C80F0DDA7F480068012809D183489B
:103970000068401C8149086000207F49086079493F
:1039800008607E48006898420ED16BB100207B49E8
:103990000860794908606C4908606C4908606C49A6
:1039A00008607749087010BD0120FCE710B5044697
:1039B0000B4665480460002064490860644908605B
:1039C0006448006864490968401A644908606448AA
:1039D0000068401C624908600846006864280DDDE4
:1039E00001206049086000205D4908605E48006869
:1039F00008B9012000E000205B49086057480068D2
:103A0000FFF754FC5949096888420EDD53480068A5
:103A1000FFF74CFC41F28831884206DA4F480068D3
:103A2000122190FBF1F04A4908604C480068FFF70A
:103A30003DFC4E490968884216DA46490968881AE9
:103A4000FFF734FC9C280FDD44480068FFF72EFC8C
:103A500042F21071884207DA3E480068101A0721C6
:103A600090FBF1F0394908603A480068FFF71EFC06
:103A700047F24811884202DD01203F4908603E4874
:103A8000006801281AD13048006810F10A0F15DAD1
:103A900034480068012811D12E480068FFF706FC61
:103AA00047F23051884209D034480068401E3349FB
:103AB00008600020304908602A4908602E480068E4
:103AC000012819D1204800680A2815DD254800681A
:103AD000012811D11F480068FFF7E8FB47F2305179
:103AE000884209D025480068401C2449086000200D
:103AF000214908601B49086020480068984241D16C
:103B00006BB100201D4908601B4908600E49086020
:103B10000E4908600E4908601949087010BD31E06F
:103B20000C16002010160020181600200000C040BF
:103B30001C16002024160020281600203016002015
:103B40002C16002020160020C4000020C8000020F1
:103B5000DC000020FC0000200001002020010020EB
:103B6000340100203C010020948121421C010020EE
:103B70002C010020F8000020280100202401002052
:103B800060010020012010BD0246704710B50446B8
:103B90000B4600203C4908603C48046000203C493A
:103BA00008603C480068801A3B4908603B48006850
:103BB000012804D13A480068401C39490860384857
:103BC000006832280FDD01203649086000203449A2
:103BD0000860324908603448006808B9012000E0F4
:103BE0000020314908602C480068FFF75FFB2F492F
:103BF000096888420EDD28480068FFF757FB42F24B
:103C00001071884206DA24480068092190FBF1F01F
:103C10001D49086026480068012816D1254800681B
:103C2000FFF744FBC82810DA1E48006801280CD1B1
:103C30001A49086020480068401C1F49086000209D
:103C40001B4908601749086008E01A480068FFF738
:103C50002DFBC82802DB01201549086016480068C2
:103C600098420ED16BB100201349086010490860DA
:103C70000549086005490860054908600F49087052
:103C800010BD0120FCE70000C4000020C800002097
:103C9000DC000020F8000020200100203801002076
:103CA0004001002044010020948121421C01002099
:103CB0004C010020FC000020480100206101002090
:103CC000F8B500240C250026002728200090F7488E
:103CD0000123002102680846FEF77DFE282000909F
:103CE000F2480123002142681420FEF774FE2820C8
:103CF0000090EE480123002182682820FEF76BFE29
:103D000028200090E94801230021C2684420FEF7E2
:103D100062FE28200090E548012300210269582016
:103D2000FEF759FE28200090E04801230021426957
:103D30006C20FEF750FEFEF77AFCF8BD2DE9F84F37
:103D400004460E4617469846DDE90BA90A9D99F8E8
:103D5000000000EBD071491022789AF8003003FB84
:103D600001212170207808FB0500802806DD002055
:103D70002070307899F8001008443070002F13DB61
:103D8000317820782B46CAA2FEF7F9FDAB4605EB49
:103D9000DB720095237803EB6202D0B231784346A0
:103DA0003A46FEF718FE12E0317820782B46C1A281
:103DB000FEF7E5FDAB4605EBDB720095237803EBE0
:103DC0006202D0B2317843467A42FEF704FE08F12F
:103DD00001008AF8000089F80050BDE8F88F2DE94D
:103DE000F04704460D4690461E46DDE908973878B0
:103DF00000EBD0714A10237899F80010491C01FBA0
:103E000002312170404603F032FC217800FB06109D
:103E1000802805DD00202070287839780844287033
:103E20002978207833464246FEF7A9FD404603F044
:103E30001EFC89F800003E70BDE8F08710B588B020
:103E4000002007900C200690002005900490FEF7BB
:103E500011FC05A804A90C2397A2CDE9001006A91E
:103E600007A8FFF7BCFF9548006804F0EDF804468A
:103E700005A804A90C220523CDE9002102902246C1
:103E800006A907A8FFF75AFF05A804A90C238CA2CE
:103E9000CDE9001006A907A8FFF7A1FF894800682F
:103EA00004F0D2F8044605A804A90C220523CDE9A4
:103EB00000210290224606A907A8FFF73FFFFEF760
:103EC000B6FB08B010BD00B587B0002006900C20EE
:103ED0000590002004900390FEF7CCFB04A803A9F2
:103EE0000C2379A2CDE9001005A906A8FFF777FFFA
:103EF00004A803A90C220523CDE9002102907348F0
:103F000005A9026806A8FFF719FFFEF790FB07B0A6
:103F100000BD00B587B0002006900C200590002061
:103F200004900390FEF7A6FB04A803A90C2368A243
:103F3000CDE9001005A906A8FFF751FF04A803A9C1
:103F40000C220523CDE900210290624805A90268F0
:103F500006A8FFF7F3FE04A803A90C235EA2CDE98F
:103F6000001005A906A8FFF73AFF04A803A90C2230
:103F70000523CDE900210290584805A9026806A84A
:103F8000FFF7DCFE04A803A90C2355A2CDE900101D
:103F900005A906A8FFF723FF04A803A90C220523FF
:103FA000CDE900210290504805A9026806A8FFF754
:103FB000C5FEFEF73CFB07B000BD00B587B0002092
:103FC00006900C200590002004900390FEF752FB11
:103FD00004A803A90C220523CDE90021029043483F
:103FE000026805A906A8FFF7A9FE04A803A90C23E7
:103FF0003FA2CDE9001005A906A8FFF7F0FE04A82E
:1040000003A90C220523CDE9002102903A48026859
:1040100005A906A8FFF792FE04A803A90C2337A25E
:10402000CDE9001005A906A8FFF7D9FE04A803A949
:104030000C220523CDE9002102903248026805A92F
:1040400006A8FFF77BFE04A803A90C232EA2CDE946
:10405000001005A906A8FFF7C2FE04A803A90C22B8
:104060000523CDE900210290294805A9026806A888
:10407000FFF764FE04A803A90C2319A2CDE90010E0
:1040800005A906A8FFF7ABFE04A803A90C22052387
:10409000CDE900210290144805A9026806A8FFF79F
:1040A0004DFEFEF7C4FA07B000BD0000581700200F
:1040B000200000002D0000004B500000CC15002017
:1040C0004B490000D01500204B455900000000204E
:1040D00058000000140100205900000018010020C1
:1040E00074656D700000000024010020FC000020B9
:1040F00052696768740000000001002046726F6E0C
:1041000074000000F800002074656D7059310000E3
:104110002801002000B587B0002006900C200590F3
:10412000002004900390FEF7A5FA04A803A90C232D
:104130009AA2CDE9001005A906A8FFF750FE04A831
:1041400003A90C220523CDE90021029095480268BD
:1041500005A906A8FFF7F2FD04A803A90C23AFF2F6
:104160007002CDE9001005A906A8FFF738FE04A8E3
:1041700003A90C220523CDE9002102908A48026898
:1041800005A906A8FFF7DAFD04A803A90C23AFF2DE
:104190009402CDE9001005A906A8FFF720FE04A8A7
:1041A00003A90C220523CDE9002102907F48026873
:1041B00005A906A8FFF7C2FD04A803A90C237CA249
:1041C000CDE9001005A906A8FFF709FE04A803A978
:1041D0000C220523CDE900210290774805A9026849
:1041E00006A8FFF7ABFD04A803A90C23AFF2101239
:1041F000CDE9001005A906A8FFF7F1FD04A803A961
:104200000C220523CDE9002102906C4805A9026823
:1042100006A8FFF793FDFEF70AFA07B000BD00B548
:1042200087B0002006900C20059000200490039099
:10423000FEF720FA04A803A90C2361A2CDE900101F
:1042400005A906A8FFF7CBFD04A803A90C220523A6
:10425000CDE9002102905C48027805A906A8FFF785
:104260006DFDFEF7E4F907B000BD2DE9F84F0646F5
:104270000D4617469846DDE90BA90A9C00203070D0
:10428000287899F8001008442870002F14DB29784A
:1042900030782346AFF2E812FEF771FBA34604EB39
:1042A000DB720094337803EB6202D0B22978434684
:1042B0003A46FEF790FB13E0297830782346AFF2B8
:1042C0000C22FEF75CFBA34604EBDB720094337810
:1042D00003EB6202D0B2297843467A42FEF77BFBB9
:1042E00008F101008AF8000089F80040BDE8F88F65
:1042F0002DE9F04705460C4616461F46DDE90898AD
:1043000000202870207898F8001008442070217848
:1043100028783B463246FEF732FB304603F0A7F9D9
:1043200089F8000088F80070BDE8F08710B52748CC
:10433000006803F0A5FE04460121FEF76DFD244848
:10434000006803F09DFE04460221FEF765FD03218F
:104350000020FEF761FD0320FEF7ADFD1D4908704A
:1043600000201D49087012E000BF1C48008800F0C2
:1043700040000028F9D01A4817490978405C1749CD
:10438000091D088014480078401C13490870124821
:104390000078104909788842E6DB10BD4C656674E8
:1043A00000000000FC00002000010020F8000020B8
:1043B0004D6F646500000000AC0000204801002043
:1043C00055415254313A0000E600002070000020B0
:1043D00074000020361600203416002000380140FA
:1043E000F81B002008B50121202001F0C3FB40F696
:1043F0001800ADF8000010208DF8030003208DF8A0
:1044000002006946FE4801F0F9F8FD48006820F016
:104410000F00FB4908600846006840F0080008608B
:1044200008BD38B50446012000900020F5494870C9
:10443000012000902EE0BDF80000204018B10120BE
:10444000F149086002E00020EF4908600120EE49D0
:1044500020390860052000F02BFB0020EB49C1F853
:104460008C01052000F024FB0120E849C1F88C01F3
:104470000846D0F8000130B1E2484078BDF800109D
:104480000843E0494870BDF800004FF6FF7101EAAB
:1044900040000090BDF80000FF28CCDD102000F0A7
:1044A00007FB38BD10B50020D7491C390860D84932
:1044B0000878FFF7B6FFD6494878FFF7B2FF01202A
:1044C000D249C1F89001CF484078732801D100202B
:1044D00010BD0120FCE71CB50020019001200090D8
:1044E0000020C9491C390860C9490878FFF799FFBD
:1044F000C7494878FFF795FF0220019036E0012078
:10450000009027E00120C04920390860052000F014
:10451000CFFA0020BD49C1F88C01052000F0C8FA8F
:104520000120BA49C1F88C010846D0F8000150B109
:10453000B4489DF80410405CBDF800100843B14930
:104540009DF804208854BDF800004FF6FF7101EA81
:1045500040000090BDF80000FF28D3DD102000F0DF
:10456000A7FA9DF80400401CC0B201909DF8040019
:104570000928C4DB0120A4491C3908601CBD0020A7
:1045800004E000219F4A1154411CC8B20928F8DBFD
:10459000704710B5FFF7F3FFFFF79DFF9948C0780C
:1045A0009849097940EA01209A49088000240FE0DF
:1045B000994810F81400401E012101FA00F09549B5
:1045C0000988084010B9601CC0B210BD601CC4B29C
:1045D000102CEDDB0020F8E710B5044614B10120E3
:1045E0008E490870FFF7D5FF8D4908708B48007819
:1045F00040B10846007828B10020884908708848F2
:10460000007810BD8648007810B9012083490870F1
:104610000020F6E710B5044614B101208149087066
:10462000FFF7B7FF804908707E48007840B1084620
:10463000007828B100207B4908707B48007810BDC5
:104640007948007810B90120764908700020F6E713
:1046500001466C48405C704770B505460C4600202A
:1046600069491C390860102000F022FA0120FFF788
:10467000D8FE4220FFF7D5FE0020FFF7D2FE2846E5
:10468000FFF7CFFE2046FFF7CCFE0020FFF7C9FE64
:104690000020FFF7C6FE0020FFF7C3FE0020FFF753
:1046A000C0FE01205949C1F89001102000F000FA25
:1046B00070BD10B5002054491C390860102000F06E
:1046C000F7F90120FFF7ADFE4220FFF7AAFE002018
:1046D000FFF7A7FE0020FFF7A4FE0020FFF7A1FED2
:1046E00001204A49C1F89001102000F0E1F910BD05
:1046F00010B5002044491C390860102000F0D8F99A
:104700000120FFF78EFE4320FFF78BFE0020FFF70E
:1047100088FE0120FFF785FE0020FFF782FE0020C3
:10472000FFF77FFE0020FFF77CFE0020FFF779FEF9
:104730000020FFF776FE01203449C1F890011020D7
:1047400000F0B6F910BD10B500202F491C390860E3
:104750000120FFF766FE4420FFF763FE0020FFF70D
:1047600060FE0120FFF75DFE0320FFF75AFE0020E8
:10477000FFF757FE0020FFF754FE0020FFF751FE21
:104780000020FFF74EFE01202049C1F890011020C3
:1047900000F08EF910BD10B500201B491C390860CF
:1047A000102000F085F90120FFF73BFE4D20FFF7B8
:1047B00038FE0020FFF735FE0020FFF732FE012013
:1047C000FFF72FFE01201149C1F89001102000F0E1
:1047D0006FF910BD10B500200B491C39086010207E
:1047E00000F066F90120FFF71CFE4320FFF719FED9
:1047F0000020FFF716FE0020FFF713FE5A2015E0F9
:1048000000140140221C0020AC8122420080224280
:104810003E1600203C1600204016002060160020A6
:10482000611600206216002063160020FFF7F9FDD4
:104830005A20FFF7F6FD5A20FFF7F3FD5A20FFF745
:10484000F0FD5A20FFF7EDFD01200B49C1F8900162
:10485000102000F02DF910BD10B5FFF72AFFFFF76B
:1048600028FFFFF726FFFFF743FFFFF76CFFFFF777
:1048700092FFFFF7AFFF10BD0080224200B58BB062
:104880000121084601F069F9764802F011FD7648E9
:10489000009076480190002002901E200390002096
:1048A0000490802005904000069080000790202012
:1048B00008900002099000200A906946694802F0B9
:1048C00099FD0121674802F0C0FD0BB000BD00B5A5
:1048D00087B00420ADF8040000208DF8070001A97E
:1048E000634800F08BFE01214FF4057001F042F99E
:1048F0004FF4004001F0A2F80020029001208DF852
:104900000C008DF80D004FF46020049000200590FD
:1049100003208DF8180002A953484C3802F0C7FA5A
:1049200007230122002150484C3802F058FB07238E
:10493000022201214C484C3802F051FB072303228C
:104940000C2149484C3802F04AFB012146484C38BA
:1049500002F0E4FA012144484C3802F0D4FA42480B
:104960004C3802F0F2FA00BF3F484C3802F0F2FA3D
:104970000028F9D13C484C3802F0F6FA00BF3A481A
:104980004C3802F0F6FA0028F9D107B000BD70B536
:1049900004460D4615B101203649087035480078A7
:1049A000002857D0B4F57F6F54DA052000F09CF84A
:1049B00000203049087040F66A60844204DBB4F598
:1049C0007F6F01DA092070BDB4F5616F05DB40F639
:1049D0006A60844201DA0820F5E740F6AC50844270
:1049E00004DBB4F5616F01DA0720ECE740F64850CC
:1049F000844205DB40F6AC50844201DA0620E2E74F
:104A000040F6B240844205DB40F64850844201DA69
:104A10000520D8E740F65430844205DB40F6B2402A
:104A2000844201DA0420CEE7B4F5166F05DB40F6C8
:104A30005430844201DA0320C5E7B4F5FA7F04DB81
:104A4000B4F5166F01DA0220BDE7B4F5FA7F07DA94
:104A50000120B8E7B4F57F6F02DB0120054908703B
:104A60000020B0E7080002404C2401402C1C00202C
:104A700000100140641600204FF0E021096921F088
:104A800004014FF0E0221161C21700EB5272C2F331
:104A9000C702234B1A701946097801EB4102C2EB99
:104AA000C1114FF6FF7202EAC1011E4A1180704720
:104AB00001461B4A12784A434FF0E0235A61002214
:104AC0009A6101221A6100BF4FF0E022106900F0E4
:104AD00001021AB100F48032002AF5D000224FF012
:104AE000E0231A619A61704701460E4A12884A43D0
:104AF0004FF0E0235A6100229A6101221A6100BF3F
:104B00004FF0E022106900F001021AB100F4803287
:104B1000002AF5D000224FF0E0231A619A61704715
:104B20006616002068160020A34A0A400243A34BE1
:104B30001A6070470146072323EA010212029F4BC5
:104B40001B1D18684FF6FF0318409D4B1843104378
:104B50009A4B1B1D186070472DE9F04107468846A7
:104B600014461D462846FFF7E5FFC5F1040007FA85
:104B700000F60F20284100EA0800064306F00F0661
:104B8000E21704EBD2625211920002F1E022D2F855
:104B900000212146E31704EBD3635B11A4EB431C14
:104BA000012303FA0CF31A432046E31704EBD36303
:104BB0005B119B0003F1E023C3F800218148005DF5
:104BC00040EA06107F490855BDE8F08170B50446FB
:104BD0000B46CE1701EB9676C6F38700CE1701EB96
:104BE0009676B610A1EB8606B606350E764B9B6917
:104BF00043F00103744EB3614FEAB63353F82030EB
:104C00000F26AE40B343714E46F82030334653F87A
:104C1000203004FA05F61E436C4B43F820606C4BC1
:104C20001B6801268E403343694E336002F0010356
:104C300043B1674B0C331B6801268E403343644EEF
:104C40000C36336002F0020343B1614B08331E6837
:104C500001238B401E435E4B08331E6070BD00B5C0
:104C6000002059490861C86014204861002088610B
:104C7000C8610846006840F00100086008464068C6
:104C80005449084050494860084600685249084065
:104C90004D4908600846006820F4802008600846F6
:104CA000406820F4FE0048600020886000214FF03A
:104CB0000060FFF739FF00BD10B5404808300068BC
:104CC00040F004003D49083108603F48C06940F0A9
:104CD00080503D49C8614148406840F480703F4978
:104CE00048600846006840F0040008600846006814
:104CF00040F002000860FBF799FA10BD3048001D33
:104D00002E49091D08607047014649062E4A9269DE
:104D100042F001022C4B9A612C4A083A526822F068
:104D2000E0622A4B083B5A601A4652680A435A60AE
:104D3000704730B504460025FFF791FF2248006810
:104D400040F480302049086000BF1F480068400CD4
:104D50000028FAD04FF480601B494860A01EC4B2FE
:104D60000846406840EA844048600846406840F48D
:104D7000803048601A48006840F0320018490860E6
:104D80001148006840F080700F49086000BF0E486D
:104D90000068400E0028FAD00B48406840F002003E
:104DA0000949486005E008484068C0F3870505F0F8
:104DB0000305022DF7D130BD80FFFF1F08ED00E095
:104DC0000000FA0500E400E0001002400800014085
:104DD000000401400000FFF8FFFFF6FE00700040F5
:104DE00000200240014600BF704700BFFE4A128803
:104DF00002F04002002AF9D0C2B2FB4B1B1D1A8000
:104E000000BFFA4A128802F04002002AF9D0C2B26A
:104E1000F64B1B1D1A807047F349091D088000BF1F
:104E2000F149098801F040010029F9D0704710B517
:104E300086B00446012144F2040000F09BFE4FF4CA
:104E40000070ADF8140003208DF8160018208DF8BE
:104E5000170005A9E64800F0D1FB4FF48060ADF8DB
:104E6000140004208DF8170005A9E14800F0C6FBE6
:104E700025208DF8000003208DF801008DF8020038
:104E800001208DF80300684600F0EFFA019400203D
:104E9000ADF80800ADF80A00ADF80C00ADF8100050
:104EA0000C20ADF80E0001A9CF4801F018FE012238
:104EB00040F22551CC4801F0AAFE0121CA4801F078
:104EC0009AFE06B010BD10B540F22551C64801F05B
:104ED00083FF10B3C44801F0FFFEC4B2C548008888
:104EE00000F40040C8B9C348008800F4804060B1B5
:104EF0000A2C03D00020BF49088020E0BD4800886C
:104F000040F40040BB49088019E00D2C06D1B94897
:104F1000008840F48040B749088010E0B548008818
:104F2000C0F30D00B4490C54B2480088401CB1498C
:104F3000088008460088C72801DD0020088010BDD1
:104F400010B586B004460121042000F013FE0121B3
:104F5000480400F01CFE0420ADF8140003208DF876
:104F6000160018208DF8170005A9A14800F046FB8F
:104F70000820ADF8140004208DF8170005A99C48FE
:104F800000F03CFB26208DF8000000208DF8010089
:104F900003208DF8020001208DF80300684600F020
:104FA00064FA01940020ADF80800ADF80A00ADF8ED
:104FB0000C00ADF810000C20ADF80E0001A98B48D4
:104FC00001F08DFD012240F22551884801F01FFEBD
:104FD0000121864801F00FFE06B010BD10B540F269
:104FE0002551824801F0F8FE00283CD07F4801F0AE
:104FF00073FEC4B28148006808B9012000E00020B7
:105000007E4908607E48008800F4004058BB7C4818
:10501000008800F4804060B10A2C03D00020784959
:10502000088020E07648008840F4004074490880F9
:1050300019E00D2C06D17248008840F48040704978
:10504000088010E06E480088C0F30D006D490C54D4
:105050006B480088401C6A49088008460088C728B9
:1050600001DD0020088010BD10B586B00446012186
:10507000202000F07FFD0121880400F088FD01213F
:10508000614800F08CFB4FF48070ADF814000320F1
:105090008DF8160018208DF8170005A95B4800F060
:1050A000ADFA4FF40070ADF8140004208DF817002D
:1050B00005A9564800F0A2FA27208DF80000032029
:1050C0008DF801008DF8020001208DF8030068467C
:1050D00000F0CBF901940020ADF80800ADF80A000B
:1050E000ADF80C00ADF810000C20ADF80E0001A9D1
:1050F000474801F0F4FC012240F22551444801F0F8
:1051000086FD0121424801F076FD002041490880DA
:1051100006B010BD10B540F225513D4801F05CFECF
:1051200010B33B4801F0D8FDC4B23A48008800F4FF
:105130000040C8B93748008800F4804060B10A2CAC
:1051400003D000203349088020E03248008840F432
:1051500000403049088019E00D2C06D12D48008808
:1051600040F480402B49088010E02A480088C0F3B2
:105170000D0029490C5427480088401C2549088007
:1051800008460088C72801DD0020088010BD10B542
:1051900086B004460121112000F0ECFC0121C80476
:1051A00000F0F5FC4FF48060ADF8140003208DF89A
:1051B000160018208DF8170005A9184800F01EFAEF
:1051C0004FF40060ADF8140004208DF8170005A915
:1051D000124800F013FA34208DF8000003208DF8F7
:1051E00001008DF802001BE000380140004400403F
:1051F000000801406E160020301D0020940123425B
:105200006C160020681C00203000140000140140BF
:105210000048004070160020F81D002000100140DA
:1052200001208DF80300684600F01FF9019400206A
:10523000ADF80800ADF80A00ADF80C00ADF81000AC
:105240000C20ADF80E0001A96D4801F048FC0122C8
:1052500040F225516A4801F0DAFC0121684801F06A
:10526000CAFC00206749088006B010BD10B540F2A6
:105270002551634801F0B0FD10B3614801F02CFDE9
:10528000C4B26048008800F40040C8B95D48008896
:1052900000F4804060B10A2C03D0002059490880F6
:1052A00020E05848008840F400405649088019E042
:1052B0000D2C06D15348008840F4804051490880A5
:1052C00010E050480088C0F30D004F490C544D4881
:1052D0000088401C4B49088008460088C72801DD2B
:1052E0000020088010BD10B586B004460121302092
:1052F00000F040FC0121080500F049FC4FF480500B
:10530000ADF8140003208DF8160018208DF8170052
:1053100005A93E4800F072F90420ADF814008DF89C
:10532000170005A93A4800F069F935208DF800000A
:1053300003208DF801008DF8020001208DF8030094
:10534000684600F092F801940020ADF80800ADF82E
:105350000A00ADF80C00ADF810000C20ADF80E00FE
:1053600001A92C4801F0BBFB012240F2255129483C
:1053700001F04DFC0121274801F03DFC00202649A9
:10538000088006B010BD10B540F22551214801F04B
:1053900023FD10B31F4801F09FFCC4B21E480088D3
:1053A00000F40040C8B91C48008800F4804060B197
:1053B0000A2C03D000201849088020E016480088F5
:1053C00040F400401449088019E00D2C06D1124821
:1053D000008840F480401049088010E00E480088A2
:1053E000C0F30D000D490C540B480088401C0A49BD
:1053F000088008460088C72801DD0020088010BD0D
:10540000004C004072160020C01E00200010014019
:10541000001401400050004074160020881F002036
:105420000948804709480047FEE7FEE7FEE7FEE738
:10543000FEE7FEE7FEE7FEE7FEE7FEE70448054974
:10544000054A064B70470000FF1D000831010008A7
:10545000402200204028002040240020402400203A
:1054600031490143314A1160704770B50021002372
:105470000F22C47804B32D4C246804F4E064C4F50E
:10548000E064210AC1F10403CA40447804FA03F13C
:105490008478144021430901254C0678A1550478ED
:1054A00004F01F050124AC4005786D11AD0005F135
:1054B000E025C5F8004109E0047804F01F05012447
:1054C000AC401C4D0678761145F8264070BD1A4A4E
:1054D0000A400243154B1B1F1A60704739B1134A2B
:1054E000121D12680243114B1B1D1A6006E00F4A81
:1054F000121D126882430D4B1B1D1A607047042851
:1055000008D14FF0E021096941F004014FF0E02299
:10551000116107E04FF0E021096921F004014FF02B
:10552000E0221161704700000000FA050CED00E078
:1055300000E400E080E100E080FFFF1F10B50446BA
:10554000CC48844208D10121042000F02DFB002129
:10555000042000F029FB46E0C748844208D101211D
:10556000082000F021FB0021082000F01DFB3AE09C
:10557000C248844208D10121102000F015FB00210F
:10558000102000F011FB2EE0BD48844208D101211B
:10559000202000F009FB0021202000F005FB22E084
:1055A000B848844208D10121402000F0FDFA0021D2
:1055B000402000F0F9FA16E0B348844208D10121F6
:1055C000802000F0F1FA0021802000F0EDFA0AE0DE
:1055D000AE48844207D10121801500F0E5FA002190
:1055E000A01500F0E1FA10BD10B50121084600F049
:1055F000DBFA0021012000F0D7FA10BD2DE9F041BF
:10560000024600250026002000230024002791F8F0
:1056100003C00CF00F0591F803C00CF0100CBCF1A6
:10562000000F03D091F802C04CEA050591F800C0C4
:10563000BCF1000F31D0146800202BE04FF0010CBA
:105640000CFA00F3B1F800C00CEA03069E4220D128
:1056500083004FF00F0C0CFA03F7BC4305FA03FC70
:105660004CEA040491F803C0BCF1280F06D14FF0B6
:10567000010C0CFA00FCC2F814C00AE091F803C057
:10568000BCF1480F05D14FF0010C0CFA00FCC2F838
:1056900010C0401C0828D1D31460B1F800C0BCF180
:1056A000FF0F34DD546800202EE000F1080C4FF0AD
:1056B000010808FA0CF3B1F800C00CEA03069E4298
:1056C00021D183004FF00F0C0CFA03F7BC4305FA0D
:1056D00003FC4CEA040491F803C0BCF1280F05D187
:1056E00000F1080C08FA0CF8C2F8148091F803C015
:1056F000BCF1480F07D100F1080C4FF0010808FA7F
:105700000CF8C2F81080401C0828CED35460BDE8C5
:10571000F0814FF6FF710180022181700421C17078
:1057200070470246002093680B400BB1012000E057
:10573000002070470146886880B27047024600200A
:10574000D3680B400BB1012000E0002070470146F8
:10575000C86880B2704701617047416170470AB103
:10576000016100E041617047C16070474FF48032D1
:105770000A4382618161826182698269704702465F
:105780000020434B18684FF68073184040EA02101F
:1057900008433F4B186070473E49C8617047F0B5F9
:1057A0000A46002300240021002500F00046B6F13F
:1057B000004F02D1364EF16901E0354E7168C0F3F9
:1057C000034583B200F44016B6F5401F08D121F01E
:1057D00070612F4E766826F070662D4F7E6012E065
:1057E00000F48016B6F5801F06D1032606FA05F4EC
:1057F000A14341F0706106E0460D360103FA06F65A
:10580000B14341F0706122B1460D360103FA06F64C
:10581000314300F00046B6F1004F02D11C4EF16159
:1058200001E01B4E7160F0BD30B500228B071C0FEC
:105830000F2303FA04F2164B08338C1053F824306C
:105840009343134C08348D1044F8253023468C10B4
:1058500053F824308C07240F00FA04F423430C4C33
:1058600008348D1044F8253030BD0A49DC31086019
:105870007047000000080140000C0140001001408A
:105880000014014000180140001C014000200140AC
:105890000000014000002042DF48006840F00100A5
:1058A000DD49086008464068DC490840DA4948603C
:1058B00008460068DA490840D74908600846006889
:1058C00020F4802008600846406820F4FE0048600C
:1058D0004FF41F0088607047CF49096821F4803178
:1058E000CD4A11601146096821F480211160B0F59C
:1058F000803F03D0B0F5802F0ED106E0C64909687D
:1059000041F48031C44A116007E0C349096841F499
:10591000A021C14A116000E000BF00BF704710B570
:1059200001460022002300204A11012A02D1BA4C6C
:10593000236806E0022A02D1B74C236A01E0B64C84
:10594000636A01F01F02012494401C400CB1012045
:1059500000E0002010BD38B5002000900024002594
:1059600000BF3120FFF7DBFF05460098401C009088
:105970000098B0F5A06F01D0002DF2D03120FFF7D4
:10598000CEFF08B1012400E00024204638BD0146C6
:105990000020A14A106820F0F80040EAC100106021
:1059A0007047A04908607047024600209A4B58682B
:1059B00020F47C1042EA01031843974B586070476B
:1059C00098490866704701460020934A506820F0C5
:1059D00003000843506070478F48406800F00C0097
:1059E0007047014600208C4A506820F0F0000843C0
:1059F0005060704701460020874A506820F4E060FC
:105A000008435060704701460020834A506820F4E4
:105A1000605040EAC1005060704729B17E4A527A16
:105A200002437D4B5A7204E07B4A527A82437A4B9E
:105A30005A7270477B49D831086070470146002090
:105A4000754A506820F44040084350607047002178
:105A5000714A20321170704A82F82010012802D059
:105A600004280AD104E001216B4A2032117005E0BC
:105A70000521694A2032117000E000BF00BF704765
:105A80006949086070476449096A0143624A1162C2
:105A90007047654944390860704730B500210022DD
:105AA000002400235C4D6D6805F00C0121B1042930
:105AB00005D0082923D105E05C4D056022E05B4D4F
:105AC00005601FE0544D6D6805F47012524D6D680D
:105AD00005F48034022505EB92421CB9544D554320
