:020000040800F2
:1000000090110020393D0008D90D0008DB0D0008D3
:10001000DF0D0008E30D0008E70D000800000000F8
:10002000000000000000000000000000EB0D0008D0
:10003000ED0D000800000000EF0D0008F10D0008B4
:10004000533D0008533D0008533D0008533D000850
:10005000533D0008533D0008533D0008533D000840
:10006000533D0008533D0008533D0008533D000830
:10007000533D0008533D0008533D0008533D000820
:10008000533D0008533D0008533D0008533D000810
:10009000533D0008533D0008533D0008533D000800
:1000A000533D00087B120008533D0008533D0008F3
:1000B000533D00081D23000835230008533D000868
:1000C000533D0008533D0008533D0008533D0008D0
:1000D000533D0008533D0008553800081D3A0008FC
:1000E000533D0008533D0008533D0008533D0008B0
:1000F000533D0008533D0008533D0008533D0008A0
:10010000533D0008533D00084D230008533D0008AF
:10011000853B00089F3C0008150A0008450D0008B3
:10012000533D0008533D0008533D0008533D00086F
:1001300000F002F800F06BF80AA090E8000C82448E
:100140008344AAF10107DA4501D100F060F8AFF26B
:10015000090EBAE80F0013F0010F18BFFB1A43F0A5
:1001600001031847AC8B0000CC8B00000A444FF011
:10017000000C10F8013B13F0070408BF10F8014B06
:100180001D1108BF10F8015B641E05D010F8016B4B
:10019000641E01F8016BF9D113F0080F1EBF10F8AF
:1001A000014BAD1C0C1B09D16D1E58BF01F801CBD2
:1001B000FAD505E014F8016B01F8016B6D1EF9D555
:1001C0009142D6D37047000000230024002500266A
:1001D000103A28BF78C1FBD8520728BF30C148BFAA
:1001E0000B607047642905F08586632905F0558703
:1001F000002070471FB506F043F8040000200021DE
:1002000006F096F8401C60601FBD10B510BD06F0EA
:1002100012F81146FFF7EEFF00F00EF806F042F874
:1002200003B4FFF7F2FF03BC03F044FA30BF72B629
:1002300062B680F3088870471CB500BF092003F040
:10024000E0F9482003F080F84FF4A06003F094FD3B
:1002500000F0E2FE4FF4E131482003F050FA4FF491
:10026000E13003F0A7FA02F025FD01F0DDFE01F018
:1002700039FF01F081FF01F0C9FF02F0F4F800F04E
:10028000A9FE00F013FF01F055FD02F04DFF002123
:10029000402002F049FE01201023FEA20C21009014
:1002A000002001F098FB01201823FDA21C210090E2
:1002B000002001F090FB01F0CEF94FF4FA7003F04A
:1002C0007BF801F0EBF9F8480268F8480168F8A0FB
:1002D00005F0A6FD092141F61F4000F0E1FF4FF4B3
:1002E000E13003F045FB4FF4E13003F0D4FB4FF471
:1002F000E13003F084FC322003F05EF802F04FFF9F
:1003000002F024FF0121EC4805F0C9FA81E3012045
:100310000C23EAA200210090084601F05CFB01F0EA
:100320009AF988E0EA498888002102F098FFE949B3
:100330000860002002F0B8FDE7490860E548006861
:10034000082803D00846006801280AD1E34800685D
:10035000401CE249086008460068072801DB0120CC
:100360000860DC48006802280AD1DC480068401EAA
:10037000DA49086008460068002801DC06200860A9
:1003800001F08CF901200C23CCA20021009008463A
:1003900001F021FB00200C210123CDE90010CF4802
:1003A00010210268002001F046FBCC4800680728B5
:1003B0003BD2DFE800F03A040D161F28310001207F
:1003C0000C23C7A210210090082001F004FB2CE0B0
:1003D00001200C23C7A210210090082001F0FBFA95
:1003E00023E001200C23C8A210210090082001F076
:1003F000F2FA1AE001200C23C6A210210090082076
:1004000001F0E9FA11E001200C23C5A210210090AF
:10041000082001F0E0FA08E001200C23C0A210211E
:100420000090082001F0D7FA00BF00BF01F013F9D7
:10043000322002F0C1FFA948006800283FF472AFE3
:10044000A4480068052804D0A34800680D287FF45C
:1004500069AF01F023F900200C210123CDE9001040
:100460009E4800210268084601F0E5FA01200C23AD
:10047000ADA200210090184601F0ADFA01F0EBF8B2
:100480004FF4FA7002F098FF01F008F99348006801
:10049000072873D2DFE800F07204FCFBFAF9F800D9
:1004A00041F61F41312000F05FFE4021002002F0A4
:1004B0003BFD51E102F00DFB052002F07DFF07201E
:1004C00002F02EFDC0F17F0099490860082002F07B
:1004D00027FDC0F17F0097490860052002F020FD4C
:1004E000C0F17F0094490860062002F019FDC0F1B8
:1004F0007F00924908608E4800688030A0B98D481E
:100500000068803080B98C480068803060B9084647
:100510000068803040B9002085490860854908603E
:100520008549086085490860012002F0BDFC6A49E0
:100530000860002002F0D6FC814908606648006827
:1005400009280AD17F4800680A2803D105207D497F
:10055000086002E00A207B4908605F4800680B28B9
:1005600003D18020784908600CE05B4800680C28C3
:1005700005D16FF07F007449086003E048E2002075
:10058000714908606E4800680E2808D10520464968
:1005900008600846002102686CA005F041FC68482C
:1005A0000068102809D16FF004003F490860084630
:1005B0000021026865A005F033FC61480068052849
:1005C0000AD13A480068401C38490860084600686B
:1005D000042801DD042008605948006807280AD172
:1005E00032480068401E314908600846006801280A
:1005F00001DA01200860524800680F280AD16FF024
:1006000004002949086008460268284801684FA08C
:1006100005F006FC4A4800680D2809D1052022494A
:100620000860084602682148016848A005F0F8FB08
:10063000434800680A2808D114201B49086008466E
:10064000052102681AA005F0EBFB3D480068092867
:1006500009D16FF0130014490860084605210268AB
:1006600013A005F0DDFB1A498888012102F0F7FD8F
:10067000032804D0012002F017FC01286CD101F0FE
:100680000DF80020154965E0C1E177E1F2E0ACE04A
:1006900065E061E02D2D4E434550552D2D000000A5
:1006A0004349453531300000E8000020E4000020D7
:1006B00053256425640D0A000024014057686963CE
:1006C000682050726F6772616D3F28312D362900A6
:1006D0000807002000000020D000002004000020B7
:1006E0002D5053325F72656D6F746520636F6E7449
:1006F000726F6C002D4175746F2052756E206F669D
:1007000020636875736169002D72756E205465737E
:10071000740000002D4B657920546573740000004F
:100720002D4E6F6E6500000050726F6772616D0034
:10073000C0000020C4000020C8000020CC00002021
:10074000D4000020BC000020D80000204D256425E6
:10075000640D0A00086000E0ACE600BF58E141F615
:100760001F41312000F000FD00F098FF01200C2314
:10077000FDA200210090084601F02DF901200C2374
:10078000FEA210210090002001F025F900F063FF87
:1007900028E0002000F09AFCFE4908600846006846
:1007A000022815D17121FC4804F01EFFFB480068A7
:1007B00008B9012000E00020F849086041F61F4117
:1007C000312000F0D1FC41F61F41632000F0F9FC1C
:1007D000F0480068012805D100F060FF0020F049D2
:1007E000086000E0D5E700BF12E141F61F4131206B
:1007F00000F0BAFC3BE03220EA4908600020EA49F8
:1008000008604FF47A7002F0D7FD3220E6490860A4
:100810000020E44908604FF47A7002F0CDFD6FF0DB
:100820003100E04908600020DF4908604FF47A7029
:1008300002F0C2FD6FF03100DB4908600020D949A9
:1008400008604FF47A7002F0B7FDD849888801211A
:1008500002F005FD032804D0012002F025FB0F283B
:1008600005D100F01BFF0020CD49086000E0C2E781
:1008700000BFCDE07FE00020CD490860CD49087081
:1008800011E0CC48007800EB4000C84901EB400083
:100890008088C74909680844C5490860C548007888
:1008A000401CC4490870C34800780A28E9DBC048E6
:1008B000006806F0ADF98146BF4906F0ABF8044682
:1008C00006F01AF807464FF06632BC4B05F016FFEB
:1008D000054605F043FDBA49886001200C23B9A202
:1008E00014210090002001F076F801200C21CDE9C0
:1008F0000010AE48828806231421322001F09BF8B4
:1009000001200C23B2A200210090084601F063F8F8
:10091000AB49886806F05CF9044601200C210623E7
:100920002246CDE900100021322001F084F89F49D1
:100930008888012102F093FC044601200C21034623
:100940002246CDE900101E21002001F074F800F0CD
:1009500082FE96498888012102F081FC032804D098
:10096000012002F0A1FA0F2805D100F097FE002027
:100970008B49086000E07EE700BF49E046E00120C7
:1009800001F08EFC404295490860032001F088FC8C
:1009900093490860052001F083FC92490860042017
:1009A00001F07EFC40429049086001200C210623A2
:1009B000CDE90010894800210268084601F03BF8A3
:1009C00001200C210623CDE9001085483221026860
:1009D000002001F030F801200C210623CDE90010A1
:1009E000804800210268322001F025F801200C2106
:1009F0000623CDE900107C4832210268084601F048
:100A00001AF800F028FE0A2002F0D6FCB7E700BF73
:100A100000BF7CE42DE9FC5F0121744804F093FCE5
:100A200000287DD07248006805F051FECDE9000134
:100A30005D4909685B4A126811446E4A1268881859
:100A400005F045FE074600226B4B05F0B9FC054654
:100A5000DDE9002305F052FE824605F009FE6749F4
:100A600008606348006805F032FE05460E464E49B0
:100A700009684C4A1268891A5E4A1268881A05F099
:100A800026FE824600225C4B05F09AFC07462A4669
:100A9000334605F033FECDE9000105F0E9FD584984
:100AA00008605348006805F012FE05460E463E49B0
:100AB00009683C4A126811444E4A1268881A05F0C7
:100AC00006FE074600224C4B05F07AFC82462A4679
:100AD000334605F013FECDE9000105F0C9FD494993
:100AE00008604348006805F0F2FD05460E462E49B1
:100AF00009682C4A1268891A3E4A1268881805F05B
:100B0000E6FD824600223C4B05F05AFC07462A4689
:100B1000334605F0F3FDCDE9000105F0A9FD00E045
:100B200002E1394908603948008800F40040C0B14A
:100B300036480088C0F30D09002404E03448005D05
:100B400034490855641C4C45F8DB0021314A601CCF
:100B5000115400202D490880104605F007FA2E494F
:100B600008602E4800885BE05072657373204B6507
:100B7000793120746F2073746172740050726573E0
:100B800073204B65793020746F2072657475726EB6
:100B90000000000000000020004400409481214239
:100BA00004000020C0000020C4000020080700202E
:100BB000DC000020E00000200000204766660A40BC
:100BC00048020020636875736869202000000000F7
:100BD0006469616E79612020000000000800002037
:100BE0000C00002010000020140000200010004025
:100BF000BC000020D800002000006040AC000020B5
:100C0000B0000020B4000020B8000020AE01002099
:100C10009C090020EB010020F4000020AC01002022
:100C200000F40040C0B155480088C0F30D0900240D
:100C300004E05348005D53490855641C4C45F8DBFB
:100C40000021504A601C115400204C490880104675
:100C500005F08CF94C4908604C48008800F40040CD
:100C6000C0B14A480088C0F30D09002404E0484898
:100C7000005D48490855641C4C45F8DB0021454A95
:100C8000601C1154002041490880104605F06EF99F
:100C900041490860012001F003FB40423F490860E0
:100CA000032001F0FDFA3E490860052001F0F8FA42
:100CB0003C490860042001F0F3FA40423A490860D8
:100CC0003A4801683548006801F01AFC3849086064
:100CD000384801683248006801F05DFC3649086018
:100CE000364801682F48006801F0A0FC34490860CC
:100CF000344801682C48006801F0E3FC3249086080
:100D00002B480168012001F078FB2B480168022084
:100D100001F073FB2A480168032001F06EFB2A48AA
:100D20000168042001F069FB0121284804F01CFB44
:100D30002748006808B9012000E000202449086025
:100D4000BDE8FC9F10B50121224804F0FCFA58B11F
:100D50000121204804F008FB1D48006808B9012063
:100D600000E000201A49086010BD70B50446204616
:100D700005F0FCF80546284670BD0000AC010020D7
:100D8000D408002009020020F0000020AA01002061
:100D90000C08002027020020EC00002008000020A2
:100DA0000C0000201000002014000020AC000020E7
:100DB00088000020B00000208C000020B40000203B
:100DC00090000020B8000020940000200010004097
:100DD0009401234200140040704700BFFEE700BFAB
:100DE000FEE700BFFEE700BFFEE7704770477047B1
:100DF000704700000CB50020019000906C4800681E
:100E000040F480306A49086000BF6948006800F417
:100E1000003000900198401C0190009818B901988A
:100E2000B0F5A06FF1D16248006800F4003010B155
:100E30000120009001E0002000900098012843D19B
:100E40005C48006840F010005A4908600846006895
:100E500020F0030008600846006840F002000860C7
:100E60005348406852494860084640684860084610
:100E7000406840F4806048600846406820F47C1078
:100E800048600846406840F4E8104860084600683A
:100E900040F08070086000BF4548006800F00070B6
:100EA0000028F9D04248406820F0030040494860DB
:100EB0000846406840F00200486000BF3C48406877
:100EC00000F00C000828F9D10CBD10B5FFF792FF17
:100ED00010BD10B53648006840F001003449086084
:100EE000084640683449084031494860084600686F
:100EF000324908402E4908600846006820F48020E6
:100F000008600846406820F4FE0048604FF41F0067
:100F10008860FFF7DAFF4FF000602949086010BDD4
:100F200010B5002100200022214B5B6803F00C016A
:100F300021B1042906D0082928D107E0214B224CF1
:100F4000236027E01F4B204C236023E0184B5B6895
:100F500003F47010164B5B6803F48032022303EB3A
:100F6000904022B9194B4343174C23600DE0104BBE
:100F70005B6803F4003323B1144B4343124C2360EA
:100F800003E0104B4343104C236003E00D4B0E4C29
:100F9000236000BF00BF064B5B68C3F303130C4C18
:100FA000E15C094B1B68CB40074C236010BD00007F
:100FB00000100240002002400000FFF8FFFFF6FE94
:100FC00008ED00E000127A00F800002000093D0062
:100FD000FC00002008B50121482003F057FA20202A
:100FE000ADF8000010208DF8030003208DF80200FA
:100FF00069462B4802F08EFF2021294803F037F87C
:101000002020ADF800006946264802F083FF202129
:10101000244803F02CF808BD08B50121102003F086
:1010200035FA0820ADF8000010208DF803000320E9
:101030008DF8020069461C4802F06CFF08211A482E
:1010400003F017F808BD08B50121102003F01EFABF
:101050004FF40060ADF8000010208DF8030003206D
:101060008DF802006946104802F054FF4FF4006109
:101070000D4802F0FCFF4FF48050ADF80000102046
:101080008DF8030003208DF802006946064802F03F
:1010900041FF4FF48051044802F0EBFF08BD00000F
:1010A000000C0140001801400010014008B501216A
:1010B000442003F0EBF91C20ADF8000048208DF827
:1010C00003006946264802F025FF08BD10B5044616
:1010D00014B10120234908702248007848B3102138
:1010E0001F4802F0AAFF48B108211D4802F0A5FFE1
:1010F00020B104211A4802F0A0FFD0B9052002F067
:101100005BF90020174908701021154802F095FF7F
:1011100008B9012010BD0821114802F08EFF08B95E
:101120000220F7E704210E4802F087FFA8B9032048
:10113000F0E710210A4802F080FF01280DD10821B4
:10114000074802F07AFF012807D10421044802F081
:1011500074FF012801D1034908700020DAE700007C
:10116000001801400C0100207FB505460C46012106
:10117000102003F098F9ADF80850ADF804400020B5
:10118000ADF80A00ADF8060001A9EA4803F0B6FA86
:1011900001221146E74803F028FE36208DF80000B2
:1011A00000208DF8010002208DF8020001208DF84A
:1011B0000300684602F0E5FD0121DE4803F0FAFD78
:1011C0007FBD7FB505460C460121202003F06BF959
:1011D000ADF80850ADF804400020ADF80A00ADF8B5
:1011E000060001A9D44803F089FA01221146D24829
:1011F00003F0FBFD37208DF8000000208DF8010082
:1012000003208DF8020001208DF80300684602F0EB
:10121000B8FD0121C84803F0CDFD7FBD7FB505466F
:101220000C460121C80203F031F9ADF80850ADF8C1
:1012300004400020ADF80A008DF80C00ADF806005F
:1012400001A9BE4803F05AFA01221146BC4803F036
:10125000CCFD19208DF8000000208DF8010003203E
:101260008DF8020001208DF80300684602F089FD28
:101270000121B24803F09EFD7FBD10B50121AF48AA
:1012800004F061F858B10121AC4804F06DF8AD48A4
:10129000006808B9012000E00020AA49086010BDDC
:1012A00030B589B005460C460121480303F0EEF83D
:1012B0000121112003F0EAF84FF47070ADF820001E
:1012C00018208DF8230003208DF8220008A99E48DD
:1012D00002F020FEADF81850ADF814400020ADF833
:1012E0001A00ADF8160005A9954803F007FA60202A
:1012F000ADF804000120ADF806000020ADF80A00AA
:10130000ADF80C0001A98E4803F035FA01A98C480C
:1013100003F073FA01A98A4803F0BCFA01A98848CE
:1013200003F003FB0121864803F050FD08218448A7
:1013300003F070FE0821824803F075FE0821804802
:1013400003F07EFE08217E4803F083FE01217C48E5
:1013500003F030FE01217A4803F02CFD09B030BDC6
:1013600030B589B005460C460121022003F09BF8F8
:1013700001210D2003F08AF803208DF822001820A7
:101380008DF82300C020ADF8200008A96F4802F0B6
:10139000C1FD03208DF8220018208DF823000320C2
:1013A000ADF8200008A96A4802F0B4FDADF8185065
:1013B000ADF814400020ADF81A00ADF8160005A9EC
:1013C000644803F09BF96020ADF804000120ADF8FB
:1013D00006000020ADF80C0001A95E4803F0CBF92F
:1013E00008215C4803F016FE01A95A4803F005FAEB
:1013F0000821584803F017FE01A9564803F04AFA9D
:101400000821544803F01CFE01A9524803F08DFA4C
:101410000821504803F01DFE01214E4803F0CAFC8C
:1014200009B030BD7FB505460C460121084603F0E2
:101430003AF8ADF80850ADF804400020ADF80A00C5
:10144000ADF8060001A94FF0804003F057F90122E2
:101450001146900703F0C9FC1C208DF80000002005
:101460008DF8010003208DF8020001208DF80300A3
:10147000684602F086FC0121880703F09BFC7FBDD3
:101480007FB505460C460121042003F00CF8ADF8A9
:101490000850ADF804400020ADF80A00ADF8060091
:1014A00001A92D4803F02AF9012211462A4803F028
:1014B0009CFC1E208DF8000001208DF80100022008
:1014C0008DF8020001208DF80300684602F059FCF7
:1014D0000121214803F06EFC7FBD7FB505460C4617
:1014E0000121082002F0DFFFADF80850ADF80440FC
:1014F0000020ADF80A00ADF8060001A9174803F076
:10150000FDF801221146154803F06FFC32208DF8DA
:10151000000000208DF8010003208DF8020001205A
:101520008DF80300684602F02CFC01210B4803F003
:1015300041FC7FBD0010004000140040002C014021
:101540000034014094012342001001400008014092
:10155000000C01400004004000080040000C004066
:1015600070B504460E462EB14FF40041FB4802F020
:101570007EFD04E04FF40041F84802F07AFD0221BC
:10158000F64802F076FD002519E04FF48051F4484A
:1015900002F06FFD04F0800020B12021EF4802F03E
:1015A00066FD03E02021ED4802F063FD4FF4805119
:1015B000EB4802F05CFD6006040E681CC5B2082D05
:1015C000E3DB0221E54802F052FD4FF40041E3481D
:1015D00002F04DFD70BD10B504461CB90021A620D7
:1015E000FFF7BEFF012C03D10021A720FFF7B8FFB2
:1015F00010BD10B504463CB90021C820FFF7B0FF6C
:101600000021A120FFF7ACFF012C07D10021C02051
:10161000FFF7A6FF0021A020FFF7A2FF10BD10B525
:1016200000218D20FFF79CFF00211420FFF798FF79
:101630000021AF20FFF794FF10BD10B500218D20D1
:10164000FFF78EFF00211020FFF78AFF0021AE2058
:10165000FFF786FF10BD70B500241CE004F1B00157
:10166000C8B20021FFF77CFF00210846FFF778FF92
:1016700000211020FFF774FF002508E0B94901EBB5
:10168000C501085D0121FFF76BFF681CC5B2802D05
:10169000F4DB601CC4B2082CE0DB70BD70B5002424
:1016A0000CE0002506E00020AE4901EBC50108551D
:1016B000681CC5B2802DF6DB601CC4B2082CF0DBC0
:1016C000FFF7C9FF70BDF0B514460B46CF1701EB0D
:1016D0005777C7F3C702CF1701EB5777FF10A1EB7E
:1016E000C707FEB20123B340DDB24CB19D4B03EB03
:1016F000C0039B5C2B439B4F07EBC007BB541AE016
:10170000984B03EBC0039B5CDB43964F07EBC00792
:10171000BB54944B03EBC0039B5C2B43914F07EBF3
:10172000C007BB548F4B03EBC0039B5CDB438D4F67
:1017300007EBC007BB54F0BD2DE9FF4F84B08146D5
:101740008A460020029083460698A0EB0904079879
:10175000A0EB0A06CDF80490CDF800A0002C01DD26
:10176000012705E00CB9002702E04FF0FF37644283
:10177000002E02DD4FF0010806E016B94FF0000818
:1017800002E04FF0FF386642B44201DD254600E03A
:101790003546002003901EE0009AD1B2019AD0B2E3
:1017A000119AFFF790FF029820440290B3440298E8
:1017B000A84205DD0298401B029001983844019030
:1017C000AB4504DDABEB050B00984044009003985B
:1017D000401C80B20390691C03988842DCDB08B08F
:1017E000BDE8F08F2DE9F04306460F4690460025F0
:1017F000444643E03A1BD1B27219D0B20122FFF73E
:1018000062FF3A1BD1B2721BD0B20122FFF75BFF1D
:101810003A19D1B2721BD0B20122FFF754FF3A1924
:10182000D1B27219D0B20122FFF74DFF7A19D1B2AD
:101830003219D0B20122FFF746FF7A1BD1B232191A
:10184000D0B20122FFF73FFF7A1BD1B2321BD0B2D8
:101850000122FFF738FF7A19D1B2321BD0B2012230
:10186000FFF731FF6D1C05FB05F004FB040008FBCE
:101870001809B9F1000F01DD641E6D1E60006043A0
:1018800008FB08F18842B5DABDE8F0832DE9FE4F88
:101890000746884692461C460197CDF80080082CE2
:1018A00002D14FF006091FE02046E31704EB537303
:1018B000DB1021464FEAE47C04EB5C7C4FEAEC0C45
:1018C000A4EBCC0CBCF1000F02D04FF0010C01E0F6
:1018D0004FF0000C6344224604EBD27C4FEA6C0CC0
:1018E00003FB0CF303F0FF09AAF12000C6B20025A8
:1018F0006DE0082C07D106EB46001B4901EB4000C8
:1019000010F805B01DE00C2C07D106EB4600174976
:1019100001EB800010F805B013E0102C05D114483D
:1019200000EB061010F805B00BE0182C07D106EB01
:10193000C600104901EB800010F805B001E0BDE8D9
:10194000FE8F002002902BE00BF00100A0B1414679
:1019500038460C9AFFF7B7FE18E00000001401406B
:101960000020014054020020FE6E0008267100088D
:101970009A7500088A7B00080C9808B9012000E0DD
:101980000020024641463846FFF79DFE4FEA6B0BAA
:1019900008F1010000F0FF080298401CC0B202905C
:1019A00002980828D0DB781CC7B2082C0BD004EBB7
:1019B000D4714A100199791A8A4204D1019F009882
:1019C0000830C0B20090DDF80080681CC5B24D45FB
:1019D0008FDB00BFB3E72DE9F84106460F461446FA
:1019E0001D46DDF81C8013E0CDF8008022782B46E0
:1019F00039463046FFF74AFF082D02D1B01DC6B266
:101A000005E0284605EBD07106EB6101CEB2641CFF
:101A10002078202802DB20787E28E5DDBDE8F881EB
:101A200010B50246012000E050430B00A1F1010473
:101A3000E1B2F9D110BD2DE9FF4F82B006469146C3
:101A40001F46DDE90F4A4FF0000B082C01D14FF083
:101A5000020B002530E0781B401EC1B20A20FFF7C0
:101A6000DFFFB9FBF0F00A21B0FBF1F201FB120835
:101A7000B8F1000F0ED104EBD4710BEB610101FB47
:101A80000561C8B223463022CDE900A40399FFF7CF
:101A9000FDFE0FE004EBD4710BEB610101FB05616E
:101AA000C8B208F13001CAB22346CDE900A40399B7
:101AB000FFF7ECFE681CC5B2BD42CCDB06B0BDE84A
:101AC000F08F2DE9FC4F0746884616461C46BB465C
:101AD000CDF804802046E21704EB5272D210214662
:101AE000E31704EB5373DB10A4EBC3030BB1012327
:101AF00000E000231A44624392B20092002555E0B0
:101B0000102C05D1EB4800EB461010F805A01BE0A7
:101B1000182C07D106EBC600E74901EBC00010F80E
:101B200005A011E0202C05D1E44800EBC61010F808
:101B300005A009E0402C05D1E14800EB462010F853
:101B400005A001E0BDE8FC8F4FF000091CE00AF0A1
:101B5000010028B1414638460B9AFFF7B4FD09E071
:101B60000B9808B9012000E00020024641463846A3
:101B7000FFF7A9FD4FEA6A0A08F1010000F0FF082B
:101B800009F1010000F0FF09B9F1080FDFDB781C53
:101B9000C7B2A7EB0B00A04204D15F460198083002
:101BA000C0B20190DDF80480681C85B200988542BF
:101BB000A6DB00BFC6E708B58046894692460026E8
:101BC00000274BE04FB91023324618218020CDF872
:101BD00000A0FFF776FF701CC6B2464522D14FF039
:101BE000000B1AE0012410E000250AE0B54800EBE4
:101BF000C400415D601EB34A02EBC0004155681C41
:101C0000C5B2082DF2DB601CC4B2902CECDBFFF7F0
:101C100022FD0BF1010000F0FF0B4FEA09105845BF
:101C2000E0DC0026781CC7B2102F00D10027012469
:101C300010E000250AE0A34800EBC400415D601EEF
:101C4000A04A02EBC0004155681CC5B2082DF2DB6A
:101C5000601CC4B2902CECDBFFF7FDFCB2E72DE971
:101C6000FF4F05460E4617461C46DDF838904FF0EC
:101C7000000A0095B3462046E21704EB5272D210D8
:101C80002146E31704EB5373DB10A4EBC3030BB142
:101C9000012300E000231A44D4B24FF0000845E0CD
:101CA000002003903BE00D9810F80A0002900AF122
:101CB00001001FFA80FA002001901DE0029800F058
:101CC000010028B14A4631462846FFF7FCFC0AE0ED
:101CD000B9F1000F01D1012000E000200246314699
:101CE0002846FFF7F0FC029840100290701CC6B224
:101CF0000198401CC0B2019001980828DEDB681CE6
:101D0000C5B20098281AB84204D1009D0BF1080012
:101D100000F0FF0B5E460398401CC0B2039003988E
:101D2000B842C0DB08F1010000F0FF08A045B7DBB6
:101D3000BDE8FF8F08B501214FF4B07002F0A6FB9B
:101D40004FF48050ADF8000010208DF80300032000
:101D50008DF8020069465C4802F0DCF84FF48051CF
:101D6000594802F084F948F22240ADF800001020F2
:101D70008DF8030003208DF802006946534802F0F5
:101D8000C9F848F22241514802F071F94FF4A060BD
:101D9000ADF8000010208DF8030003208DF802003C
:101DA00069464B4802F0B6F84FF4A061484802F08B
:101DB0005EF94FF48061454802F05BF9C82001F0FC
:101DC000FBFA4FF48061414802F051F90021AE2046
:101DD000FFF7C6FB00210846FFF7C2FB00211020D9
:101DE000FFF7BEFB00214020FFF7BAFB0021812056
:101DF000FFF7B6FB0021CF20FFF7B2FB0021A120A7
:101E0000FFF7AEFB0021C820FFF7AAFB0021A620A8
:101E1000FFF7A6FB0021A820FFF7A2FB00213F202F
:101E2000FFF79EFB0021D320FFF79AFB0021084615
:101E3000FFF796FB0021D520FFF792FB00218020C1
:101E4000FFF78EFB0021D920FFF78AFB0021F1204C
:101E5000FFF786FB0021DA20FFF782FB002112202A
:101E6000FFF77EFB0021DB20FFF77AFB00214020FB
:101E7000FFF776FB00212020FFF772FB00210220F4
:101E8000FFF76EFB00218D20FFF76AFB0021142075
:101E9000FFF766FB0021A420FFF762FB0021A620CC
:101EA000FFF75EFBFFF7FAFB0021AF20FFF758FBBF
:101EB00008BD0000E6880008468A00088E8A0008EF
:101EC0000E8B000854020020002001400014014045
:101ED0000018014030B503461C788C545D78541CC2
:101EE0000D559D78941C0D55DD78D41C0D5530BDD5
:101EF00013B50C460A2C00DC04B91CBD0B2C43D2D4
:101F0000DFE804F042060C12181E242A30363C008A
:101F1000012244496846FFF7DDFF35E005224149CB
:101F20006846FFF7D7FF2FE009223E496846FFF7D2
:101F3000D1FF29E00D223B496846FFF7CBFF23E0A4
:101F4000112238496846FFF7C5FF1DE015223549C3
:101F50006846FFF7BFFF17E0192232496846FFF7CE
:101F6000B9FF11E01D222F496846FFF7B3FF0BE0D0
:101F700021222C496846FFF7ADFF05E025222949BB
:101F80006846FFF7A7FF00BF00BF00BFB5E70146E7
:101F90000A2900DC09B9002070472420214A10706A
:101FA0000B293CD2DFE801F03B060B10151A1F2469
:101FB000292F350005201B4A50710620ECE7092027
:101FC000184A50720A20E7E70D20164A50730E2077
:101FD000E2E71120134A50741220DDE71520114A60
:101FE00050751620D8E719200E4A50761A20D3E7EC
:101FF0001D200C4A50771E20CEE72120094A82F886
:1020000021002220C8E72520064A82F82500262044
:10201000C2E72920034A82F829002A20BCE70020D1
:10202000BAE70000D406002000B587B001210846B9
:1020300002F02CFA0121C80202F028FA0121402006
:1020400002F024FA0121C74802F035F84FF400707D
:10205000ADF8000004208DF803006946C24801F085
:1020600059FF4FF40060ADF8000004208DF8030024
:102070006946BD4801F04EFF04A802F06BFE002047
:10208000ADF810004FF6FF70ADF814000020ADF869
:102090001600ADF8120004A9B44802F02FFB00238B
:1020A0001A460321B14802F038FF01A802F065FE8C
:1020B0000A20ADF80C0001A9AC4802F0B2FD0121E4
:1020C000AA4803F03DF901221146A84802F08DFE0E
:1020D0000021A64803F002F90121A44802F06AFE9B
:1020E00007B000BD00B587B00121022002F0DBF986
:1020F0000121042002F0CAF9C020ADF8000004203C
:102100008DF8030069469A4801F004FF04A802F024
:1021100021FE0020ADF810004FF6FF70ADF814005E
:102120000020ADF81600ADF8120004A9914802F0A5
:10213000E5FA00231A4603218E4802F0EEFE01A8BC
:1021400002F01BFE0A20ADF80C0001A9894802F03C
:1021500068FD0121874803F0F3F801221146854804
:1021600002F043FE0021834803F0B8F801218148C2
:1021700002F020FE07B000BD00B587B001210420A9
:1021800002F091F90121082002F080F9C020ADF899
:10219000000004208DF803006946774801F0BAFE7C
:1021A00004A802F0D7FD0020ADF810004FF6FF7034
:1021B000ADF814000020ADF81600ADF8120004A927
:1021C0006E4802F09BFA00231A4603216B4802F086
:1021D000A4FE01A802F0D1FD0A20ADF80C0001A96F
:1021E000664802F01EFD0121644803F0A9F80122AF
:1021F0001146624802F0F9FD0021604803F06EF8D4
:1022000001215E4802F0D6FD07B000BD00B587B0E1
:102210000121082002F047F90121042002F036F9DB
:102220000320ADF8000004208DF8030069465048F3
:1022300001F070FE04A802F08DFD0020ADF8100042
:102240004FF6FF70ADF814000020ADF81600ADF8A1
:10225000120004A94A4802F051FA00231A46032149
:10226000474802F05AFE01A802F087FD0A20ADF8A7
:102270000C0001A9424802F0D4FC0121404803F0BF
:102280005FF8012211463E4802F0AFFD00213C48B4
:1022900003F024F801213A4802F08CFD07B000BD9C
:1022A0000146012906D003290DD0042914D005299F
:1022B00024D11AE02D4A2432128810B200222B4B6E
:1022C00024331A801CE02B4A2432128810B20022D8
:1022D000284B24331A8013E0284A2432128810B283
:1022E0000022264B24331A800AE0254A2432128821
:1022F00010B20022224B24331A8001E0002000BFDC
:1023000000BF704719481030008818481030008806
:1023100020F0010015491031088070471548103031
:10232000008814481030008820F001001149103155
:10233000088070471148103000881048103000881D
:1023400020F001000D491031088070470C48103012
:1023500000880B481030008820F001000849103137
:1023600008807047C000160000180140002C014092
:102370000008014000040040000C0140000800403B
:10238000000C00400146002901DA484200E00846FE
:102390007047012806D002280ED0032816D0042842
:1023A00029D11DE0FE4A116009B9012200E0002296
:1023B000FB4B1B1D1A601EE0FA4A116009B901228D
:1023C00000E00022F74B1B1F1A6014E0F64A116070
:1023D00009B9012200E00022F34B1B1F1A600AE03A
:1023E000F04A1C3A116009B9012200E00022ED4BCD
:1023F000183B1A6000BF00BF704770B505460C4619
:10240000002C04DA00212846FFF7C3FF03E0012176
:102410002846FFF7BEFF2046FFF7B4FF0446B4F599
:102420007A6F01DD4FF47A64012D06D0022D09D0B8
:10243000032D0CD0042D14D10EE0A1B2DB4802F024
:1024400051FF0EE0A1B2D94802F04EFF09E0A1B25F
:10245000D64802F04BFF04E0A1B2D44802F048FF96
:1024600000BF00BF70BD08B50121582002F00EF872
:102470000320ADF8000010208DF8030003208DF834
:1024800002006946CA4801F045FD0320ADF800008E
:1024900010208DF8030003208DF802006946C5481E
:1024A00001F038FDC320ADF8000010208DF80300C6
:1024B00003208DF802006946BF4801F02BFD012181
:1024C000BB4801F0D6FD0221B94801F0D2FD01213F
:1024D000B84801F0CEFD0221B64801F0CAFD012145
:1024E000B54801F0C6FD0221B34801F0C2FD40210C
:1024F000B14801F0BEFD8021AF4801F0BAFD08BD32
:102500002DE9F05F04460D4660422844AB4908605F
:102510000846006804F07CFB8346A94801685846D9
:1025200004F0A2FB8046A5490968A64A1268881AE9
:1025300004F06EFB8346A4480168584604F094FBFF
:102540008146414604F004FA0746A048006804F0BA
:102550005FFB8246394604F0FBF9064604F01CFB9B
:102560009A4908600846006840F6B831884202DDA2
:10257000084696490860954800689549884202DAFD
:102580000846924908608D4800688E4908608F4867
:102590000068BDE8F09F2DE9F05F04460D466042FB
:1025A00028448C4908600846006804F031FB8346E3
:1025B00083480168584604F057FB804685490968FE
:1025C000854A1268881A04F023FB83467E48016816
:1025D000584604F049FB8146414604F0B9F90746E4
:1025E0007E48006804F014FB8246394604F0B0F9D6
:1025F000064604F0D1FA794908600846006840F6BA
:10260000B831884202DD08467449086073480068A2
:102610006F49884202DA0846704908606D480068D0
:102620006D4908606D480068BDE8F09F2DE9F05FD6
:1026300004460D466042284469490860084600681F
:1026400004F0E6FA83465E480168584604F00CFB45
:10265000804663490968634A1268881A04F0D8FA08
:10266000834659480168584604F0FEFA81464146BF
:1026700004F06EF907465C48006804F0C9FA824627
:10268000394604F065F9064604F086FA56490860B2
:102690000846006840F6B831884202DD08465249D3
:1026A0000860514800684A49884202DA08464E49A3
:1026B00008604B4800684B4908604B480068BDE81B
:1026C000F09F2DE9F05F04460D46604228444749DB
:1026D00008600846006804F09BFA834638480168A1
:1026E000584604F0C1FA804640490968404A1268D9
:1026F000881A04F08DFA834633480168584604F07E
:10270000B3FA8146414604F023F907463948006888
:1027100004F07EFA8246394604F01AF9064604F0BF
:102720003BFA344908600846006840F6B8318842F0
:1027300002DD08462F4908602E4800682449884277
:1027400002DA08462B4908602848006828490860D2
:1027500028480068BDE8F09F2DE9F84F04460D4673
:102760000026254FDFF89480601B04F051FA2449BD
:102770000860084601682348006804F0E9F8214928
:102780000860214801681E48006804F043FB834646
:10279000414604F069FA81461A480168384635E036
:1027A000800122429C012342848121420034014065
:1027B000000C0140001001400018014018010020E9
:1027C0001401002020010020100100201C01002025
:1027D00048F4FFFF240100202C01002028010020E4
:1027E0003001002038010020340100203C0100208D
:1027F0004401002040010020CDCC4C3D000040426F
:1028000048010020500100205401002004F02CFA5F
:10281000834640480168304604F026FA5946009045
:1028200004F096F88246494604F092F83A49086066
:1028300038480068394908603748006804F0ACF946
:10284000BDE8F88F2DE9F04F85B004460D46344EB3
:1028500000274FF0000860422844324908600846CB
:10286000006831490968401A304908600846006824
:102870002F490968401A2F4908600846006804F08B
:10288000C7F98346414604F0EFF9049025480068F3
:1028900004F0BEF98346394604F0E6F90390234874
:1028A000006804F0B5F93146009004F0DDF9834684
:1028B0002148006804F0ACF95946019004F048F84A
:1028C0000290039904F044F88246049904F040F819
:1028D000814604F061F918490860124800681249FD
:1028E000086012480068124908601348006805B083
:1028F000BDE8F08F4FF4967140F2EE22521A8242F8
:1029000002DD40F2EE22501A01F2EE22824200DA9B
:1029100010467047480100204C010020540100205F
:102920000000C04058010020600100206401002028
:102930006C010020680100205C0100202DE9FC5F93
:1029400004460E4617469846DDE90DA90C9D99F8F8
:10295000000000EBD071491022789AF8003003FB98
:1029600001212170207808FB0500802806DD002069
:102970002070307899F8001008443070002F17DB71
:1029800001200090317820782B46BAA2FFF723F877
:102990000120AB4605EBDB72CDE90050237803EB59
:1029A0006202D0B2317843463A46FFF744F816E067
:1029B00001200090317820782B46AFA2FFF70BF86A
:1029C0000120AB4605EBDB72CDE90050237803EB29
:1029D0006202D0B2317843467A42FFF72CF808F110
:1029E00001008AF8000089F80050BDE8FC9F00B59E
:1029F00087B0002006900C200590002004900390E2
:102A000004A803A90C220423CDE9002102909B48CD
:102A100005A9026806A8FFF791FF04A803A90C22E4
:102A20000423CDE900210290954805A9026806A873
:102A3000FFF784FF04A803A90C220423CDE9002199
:102A40000290904805A9026806A8FFF777FF04A83E
:102A500003A90C220423CDE9002102908A4805A98C
:102A6000026806A8FFF76AFFFEF7F5FD07B000BD94
:102A70002DE9F84304460D4690461E46DDE90897C9
:102A8000387800EBD0714A10237899F80010491C6F
:102A900001FB02312170404603F075FA217800FBFA
:102AA0000610802805DD0020207028783978084439
:102AB0002870002000902978207833464246FEF79F
:102AC0008AFF404603F05FFA89F800003E70BDE8D7
:102AD000F88300B587B0002006900C2005900020F8
:102AE00004900390FEF7DAFD04A803A90C2367A263
:102AF000CDE9001005A906A8FFF7BAFF04A803A9AD
:102B00000C220523CDE900210290624805A9026844
:102B100006A8FFF713FF04A803A90C235E4ACDE91A
:102B2000001005A906A8FFF7A3FFFEF794FD07B064
:102B300000BD2DE9FC5F06460D4617469846DDE9C7
:102B40000DA90C9C00203070287899F800100844DA
:102B50002870002F17DB0120009029783078234659
:102B600044A2FEF738FF0120A34604EBDB72CDE957
:102B70000040337803EB6202D0B2297843463A46EC
:102B8000FEF759FF16E0012000902978307823469F
:102B900039A2FEF720FF0120A34604EBDB72CDE94A
:102BA0000040337803EB6202D0B2297843467A4280
:102BB000FEF741FF08F101008AF8000089F80040A3
:102BC000BDE8FC9F2DE9F84305460C4616461F4616
:102BD000DDE9089800202870207898F80010084453
:102BE000207001200090217828783B463246FEF77D
:102BF000F2FE304603F0C7F989F8000088F800704B
:102C0000BDE8F88310B52548006804F001F80446D3
:102C10000121FFF76DF92248006803F0F9FF04462F
:102C20000221FFF765F903210020FFF761F9032076
:102C3000FFF7ADF91B49087000201B49087012E02E
:102C400000BF1A48008800F040000028F9D018485A
:102C500015490978405C1549091D0880124800781B
:102C6000401C11490870104800780E4909788842C4
:102C7000E6DB10BD200000002D00000088000020D1
:102C80008C00002090000020940000206C65667489
:102C900000000000F0000020090200206C0000206D
:102CA00070000020720100207001002000380140F7
:102CB000D406002008B50121202001F0E7FB40F6F2
:102CC0001800ADF8000010208DF8030003208DF8E7
:102CD00002006946FE4801F01DF9FD48006820F039
:102CE0000F00FB4908600846006840F008000860D3
:102CF00008BD38B50446012000900020F549487011
:102D0000012000902EE0BDF80000204018B1012005
:102D1000F149086002E00020EF4908600120EE4917
:102D200020390860052000F02BFB0020EB49C1F89A
:102D30008C01052000F024FB0120E849C1F88C013A
:102D40000846D0F8000130B1E2484078BDF80010E4
:102D50000843E0494870BDF800004FF6FF7101EAF2
:102D600040000090BDF80000FF28CCDD102000F0EE
:102D700007FB38BD10B50020D7491C390860D84979
:102D80000878FFF7B6FFD6494878FFF7B2FF012071
:102D9000D249C1F89001CF484078732801D1002072
:102DA00010BD0120FCE71CB500200190012000901F
:102DB0000020C9491C390860C9490878FFF799FF04
:102DC000C7494878FFF795FF0220019036E00120BF
:102DD000009027E00120C04920390860052000F05C
:102DE000CFFA0020BD49C1F88C01052000F0C8FAD7
:102DF0000120BA49C1F88C010846D0F8000150B151
:102E0000B4489DF80410405CBDF800100843B14977
:102E10009DF804208854BDF800004FF6FF7101EAC8
:102E200040000090BDF80000FF28D3DD102000F026
:102E3000A7FA9DF80400401CC0B201909DF8040060
:102E40000928C4DB0120A4491C3908601CBD0020EE
:102E500004E000219F4A1154411CC8B20928F8DB44
:102E6000704710B5FFF7F3FFFFF79DFF9948C07853
:102E70009849097940EA01209A49088000240FE026
:102E8000994810F81400401E012101FA00F09549FC
:102E90000988084010B9601CC0B210BD601CC4B2E3
:102EA000102CEDDB0020F8E710B5044614B101202A
:102EB0008E490870FFF7D5FF8D4908708B48007860
:102EC00040B10846007828B1002088490870884839
:102ED000007810BD8648007810B901208349087039
:102EE0000020F6E710B5044614B1012081490870AE
:102EF000FFF7B7FF804908707E48007840B1084668
:102F0000007828B100207B4908707B48007810BD0C
:102F10007948007810B90120764908700020F6E75A
:102F200001466C48405C704770B505460C46002071
:102F300069491C390860102000F022FA0120FFF7CF
:102F4000D8FE4220FFF7D5FE0020FFF7D2FE28462C
:102F5000FFF7CFFE2046FFF7CCFE0020FFF7C9FEAB
:102F60000020FFF7C6FE0020FFF7C3FE0020FFF79A
:102F7000C0FE01205949C1F89001102000F000FA6C
:102F800070BD10B5002054491C390860102000F0B5
:102F9000F7F90120FFF7ADFE4220FFF7AAFE00205F
:102FA000FFF7A7FE0020FFF7A4FE0020FFF7A1FE19
:102FB00001204A49C1F89001102000F0E1F910BD4C
:102FC00010B5002044491C390860102000F0D8F9E1
:102FD0000120FFF78EFE4320FFF78BFE0020FFF756
:102FE00088FE0120FFF785FE0020FFF782FE00200B
:102FF000FFF77FFE0020FFF77CFE0020FFF779FE41
:103000000020FFF776FE01203449C1F8900110201E
:1030100000F0B6F910BD10B500202F491C3908602A
:103020000120FFF766FE4420FFF763FE0020FFF754
:1030300060FE0120FFF75DFE0320FFF75AFE00202F
:10304000FFF757FE0020FFF754FE0020FFF751FE68
:103050000020FFF74EFE01202049C1F8900110200A
:1030600000F08EF910BD10B500201B491C39086016
:10307000102000F085F90120FFF73BFE4D20FFF7FF
:1030800038FE0020FFF735FE0020FFF732FE01205A
:10309000FFF72FFE01201149C1F89001102000F028
:1030A0006FF910BD10B500200B491C3908601020C5
:1030B00000F066F90120FFF71CFE4320FFF719FE20
:1030C0000020FFF716FE0020FFF713FE5A2015E040
:1030D00000140140FE060020AC8122420080224202
:1030E0007A010020780100207C0100209C01002052
:1030F0009D0100209E0100209F010020FFF7F9FDA7
:103100005A20FFF7F6FD5A20FFF7F3FD5A20FFF78C
:10311000F0FD5A20FFF7EDFD01200B49C1F89001A9
:10312000102000F02DF910BD10B5FFF72AFFFFF7B2
:1031300028FFFFF726FFFFF743FFFFF76CFFFFF7BE
:1031400092FFFFF7AFFF10BD0080224200B58BB0A9
:103150000121084601F08DF9764802F035FD7648E8
:10316000009076480190002002901E2003900020DD
:103170000490802005904000069080000790202059
:1031800008900002099000200A906946694802F000
:10319000BDFD0121674802F0E4FD0BB000BD00B5A4
:1031A00087B00420ADF8040000208DF8070001A9C5
:1031B000634800F0AFFE01214FF4057001F066F99D
:1031C0004FF4004001F0C6F80020029001208DF875
:1031D0000C008DF80D004FF4602004900020059045
:1031E00003208DF8180002A953484C3802F0EBFA7E
:1031F00007230122002150484C3802F07CFB0723B2
:10320000022201214C484C3802F075FB07230322AF
:103210000C2149484C3802F06EFB012146484C38DD
:1032200002F008FB012144484C3802F0F8FA424809
:103230004C3802F016FB00BF3F484C3802F016FB3A
:103240000028F9D13C484C3802F01AFB00BF3A483C
:103250004C3802F01AFB0028F9D107B000BD70B558
:1032600004460D4615B101203649087035480078EE
:10327000002857D0B4F57F6F54DA052000F09CF891
:1032800000203049087040F66A60844204DBB4F5DF
:103290007F6F01DA092070BDB4F5616F05DB40F680
:1032A0006A60844201DA0820F5E740F6AC508442B7
:1032B00004DBB4F5616F01DA0720ECE740F6485013
:1032C000844205DB40F6AC50844201DA0620E2E796
:1032D00040F6B240844205DB40F64850844201DAB1
:1032E0000520D8E740F65430844205DB40F6B24072
:1032F000844201DA0420CEE7B4F5166F05DB40F610
:103300005430844201DA0320C5E7B4F5FA7F04DBC8
:10331000B4F5166F01DA0220BDE7B4F5FA7F07DADB
:103320000120B8E7B4F57F6F02DB01200549087082
:103330000020B0E7080002404C24014008070020AC
:1033400000100140A00100204FF0E021096921F0A8
:1033500004014FF0E0221161C21700EB5272C2F378
:10336000C702234B1A701946097801EB4102C2EBE0
:10337000C1114FF6FF7202EAC1011E4A1180704767
:1033800001461B4A12784A434FF0E0235A6100225B
:103390009A6101221A6100BF4FF0E022106900F02B
:1033A00001021AB100F48032002AF5D000224FF059
:1033B000E0231A619A61704701460E4A12884A4317
:1033C0004FF0E0235A6100229A6101221A6100BF86
:1033D0004FF0E022106900F001021AB100F48032CF
:1033E000002AF5D000224FF0E0231A619A6170475D
:1033F000A2010020A4010020A34A0A400243A34BDB
:103400001A6070470146072323EA010212029F4B0C
:103410001B1D18684FF6FF0318409D4B18431043BF
:103420009A4B1B1D186070472DE9F04107468846EE
:1034300014461D462846FFF7E5FFC5F1040007FACC
:1034400000F60F20284100EA0800064306F00F06A8
:10345000E21704EBD2625211920002F1E022D2F89C
:1034600000212146E31704EBD3635B11A4EB431C5B
:10347000012303FA0CF31A432046E31704EBD3634A
:103480005B119B0003F1E023C3F800218148005D3C
:1034900040EA06107F490855BDE8F08170B5044642
:1034A0000B46CE1701EB9676C6F38700CE1701EBDD
:1034B0009676B610A1EB8606B606350E764B9B695E
:1034C00043F00103744EB3614FEAB63353F8203032
:1034D0000F26AE40B343714E46F82030334653F8C2
:1034E000203004FA05F61E436C4B43F820606C4B09
:1034F0001B6801268E403343694E336002F001039E
:1035000043B1674B0C331B6801268E403343644E36
:103510000C36336002F0020343B1614B08331E687E
:1035200001238B401E435E4B08331E6070BD00B507
:10353000002059490861C860142048610020886152
:10354000C8610846006840F001000860084640680D
:1035500054490840504948600846006852490840AC
:103560004D4908600846006820F48020086008463D
:10357000406820F4FE0048600020886000214FF081
:103580000060FFF739FF00BD10B540480830006803
:1035900040F004003D49083108603F48C06940F0F0
:1035A00080503D49C8614148406840F480703F49BF
:1035B00048600846006840F004000860084600685B
:1035C00040F002000860FCF731FE10BD3048001DDD
:1035D0002E49091D08607047014649062E4A926926
:1035E00042F001022C4B9A612C4A083A526822F0B0
:1035F000E0622A4B083B5A601A4652680A435A60F6
:10360000704730B504460025FFF791FF2248006857
:1036100040F480302049086000BF1F480068400C1B
:103620000028FAD04FF480601B494860A01EC4B245
:103630000846406840EA844048600846406840F4D4
:10364000803048601A48006840F03200184908602D
:103650001148006840F080700F49086000BF0E48B4
:103660000068400E0028FAD00B48406840F0020085
:103670000949486005E008484068C0F3870505F03F
:103680000305022DF7D130BD80FFFF1F08ED00E0DC
:103690000000FA0500E400E00010024008000140CC
:1036A000000401400000FFF8FFFFF6FE007000403C
:1036B00000200240014600BF704700BFFE4A12884A
:1036C00002F04002002AF9D0C2B2FB4B1B1D1A8047
:1036D00000BFFA4A128802F04002002AF9D0C2B2B2
:1036E000F64B1B1D1A807047F349091D088000BF67
:1036F000F149098801F040010029F9D070472DE90E
:10370000F05F05460E46300103F09AFA8146EC4917
:1037100005FB01F003F094FA8246494603F07AF97A
:103720000746384603F054FA84B2204603F088FA7C
:103730008346394603F064FB82464FF0834103F031
:1037400093FA814603F044FA80464FF6FF7000EA90
:10375000041404EB080084B2DA48806940F00400E5
:10376000D84988610846806940F480408861D6481D
:10377000006820F47F60D44908600846006840F47F
:103780000B600860CF48C06840F48040CD49C860F5
:103790000846C06820F48040C860C74808300480EC
:1037A000001D008842F20C010843C3490C31088017
:1037B000BDE8F09F10B586B004460121042000F05A
:1037C00065FE0121480400F06EFE0420ADF81400EF
:1037D00003208DF8160018208DF8170005A9BA48A7
:1037E000001F00F097FB0820ADF8140004208DF8AE
:1037F000170005A9B448001F00F08CFB26208DF8A7
:10380000000000208DF8010003208DF80200012047
:103810008DF80300684600F0B4FA01940020ADF87A
:103820000800ADF80A00ADF80C00ADF810000C204F
:10383000ADF80E0001A9A14801F0DDFD012240F222
:1038400025519E4801F06FFE01219C4801F05FFE6A
:1038500006B010BD10B540F22551984801F048FF60
:10386000002862D0954801F0C3FEC4B2782C0AD17A
:103870000020964908709648006808B9012000E0C9
:1038800000209349086091480078092808DA914897
:103890008E49097844548D480078401C8B49087043
:1038A0008A48007808282DD18A4840783038642129
:1038B000484388498978303901EB810100EB4101A7
:1038C0008448C0783038084483490860814840798A
:1038D00030384FF47A7148437E498979303901EBA9
:1038E000C10202EB011100EB81017A48C079303846
:1038F00000EB800001EB40007649097A084430383B
:1039000076490860214676A002F08AFA7548008858
:1039100000F4004048B97348008800F4804060B16A
:103920000A2C03D000206F49088020E06D480088F1
:1039300040F400406B49088019E00D2C06D169481D
:10394000008840F480406749088010E0654800889E
:10395000C0F30D0064490C5462480088401C614962
:10396000088008460088C72801DD0020088010BDB7
:1039700010B586B004460121202000F087FD01210A
:10398000880400F090FD0121584800F094FB4FF4AA
:103990008070ADF8140003208DF8160018208DF803
:1039A000170005A9524800F0B5FA4FF40070ADF8C1
:1039B000140004208DF8170005A94D4800F0AAFA5C
:1039C00027208DF8000003208DF801008DF80200FB
:1039D00001208DF80300684600F0D3F9019400201F
:1039E000ADF80800ADF80A00ADF80C00ADF8100015
:1039F0000C20ADF80E0001A93E4801F0FCFC0122AC
:103A000040F225513B4801F08EFD0121394801F07B
:103A10007EFD00203849088006B010BD10B540F288
:103A20002551344801F064FE10B3324801F0E0FD46
:103A3000C4B23148008800F40040C8B92E4800885C
:103A400000F4804060B10A2C03D000202A4908808D
:103A500020E02948008840F400402749088019E008
:103A60000D2C06D12448008840F48040224908806B
:103A700010E021480088C0F30D0020490C541E4876
:103A80000088401C1C49088008460088C72801DDC2
:103A90000020088010BD10B586B004460121112019
:103AA00000F0F4FC0121C80400F0FDFC4FF480603C
:103AB000ADF81400032023E000380140004400402A
:103AC00040420F000010024004080140680000203E
:103AD0001C000020DC0100206C000020740000208D
:103AE00025630000A80100204407002030001400D6
:103AF0000014014000480040AA0100200C080020EA
:103B00008DF8160018208DF8170005A9824800F0DE
:103B100001FA4FF40060ADF8140004208DF817008E
:103B200005A97D4800F0F6F934208DF80000032047
:103B30008DF801008DF8020001208DF80300684621
:103B400000F01FF901940020ADF80800ADF80A005C
:103B5000ADF80C00ADF810000C20ADF80E0001A976
:103B60006E4801F048FC012240F225516B4801F0FB
:103B7000DAFC0121694801F0CAFC0020684908808C
:103B800006B010BD10B540F22551644801F0B0FDFB
:103B900010B3624801F02CFDC4B26148008800F403
:103BA0000040C8B95E48008800F4804060B10A2C2B
:103BB00003D000205A49088020E05948008840F48A
:103BC00000405749088019E00D2C06D15448008860
:103BD00040F480405249088010E051480088C0F30A
:103BE0000D0050490C544E480088401C4C49088038
:103BF00008460088C72801DD0020088010BD10B5E8
:103C000086B004460121302000F040FC0121080567
:103C100000F049FC4FF48050ADF8140003208DF8FB
:103C2000160018208DF8170005A93B4800F072F91E
:103C30000420ADF814008DF8170005A93A4800F0EB
:103C400069F935208DF8000003208DF801008DF80A
:103C5000020001208DF80300684600F092F80194FC
:103C60000020ADF80800ADF80A00ADF80C00ADF882
:103C700010000C20ADF80E0001A92C4801F0BBFB90
:103C8000012240F22551294801F04DFC012127482D
:103C900001F03DFC00202649088006B010BD10B59B
:103CA00040F22551214801F023FD10B31F4801F0D7
:103CB0009FFCC4B21E48008800F40040C8B91C48EC
:103CC000008800F4804060B10A2C03D0002018491D
:103CD000088020E01648008840F40040144908801D
:103CE00019E00D2C06D11248008840F4804010499C
:103CF000088010E00E480088C0F30D000D490C54F8
:103D00000B480088401C0A49088008460088C728DC
:103D100001DD0020088010BD00100140004C004073
:103D2000AC010020D40800200014014000500040E5
:103D3000AE0100209C09002009488047094800473F
:103D4000FEE7FEE7FEE7FEE7FEE7FEE7FEE7FEE74B
:103D5000FEE7FEE704480549054A064B70470000A8
:103D6000D30E000831010008900B002090110020B4
:103D7000900D0020900D002031490143314A11601F
:103D8000704770B5002100230F22C47804B32D4C76
:103D9000246804F4E064C4F5E064210AC1F104037A
:103DA000CA40447804FA03F184781440214309019D
:103DB000254C0678A155047804F01F050124AC4079
:103DC00005786D11AD0005F1E025C5F8004109E069
:103DD000047804F01F050124AC401C4D06787611D0
:103DE00045F8264070BD1A4A0A400243154B1B1F76
:103DF0001A60704739B1134A121D12680243114B01
:103E00001B1D1A6006E00F4A121D126882430D4BFB
:103E10001B1D1A607047042808D14FF0E021096982
:103E200041F004014FF0E022116107E04FF0E02182
:103E3000096921F004014FF0E02211617047000090
:103E40000000FA050CED00E000E400E080E100E095
:103E500080FFFF1F10B50446CC48844208D10121E1
:103E6000042000F02DFB0021042000F029FB46E097
:103E7000C748844208D10121082000F021FB00211D
:103E8000082000F01DFB3AE0C248844208D101211D
:103E9000102000F015FB0021102000F011FB2EE097
:103EA000BD48844208D10121202000F009FB0021F7
:103EB000202000F005FB22E0B848844208D101210F
:103EC000402000F0FDFA0021402000F0F9FA16E051
:103ED000B348844208D10121802000F0F1FA00218A
:103EE000802000F0EDFA0AE0AE48844207D10121BB
:103EF000801500F0E5FA0021A01500F0E1FA10BDF0
:103F000010B50121084600F0DBFA0021012000F085
:103F1000D7FA10BD2DE9F041024600250026002009
:103F200000230024002791F803C00CF00F0591F83E
:103F300003C00CF0100CBCF1000F03D091F802C0CC
:103F40004CEA050591F800C0BCF1000F31D01468AF
:103F500000202BE04FF0010C0CFA00F3B1F800C088
:103F60000CEA03069E4220D183004FF00F0C0CFA9E
:103F700003F7BC4305FA03FC4CEA040491F803C0C0
:103F8000BCF1280F06D14FF0010C0CFA00FCC2F86E
:103F900014C00AE091F803C0BCF1480F05D14FF0FE
:103FA000010C0CFA00FCC2F810C0401C0828D1D348
:103FB0001460B1F800C0BCF1FF0F34DD546800207C
:103FC0002EE000F1080C4FF0010808FA0CF3B1F8EC
:103FD00000C00CEA03069E4221D183004FF00F0C73
:103FE0000CFA03F7BC4305FA03FC4CEA040491F80D
:103FF00003C0BCF1280F05D100F1080C08FA0CF839
:10400000C2F8148091F803C0BCF1480F07D100F149
:10401000080C4FF0010808FA0CF8C2F81080401C98
:104020000828CED35460BDE8F0814FF6FF710180BF
:10403000022181700421C1707047024600209368FC
:104040000B400BB1012000E000207047014688685A
:1040500080B2704702460020D3680B400BB10120AC
:1040600000E0002070470146C86880B270470161D7
:104070007047416170470AB1016100E041617047DA
:10408000C16070474FF480320A438261816182616E
:1040900082698269704702460020434B18684FF6D8
:1040A0008073184040EA021008433F4B1860704785
:1040B0003E49C8617047F0B50A460023002400213C
:1040C000002500F00046B6F1004F02D1364EF169EE
:1040D00001E0354E7168C0F3034583B200F4401629
:1040E000B6F5401F08D121F070612F4E766826F09A
:1040F00070662D4F7E6012E000F48016B6F5801FCA
:1041000006D1032606FA05F4A14341F0706106E0EA
:10411000460D360103FA06F6B14341F0706122B153
:10412000460D360103FA06F6314300F00046B6F1BB
:10413000004F02D11C4EF16101E01B4E7160F0BDD9
:1041400030B500228B071C0F0F2303FA04F2164B25
:1041500008338C1053F824309343134C08348D10DB
:1041600044F8253023468C1053F824308C07240F54
:1041700000FA04F423430C4C08348D1044F8253025
:1041800030BD0A49DC31086070470000000801407A
:10419000000C0140001001400014014000180140D3
:1041A000001C0140002001400000014000002042AE
:1041B000DF48006840F00100DD49086008464068BB
:1041C000DC490840DA49486008460068DA49084096
:1041D000D74908600846006820F480200860084637
:1041E000406820F4FE0048604FF41F00886070476C
:1041F000CF49096821F48031CD4A11601146096820
:1042000021F480211160B0F5803F03D0B0F5802FFC
:104210000ED106E0C649096841F48031C44A1160F4
:1042200007E0C349096841F4A021C14A116000E0D8
:1042300000BF00BF704710B50146002200230020D8
:104240004A11012A02D1BA4C236806E0022A02D19F
:10425000B74C236A01E0B64C636A01F01F020124E7
:1042600094401C400CB1012000E0002010BD38B586
:10427000002000900024002500BF3120FFF7DBFF65
:1042800005460098401C00900098B0F5A06F01D042
:10429000002DF2D03120FFF7CEFF08B1012400E05D
:1042A0000024204638BD01460020A14A106820F0B5
:1042B000F80040EAC10010607047A04908607047EC
:1042C000024600209A4B586820F47C1042EA010311
:1042D0001843974B586070479849086670470146E5
:1042E0000020934A506820F0030008435060704754
:1042F0008F48406800F00C007047014600208C4A4F
:10430000506820F0F00008435060704701460020DC
:10431000874A506820F4E0600843506070470146C7
:104320000020834A506820F4605040EAC100506089
:10433000704729B17E4A527A02437D4B5A7204E09B
:104340007B4A527A82437A4B5A7270477B49D83102
:104350000860704701460020754A506820F44040CC
:104360000843506070470021714A20321170704A32
:1043700082F82010012802D004280AD104E001218B
:104380006B4A2032117005E00521694A2032117014
:1043900000E000BF00BF704769490860704764498A
:1043A000096A0143624A11627047654944390860ED
:1043B000704730B500210022002400235C4D6D6859
:1043C00005F00C0121B1042905D0082923D105E00D
:1043D0005C4D056022E05B4D05601FE0544D6D684B
:1043E00005F47012524D6D6805F48034022505EB1A
:1043F00092421CB9544D554305600BE04C4D6D681D
:1044000005F400351DB1504D5543056002E04D4D9A
:104410005543056002E04B4D056000BF00BF444DB1
:104420006D6805F0F0010909484D6B5C0568DD40D9
:1044300045603F4D6D6805F4E061090A434D6B5CD2
:104440004568DD4085603A4D6D6805F46051C90AE4
:104450003E4D6B5C4568DD40C560354D6D6805F4CB
:104460004041890B3A4D6B5CC568B5FBF3F50561BE
:1044700030BD29B12E4A526902432D4B5A6104E0E6
:104480002B4A526982432A4B5A61704729B1284A04
:1044900092690243264B9A6104E0254A926982435D
:1044A000234B9A61704729B1214AD2690243204BBC
:1044B000DA6104E01E4AD26982431D4BDA6170471B
:1044C00029B11B4AD2680243194BDA6004E0184A4A
:1044D000D2688243164BDA60704729B1144A1269D8
:1044E0000243134B1A6104E0114A12698243104BD4
:1044F0001A61704712494039086070470F49C86413
:1045000070470B49C87170470948406A40F0807095
:1045100007494862704701460020054A92680A40F0
:104520000AB1012000E000207047014988727047FD
:10453000001002400000FFF8FFFFF6FE00004242BC
:104540008004424200127A0000093D00B4010020BC
:10455000C401002010B50446FE48844208D1012160
:10456000C014FFF7ADFF0021E014FFF7A9FFC4E07E
:10457000B4F1804F08D101210846FFF7AEFF0021BA
:104580000120FFF7AAFFB8E0F348844208D10121D7
:104590000220FFF7A2FF00210220FFF79EFFACE000
:1045A000EE48844208D101210420FFF796FF002144
:1045B0000420FFF792FFA0E0E948844208D10121DE
:1045C0000820FFF78AFF00210820FFF786FF94E00C
:1045D000E448844208D101211020FFF77EFF00212A
:1045E0001020FFF77AFF88E0DF48844208D10121DC
:1045F0002020FFF772FF00212020FFF76EFF7CE0F4
:10460000DA48844208D101214014FFF759FF002104
:104610006014FFF755FF70E0D548844209D10121AD
:10462000C804FFF74DFF00214FF40020FFF748FFBB
:1046300063E0D048844209D101210805FFF740FF1B
:1046400000214FF48010FFF73BFF56E0CA48844238
:1046500009D101214805FFF733FF00214FF4001075
:10466000FFF72EFF49E0C548844208D101214020D0
:10467000FFF733FF00214020FFF72FFF3DE0C04848
:10468000844208D101218020FFF727FF00218020EC
:10469000FFF723FF31E0BB48844208D10121801598
:1046A000FFF71BFF0021A015FFF717FF25E0B64815
:1046B000844209D101210804FFF702FF00214FF4D1
:1046C0008030FFF7FDFE18E0B048844209D1012197
:1046D0004804FFF7F5FE00214FF40030FFF7F0FE2D
:1046E0000BE0AB48844208D101218804FFF7E8FEC3
:1046F00000214FF48020FFF7E3FE10BD0022028866
:10470000944B98420ED0994B98420BD0B0F1804F09
:1047100008D0914B984205D0904B984202D0904BD4
:10472000984204D14FF68F731A404B881A438D4B31
:10473000984207D08C4B984204D04FF6FF431A4062
:10474000CB881A4302808B8883850B880385814B35
:1047500098420BD0854B984208D08B4B984205D09D
:104760008A4B984202D08A4B984201D10B7A038639
:1047700001238382704770B5002400220023058C3A
:104780004FF6FE7635400584028C8388048B4FF605
:104790008F752C40B51E2C400D882C43751E2A4069
:1047A0000D892A434D882A436A4DA8420BD06F4D8C
:1047B000A84208D0744DA84205D0744DA84202D03A
:1047C000734DA84213D14FF6F7752A404D892A43FD
:1047D0004FF6FB752A408D882A434FF6FF652B4024
:1047E0004FF6FF552B408D892B43CD892B4383807A
:1047F0000483CD888586028470BD70B500240022B4
:104800000023058C4FF6EF7635400584028C8388B3
:10481000048B48F6FF752C404FF6FF452C400D8861
:104820004FF6FF7606EA05252C434FF6DF752A4042
:104830000D8906EA05152A434D8806EA05152A431F
:10484000444DA84202D0494DA8421DD14FF67F7574
:104850002A404D894FF6FF7606EA05152A434FF6A2
:10486000BF752A408D8806EA05152A434FF6FF35A5
:104870002B404FF2FF752B408D8906EA85052B43AF
:10488000CD8906EA85052B4383800483CD8805877F
:10489000028470BD70B5002400220023058C4FF601
:1048A000FF6635400584028C8388848B4FF68F75B4
:1048B0002C404FF6FC752C400D882C434FF6FF55CD
:1048C0002A400D894FF6FF7606EA05252A434D88D2
:1048D00006EA05252A431F4DA84202D0234DA842CF
:1048E0001DD14FF2FF752A404D894FF6FF7606EA3B
:1048F00005252A434FF6FF352A408D8806EA05250F
:104900002A434EF6FF752B404DF6FF752B408D89DF
:1049100006EA05152B43CD8906EA05152B4383804E
:104920008483CD888587028470BD70B50022002302
:104930000024058C4EF6FF7635400584038C848870
:10494000828B48F6FF752A404FF6FF452A400D88B6
:1049500020E00000002C014000040040000800405E
:10496000000C0040001000400014004000340140E2
:10497000004C01400050014000540140001800402C
:10498000001C004000200040004001400044014065
:10499000004801404FF6FF7606EA05252A434DF60A
:1049A000FF752B400D8906EA05352B434D8806EA35
:1049B00005352B43FA4DA84202D0FA4DA84208D142
:1049C0004BF6FF752C408D894FF6FF7606EA85156C
:1049D0002C4384808283CD88A0F84050038470BD2E
:1049E000828B4FF2FF331A408283828B4FF6FF7324
:1049F00003EA01231A4382837047F0B50C4615463B
:104A0000002200210026078C4EF6FF7C07EA0C07E7
:104A10000784828B018C4FF6FF7707EA043640F655
:104A2000FF473A404FF6FF7707EA05273A434FF62C
:104A3000FF7707EA03373A43D94FB8420ED0D94F30
:104A4000B8420BD0B0F1804F08D0D74FB84205D054
:104A5000D64FB84202D0D64FB84206D14DF6FF77B6
:104A6000394046F48057394305E047F6FF5739404F
:104A700044F48057394382830184F0BD828B4FF622
:104A8000F3731A408283828B0A4382837047F0B5A6
:104A90000C461546002200210026078C4FF6FF6CBD
:104AA00007EA0C070784828B018C4FF6FF7707EA31
:104AB00004264FF60C773A404FF6FF7707EA0317C4
:104AC0002F433A43B64FB8420ED0B64FB8420BD040
:104AD000B0F1804F08D0B44FB84205D0B34FB842C0
:104AE00002D0B34FB84206D14FF6FF57394046F4D3
:104AF0008077394305E04FF2FF57394044F480771F
:104B0000394382830184F0BD028B4FF2FF331A4098
:104B10000283028B4FF6FF7303EA01231A430283D9
:104B20007047F0B50C461546002200210026078C80
:104B30004FF6EF7C07EA0C070784028B018C4FF6D7
:104B4000FF7707EA041640F6FF473A404FF6FF7733
:104B500007EA03373A434FF6FF7707EA05273A4358
:104B60008F4FB8420ED08F4FB8420BD0B0F1804F6C
:104B700008D08D4FB84205D08C4FB84202D08C4F30
:104B8000B84206D14FF6DF77394046F01007394377
:104B900005E04FF65F77394044F010073943028350
:104BA0000184F0BD028B4FF6F3731A400283028B2F
:104BB0000A4302837047F0B50C46154600220021D7
:104BC000068C4FF6FE773E400684028B018C4FF632
:104BD0000C7632407E1C06EA03162E433243704E9A
:104BE000B0420ED06F4EB0420BD0B0F1804F08D023
:104BF0006D4EB04205D06D4EB04202D06C4EB04208
:104C000006D14FF6FD76314044F00106314305E010
:104C10004FF6F576314044F00106314302830184BA
:104C2000F0BD70B505460C465D4885420ED05D4826
:104C300085420BD0B5F1804F08D05B48854205D046
:104C40005A48854202D05A48854200D100E000BF50
:104C5000208850B92389A28861882846FFF7ABFFD6
:104C6000E1882846FFF79EFF25E0208804280AD126
:104C70002389A28861882846FFF753FFE1882846E8
:104C8000FFF742FF17E0208808280AD12389A2886D
:104C900061882846FFF7FBFEE1882846FFF7EEFE15
:104CA00009E02389A28861882846FFF7A6FEE188EB
:104CB0002846FFF795FE70BD2DE9F04105460C46EC
:104CC00000260127608808B9022600E00026A08897
:104CD000012801D1022700E001272088A0B92389FB
:104CE000A28861882846FFF766FFE1882846FFF71B
:104CF00059FF23893A4631462846FFF712FFE188DB
:104D00002846FFF701FF13E02389A288618828461F
:104D1000FFF707FFE1882846FFF7F6FE23893A46AA
:104D200031462846FFF747FFE1882846FFF73AFF5C
:104D3000BDE8F0810A884B881A438B881A43CB88D8
:104D40001A430B891A434B891A438B891A43A0F8DB
:104D5000442070474FF6FF71818000210180C1809F
:104D60004180017270470021018041808180C180B3
:104D7000018141818181C181704700210180418091
:104D8000012181800021C1800181704700210180C3
:104D900041808180C1800181418181817047000013
:104DA000002C014000340140000400400008004095
:104DB000000C004021B1028842F00102028004E0B0
:104DC00002884FF6FE731A400280704731B1B0F886
:104DD000442042F40042A0F8442005E0B0F844200A
:104DE000C2F30E02A0F8442070471AB183890B4326
:104DF000838102E083898B4383817047818270477E
:104E000041EA0203A0F8483070471AB183890B4386
:104E1000838102E083898B438381704701894FF648
:104E2000F8721140018170470A46002101894FF64E
:104E30008F73194011430181704730B504460D4608
:104E400029462046FFF7F0FF208940F00700208127
:104E500030BD2DE9F04104460D4616461F46602D33
:104E600006D13B46012231462046FFF75AFE05E0B7
:104E70003B46012231462046FFF79DFE294620464B
:104E8000FFF7D2FF208940F007002081BDE8F081C4
:104E900030B50C4600210189C9B24FF6FF7505EA0D
:104EA0000325154325432943018130BD2DE9F041F8
:104EB00005460E4617469846002443463A46314674
:104EC0002846FFF7E5FF2C894FF6F870044044F0C0
:104ED00007044FF68F70044044F070042C81BDE845
:104EE000F081F0B504460D4616461F463B46324655
:104EF00029462046FFF7CCFF208940F480402081DE
:104F0000F0BD0185828270470A46002101884FF674
:104F10008F731940114301807047F0B50C46154658
:104F20001E460021002200230189028B038C4FF6CC
:104F3000F877394021434FF6FC473A4040F20117D9
:104F40003A434FF6DD773B404FF6FF7707EA061707
:104F50002F433B43018102830384F0BD0A460021B5
:104F6000018B4FF68F7319401143018370470A4636
:104F70000021018B48F6FF7319404FF6FF7303EAD7
:104F800002231943018370470A460021818B4FF6A3
:104F90008F7319401143818370470A460021818B2A
:104FA00048F6FF7319404FF6FF7303EA02231943D3
:104FB0008183704721B1028842F08002028004E0C0
:104FC00002884FF67F731A400280704721B18288B1
:104FD00042F00402828004E082884FF6FB731A409C
:104FE0008280704721B1828842F00802828004E00A
:104FF00082884FF6F7731A408280704721B1828809
:1050000042F00102828004E082884FF6FE731A406B
:10501000828070470A460021018B4FF6F7731940D2
:105020001143018370470A460021018B4FF2FF7341
:1050300019404FF6FF7303EA0223194301837047B7
:105040000A460021818B4FF6F77319401143818383
:1050500070470A460021818B4FF2FF7319404FF6CB
:10506000FF7303EA02231943818370470A46002134
:10507000018B4FF6FB7319401143018370470A46B9
:105080000021018B4FF6FF3319404FF6FF7303EAFF
:1050900002231943018370470A460021818B4FF692
:1050A000FB7319401143818370470A460021818BAD
:1050B0004FF6FF3319404FF6FF7303EA02231943FB
:1050C000818370470A460021018B4FF67F73194098
:1050D0001143018370470A460021018BC1F30E0181
:1050E0004FF6FF7303EA02231943018370470A4610
:1050F0000021818B4FF67F731940114381837047E4
:105100000A460021818BC1F30E014FF6FF7303EABB
:1051100002231943818370470A460021018C4FF610
:10512000FD7319401143018470470A460021018C28
:105130004FF6F77319401143018470470A46002166
:10514000018C4FF6DF7319404FF6FF7303EA021329
:105150001943018470470A460021018C4FF67F7382
:1051600019404FF6FF7303EA021319430184704795
:105170000A460021018C4FF6FF5319404FF6FF738A
:1051800003EA02231943018470470A460021018C77
:105190004FF2FF7319404FF6FF7303EA02231943DE
:1051A000018470470A460021018C4DF6FF731940B7
:1051B0004FF6FF7303EA023319430184704730B599
:1051C000002301248C40A3B2048C9C430484048CEF
:1051D00002FA01F5ADB22C43048430BD30B5002392
:1051E00004248C40A3B2048C9C430484048C02FAF3
:1051F00001F5ADB22C43048430BD70B503460020E8
:1052000000241846183001258D40ACB21D8CA543F2
:105210001D8409B1082909D100EB6100056825F05A
:10522000700505600568154305600EE00D1FC5F3A8
:105230004E052844056825F4E045056005684FF6ED
:10524000FF7606EA02263543056070BD21B102886B
:1052500042F00202028004E002884FF6FD731A4019
:105260000280704721B1028842F00402028004E00B
:1052700002884FF6FB731A400280704721B1828882
:1052800042F08002828004E082884FF67F731A40E9
:105290008280704702884FF6F7731A4002800288B6
:1052A0000A430280704782884FF68F731A408280CB
:1052B00082880A438280704702894FF6F8731A4049
:1052C000028102890A430281704702894FF67F7387
:1052D0001A40028102890A43028170478184704723
:1052E0008185704781867047018770478187704745
:1052F000A0F84010704702884FF6FF431A40028022
:1053000002880A43028070470146888E7047014632
:10531000088F70470146888F70470146B1F84000FA
:1053200070470146888C70470146088D70470246D9
:105330000020138A0B400BB1012000E000207047D1
:10534000CA430282704730B5024600200023002481
:10535000158A05EA0103958905EA010413B10CB128
:10536000012000E0002030BDCA43028270470000E7
:1053700010B50446FB48844209D101218803FFF798
:105380009FF800214FF48040FFF79AF832E0F6488A
:10539000844209D101214804FFF79FF800214FF40E
:1053A0000030FFF79AF825E0F048844209D1012146
:1053B0008804FFF792F800214FF48020FFF78DF862
:1053C00018E0EB48844209D10121C804FFF785F8B1
:1053D00000214FF40020FFF780F80BE0E5488442FD
:1053E00008D101210805FFF778F800214FF480105B
:1053F000FFF773F810BD2DE9F04786B005460E465D
:105400000024A24600BFA1460027B08900B100BF1A
:105410002F462C8A4CF6FF700440F08804432C82FF
:10542000AC894EF6F3100440B08831890843718985
:1054300008430443AC81AC8A4FF6FF400440B08976
:105440000443AC8201A8FEF7B4FFC648874202D1EC
:10545000DDF810A001E0DDF80CA0A88900F4004000
:1054600040B10AEBCA0000EB0A1031684900B0FBFA
:10547000F1F807E00AEBCA0000EB0A103168890076
:10548000B0FBF1F86420B8FBF0F0040120096421BE
:1054900001FB1089A88900F4004040B1322000EBE4
:1054A000C900B0FBF1F000F00700044308E032202F
:1054B00000EB09106421B0FBF1F000F00F00044391
:1054C0002C8106B0BDE8F0874FF416510160002131
:1054D0008180C18001810C2141810021818170473F
:1054E00010B502460020108A4FF2FF0318400B88C7
:1054F0004C8823438C882343CC8823431843108251
:1055000010BD0021018041808180C180704721B1A0
:10551000828942F40052828104E082894DF6FF7351
:105520001A4082817047F0B503460024002600250A
:10553000002040F66A17B94200D100BF1846C1F3F7
:10554000421401F01F06012707FA06F5012C01D1CC
:105550000C3004E0022C01D1103000E014301AB1FC
:1055600007682F43076002E00768AF430760F0BD9C
:105570001AB1838A0B43838202E0838A8B4383823E
:105580007047028A4FF6F0731A400282028A0A4379
:105590000282704782894FF2FF731A4082818289AA
:1055A0000A438281704721B1828942F002028281DE
:1055B00004E082894FF6FD731A4082817047028AA7
:1055C0004FF6DF731A400282028A0A430282704752
:1055D00021B1028A42F48042028204E0028A4BF640
:1055E000FF731A4002827047C1F30802828070473D
:1055F00001468888C0F308007047818941F00101A5
:1056000081817047028BD2B20283028B42EA01226F
:1056100002837047028B02F47F420283028B0A43AB
:105620000283704721B1828A42F02002828204E024
:10563000828A4FF6DF731A408282704721B1828AD4
:1056400042F01002828204E0828A4FF6EF731A4021
:105650008282704721B1828A42F00802828204E08D
:10566000828A4FF6F7731A408282704721B182898D
:1056700042F40042828103E08289C2F30E028281F9
:10568000704721B1828A42F40062828204E0828AF9
:105690004FF2FF731A4082827047828A4FF6FB7383
:1056A0001A408282828A0A438282704721B1828AAA
:1056B00042F00202828204E0828A4FF6FD731A40B1
:1056C0008282704702460020B1F5007F00D100BF02
:1056D00013880B400BB1012000E00020704701F45B
:1056E0000072B2F5007F00D100BFCA43028070474C
:1056F00070B50246002400230025002040F66A16FB
:10570000B14200D100BFC1F3421501F01F030126D1
:1057100006FA03F3012D02D19689334006E0022DEB
:1057200002D1168A334001E0968A33400C120126DA
:1057300006FA04F41688344013B10CB1012000E0DD
:10574000002070BD10B50022002340F66A14A1426B
:1057500000D100BF0A1201249440A3B2DC430480AC
:1057600010BD0000003801400044004000480040E7
:10577000004C00400050004010B50446FA488442F6
:1057800008D101214015FEF79BFE00216015FEF7B0
:1057900097FE17E0F548844208D101210015FEF775
:1057A0008FFE00212015FEF78BFE0BE0F0488442AF
:1057B00008D10121C803FEF783FE00214FF4004009
:1057C000FEF77EFE10BD30B5024600200023506873
:1057D000E84C20400D790C6844EA052420435060D1
:1057E0009068E54C2040D1E902542C434D7944EABD
:1057F000450420439060D06A20F470000C7C641E45
:10580000E4B2234340EA0350D06230BD002101607E
:10581000017141718160C16001210174704721B142
:10582000826842F00102826003E0826822F0010295
:105830008260704721B1826842F48072826003E026
:10584000826822F480728260704710B50023CBB268
:105850001AB144681C43446002E044689C434460BD
:1058600010BD816841F00801816070470146002049
:105870008A6802F008020AB1012000E000207047A7
:10588000816841F0040181607047014600208A6808
:1058900002F004020AB1012000E00020704721B1AB
:1058A000826842F4A002826003E0826822F4A002CF
:1058B00082607047014600208A6802F480020AB1C3
:1058C000012000E00020704710B50A4600210023A7
:1058D000416821F46041531E41EA4331416010BDEB
:1058E00021B1426842F40062426003E0426822F45F
:1058F000006242607047F0B504460D46002000216A
:10590000092D11DDE068A5F10A0606EB460707261A
:1059100006FA07F18843A5F10A0606EB460603FAE4
:1059200006F10843E0600CE0206905EB4507072617
:1059300006FA07F1884305EB450603FA06F108432A
:105940002061072A0FDA606B561E06EB86071F26BA
:1059500006FA07F18843561E06EB860605FA06F19D
:105960000843606322E00D2A0FDA206BD61F06EB96
:1059700086071F2606FA07F18843D61F06EB860620
:1059800005FA06F10843206310E0E06AA2F10D0673
:1059900006EB86071F2606FA07F18843A2F10D06DB
:1059A00006EB860605FA06F10843E062F0BD21B178
:1059B000826842F48012826003E0826822F48012DE
:1059C000826070470146C86C80B2704766484C30B0
:1059D0000068704721B1426842F48062426003E08F
:1059E000426822F480624260704721B1426842F40A
:1059F0008052426003E0426822F480524260704765
:105A00000A460021816821F4E0411143816070471A
:105A100021B1826842F40042826003E0826822F48D
:105A200000428260704721B1826842F402128260B3
:105A300003E0826822F4021282607047014600206F
:105A40008A6802F400120AB1012000E000207047C9
:105A5000F0B504461546002000220026092911DD74
:105A6000E068A1F10A0707EB470C072707FA0CF2D9
:105A70009043A1F10A0707EB470703FA07F2104327
:105A8000E0600CE0206901EB410C072707FA0CF2FB
:105A9000904301EB410703FA07F210432061A06B2A
:105AA000C0F30156EF1C06F1010CA7EB0C0707EB46
:105AB000870C1F2707FA0CF29043EF1C06F1010C2C
:105AC000A7EB0C0707EB870701FA07F21043A06367
:105AD000F0BD10B50A4600210023816B21F440116E
