:020000040800F2
:100000009021002081230008890700088B07000841
:100010008F070008930700089707000800000000FA
:100020000000000000000000000000009B07000826
:100030009D070008000000009F070008A1070008B6
:100040009B2300089B2300089B2300089B23000898
:100050009B2300089B2300089B2300089B23000888
:100060009B2300089B2300089B2300089B23000878
:100070009B2300089B2300089B2300089B23000868
:100080009B2300089B2300089B2300089B23000858
:100090009B2300089B2300089B2300089B23000848
:1000A0009B2300083B0C00089B2300089B230008AF
:1000B000811B0008991B0008B11B00089B23000846
:1000C0009B2300089B2300089B2300089B23000818
:1000D0009B2300089B230008ED200008A7220008AE
:1000E0009B2300089B2300089B2300089B230008F8
:1000F0009B2300089B2300089B2300089B230008E8
:100100009B2300089B230008C91B00089B230008B1
:100110009B2300089B23000837060008D50600082B
:100120009B2300089B2300089B2300089B230008B7
:1001300000F002F800F05FF80AA090E8000C82449A
:100140008344AAF10107DA4501D100F054F8AFF277
:10015000090EBAE80F0013F0010F18BFFB1A43F0A5
:1001600001031847985C0000B85C00000A444FF097
:10017000000C10F8013B13F0070408BF10F8014B06
:100180001D1108BF10F8015B641E05D010F8016B4B
:10019000641E01F8016BF9D113F0080F1EBF10F8AF
:1001A000014BAD1C0C1B09D16D1E58BF01F801CBD2
:1001B000FAD505E014F8016B01F8016B6D1EF9D555
:1001C0009142D6D37047000000230024002500266A
:1001D000103A28BF78C1FBD8520728BF30C148BFAA
:1001E0000B607047632903F0CD86002070471FB570
:1001F0001FBD10B510BD03F003FF1146FFF7F7FF59
:1002000000F00EF803F021FF03B4FFF7F2FF03BC88
:1002100001F0A8FE30BF72B662B680F3088870475E
:1002200000BF092001F045FE482001F0E5FC4FF435
:10023000A06002F0C5F84FF4E131482001F0ACFEB7
:100240004FF4E13001F0E0FF00F09CFB00F0EEFB2A
:10025000C72141F61F4000F0A2FDC72141F61F4013
:1002600000F05EFD4FF4FA7001F0FEFC00F038FF84
:10027000E0E1FE48006808281ED2DFE800F0041E16
:1002800064BCFEFDFCFB4FF44871F94803F04EFBE3
:100290004FF4C871F64803F04BFB4FF41671F44865
:1002A00003F048FB4FF4AF71F14803F045FB4FF406
:1002B0001171080703F03CFBB7E14FF4B471C806B5
:1002C00003F036FB4FF40C71E94803F02FFB4FF4B9
:1002D000C871E74803F02CFB4FF4F071E44803F0D9
:1002E00029FB4FF4A071E24803F026FB4FF4FA70AB
:1002F00001F0BAFC4FF40271DD4803F017FB4FF434
:10030000D271DB4803F014FB4FF49B71D84803F023
:1003100011FB4FF4C871D64803F00EFB4FF4FA708E
:1003200001F0A2FC4FF41171080703F001FB4FF438
:10033000FA7001F099FC0121CE4803F079FC00200D
:10034000CA49086071E14FF4D771C94803F0F4FA63
:100350004FF40771C64803F0EBFA4FF41671C44826
:1003600003F0E4FA40F24E214FF0804003F0E0FA4F
:100370004FF48C71BE4803F0DDFA4FF4FA7001F0CF
:1003800073FC4FF41670BC4908600DE0BA48006871
:100390001438B94908600846008881B2B44803F0AF
:1003A000C5FA962001F060FCB3480068B0F5BE7F46
:1003B000ECDC4FF4D771AE4803F0BEFA4FF4FA709C
:1003C00001F052FC4FF4B471C80603F0B1FA4FF4D7
:1003D000FA7001F049FC0221A64803F029FC4FF411
:1003E000FA7001F041FC4FF4FA7001F03DFC00207E
:1003F0009E49086019E14FF407719D4803F096FA91
:100400004FF4AA719A4803F095FA4FF4D2719848C4
:1004100003F092FA4FF4B471C80603F089FA4FF46E
:10042000DC71934803F084FA4FF4FA7001F01CFC7D
:100430004FF4FA7001F018FC4FF4F0718C4803F09F
:1004400075FA4FF48C718A4803F074FA4FF4D27144
:10045000874803F071FA4FF41171080703F068FA46
:100460004FF4F071824803F063FA4FF4FA7001F030
:10047000FBFB03E0C0E09FE044E007E001217D4892
:1004800003F0D6FB002079490860CEE04FF4BE713E
:10049000774803F04BFA4FF40771754803F048FAB8
:1004A000FA21734803F046FA4FF4E671704803F0FE
:1004B00043FA4FF4FA7001F0D7FB4FF411710807BB
:1004C00003F036FA4FF4967001F0CEFB4FF49670BD
:1004D00001F0CAFB4FF4967001F0C6FB4FF4967022
:1004E00001F0C2FB4FF4967001F0BEFB4FF4967022
:1004F00001F0BAFB03215F4803F09AFB00205B493F
:10050000086092E0FA215A4803F014FA4FF4E671B9
:10051000574803F011FA4FF41171080703F008FA75
:100520004FF41671524803F001FA4FF40771504826
:1005300003F0FEF9FA214E4803F0FCF94FF416706F
:100540004D4908600DE04C48006814384A4908607D
:100550000846008881B2464803F0E8F9962001F089
:1005600083FB45480068B0F5BE7FECDC4FF4E671D4
:100570003F4803F0E1F94FF4FA7001F075FB4FF4D6
:10058000FA7001F071FB4FF4B471C80603F0D0F9B2
:100590004FF4FA7001F068FB0421364803F048FB81
:1005A0004FF4FA7001F060FB4FF4FA7001F05CFB5D
:1005B00000202E49086038E04FF4B471C80603F0FB
:1005C000B7F94FF4E1712A4803F0B0F94FF407711D
:1005D000274803F0ADF94FF4BE71254803F0AAF99E
:1005E0004FF4FA7001F040FB4FF4FA7001F03CFB5D
:1005F00007201E49086018E04FF4B471C80603F0E4
:1006000097F94FF4C8711A4803F090F94FF4077145
:10061000174803F08DF94FF4BE71154803F08AF9BD
:100620004FF4FA7001F020FB00BF00BF4FF496704A
:1006300001F01AFB1DE608B50121104803F0A7F9E7
:10064000002846D001210D4803F0A1F9A8B30C48B9
:1006500000680C490968884206D100200A490860F0
:100660000A4908600A4908600C2013E0880000204D
:10067000000400400048004034000020001000400A
:100680000800002004000020540000205800002032
:100690005C000020032300903248302102680020D3
:1006A00000F0CDFE0C20042300902F48302102687A
:1006B000182000F0C4FE00F0F0FC01212B4803F0EC
:1006C00077F92B48006808B9012000E0002028498C
:1006D000086008BD38B50121264803F058F9002804
:1006E0003FD025480068254908600021234800685C
:1006F00003F01CFE16D20C2321A22421122000F0AC
:1007000072FE1D48006880F00045284603F0DAFDBF
:1007100004460C200223224624210090182000F0D9
:100720008EFE12E00C2317A22421122000F05BFEA3
:100730001148006803F0C6FD04460C20022322463F
:1007400024210090182000F07AFE0121094803F0CE
:100750002FF90748006808B9012000E0002004498B
:10076000086038BD540000205C00002000100040EC
:1007700094012342001400407C0000204C00002023
:100780002D00000020000000704700BFFEE700BF02
:10079000FEE700BFFEE700BFFEE770477047704707
:1007A000704700000CB50020019000906C48006874
:1007B00040F480306A49086000BF6948006800F46E
:1007C000003000900198401C0190009818B90198E1
:1007D000B0F5A06FF1D16248006800F4003010B1AC
:1007E0000120009001E0002000900098012843D1F2
:1007F0005C48006840F010005A49086008460068EC
:1008000020F0030008600846006840F0020008601D
:100810005348406852494860084640684860084666
:10082000406840F4806048600846406820F47C10CE
:1008300048600846406840F4E81048600846006890
:1008400040F08070086000BF4548006800F000700C
:100850000028F9D04248406820F003004049486031
:100860000846406840F00200486000BF3C484068CD
:1008700000F00C000828F9D10CBD10B5FFF792FF6D
:1008800010BD10B53648006840F0010034490860DA
:1008900008464068344908403149486008460068C5
:1008A000324908402E4908600846006820F480203C
:1008B00008600846406820F4FE0048604FF41F00BE
:1008C0008860FFF7DAFF4FF000602949086010BD2B
:1008D00010B5002100200022214B5B6803F00C01C1
:1008E00021B1042906D0082928D107E0214B224C48
:1008F000236027E01F4B204C236023E0184B5B68EC
:1009000003F47010164B5B6803F48032022303EB90
:10091000904022B9194B4343174C23600DE0104B14
:100920005B6803F4003323B1144B4343124C236040
:1009300003E0104B4343104C236003E00D4B0E4C7F
:10094000236000BF00BF064B5B68C3F303130C4C6E
:10095000E15C094B1B68CB40074C236010BD0000D5
:1009600000100240002002400000FFF8FFFFF6FEEA
:1009700008ED00E000127A008C00002000093D0024
:100980009000002008B50121482002F0A3F82020A3
:10099000ADF8000010208DF8030003208DF8020050
:1009A00069461F4801F0DAFD20211D4801F083FE51
:1009B0002020ADF8000069461A4801F0CFFD202143
:1009C000184801F078FE08BD08B50121102002F09A
:1009D00081F84FF40060ADF8000010208DF803009E
:1009E00003208DF8020069460F4801F0B7FD4FF46F
:1009F00000610D4801F05FFE4FF48050ADF800003B
:100A000010208DF8030003208DF802006946064887
:100A100001F0A4FD4FF48051034801F04EFE08BDE3
:100A2000000C0140001801400010014008B50121F0
:100A3000442002F04FF81C20ADF8000048208DF84B
:100A400003006946354801F089FD0120ADF800003A
:100A500028208DF803006946314801F07FFD08BD6C
:100A600010B5044614B101202E4908702D480078B5
:100A7000002837D01021294801F003FE78B1082161
:100A8000264801F0FEFD50B10421244801F0F9FD93
:100A900028B10121224801F0F4FD012822D10A20C9
:100AA00001F0E2F800201F49087010211B4801F0F6
:100AB000E8FD08B9012010BD0821184801F0E1FD4A
:100AC00008B90220F7E70421144801F0DAFD08B95B
:100AD0000320F0E70121124801F0D3FD01281BD1CA
:100AE0000420E8E710210D4801F0CBFD012813D1C7
:100AF00008210A4801F0C5FD01280DD1042107484D
:100B000001F0BFFD012807D10121054801F0B9FD21
:100B100010B90120034908700020CCE700180140FB
:100B200000080140A00000207FB505460C460121C9
:100B3000102001F0DCFFADF80850ADF804400020B3
:100B4000ADF80A00ADF8060001A9FE4802F0FAF877
:100B500001221146FB4802F06CFC36208DF80000A3
:100B600000208DF8010003208DF8020001208DF88F
:100B70000300684601F029FC0121F24802F03EFC26
:100B80007FBD7FB505460C460121202001F0AFFF57
:100B9000ADF80850ADF804400020ADF80A00ADF8FB
:100BA000060001A9E84802F0CDF801221146E64806
:100BB00002F03FFC37208DF8000000208DF8010086
:100BC00003208DF8020001208DF80300684601F033
:100BD000FCFB0121DC4802F011FC7FBD7FB505461E
:100BE0000C460121C80201F075FFADF80850ADF8C0
:100BF00004400020ADF80A008DF80C00ADF80600A6
:100C000001A9D24802F09EF801221146D04802F014
:100C100010FC19208DF8000000208DF80100032041
:100C20008DF8020001208DF80300684601F0CDFB2D
:100C30000121C64802F0E2FB7FBD10B50121C34887
:100C400002F0A5FE58B10121C04802F0B1FEC14832
:100C5000006808B9012000E00020BE49086010BD0E
:100C600030B589B005460C460121480301F032FF3A
:100C70000121112001F02EFF4FF47070ADF820001B
:100C800018208DF8230003208DF8220008A9B2480F
:100C900001F064FCADF81850ADF814400020ADF838
:100CA0001A00ADF8160005A9A94802F04BF860201B
:100CB000ADF804000120ADF806000020ADF80A00F0
:100CC000ADF80C0001A9A24802F079F801A9A048EA
:100CD00002F0B7F801A99E4802F000F901A99C486A
:100CE00002F047F901219A4802F094FB0821984844
:100CF00002F0B4FC0821964802F0B9FC082194489F
:100D000002F0C2FC0821924802F0C7FC0121904881
:100D100002F074FC01218E4802F070FB09B030BD76
:100D200030B589B005460C460121084601F0DFFECA
:100D30000121052001F0CEFE03208DF822001820AD
:100D40008DF823000220ADF8200008A9834801F0A7
:100D500005FCADF81850ADF814400020ADF81A00AD
:100D6000ADF8160005A94FF0804001F0EBFF6020C0
:100D7000ADF804000120ADF806000020ADF80C002D
:100D800001A94FF0804002F05CF80821C80602F08B
:100D90006EFC0121880702F031FB09B030BD30B58F
:100DA00089B005460C460121022001F0A0FE012178
:100DB0000D2001F08FFE03208DF8220018208DF801
:100DC0002300C020ADF8200008A9644801F0C6FB4C
:100DD00003208DF8220018208DF823000320ADF8A1
:100DE000200008A95E4801F0B9FBADF81850ADF835
:100DF00014400020ADF81A00ADF8160005A95948B6
:100E000001F0A0FF6020ADF804000120ADF806005D
:100E10000020ADF80C0001A9524801F0D0FF0821D4
:100E2000504802F01BFC01A94E4802F00AF80821C4
:100E30004C4802F01CFC01A94A4802F04FF8082176
:100E4000484802F021FC01A9464802F092F8082126
:100E5000444802F022FC0121424802F0CFFA09B0D6
:100E600030BD7FB505460C460121084601F03FFE26
:100E7000ADF80850ADF804400020ADF80A00ADF818
:100E8000060001A94FF0804001F05CFF01221146ED
:100E9000900702F0CEFA1C208DF8000000208DF89B
:100EA000010003208DF8020001208DF80300684640
:100EB00001F08BFA0121880702F0A0FA7FBD7FB50F
:100EC00005460C460121042001F011FEADF8085042
:100ED000ADF804400020ADF80A00ADF8060001A905
:100EE000214801F02FFF012211461F4802F0A1FA0C
:100EF0001E208DF8000001208DF8010002208DF8E1
:100F0000020001208DF80300684601F05EFA01211D
:100F1000154802F073FA7FBD7FB505460C460121E6
:100F2000082001F0E4FDADF80850ADF804400020C1
:100F3000ADF80A00ADF8060001A90C4801F002FF67
:100F4000012215E00010004000140040002C014078
:100F50000034014094012342001001400008014088
:100F6000000C01400004004000080040000C00405C
:100F700011460B4802F05DFA32208DF80000002087
:100F80008DF8010003208DF8020001208DF8030088
:100F9000684601F01AFA0121014802F02FFA7FBDDC
:100FA000000C004070B504460E462EB14FF40041CF
:100FB000FE4801F080FB04E04FF40041FB4801F0E3
:100FC0007CFB0221F94801F078FB002519E04FF481
:100FD0008051F74801F071FB04F0800020B120211E
:100FE000F24801F068FB03E02021F04801F065FBC6
:100FF0004FF48051EE4801F05EFB6006040E681C61
:10100000C5B2082DE3DB0221E84801F054FB4FF4A0
:101010000041E64801F04FFB70BD10B504461CB915
:101020000021A620FFF7BEFF012C03D10021A7203D
:10103000FFF7B8FF10BD10B504463CB90021C82029
:10104000FFF7B0FF0021A120FFF7ACFF012C07D173
:101050000021C020FFF7A6FF0021A020FFF7A2FF7C
:1010600010BD10B500218D20FFF79CFF002114203A
:10107000FFF798FF0021AF20FFF794FF10BD10B5D8
:1010800000218D20FFF78EFF00211020FFF78AFF3F
:101090000021AF20FFF786FF10BD70B500241CE0D3
:1010A00004F1B001C8B20021FFF77CFF002102204B
:1010B000FFF778FF00211020FFF774FF002508E0FC
:1010C000BC4901EBC501085D0121FFF76BFF681CFE
:1010D000C5B2802DF4DB601CC4B2082CE0DB70BD0F
:1010E00070B500240CE0002506E00020B14901EBBA
:1010F000C5010855681CC5B2802DF6DB601CC4B262
:10110000082CF0DBFFF7C9FF70BD70B50A46CE179B
:1011100001EB5676C6F3C703CE1701EB5676F610F1
:10112000A1EBC606F4B20122A240D5B2A14A02EB5D
:10113000C002D25C2A439F4E06EBC006F25470BD3B
:1011400070B50B46CE1701EB5676C6F3C702CE1725
:1011500001EB5676F610A1EBC606F4B20123A340CC
:10116000DDB2944B03EBC0039B5CDB43914E06EB7B
:10117000C006B3548F4B03EBC0039B5C2B438D4ED7
:1011800006EBC006B3548B4B03EBC0039B5CDB4305
:10119000884E06EBC006B35470BD2DE9F84F0546E6
:1011A0000E4617469846802F06DCB8F1400F03DC48
:1011B000BD4201DC464501DDBDE8F88FBD420DD1E1
:1011C000002406E03019C1B22846FFF79EFF601CDC
:1011D000C4B2A8EB0600A042F4DC30E046450CD1D6
:1011E000002406E02919C8B23146FFF78EFF601CC3
:1011F000C4B2781BA042F5DC21E0A8EB060000F0A9
:10120000FF0A781B00F0FF0B0AEB8A00400090FBFE
:10121000FBF000F0FF0900240EE004FB09F00A21B6
:1012200090FBF1F03044C0B229190090C8B2009987
:10123000FFF76BFF601CC4B2781BA042EDDC00BF5F
:10124000BAE72DE9F04306460F469046002544468E
:101250003BE03A1BD1B27219D0B2FFF756FF3A1BEE
:10126000D1B2721BD0B2FFF750FF3A19D1B2721B44
:10127000D0B2FFF74AFF3A19D1B27219D0B2FFF7D4
:1012800044FF7A19D1B23219D0B2FFF73EFF7A1B70
:10129000D1B23219D0B2FFF738FF7A1BD1B2321B6C
:1012A000D0B2FFF732FF7A19D1B2321BD0B2FFF7BA
:1012B0002CFF6D1C05FB05F004FB040008FB18095E
:1012C000B9F1000F01DD641E6D1E6000604308FB74
:1012D00008F18842BDDABDE8F0832DE9FF4F81B007
:1012E00080460E461C4600962046E31704EB5373D7
:1012F000DB1021464FEAE47C04EB5C7C4FEAEC0C0B
:10130000A4EBCC0CBCF1000F02D04FF0010C01E0BB
:101310004FF0000C6344224604EBD27C4FEA6C0C85
:1013200003FB0CF303F0FF0B03982038C7B2002532
:1013300055E00C2C07D107EB47001F4901EB80005B
:1013400010F805A014E0102C05D11C4800EB071084
:1013500010F805A00CE0182C07D107EBC7001849BE
:1013600001EB800010F805A002E005B0BDE8F08FA9
:101370004FF000092DE00AF0800020B131464046D0
:10138000FFF7C3FE03E031464046FFF7D9FE4FEAC0
:101390004A604FEA106A701CC6B20098301AA04228
:1013A00013D1009E08F101000CE000000014014080
:1013B000002001401F1500202A4600089E4A000810
:1013C0008E50000800F0FF0806E009F1010000F06F
:1013D000FF09B9F1080FCEDB00BF681CC5B25D453F
:1013E000A7DB00BFC1E7F0B506460F4614461D4611
:1013F00013E022782B4639463046FFF76EFF284629
:1014000005EBD07106EB6101CEB2C5F18000B042B0
:1014100002DA0026B81CC7B2641C2078202802DB40
:1014200020787E28E5DDF0BD10B50246012000E001
:1014300050430B00A1F10104E1B2F9D110BD2DE937
:10144000F04F06468A4691461F46099C00252CE02F
:10145000781B401EC1B20A20FFF7E6FFB9FBF0F08F
:101460000A21B0FBF1F201FB1208B8F1000F0CD118
:10147000A34604EBDB71491001FB0561C8B22346AA
:1014800030225146FFF729FF0DE0A34604EBDB7144
:10149000491001FB0561C8B208F13001CAB2234608
:1014A0005146FFF71AFF681CC5B2BD42D0DBBDE84C
:1014B000F08F2DE9FF4F0746884691461C464FF0B6
:1014C000000B0297CDF804802046E11704EB517120
:1014D000C1F3C701009160E009FB04F0C11700EB04
:1014E00051710BEBE101CEB20BF1010000F0FF0BEB
:1014F000002550E0102C05D1DF4800EB0610405DC0
:1015000003901BE0182C07D106EBC600DB4901EB6A
:10151000C000405D039011E0202C05D1D84800EBBD
:10152000C610405D039009E0402C05D1D54800EB82
:101530004620405D039001E0BDE8FF8F4FF0000AB8
:1015400017E0039800F0010020B141463846FFF74C
:10155000DCFD03E041463846FFF7F2FD03984010FA
:10156000039008F1010000F0FF080AF1010000F00B
:10157000FF0ABAF1080FE4DB781CC7B20298381AE8
:10158000A04204D1029F01980830C0B20190DDF85A
:101590000480681CC5B2A542ACDB0098411EC9B2EC
:1015A0000091002898D100BFC6E7804689460026F2
:1015B000002749E03FB91023324618218020FFF769
:1015C00078FF701CC6B2464522D14FF0000A1AE0DF
:1015D000002410E000250AE0AB4800EBC400415DA8
:1015E000601EA94A02EBC0004155681CC5B2082D17
:1015F000F2DB601CC4B2902CECDBFFF74EFD0AF16D
:10160000010000F0FF0A4FEA09105045E0DC002617
:10161000781CC7B2102F00D10027002410E000254D
:101620000AE0994800EBC400415D601E964A02EB57
:10163000C0004155681CC5B2082DF2DB601CC4B265
:10164000902CECDBFFF729FDB4E770B504460D469E
:10165000A01CC4B205F1B001C8B20021FFF7A2FC82
:10166000102141EA14100021FFF79CFC04F00F0048
:101670000021FFF797FC70BD2DE9F05F05460E468F
:1016800017469846DDF828B04FF00009CA460024F6
:10169000E11704EB5171C910A4EBC10101B901E0DC
:1016A000601CC4B2344614E021462846FFF7CDFF43
:1016B000AA460AE01BF809000121FFF773FC09F1B3
:1016C00001090AF1010000F0FF0ABA45F2DB601CD3
:1016D000C4B24445E8DBBDE8F09F08B501214FF4F2
:1016E000B07001F0F7F94FF48050ADF80000102011
:1016F0008DF8030003208DF802006946634800F06E
:101700002DFF4FF48051614800F0D5FF48F23200C0
:10171000ADF8000010208DF8030003208DF80200C2
:1017200069465B4800F01AFF48F23201584800F061
:10173000C2FF4FF4A060ADF8000010208DF8030048
:1017400003208DF802006946524800F007FF4FF46D
:10175000A061504800F0AFFF10214D4800F0ADFFF0
:10176000C82000F081FA1021494800F0A4FF0021B0
:10177000AE20FFF717FC00210846FFF713FC0021FD
:101780001020FFF70FFC00214020FFF70BFC002189
:101790008120FFF707FC0021CF20FFF703FC002189
:1017A000A120FFF7FFFB0021C820FFF7FBFB002172
:1017B000A620FFF7F7FB0021A820FFF7F3FB00218D
:1017C0003F20FFF7EFFB0021D320FFF7EBFB0021C9
:1017D0000846FFF7E7FB0021D520FFF7E3FB0021D8
:1017E0008020FFF7DFFB0021D920FFF7DBFB002182
:1017F000F120FFF7D7FB0021DA20FFF7D3FB002110
:101800001220FFF7CFFB0021DB20FFF7CBFB0021ED
:101810004020FFF7C7FB00212020FFF7C3FB00217A
:101820000220FFF7BFFB00218D20FFF7BBFB00214B
:101830001420FFF7B7FB0021A420FFF7B3FB002122
:10184000A620FFF7AFFB0021AF20FFF7ABFBFFF7B0
:1018500047FC08BD70B504460D46164605EB45022B
:101860009206110E04EB44025206100E0C2332466F
:10187000FFF7B9FD70BD0000A100002001020020AB
:10188000D9020020D90400201F15002000200140AB
:10189000001401400018014000B587B0012108463E
:1018A00001F018F90121084601F021F90121042075
:1018B00001F010F90121082001F00CF90121C848BC
:1018C00000F01DFF4FF40040ADF8000004208DF83B
:1018D00003006946C34800F041FE0820ADF800004F
:1018E00004208DF803006946BF4800F037FE04A8C5
:1018F00001F054FD0020ADF810004FF6FF70ADF878
:1019000014000020ADF81600ADF8120004A94FF045
:10191000804001F017FA00231A4603214FF080405F
:1019200001F01FFE01A801F04CFD0A20ADF80C00EB
:1019300001A9400701F099FC0121880702F024F871
:1019400001221146900701F074FD00214FF0804004
:1019500001F0E8FF0121880701F050FD07B000BD4C
:1019600000B587B00121022001F0C1F80121042057
:1019700001F0B0F8C020ADF8000004208DF803009D
:101980006946984800F0EAFD04A801F007FD002030
:10199000ADF810004FF6FF70ADF814000020ADF860
:1019A0001600ADF8120004A9904801F0CBF900230D
:1019B0001A4603218D4801F0D4FD01A801F001FD74
:1019C0000A20ADF80C0001A9884801F04EFC012165
:1019D000864801F0D9FF01221146844801F029FD13
:1019E0000021824801F09EFF0121804801F006FDA0
:1019F00007B000BD00B587B00121042001F077F8E1
:101A00000121082001F066F8C020ADF80000042094
:101A10008DF803006946744800F0A0FD04A801F0A9
:101A2000BDFC0020ADF810004FF6FF70ADF81400BB
:101A30000020ADF81600ADF8120004A96C4801F0C2
:101A400081F900231A460321694801F08AFD01A8A3
:101A500001F0B7FC0A20ADF80C0001A9644801F0C0
:101A600004FC0121624801F08FFF01221146604809
:101A700001F0DFFC00215E4801F054FF01215C48C9
:101A800001F0BCFC07B000BD00B587B00121082003
:101A900001F02DF80121042001F01CF80320ADF81D
:101AA000000004208DF8030069464E4800F056FD02
:101AB00004A801F073FC0020ADF810004FF6FF7091
:101AC000ADF814000020ADF81600ADF8120004A91E
:101AD000484801F037F900231A460321454801F030
:101AE00040FD01A801F06DFC0A20ADF80C0001A931
:101AF000404801F0BAFB01213E4801F045FF0122B8
:101B000011463C4801F095FC00213A4801F00AFFDB
:101B10000121384801F072FC07B000BD01460229DE
:101B200006D003290DD0042914D0052924D11AE0A8
:101B30004FF08042928C10B200224FF080439A8482
:101B40001CE02A4A2432128810B20022274B243388
:101B50001A8013E0264A2432128810B20022244B45
:101B600024331A800AE0234A2432128810B2002259
:101B7000204B24331A8001E0002000BF00BF7047D3
:101B80004FF08040008A4FF08040008A20F0010032
:101B90004FF0804108827047144810300088134885
:101BA0001030008820F00100104910310880704783
:101BB0000F48103000880E481030008820F00100D7
:101BC0000B491031088070470A48103000880948D6
:101BD0001030008820F0010006491031088070475D
:101BE0000001180000080140000C01400004004002
:101BF00000080040000C00404FF0E021096921F08E
:101C000004014FF0E0221161C21700EB5272C2F3DF
:101C1000C702234B1A701946097801EB4102C2EB47
:101C2000C1114FF6FF7202EAC1011E4A11807047CE
:101C300001461B4A12784A434FF0E0235A610022C2
:101C40009A6101221A6100BF4FF0E022106900F092
:101C500001021AB100F48032002AF5D000224FF0C0
:101C6000E0231A619A61704701460E4A12884A437E
:101C70004FF0E0235A6100229A6101221A6100BFED
:101C80004FF0E022106900F001021AB100F4803236
:101C9000002AF5D000224FF0E0231A619A617047C4
:101CA000DA140020DC140020A34A0A400243A34BAC
:101CB0001A6070470146072323EA010212029F4B74
:101CC0001B1D18684FF6FF0318409D4B1843104327
:101CD0009A4B1B1D186070472DE9F0410746884656
:101CE00014461D462846FFF7E5FFC5F1040007FA34
:101CF00000F60F20284100EA0800064306F00F0610
:101D0000E21704EBD2625211920002F1E022D2F803
:101D100000212146E31704EBD3635B11A4EB431CC2
:101D2000012303FA0CF31A432046E31704EBD363B1
:101D30005B119B0003F1E023C3F800218148005DA3
:101D400040EA06107F490855BDE8F08170B50446A9
:101D50000B46CE1701EB9676C6F38700CE1701EB44
:101D60009676B610A1EB8606B606350E764B9B69C5
:101D700043F00103744EB3614FEAB63353F8203099
:101D80000F26AE40B343714E46F82030334653F829
:101D9000203004FA05F61E436C4B43F820606C4B70
:101DA0001B6801268E403343694E336002F0010305
:101DB00043B1674B0C331B6801268E403343644E9E
:101DC0000C36336002F0020343B1614B08331E68E6
:101DD00001238B401E435E4B08331E6070BD00B56F
:101DE000002059490861C8601420486100208861BA
:101DF000C8610846006840F0010008600846406875
:101E00005449084050494860084600685249084013
:101E10004D4908600846006820F4802008600846A4
:101E2000406820F4FE0048600020886000214FF0E8
:101E30000060FFF739FF00BD10B54048083000686A
:101E400040F004003D49083108603F48C06940F057
:101E500080503D49C8614148406840F480703F4926
:101E600048600846006840F00400086008460068C2
:101E700040F002000860FEF7CDF910BD3048001DAB
:101E80002E49091D08607047014649062E4A92698D
:101E900042F001022C4B9A612C4A083A526822F017
:101EA000E0622A4B083B5A601A4652680A435A605D
:101EB000704730B504460025FFF791FF22480068BF
:101EC00040F480302049086000BF1F480068400C83
:101ED0000028FAD04FF480601B494860A01EC4B2AD
:101EE0000846406840EA844048600846406840F43C
:101EF000803048601A48006840F032001849086095
:101F00001148006840F080700F49086000BF0E481B
:101F10000068400E0028FAD00B48406840F00200EC
:101F20000949486005E008484068C0F3870505F0A6
:101F30000305022DF7D130BD80FFFF1F08ED00E043
:101F40000000FA0500E400E0001002400800014033
:101F5000000401400000FFF8FFFFF6FE00700040A3
:101F600000200240014600BF704700BFF24A1288BD
:101F700002F04002002AF9D0C2B2EF4B1B1D1A80BA
:101F80007047ED49091D088000BFEB49098801F041
:101F900040010029F9D070472DE9F05F05460E4653
:101FA000300102F0AFF98146E44905FB01F002F08F
:101FB000A9F98246494602F0C3F80746384602F0BE
:101FC00081F984B2204602F09DF98346394602F039
:101FD000ADFA82464FF0834102F0DCF9814602F00F
:101FE00071F980464FF6FF7000EA041404EB080014
:101FF00084B2D348806940F00400D1498861084622
:10200000806940F480408861CE48006820F47F6099
:10201000CC4908600846006840F40B600860C84876
:10202000C06840F48040C649C8600846C06820F4D3
:102030008040C860C04808300480001D008842F21B
:102040000C010843BC490C310880BDE8F09F10B575
:1020500086B004460121042000F03CFD0121480423
:1020600000F045FD0420ADF8140003208DF81600A3
:1020700018208DF8170005A9B248001F00F06EFA6D
:102080000820ADF8140004208DF8170005A9AD480C
:10209000001F00F063FA26208DF8000003208DF861
:1020A00001008DF8020001208DF80300684600F061
:1020B0008CF901940020ADF80800ADF80A00ADF8E5
:1020C0000C00ADF810000C20ADF80E0001A99E48E0
:1020D00001F0B5FC012240F225519B4801F047FD7B
:1020E0000121994801F037FD06B010BD10B540F24E
:1020F0002551954801F020FE002862D0924801F059
:102100009BFDC4B2782C0AD10020904908709048F9
:10211000006808B9012000E000208D4908608B4864
:102120000078092808DA8B48884909784454874898
:102130000078401C854908708448007808282DD113
:10214000844840783038642148438249897830395E
:1021500001EB810100EB41017E48C0783038084432
:102160007D4908607B48407930384FF47A714843A4
:1021700078498979303901EBC10202EB011100EB9A
:1021800081017448C079303800EB800001EB4000D9
:102190007049097A0844303870490860214670A0B7
:1021A00001F010FE6F48008800F4004048B96D4807
:1021B000008800F4804060B10A2C03D000206949F7
:1021C000088020E06748008840F4004065490880A6
:1021D00019E00D2C06D16348008840F48040614925
:1021E000088010E05F480088C0F30D005E490C5481
:1021F0005C480088401C5B49088008460088C72866
:1022000001DD0020088010BD10B586B00446012114
:10221000082000F05FFC0121880400F068FC4FF406
:102220008060ADF8140003208DF8160018208DF89A
:10223000170005A94D4800F091F94FF40060ADF882
:10224000140004208DF8170005A9484800F086F90D
:1022500027208DF8000003208DF801008DF8020082
:1022600001208DF80300684600F0AFF801940020CB
:10227000ADF80800ADF80A00ADF80C00ADF810009C
:102280000C20ADF80E0001A9394801F0D8FB01225D
:1022900040F22551364801F06AFC0121344801F032
:1022A0005AFC06B010BD38B540F22551304801F057
:1022B00043FD00283ED02E4801F0BEFCC4B21020E1
:1022C00001232246002100900846FFF7B8F829486C
:1022D00004602948008800F4004058BB2648008864
:1022E00000F4804060B10A2C03D00020224908800D
:1022F00020E02148008840F400401F49088019E090
:102300000D2C06D11C48008840F480401A490880F2
:1023100010E019480088C0F30D0018490C54164805
:102320000088401C1449088008460088C72801DD41
:102330000020088038BD00000038014040420F00F6
:1023400000100240040801400044004050000020FA
:102350000400002010150020540000205C00002024
:1023600025630000E01400209F190020000C0140AC
:102370000048004088000020E2140020671A002076
:102380000948804709480047FEE7FEE7FEE7FEE709
:10239000FEE7FEE7FEE7FEE7FEE7FEE70448054945
:1023A000054A064B70470000830800083101000809
:1023B000901B002090210020901D0020901D0020E7
:1023C00031490143314A1160704770B50021002343
:1023D0000F22C47804B32D4C246804F4E064C4F5DF
:1023E000E064210AC1F10403CA40447804FA03F10D
:1023F0008478144021430901254C0678A1550478BE
:1024000004F01F050124AC4005786D11AD0005F105
:10241000E025C5F8004109E0047804F01F05012417
:10242000AC401C4D0678761145F8264070BD1A4A1E
:102430000A400243154B1B1F1A60704739B1134AFB
:10244000121D12680243114B1B1D1A6006E00F4A51
:10245000121D126882430D4B1B1D1A607047042821
:1024600008D14FF0E021096941F004014FF0E0226A
:10247000116107E04FF0E021096921F004014FF0FC
:10248000E0221161704700000000FA050CED00E049
:1024900000E400E080E100E080FFFF1F10B504468B
:1024A000CC48844208D10121042000F02DFB0021FA
:1024B000042000F029FB46E0C748844208D10121EE
:1024C000082000F021FB0021082000F01DFB3AE06D
:1024D000C248844208D10121102000F015FB0021E0
:1024E000102000F011FB2EE0BD48844208D10121EC
:1024F000202000F009FB0021202000F005FB22E055
:10250000B848844208D10121402000F0FDFA0021A2
:10251000402000F0F9FA16E0B348844208D10121C6
:10252000802000F0F1FA0021802000F0EDFA0AE0AE
:10253000AE48844207D10121801500F0E5FA002160
:10254000A01500F0E1FA10BD10B50121084600F019
:10255000DBFA0021012000F0D7FA10BD2DE9F0418F
:10256000024600250026002000230024002791F8C1
:1025700003C00CF00F0591F803C00CF0100CBCF177
:10258000000F03D091F802C04CEA050591F800C095
:10259000BCF1000F31D0146800202BE04FF0010C8B
:1025A0000CFA00F3B1F800C00CEA03069E4220D1F9
:1025B00083004FF00F0C0CFA03F7BC4305FA03FC41
:1025C0004CEA040491F803C0BCF1280F06D14FF087
:1025D000010C0CFA00FCC2F814C00AE091F803C028
:1025E000BCF1480F05D14FF0010C0CFA00FCC2F809
:1025F00010C0401C0828D1D31460B1F800C0BCF151
:10260000FF0F34DD546800202EE000F1080C4FF07D
:10261000010808FA0CF3B1F800C00CEA03069E4268
:1026200021D183004FF00F0C0CFA03F7BC4305FADD
:1026300003FC4CEA040491F803C0BCF1280F05D157
:1026400000F1080C08FA0CF8C2F8148091F803C0E5
:10265000BCF1480F07D100F1080C4FF0010808FA4F
:102660000CF8C2F81080401C0828CED35460BDE896
:10267000F0814FF6FF710180022181700421C17049
:1026800070470246002093680B400BB1012000E028
:10269000002070470146886880B2704702460020DB
:1026A000D3680B400BB1012000E0002070470146C9
:1026B000C86880B2704701617047416170470AB1D4
:1026C000016100E041617047C16070474FF48032A2
:1026D0000A43826181618261826982697047024630
:1026E0000020434B18684FF68073184040EA0210F0
:1026F00008433F4B186070473E49C8617047F0B5CA
:102700000A46002300240021002500F00046B6F10F
:10271000004F02D1364EF16901E0354E7168C0F3C9
:10272000034583B200F44016B6F5401F08D121F0EE
:1027300070612F4E766826F070662D4F7E6012E035
:1027400000F48016B6F5801F06D1032606FA05F4BC
:10275000A14341F0706106E0460D360103FA06F62A
:10276000B14341F0706122B1460D360103FA06F61D
:10277000314300F00046B6F1004F02D11C4EF1612A
:1027800001E01B4E7160F0BD30B500228B071C0FBD
:102790000F2303FA04F2164B08338C1053F824303D
:1027A0009343134C08348D1044F8253023468C1085
:1027B00053F824308C07240F00FA04F423430C4C04
:1027C00008348D1044F8253030BD0A49DC310860EA
:1027D0007047000000080140000C0140001001405B
:1027E0000014014000180140001C0140002001407D
:1027F0000000014000002042DF48006840F0010076
:10280000DD49086008464068DC490840DA4948600C
:1028100008460068DA490840D74908600846006859
:1028200020F4802008600846406820F4FE004860DC
:102830004FF41F0088607047CF49096821F4803148
:10284000CD4A11601146096821F480211160B0F56C
:10285000803F03D0B0F5802F0ED106E0C64909684D
:1028600041F48031C44A116007E0C349096841F46A
:10287000A021C14A116000E000BF00BF704710B541
:1028800001460022002300204A11012A02D1BA4C3D
:10289000236806E0022A02D1B74C236A01E0B64C55
:1028A000636A01F01F02012494401C400CB1012016
:1028B00000E0002010BD38B5002000900024002565
:1028C00000BF3120FFF7DBFF05460098401C009059
:1028D0000098B0F5A06F01D0002DF2D03120FFF7A5
:1028E000CEFF08B1012400E00024204638BD014697
:1028F0000020A14A106820F0F80040EAC1001060F2
:102900007047A04908607047024600209A4B5868FB
:1029100020F47C1042EA01031843974B586070473B
:1029200098490866704701460020934A506820F095
:1029300003000843506070478F48406800F00C0067
:102940007047014600208C4A506820F0F000084390
:102950005060704701460020874A506820F4E060CC
:1029600008435060704701460020834A506820F4B5
:10297000605040EAC1005060704729B17E4A527AE7
:1029800002437D4B5A7204E07B4A527A82437A4B6F
:102990005A7270477B49D831086070470146002061
:1029A000754A506820F44040084350607047002149
:1029B000714A20321170704A82F82010012802D02A
:1029C00004280AD104E001216B4A2032117005E08D
:1029D0000521694A2032117000E000BF00BF704736
:1029E0006949086070476449096A0143624A116293
:1029F0007047654944390860704730B500210022AE
:102A0000002400235C4D6D6805F00C0121B1042900
:102A100005D0082923D105E05C4D056022E05B4D1F
:102A200005601FE0544D6D6805F47012524D6D68DD
:102A300005F48034022505EB92421CB9544D5543F0
:102A400005600BE04C4D6D6805F400351DB1504D2F
:102A50005543056002E04D4D5543056002E04B4D86
:102A6000056000BF00BF444D6D6805F0F001090925
:102A7000484D6B5C0568DD4045603F4D6D6805F471
:102A8000E061090A434D6B5C4568DD4085603A4D65
:102A90006D6805F46051C90A3E4D6B5C4568DD40C8
:102AA000C560354D6D6805F44041890B3A4D6B5C4E
:102AB000C568B5FBF3F5056130BD29B12E4A5269F1
:102AC00002432D4B5A6104E02B4A526982432A4B40
:102AD0005A61704729B1284A92690243264B9A618C
:102AE00004E0254A92698243234B9A61704729B1D9
:102AF000214AD2690243204BDA6104E01E4AD269BE
:102B000082431D4BDA61704729B11B4AD2680243E8
:102B1000194BDA6004E0184AD2688243164BDA6037
:102B2000704729B1144A12690243134B1A6104E039
:102B3000114A12698243104B1A6170471249403999
:102B4000086070470F49C86470470B49C8717047E7
:102B50000948406A40F08070074948627047014662
:102B60000020054A92680A400AB1012000E00020D6
:102B70007047014988727047001002400000FFF85A
:102B8000FFFFF6FE000042428004424200127A003B
:102B900000093D00E8140020F814002010B5044698
:102BA000FE48844208D10121C014FFF7ADFF002187
:102BB000E014FFF7A9FFC4E0B4F1804F08D1012170
:102BC0000846FFF7AEFF00210120FFF7AAFFB8E09B
:102BD000F348844208D101210220FFF7A2FF00211F
:102BE0000220FFF79EFFACE0EE48844208D10121AD
:102BF0000420FFF796FF00210420FFF792FFA0E0DA
:102C0000E948844208D101210820FFF78AFF00210A
:102C10000820FFF786FF94E0E448844208D10121B0
:102C20001020FFF77EFF00211020FFF77AFF88E0D9
:102C3000DF48844208D101212020FFF772FF0021E4
:102C40002020FFF76EFF7CE0DA48844208D10121A2
:102C50004014FFF759FF00216014FFF755FF70E0A3
:102C6000D548844209D10121C804FFF74DFF002156
:102C70004FF40020FFF748FF63E0D048844209D1B9
:102C800001210805FFF740FF00214FF48010FFF7F6
:102C90003BFF56E0CA48844209D101214805FFF7AD
:102CA00033FF00214FF40010FFF72EFF49E0C54825
:102CB000844208D101214020FFF733FF002140204A
:102CC000FFF72FFF3DE0C048844208D1012180205A
:102CD000FFF727FF00218020FFF723FF31E0BB48EB
:102CE000844208D101218015FFF71BFF0021A015A8
:102CF000FFF717FF25E0B648844209D101210804F7
:102D0000FFF702FF00214FF48030FFF7FDFE18E0CF
:102D1000B048844209D101214804FFF7F5FE0021A3
:102D20004FF40030FFF7F0FE0BE0AB48844208D1CF
:102D300001218804FFF7E8FE00214FF48020FFF70F
:102D4000E3FE10BD00220288944B98420ED0994BAE
:102D500098420BD0B0F1804F08D0914B984205D0EB
:102D6000904B984202D0904B984204D14FF68F730B
:102D70001A404B881A438D4B984207D08C4B98428F
:102D800004D04FF6FF431A40CB881A4302808B8849
:102D900083850B880385814B98420BD0854B9842E5
:102DA00008D08B4B984205D08A4B984202D08A4B70
:102DB000984201D10B7A038601238382704770B554
:102DC000002400220023058C4FF6FE763540058452
:102DD000028C8388048B4FF68F752C40B51E2C40D7
:102DE0000D882C43751E2A400D892A434D882A439D
:102DF0006A4DA8420BD06F4DA84208D0744DA8422E
:102E000005D0744DA84202D0734DA84213D14FF69D
:102E1000F7752A404D892A434FF6FB752A408D8865
:102E20002A434FF6FF652B404FF6FF552B408D8907
:102E30002B43CD892B4383800483CD8885860284F0
:102E400070BD70B5002400220023058C4FF6EF768C
:102E500035400584028C8388048B48F6FF752C402E
:102E60004FF6FF452C400D884FF6FF7606EA052504
:102E70002C434FF6DF752A400D8906EA05152A43D3
:102E80004D8806EA05152A43444DA84202D0494D13
:102E9000A8421DD14FF67F752A404D894FF6FF7627
:102EA00006EA05152A434FF6BF752A408D8806EAC3
:102EB00005152A434FF6FF352B404FF2FF752B4087
:102EC0008D8906EA85052B43CD8906EA85052B43C6
:102ED00083800483CD880587028470BD70B500248B
:102EE00000220023058C4FF6FF6635400584028CD6
:102EF0008388848B4FF68F752C404FF6FC752C40E1
:102F00000D882C434FF6FF552A400D894FF6FF766A
:102F100006EA05252A434D8806EA05252A431F4D62
:102F2000A84202D0234DA8421DD14FF2FF752A407E
:102F30004D894FF6FF7606EA05252A434FF6FF3501
:102F40002A408D8806EA05252A434EF6FF752B4058
:102F50004DF6FF752B408D8906EA05152B43CD896B
:102F600006EA05152B4383808483CD8885870284F8
:102F700070BD70B5002200230024058C4EF6FF764C
:102F800035400584038C8488828B48F6FF752A407F
:102F90004FF6FF452A400D8820E00000002C01403C
:102FA0000004004000080040000C004000100040F9
:102FB0000014004000340140004C0140005001402A
:102FC0000054014000180040001C00400020004058
:102FD0000040014000440140004801404FF6FF76A8
:102FE00006EA05252A434DF6FF752B400D8906EAB2
:102FF00005352B434D8806EA05352B43FA4DA8428B
:1030000002D0FA4DA84208D14BF6FF752C408D89AD
:103010004FF6FF7606EA85152C4384808283CD889F
:10302000A0F84050038470BD828B4FF2FF331A40EA
:103030008283828B4FF6FF7303EA01231A43828354
:103040007047F0B50C461546002200210026078C7B
:103050004EF6FF7C07EA0C070784828B018C4FF643
:10306000FF7707EA043640F6FF473A404FF6FF770E
:1030700007EA05273A434FF6FF7707EA03373A4353
:10308000D94FB8420ED0D94FB8420BD0B0F1804FD3
:1030900008D0D74FB84205D0D64FB84202D0D64F4D
:1030A000B84206D14DF6FF77394046F48057394390
:1030B00005E047F6FF57394044F48057394382838F
:1030C0000184F0BD828B4FF6F3731A408283828BAA
:1030D0000A4382837047F0B50C4615460022002152
:1030E0000026078C4FF6FF6C07EA0C070784828BDB
:1030F000018C4FF6FF7707EA04264FF60C773A402B
:103100004FF6FF7707EA03172F433A43B64FB8420B
:103110000ED0B64FB8420BD0B0F1804F08D0B44FAC
:10312000B84205D0B34FB84202D0B34FB84206D12F
:103130004FF6FF57394046F48077394305E04FF2A8
:10314000FF57394044F48077394382830184F0BDCE
:10315000028B4FF2FF331A400283028B4FF6FF734C
:1031600003EA01231A4302837047F0B50C46154663
:10317000002200210026078C4FF6EF7C07EA0C079F
:103180000784028B018C4FF6FF7707EA041640F69E
:10319000FF473A404FF6FF7707EA03373A434FF6C7
:1031A000FF7707EA05273A438F4FB8420ED08F4F7B
:1031B000B8420BD0B0F1804F08D08D4FB84205D047
:1031C0008C4FB84202D08C4FB84206D14FF6DF7711
:1031D000394046F01007394305E04FF65F77394034
:1031E00044F01007394302830184F0BD028B4FF68F
:1031F000F3731A400283028B0A4302837047F0B5CF
:103200000C46154600220021068C4FF6FE773E4004
:103210000684028B018C4FF60C7632407E1C06EA47
:1032200003162E433243704EB0420ED06F4EB04262
:103230000BD0B0F1804F08D06D4EB04205D06D4E2E
:10324000B04202D06C4EB04206D14FF6FD7631400E
:1032500044F00106314305E04FF6F576314044F085
:103260000106314302830184F0BD70B505460C466A
:103270005D4885420ED05D4885420BD0B5F1804F48
:1032800008D05B48854205D05A48854202D05A484A
:10329000854200D100E000BF208850B92389A28870
:1032A00061882846FFF7ABFFE1882846FFF79EFFBD
:1032B00025E0208804280AD12389A288618828462D
:1032C000FFF753FFE1882846FFF742FF17E0208809
:1032D00008280AD12389A28861882846FFF7FBFEC7
:1032E000E1882846FFF7EEFE09E02389A28861887D
:1032F0002846FFF7A6FEE1882846FFF795FE70BD39
:103300002DE9F04105460C4600260127608808B9E2
:10331000022600E00026A088012801D1022700E053
:1033200001272088A0B92389A28861882846FFF751
:1033300066FFE1882846FFF759FF23893A46314660
:103340002846FFF712FFE1882846FFF701FF13E048
:103350002389A28861882846FFF707FFE18828466D
:10336000FFF7F6FE23893A4631462846FFF747FF26
:10337000E1882846FFF73AFFBDE8F0810A884B88CC
:103380001A438B881A43CB881A430B891A434B89FB
:103390001A438B891A43A0F8442070474FF6FF71F7
:1033A000818000210180C18041800172704700212D
:1033B000018041808180C180018141818181C18101
:1033C0007047002101804180012181800021C1805E
:1033D000018170470021018041808180C18001818D
:1033E0004181818170470000002C01400034014080
:1033F0000004004000080040000C004021B1028899
:1034000042F00102028004E002884FF6FE731A4087
:103410000280704731B1B0F8442042F40042A0F875
:10342000442005E0B0F84420C2F30E02A0F8442086
:1034300070471AB183890B43838102E083898B43F0
:10344000838170478182704741EA0203A0F84830C7
:1034500070471AB183890B43838102E083898B43D0
:103460008381704701894FF6F872114001817047DE
:103470000A46002101894FF68F73194011430181DB
:10348000704730B504460D4629462046FFF7F0FF49
:10349000208940F00700208130BD2DE9F04104462D
:1034A0000D4616461F46602D06D13B460122314689
:1034B0002046FFF75AFE05E03B46012231462046F2
:1034C000FFF79DFE29462046FFF7D2FF208940F0F6
:1034D00007002081BDE8F08130B50C46002101894C
:1034E000C9B24FF6FF7505EA032515432543294365
:1034F000018130BD2DE9F04105460E46174698463C
:10350000002443463A4631462846FFF7E5FF2C891A
:103510004FF6F870044044F007044FF68F700440F3
:1035200044F070042C81BDE8F081F0B504460D46EE
:1035300016461F463B46324629462046FFF7CCFF3B
:10354000208940F480402081F0BD0185828270474F
:103550000A46002101884FF68F73194011430180FC
:103560007047F0B50C4615461E4600210022002388
:103570000189028B038C4FF6F877394021434FF6CF
:10358000FC473A4040F201173A434FF6DD773B40A3
:103590004FF6FF7707EA06172F433B43018102836B
:1035A0000384F0BD0A460021018B4FF68F7319404A
:1035B0001143018370470A460021018B48F6FF73CF
:1035C00019404FF6FF7303EA022319430183704742
:1035D0000A460021818B4FF68F7319401143818376
:1035E00070470A460021818B48F6FF7319404FF659
:1035F000FF7303EA022319438183704721B10288D4
:1036000042F08002028004E002884FF67F731A4085
:103610000280704721B1828842F00402828004E077
:1036200082884FF6FB731A408280704721B18288EE
:1036300042F00802828004E082884FF6F7731A4055
:103640008280704721B1828842F00102828004E0CA
:1036500082884FF6FE731A40828070470A46002126
:10366000018B4FF6F77319401143018370470A46E7
:103670000021018B4FF2FF7319404FF6FF7303EAED
:1036800002231943018370470A460021818B4FF6BC
:10369000F77319401143818370470A460021818BDB
:1036A0004FF2FF7319404FF6FF7303EA02231943E9
:1036B000818370470A460021018B4FF6FB73194046
:1036C0001143018370470A460021018B4FF6FF33F7
:1036D00019404FF6FF7303EA022319430183704731
:1036E0000A460021818B4FF6FB73194011438183F9
:1036F00070470A460021818B4FF6FF3319404FF681
:10370000FF7303EA02231943818370470A460021AD
:10371000018B4FF67F7319401143018370470A46AE
:103720000021018BC1F30E014FF6FF7303EA022360
:103730001943018370470A460021818B4FF67F733E
:1037400019401143818370470A460021818BC1F3E0
:103750000E014FF6FF7303EA02231943818370477A
:103760000A460021018C4FF6FD7319401143018474
:1037700070470A460021018C4FF6F7731940114338
:10378000018470470A460021018C4FF6DF7319400F
:103790004FF6FF7303EA02131943018470470A4688
:1037A0000021018C4FF67F7319404FF6FF7303EA37
:1037B00002131943018470470A460021018C4FF619
:1037C000FF5319404FF6FF7303EA022319430184A4
:1037D00070470A460021018C4FF2FF7319404FF6E3
:1037E000FF7303EA02231943018470470A4600214C
:1037F000018C4DF6FF7319404FF6FF7303EA023355
:1038000019430184704730B5002301248C40A3B2D2
:10381000048C9C430484048C02FA01F5ADB22C4361
:10382000048430BD30B5002304248C40A3B2048C42
:103830009C430484048C02FA01F5ADB22C43048449
:1038400030BD70B50346002000241846183001250D
:103850008D40ACB21D8CA5431D8409B1082909D146
:1038600000EB6100056825F07005056005681543EB
:1038700005600EE00D1FC5F34E052844056825F4CC
:10388000E045056005684FF6FF7606EA02263543F7
:10389000056070BD21B1028842F00202028004E09E
:1038A00002884FF6FD731A400280704721B10288EA
:1038B00042F00402028004E002884FF6FB731A40D3
:1038C0000280704721B1828842F08002828004E049
:1038D00082884FF67F731A408280704702884FF6C5
:1038E000F7731A40028002880A4302807047828878
:1038F0004FF68F731A40828082880A438280704715
:1039000002894FF6F8731A40028102890A43028144
:10391000704702894FF67F731A40028102890A4379
:103920000281704781847047818570478186704726
:103930000187704781877047A0F840107047028860
:103940004FF6FF431A40028002880A430280704704
:103950000146888E70470146088F70470146888F60
:1039600070470146B1F8400070470146888C7047A7
:103970000146088D704702460020138A0B400BB1A8
:10398000012000E000207047CA430282704730B532
:103990000246002000230024158A05EA01039589C8
:1039A00005EA010413B10CB1012000E0002030BD94
:1039B000CA4302827047000010B50446FB488442A7
:1039C00009D101218803FFF79FF800214FF48040BF
:1039D000FFF79AF832E0F648844209D10121480401
:1039E000FFF79FF800214FF40030FFF79AF825E029
:1039F000F048844209D101218804FFF792F80021A0
:103A00004FF48020FFF78DF818E0EB48844209D18D
:103A10000121C804FFF785F800214FF40020FFF7CB
:103A200080F80BE0E548844208D101210805FFF742
:103A300078F800214FF48010FFF773F810BD2DE9DE
:103A4000F04786B005460E460024A24600BFA146B8
:103A50000027B08900B100BF2F462C8A4CF6FF70BA
:103A60000440F08804432C82AC894EF6F3100440E5
:103A7000B08831890843718908430443AC81AC8A1A
:103A80004FF6FF400440B0890443AC8201A8FEF722
:103A9000B4FFC648874202D1DDF810A001E0DDF88E
:103AA0000CA0A88900F4004040B10AEBCA0000EB6A
:103AB0000A1031684900B0FBF1F807E00AEBCA00D0
:103AC00000EB0A1031688900B0FBF1F86420B8FB04
:103AD000F0F004012009642101FB1089A88900F499
:103AE000004040B1322000EBC900B0FBF1F000F023
:103AF0000700044308E0322000EB09106421B0FB0A
:103B0000F1F000F00F0004432C8106B0BDE8F0870F
:103B10004FF41651016000218180C18001810C2188
:103B2000418100218181704710B502460020108A32
:103B30004FF2FF0318400B884C8823438C882343A3
:103B4000CC8823431843108210BD0021018041809E
:103B50008180C180704721B1828942F40052828104
:103B600004E082894DF6FF731A4082817047F0B5F8
:103B70000346002400260025002040F66A17B942BB
:103B800000D100BF1846C1F3421401F01F060127FF
:103B900007FA06F5012C01D10C3004E0022C01D10A
:103BA000103000E014301AB107682F43076002E0BC
:103BB0000768AF430760F0BD1AB1838A0B43838265
:103BC00002E0838A8B4383827047028A4FF6F07348
:103BD0001A400282028A0A430282704782894FF2A7
:103BE000FF731A40828182890A438281704721B122
:103BF000828942F00202828104E082894FF6FD73DD
:103C00001A4082817047028A4FF6DF731A4002829F
:103C1000028A0A430282704721B1028A42F480423A
:103C2000028204E0028A4BF6FF731A400282704758
:103C3000C1F308028280704701468888C0F30800FB
:103C40007047818941F0010181817047028BD2B2B6
:103C50000283028B42EA012202837047028B02F444
:103C60007F420283028B0A430283704721B1828A1A
:103C700042F02002828204E0828A4FF6DF731A400B
:103C80008282704721B1828A42F01002828204E06F
:103C9000828A4FF6EF731A408282704721B1828A7E
:103CA00042F00802828204E0828A4FF6F7731A40DB
:103CB0008282704721B1828942F40042828103E00E
:103CC0008289C2F30E028281704721B1828A42F456
:103CD0000062828204E0828A4FF2FF731A4082827D
:103CE0007047828A4FF6FB731A408282828A0A43A7
:103CF0008282704721B1828A42F00202828204E00D
:103D0000828A4FF6FD731A40828270470246002075
:103D1000B1F5007F00D100BF13880B400BB101202B
:103D200000E00020704701F40072B2F5007F00D17E
:103D300000BFCA430280704770B5024600240023CA
:103D40000025002040F66A16B14200D100BFC1F341
:103D5000421501F01F03012606FA03F3012D02D1DB
:103D60009689334006E0022D02D1168A334001E0E5
:103D7000968A33400C12012606FA04F41688344061
:103D800013B10CB1012000E0002070BD10B500227D
:103D9000002340F66A14A14200D100BF0A12012498
:103DA0009440A3B2DC43048010BD00000038014001
:103DB0000044004000480040004C004000500040DB
:103DC000704700000FB4044910B503AA029800F030
:103DD000E5F810BC5DF814FBE414002070B50C4647
:103DE0000546012A05D02878800600D5EA69002317
:103DF00002E0012305E05B1C934202D2E05C002854
:103E0000F9D1A869E618C01AA861286A184428627E
:103E10002846AFF3008004E0D5E9012114F8010B36
:103E20009047B442F8D32846AFF3008070BD00003D
:103E30002DE9F05F894604464FF0000ADFF824B10F
:103E4000FB44C0F820A02046E168884700287DD0C8
:103E5000252806D0D4E901219047206A401C206221
:103E6000F1E700255F462046E1688847202806469E
:103E700007DB312E05D2B81910F8200C08B1054324
:103E8000F1E7A80701D525F00405C4F81CA0002718
:103E9000C4F818A02A2E09D0304600F0DCF838B358
:103EA00004EB8708303EC8F8186019E059F8041B85
:103EB000204604EB87029161E1688847012F06469E
:103EC00018D1E069002820DA25F020051DE0D8F897
:103ED000180000EB800006EB40003038C8F81800EE
:103EE0002046E1688847064600F0B5F80028EED184
:103EF000012F0AD02E2E08D12046E16888477F1C6A
:103F00000646022F45F02005C4DBA069002803DA2D
:103F1000404245F00105A061E80701D025F01005F9
:103F2000A6B1A6F14100192802D8203645F4006553
:103F30004A463146204625604D46FCF753F960B1AC
:103F4000012807D0ED1D25F0070000E007E000F193
:103F5000080978E705F1040975E730467AE7206A31
:103F6000BDE8F09FA61F000070477047704770477C
:103F700010B5436913B1AFF3008001E0FFF72EFFE6
:103F8000012010BD127800F124010A7000224A704D
:103F90000122EDE711684FF0FF32E9E7074B70B5FA
:103FA0000D467B4400F011F80446284600F020F846
:103FB00010B14FF0FF3070BD204670BDC5DFFFFF70
:103FC00001694A1C02610878704700B58FB0CDE9DD
:103FD00001310021059105497944CDE903101146CD
:103FE0006846FFF725FF0FB000BD0000E5FFFFFFAB
:103FF000007B00F08000704700487047301B0020B5
:104000007546FFF7F9FFAE4605006946534620F0B6
:104010000700854618B020B5FEF7C0F9BDE820407E
:104020004FF000064FF000074FF000084FF0000B74
:1040300021F00701AC46ACE8C009ACE8C009ACE827
:10404000C009ACE8C0098D4670470446AFF3008054
:104050002046FCF7D9F830380A2801D201207047F1
:104060000020704790EA010F48BF81F0004100F145
:104070006E82421A3CBF801A89184FEAD0524FF024
:104080007F4C1CEA410FA2EBD15318BF9CEA026F90
:1040900000F03B804FF0004C4CEA00204CEA01213C
:1040A00021FA03FC10EB0C0C1ED202F1FF325FEA86
:1040B0001C2040EBC25038BF70471CF07F0F4FEA06
:1040C000400C18BFBCF17F4F38BF7047C3F12003CD
:1040D000994008BF20F00100BCF17F4F38BF704706
:1040E000A0F1C04000F01DBA4FEA3C00000A40EBCE
:1040F000C25028BF1CF0FF0F4FEA400CE6D018BF9B
:10410000BCF17F4F38BF7047EAE79CEA026F05D0E9
:1041100010EA5C0F08BF00F00040704710B500F0D7
:10412000BAF900BF64FBBE3E401058BFC0F140402A
:10413000491058BFC1F140418142EFF30080704700
:104140004FF47F0C1CEAD0121EBF1CEAD11392EA76
:104150000C0F93EA0C0F00F0858090EA010F48BF26
:1041600042F4807240F4000C41F400002CF07F41D6
:1041700020F07F4000B58142A2EB03020FF2081C41
:10418000ACEB504EC0F100009EF800E04FEA4E0E3E
:1041900000FB0EFC38BF49004FEA2C1C02F5FA0266
:1041A0000CFB0EF34FEACE1E4FEA112C4FEAC12151
:1041B0000EEB635E42EB22420EFB0CFC4FEA1C53FB
:1041C00000FB03114FEA112C4FEA01310EFB0CFCEE
:1041D0004FEADC4C00FB0C11C14228BF09184CEB24
:1041E00003335DF804EB10EB410143EBC250B2F531
:1041F0007C0F38BF704729D512F0F00F1CBF00F1BB
:10420000C04000F00040704700818283848586872B
:1042100088898B8C8D8E8F919293959697999A9C85
:104220009D9FA0A2A3A5A7A8AAACAEB0B2B3B5B7F4
:10423000B9BCBEC0C2C5C7C9CCCED1D4D7D9DCDFCA
:10424000E2E6E9ECF0F3F7FAFE0000004FEA400C7A
:104250000CF1807CBCF17E4F28BF7047B0F1C040AC
:1042600000F05FB990EA010F0CEAD11348BF42F4A5
:104270008072624538BF634507D213F47F0F16D0B2
:1042800080EA010000F00040704710B500F003F92B
:10429000097EFC3E00F005B880EA010000F0004015
:1042A000704780EA010000F0004000F03AB912F4D3
:1042B0007F0F04BF0248704780EA010000F031B967
:1042C0000000C07FC10DD1F19E0206DB4FEA002342
:1042D00043F0004323FA02F07047004207D54FEA4B
:1042E0004001B1F1FE4F02D24FF00000704710B50F
:1042F00000F0D1F849922480002070476FEA200036
:1043000070470000B0FA80F310FA03F2C3F19D0386
:104310000AD0D90501EB1220530638BF704700F1CF
:10432000010008BF20F001007047000050EA010CB6
:1043300000F113801CF5000F58BFBCF5000F01D42D
:104340008842704707D710F5000F58BF11F5000FCE
:1043500015D488427047894270471CF5000F04D578
:10436000BCF5000FF7D5814270474FF0807C1CEB05
:10437000400F38BF1CEB410F01D28142704710B58E
:1043800000F089F8922449004FF000504FF080511E
:10439000FFF7CABE4FF47F0C1CEAD0121EBF1CEA06
:1043A000D11392EA0C0F93EA0C0F00F0478090EAC9
:1043B000010F48BF42F480724FF0004C4CEA0020DD
:1043C0004CEA012102EB0302A0FB0113A2F500025B
:1043D000002918BF43F001035B0028BF4FEA3303F5
:1043E00042EB22425FEA132C4CEBC2502EBFBCEBD7
:1043F000436FB2F57C0F70474FEA036CBCF1004F7E
:1044000008BF20F00100B2F57C0F38BF70470BD514
:1044100082F0FF0212F5803FC8BF704700F1C04034
:10442000D8BF00F00040704700F5000C5FEA4C0C6C
:1044300048BF7047B0F1C04000F073B890EA010F78
:104440000CEAD11348BF42F48072624538BF63451D
:1044500004D280EA010000F00040704710B500F07F
:104460001AF800BF8900013E00F007B800F009B853
:104470005FEA410C5FEA1C6C08D080EA010000F0A2
:1044800050B85FEA400C5FEA1C6CF6D14FF0004078
:10449000A0F5800070470EF1020E2EF0030E5EF8BC
:1044A000044B244204D44FEA4102B2F17F4F11D8A9
:1044B0004FEA4003B3F17F4F0CD80ED14FEAD07CC6
:1044C000B2F17F4F0CEB4C0C0CF1020C08BF4CEB23
:1044D000D17C04E04FF0080C01E04FEAD17C0CEBFA
:1044E0004C0324FA03F404F00704B4F1040C06D2DC
:1044F0000EEB840CBDE810404CF0010C6047DFE887
:104500000CF0070802024FF00040A0F5800010BD3B
:104510000846420018BFD2F1807288BF00F0004008
:1045200010BDFF2141EAD050C005704780F0004027
:1045300090EA010F7FF59DAD81F0004100F007B8D2
:1045400090EA010F48BF81F000413FF592AD421A59
:1045500004D882F00042A0EB020011444FEAD0528E
:104560004FF07F4C1CEA410FA2EBD15318BF9CEADD
:10457000026F4AD04FF0004C4CEA00204CEA012177
:1045800021FA03FCB0EB0C0C0FD412F0FE0F36D066
:104590005FEA4C001DD5001240EBC25038BF704797
:1045A0001CF03F0F18BF70470BE0A2F101025FEA59
:1045B0001C2040EBC25038BF70471CF07F0F18BF63
:1045C0007047C3F12003994014BF401E20F0010042
:1045D000704780084FEA122308BF7047B0FA80FC8A
:1045E000A2EB0C02CCF1280C60FA0CF093EA122F2B
:1045F00004BF00EBC25070474FEAC3707047130A04
:104600005FEADC1008BF7047F6E79CEA026F04D04F
:1046100010EA5C0F08BF0020704710B5FFF73BFFA2
:1046200040DFF63E81F000407047000000000000CF
:10463000000000000000000000003F4000000000FB
:104640000000000030004000300040000000090081
:104650000BC03D000BC03D00090018C024407FE0A6
:10466000224031800000180024C01B000D80324021
:10467000018003801C4027401C8007400040100040
:1046800060000000000000000000000000000000CA
:104690001F80204040200000402020401F8000005C
:1046A0000000090006001F80060009000000040049
:1046B00004003F80040004000000001000600000BF
:1046C00000000000000004000400040004000400D6
:1046D000000000000040000000000000000000207A
:1046E00001C006003800400000001F80204020402C
:1046F00020401F800000000010403FC0004000002C
:10470000000018C0214022402440184000001080C2
:104710002040244024401B80000002000D001100B6
:104720003FC0014000003C802440244024402380BE
:1047300000001F80244024403440038000003000EB
:10474000200027C03800200000001B8024402440A7
:1047500024401B8000001C0022C0224022401F80F9
:104760000000000000000840000000000000000001
:1047700000000460000000000000000004000A00C7
:1047800011002080404009000900090009000900CB
:10479000000000004040208011000A0004001800C2
:1047A000200023402400180000001F8020402740E4
:1047B00029401F400000004007C039000F0001C021
:1047C000004020403FC0244024401B8000001F8048
:1047D0002040204020403080000020403FC020404A
:1047E00020401F80000020403FC024402E4030C0A9
:1047F000000020403FC024402E00300000000F0089
:104800001080204022403380020020403FC004003E
:1048100004003FC02040204020403FC020402040B6
:1048200000000060202020203FC020002000204009
:104830003FC024400B0030C0204020403FC02040FB
:104840000040004000C03FC03C0003C03C003FC0EF
:10485000000020403FC00C4023003FC020001F80CC
:104860002040204020401F80000020403FC02440C6
:104870002400180000001F802140214020E01FA0DC
:10488000000020403FC02440260019C0004018C04E
:1048900024402440224031800000300020403FC0AE
:1048A00020403000000020003F80004000403F805A
:1048B000200020003E0001C0070038002000380022
:1048C00007C03C0007C038000000204039C0060087
:1048D00039C0204000002000384007C03840200088
:1048E0000000304021C02640384020C000000000B9
:1048F00000007FE0402040200000000070000C001D
:104900000380004000000000402040207FE00000C5
:104910000000000020004000200000000000001007
:1049200000100010001000100010000000004000F7
:10493000000000000000000002800540054003C0A8
:10494000004020003FC004400440038000000000FD
:10495000038004400440064000000000038004403F
:1049600024403FC000400000038005400540034054
:104970000000000004401FC024402440200000002C
:1049800002E0055005500650042020403FC004407E
:10499000040003C000400000044027C000400000A5
:1049A000000000100010041027E00000000020406C
:1049B0003FC00140070004C00440204020403FC0E9
:1049C00000400040000007C0040007C0040003C00E
:1049D0000000044007C00440040003C00040000081
:1049E00003800440044003800000041007F00450DA
:1049F000044003800000000003800440045007F0DE
:104A00000010044007C00240040004000000000041
:104A100006400540054004C00000000004001F805F
:104A2000044000400000040007800040044007C02C
:104A300000400400070004C00180060004000600D6
:104A400001C0070001C006000000044006C00100CC
:104A500006C0044000000410071004E001800600B6
:104A600004000000044005C00640044000000000AF
:104A7000000004007BE04020000000000000000077
:104A8000FFF000000000000040207BE00400000078
:104A90000000400080004000200020004000000096
:104AA0000000000000000000000000000000000006
:104AB000000000001FCC000C0000000000000000FF
:104AC0000800300060000800300060000000022094
:104AD00003FC1E20022003FC1E2002200000000018
:104AE0000E1811043FFF10840C78000000000F0026
:104AF00010840F3800C00778188400780000007810
:104B00000F8410C411240E9800E4008400080800EB
:104B100068007000000000000000000000000000BD
:104B20000000000007E01818200440020000000008
:104B300040022004181807E00000000000000240B6
:104B4000024001800FF0018002400240000000801E
:104B5000008000800FF800800080008000000001CD
:104B6000000D000E0000000000000000000000002A
:104B700000800080008000800080008000800000B5
:104B8000000C000C0000000000000000000000000D
:104B900000060018006001800600180020000000D8
:104BA00007F0080810041004080807F000000000CF
:104BB000080408041FFC00040004000000000000BA
:104BC0000E0C10141024104411840E0C0000000070
:104BD0000C1810041104110412880C70000000005D
:104BE00000E00320042408241FFC0024000000002F
:104BF0001F98108411041104108810700000000028
:104C000007F00888110411041888007000000000E3
:104C10001C00100010FC13001C001000000000001D
:104C20000E3811441084108411440E380000000026
:104C30000700088C10441044088807F000000000AA
:104C400000000000030C030C000000000000000046
:104C5000000000010106000000000000000000004C
:104C60000080014002200410080810040000022007
:104C70000220022002200220022002200000000068
:104C80001004080804100220014000800000000009
:104C90000E001200100C106C10800F00000003E0DA
:104CA0000C1813E4142417C4082807D000000004CB
:104CB000003C03C41C40074000E4001C0004100436
:104CC0001FFC1104110411040E880070000003E0A1
:104CD0000C1810041004100410081C10000010041C
:104CE0001FFC100410041004080807F00000100452
:104CF0001FFC1104110417C410040818000010044C
:104D00001FFC1104110017C010000800000003E090
:104D10000C181004100410441C780040000010040B
:104D20001FFC10840080008010841FFC1004000011
:104D3000100410041FFC1004100400000000000305
:104D40000001100110011FFE1000100000001004EF
:104D50001FFC110403801464181C100400001004CC
:104D60001FFC1004000400040004000C00001004E8
:104D70001FFC1F0000FC1F001FFC1004000010049B
:104D80001FFC0C04030000E010181FFC100007F0CB
:104D90000808100410041004080807F000001004AC
:104DA0001FFC10841080108010800F00000007F09E
:104DB000081810241024101C080A07F20000100420
:104DC0001FFC1104110011C011300E0C0004000072
:104DD0000E1C11041084108410441C3800001800AC
:104DE000100010041FFC1004100018000000100038
:104DF0001FF810040004000410041FF81000100035
:104E00001E0011E0001C007013801C0010001FC069
:104E1000103C00E01F0000E0103C1FC00000100428
:104E2000180C163401C001C01634180C1004100000
:104E30001C00130400FC13041C00100000000804F4
:104E4000101C1064108413041C04101800000000CF
:104E5000000000007FFE400240024002000000000F
:104E600030000C0003800060001C00030000000004
:104E70004002400240027FFE0000000000000000EF
:104E80000000200040004000400020000000000121
:104E9000000100010001000100010001000100000B
:104EA0004000400020000000000000000000000062
:104EB0000098012401440144014400FC0004100056
:104EC0001FFC00880104010400880070000000003D
:104ED0000070008801040104010400880000000043
:104EE000007000880104010411081FFC0004000088
:104EF00000F8014401440144014400C800000000DE
:104F0000010401040FFC1104110411001800000039
:104F100000D601290129012901C901060000100458
:104F20001FFC008401000100010400FC00040000DB
:104F30000104190419FC0004000400000000000032
:104F4000000300010101190119FE00000000100416
:104F50001FFC0024004001B4010C0104000000000B
:104F6000100410041FFC00040004000000000104F1
:104F700001FC0104010001FC0104010000FC01042A
:104F800001FC008401000100010400FC0004000099
:104F900000F8010401040104010400F8000001010B
:104FA00001FF00850104010400880070000000007A
:104FB0000070008801040104010501FF00010104E3
:104FC000010401FC008401040100018000000000D4
:104FD00000CC0124012401240124019800000000D8
:104FE0000100010007F801040104000000000100B5
:104FF00001F8000400040004010801FC00040100A1
:1050000001800170000C001001600180010001F0BE
:10501000010C003001C00030010C01F00100000063
:105020000104018C00740170018C01040000010175
:1050300001810171000E0018016001800100000073
:105040000184010C013401440184010C00000000C2
:1050500000000000000001003EFC40024002000091
:10506000000000000000FFFF000000000000000042
:10507000400240023EFC0100000000000000000071
:105080006000800080004000400020002000000000
:105090000000000000000000000000000000000010
:1050A0000000000000000000000000000000000000
:1050B00000000000000000000000000000000000F0
:1050C000000F80380FFE380F80380000000000000D
:1050D00000000000000000000000000001000006C9
:1050E00000000C00003800003100000600000C0039
:1050F0000038000030000000000000000000618067
:105100000067F807F980006180006180006180001D
:1051100061800067F807F9800061800000000000EE
:105120000000000001C0E003E0F0063008041808A9
:105130001FFFFE040E080787F00381E00000000057
:10514000000001F000060C00040408060C7001F9D0
:10515000C0000E00003BE000EC18070808040C1823
:105160000003E00000000001E00007F003F818046D
:105170001C0804170807E1D003C0E00023B0003C7E
:1051800008002008000010000000000000010000DE
:105190003100003200001C00000000000000000090
:1051A00000000000000000000000000000000000FF
:1051B00000000000000000000000000000007F0070
:1051C00001FFC00780F00C0018100004200002004E
:1051D00000000000002000021000040C00180780EE
:1051E000F001FFC0007F0000000000000000000090
:1051F0000000000000000000000042000066000007
:105200006600003C0000180003FFC0001800003CCE
:105210000000660000660000420000000000080078
:1052200000080000080000080000080001FFC0009E
:105230000800000800000800000800000800000046
:105240000000000100003100003200001C000000DE
:10525000000000000000000000000000000000004E
:10526000000000000000080000080000080000081E
:105270000000080000080000080000080000080006
:1052800000080000000000000000000000003800DE
:10529000003800003800000000000000000000009E
:1052A00000000000000000000000000000000006F8
:1052B00000001C000070000180000E00003800009B
:1052C000C0000700001C00003000000000000000CB
:1052D00000007F8001FFE0038070060018040008D2
:1052E00004000806001803807001FFE0007F8000C2
:1052F000000000000000000001000801000801009B
:105300000803FFF807FFF800000800000800000885
:1053100000000000000000000001C03802C0580476
:105320000098040118040218040418061C1803F855
:105330001801E0F800000000000000000001C0E0DB
:1053400003C0F0040008040808040808061808034D
:10535000F41801E7F00001E0000000000000000088
:1053600000000300000D0000110000610000810832
:1053700003010807FFF80FFFF8000108000108000B
:1053800000000000000000E007FCD006080806103E
:1053900008061008061008061838060FF00607C0A1
:1053A000000000000000000000003F8001FFE0035B
:1053B00084300208180410080410080410080718A4
:1053C00010030FF00007C000000000000000000004
:1053D00003C0000700000600000600F80607F806F4
:1053E000180006E0000700000600000000000000B2
:1053F0000001E1E003F7F00634100418080418086F
:10540000040C08040C0806161803F3F001C1E000B0
:10541000000000000000F80003FC3003063804021E
:10542000080402080402080404100308F001FFC085
:10543000007F0000000000000000000000000000ED
:105440000000000000007038007038007038000064
:10545000000000000000000000000000000000004C
:1054600000000000000000000000301A00301C00A6
:10547000000000000000000000000000000000002C
:10548000000000000008000014000022000041009D
:105490000080800100400200200400100800080085
:1054A0000000000000002100002100002100002178
:1054B0000000210000210000210000210000210047
:1054C00000210000000000000000000008000804A7
:1054D00000100200200100400080800041000022F6
:1054E0000000140000080000000000000003C000DD
:1054F00004C000040000080038080F380808380805
:1055000010000C300007E00003C0000000000000A5
:1055100000003F8000FFE0038070020F10067088DB
:1055200004C088048308047F8802C090030120001F
:10553000FE400000080000180001F8003E0801C20B
:105540000007020007E20000FE00001FC80001F88B
:1055500000003800000804000807FFF807FFF804FF
:10556000080804080804080804080806180803F4D2
:105570001801E7F00001E0000000000000003F809B
:1055800001FFE00380700200180400080400080412
:1055900000080400100600200780C000000004007E
:1055A0000807FFF807FFF8040008040008040008D3
:1055B00004001802001003807001FFE0007F8000EB
:1055C000000004000807FFF807FFF80408080408B3
:1055D00008040808040808043E0804000806001827
:1055E00001006000000004000807FFF807FFF8044E
:1055F0000808040800040800040800043E0006002F
:1056000000060000018000000000000000003F8054
:1056100001FFE0038070060018040008040208047B
:1056200002080203F00783F00002000002000400F9
:105630000807FFF807FFF804080800080000080042
:1056400000080000080004080807FFF807FFF80436
:105650000008000000000000040008040008040026
:105660000807FFF807FFF804000804000804000812
:10567000000000000000000000000006000007001D
:10568000000104000104000104000307FFFE07FFFE
:10569000FC04000004000004000004000807FFF8F8
:1056A00007FFF8040C08001800003E0004C780053E
:1056B00003C80600F80400380400180000080400BD
:1056C0000807FFF807FFF8040008000008000008BA
:1056D000000008000008000008000018000060003A
:1056E000000004000807FFF807800807FC00007F9F
:1056F000C00003F80007C000780007800807FFF823
:1057000007FFF804000804000807FFF80700080373
:10571000C00000E000003800001E0000070000018B
:10572000C00400F007FFF8040000000000007F80C4
:1057300001FFE0038070060018040008040008065A
:10574000001803003001FFE0007F8000000004002B
:105750000807FFF807FFF804040804040004040025
:10576000040400040400060C0003F80001F000002B
:105770000000000000007F8001FFE0038070060051
:10578000880400880400C806003C03003E01FFE6D0
:10579000007F8400000004000807FFF807FFF804FA
:1057A0000808040800040C00040F00040BC00610D5
:1057B000F003F03801E00800000800000001E0F804
:1057C00003F030063010041808041808040C08040C
:1057D0000C080206180207F00781E00000000180B3
:1057E0000006000004000004000004000807FFF8A1
:1057F00007FFF80400080400000400000600000190
:10580000800004000007FFE007FFF004001800001C
:10581000080000080000080000080000080400104C
:1058200007FFE004000004000006000007E0000796
:10583000FE00041FE00001F80000380001E0043E13
:105840000007C00006000004000004000007E0009C
:1058500007FFC0041FF80007C007F80007FF800417
:105860003FF80007C004F800070000040000000033
:105870000004000806001807C07805F1C8003E00C3
:10588000001F800463E80780F80600180400080081
:10589000000004000006000007800007E008047C08
:1058A00008001FF80007F800180804E008070000C7
:1058B0000600000400000000000100080600380493
:1058C00000F80403E8040F08047C0805F00807C08A
:1058D000080700180400600000000000000000003D
:1058E0000000000000000000003FFFFE200002203A
:1058F0000002200002200002200002000000000040
:105900000000000008000007000000C00000380090
:105910000006000001C000003000000E0000010081
:105920000000000000000000200002200002200013
:10593000022000022000023FFFFE000000000000E5
:10594000000000000000000000000000000000084F
:1059500000001000003000002000003000001000A7
:10596000000800000000000000000000010000012D
:105970000000010000010000010000010000010022
:105980000001000001000001000001000001000012
:1059900000000000000000200000200000100000B7
:1059A00010000000000000000000000000000000E7
:1059B00000000000000000F00019F8001B18002291
:1059C00008002608002408002410003FF8001FF8F3
:1059D00000000800001800000004000007FFF80F96
:1059E000FFF0001818001008002008002008003000
:1059F00018001FF0000FC00000000000000007C0EA
:105A0000001FF000183000200800200800200800C7
:105A10003C08001C100000600000000000000000B6
:105A2000000007C0001FF000381800200800200800
:105A300000200804101007FFF80FFFF0000010000E
:105A400000000000000000000007C0001FF000126E
:105A500030002218002208002208003208001E1020
:105A6000000E2000000000000000200000200800C0
:105A7000200801FFF803FFF806200804200804208E
:105A80000807200003000000000000000000000ED6
:105A9000000E6E001FF30031B10020B10020B100F4
:105AA0003191001F13002E1E00200E003000000058
:105AB0000004000807FFF80FFFF80010080020009E
:105AC000002000002008003FF8001FF80000080038
:105AD0000000000000000000002008002008002056
