:020000040800F2
:10000000100C0020A50100086D0900082109000856
:100010005D090008F10700080B100008000000004F
:100020000000000000000000000000004D0B000870
:10003000F507000800000000F5090008610C000841
:10004000BF010008BF010008BF010008BF01000890
:10005000BF010008BF010008BF010008BF01000880
:10006000BF010008BF010008BF010008BF01000870
:10007000BF010008BF010008BF010008BF01000860
:10008000BF010008BF010008BF010008BF01000850
:10009000BF010008BF010008BF010008BF01000840
:1000A000BF010008BF010008BF010008BF01000830
:1000B000BF010008BF010008BF010008BF01000820
:1000C000BF010008BF010008BF010008BF01000810
:1000D000BF010008C50C0008BF0100084D0D000855
:1000E000BF010008BF010008BF01000800F002F8CE
:1000F00000F048F80AA090E8000C82448344AAF17A
:100100000107DA4501D100F03DF8AFF2090EBAE877
:100110000F0013F0010F18BFFB1A43F0010318473B
:100120007411000094110000103A24BF78C878C1FF
:10013000FAD8520724BF30C830C144BF04680C60ED
:10014000704700000023002400250026103A28BF35
:1001500078C1FBD8520728BF30C148BF0B60704739
:10016000642900F04D80002070471FB500F028FB87
:1001700004000020002101F06DF8401C60601FBDEC
:1001800010B510BD00F0F7FA1146FFF7EEFF00F0D2
:1001900079FF00F027FB03B4FFF7F2FF03BC00F088
:1001A0003DFF00000948804709480047FEE7FEE799
:1001B000FEE7FEE7FEE7FEE7FEE7FEE7FEE7FEE717
:1001C00004480549054A064B70470000650C0008C5
:1001D000ED00000810060020100C00201008002080
:1001E00010080020704700000FB4044910B503AA9E
:1001F000029800F0EFF910BC5DF814FB1C00002021
:100200002DE9F0410646002410687529314616A5EF
:1002100010D0AFF30080002802DA404213A507E0B7
:1002200031688A0701D512A502E0490704D511A556
:10023000012401E0AFF3008000210A2206F1240727
:1002400009E0B0FBF2FCB0FBF2F302FB1C00303023
:1002500078541846491C0028F3D123462A463046D4
:10026000BDE8F04100F044B9000000002D0000009E
:100270002B000000200000002DE9F05F89460446B5
:100280004FF0000ADFF874B1FB44C0F820A020460C
:10029000E1688847002874D0252806D0D4E90121D8
:1002A0009047206A401C2062F1E700265F46204606
:1002B000E16888472028054607DB312D05D27819EB
:1002C00010F8200C08B10643F1E7B00701D526F07D
:1002D0000406C4F81CA00027C4F818A02A2D09D0D1
:1002E000284600F094FE38B304EB8708303DC8F888
:1002F000185019E059F8041B204604EB870291615D
:10030000E1688847012F054618D1E069002820DA06
:1003100026F020061DE0D8F8180000EB800005EB61
:1003200040003038C8F818002046E1688847054684
:1003300000F06DFE0028EED1012F0AD02E2D08D13D
:100340002046E16888477F1C0546022F46F02006BC
:10035000C4DBA069002803DA404246F00106A06130
:10036000F00701D026F010066C2D0BD0682D09D0B7
:100370004C2D39D06A2D35D0742D35D07A2D33D00F
:1003800016E038E0E1682F4620468847B842054627
:1003900009D16C2F26D04FF48060E16806432046D7
:1003A0008847054604E06C2F1AD04FF4807006434E
:1003B0000DB3A5F14100192802D8203546F4006696
:1003C0004A462946204626604E46FFF7C9FE80B1C0
:1003D00001280BD0F61D26F0070000F1080956E7AA
:1003E0004020E4E78020D8E70020D6E706F10409A2
:1003F0004DE7284652E7206ABDE8F09FF40F000061
:1004000070B5064600F070F80468054630460A22CA
:10041000002100F0F1F82C6070BD4FF000020429BB
:10042000C0F0128010F0030C00F02081CCF1040C1D
:10043000BCF1020F18BF00F8012BA8BF20F8022B57
:10044000A1EB0C0100F012B95FEAC17C24BF00F8F7
:10045000012B00F8012B48BF00F8012B704700006A
:100460004FF0013C50F8042B51F8043B9A4221D143
:10047000A2EB0C03934313EACC1317D150F8042BCF
:1004800051F8043B9A4215D1A2EB0C03934313EAB3
:10049000CC130BD150F8042B51F8043B9A4209D1EC
:1004A000A2EB0C03934313EACC13DBD04FF0000014
:1004B000704700BFD01A01BAB1FA81F101F01801FA
:1004C00022FA01F0CB40C1F12001DBB2C0B2C01A68
:1004D0002CFA01F3D11A914311EAC311E6D1704706
:1004E000704770477047704700487047B00500205C
:1004F0002DE9F0470D4699469246044600F124083E
:100500000168880604D5E06921F01001216000E04F
:100510000120A84201DD471B00E00027A1697A19EC
:1005200002EB0900081AA0612078C00602D4204618
:10053000AFF30080002608E0D4E901211AF8060094
:100540009047206A401C761C20624E45F4DB2078E0
:10055000C0060AD52046AFF3008006E0D4E90121A9
:1005600030209047206A401C2062381EA7F1010706
:10057000F4DC07E0D4E9012118F805009047206A6F
:10058000401C2062281EA5F10105F3DC2046AFF3D4
:1005900000802078000602D50220BDE8F087012007
:1005A000FBE7000001694A1C02610878704700B54A
:1005B0008FB0CDE901310021059105497944CDE99C
:1005C000031011466846FFF757FE0FB000BD00004C
:1005D000E5FFFFFF074B70B50D467B44FFF7E7FFD4
:1005E0000446284600F0C3F810B14FF0FF3070BD4C
:1005F000204670BD8B0A00002DE9F04791460F465A
:1006000080460446002614F8015B2DB100F058F82E
:100610000068405DC007F6D12B2D02D02D2D18D0DB
:10062000641E4A463946204600F052F827B1396820
:10063000A14201D1C7F800804FF0020471050BD52B
:100640004042002803DDFFF74FFF0460A007BDE82C
:10065000F08746F48066E4E70028F8DAFFF744FF05
:1006600004606FF00040F2E74FF0000200B513465F
:1006700094469646203922BFA0E80C50A0E80C50C2
:10068000B1F12001BFF4F7AF090728BFA0E80C5073
:1006900048BF0CC05DF804EB890028BF40F8042B6C
:1006A00008BF704748BF20F8022B11F0804F18BFD9
:1006B00000F8012B7047000000487047B00500208B
:1006C00010B500F07DF8001D10BD00BF890B0000C3
:1006D0002DE9F05F824615468B4600270AF101049A
:1006E000B9460078302801D09DB113E014F8010B11
:1006F0000127782803D0582801D045B10AE00DB170
:10070000102D07D1002714F8010B102502E0082551
:1007100000E00A250026B0460EE005FB080005FBB8
:1007200006F101271FFA80F801EB1046B6F5803F6D
:1007300000D3B94614F8010B294600F045F800280B
:10074000EBDABBF1000F05D00FB1641E00E0544698
:10075000CBF80040B9F1000F06D0FFF7C5FE02212B
:100760000160C81EBDE8F09F48EA0640FAE7007B3A
:1007700000F0800070477546FFF79EFFAE4605000B
:100780006946534620F00700854618B020B5FFF7AC
:1007900017FDBDE820404FF000064FF000074FF076
:1007A00000084FF0000B21F00701AC46ACE8C0098F
:1007B000ACE8C009ACE8C009ACE8C0098D46704798
:1007C00000487047D00500203A2800D2303820F089
:1007D0002002412A01D3A2F13700884201D34FF011
:1007E000FF3070470446AFF300802046FFF7D3FC8C
:1007F00000BFFEE770472DE9F041024600250026C4
:10080000002000230024002791F803C00CF00F05FE
:1008100091F803C00CF0100CBCF1000F03D091F85C
:1008200002C04CEA050591F800C0BCF1000F31D0C0
:10083000146800202BE04FF0010C0CFA00F3B1F823
:1008400000C00CEA03069E4220D183004FF00F0C3B
:100850000CFA03F7BC4305FA03FC4CEA040491F8D4
:1008600003C0BCF1280F06D14FF0010C0CFA00FCBC
:10087000C2F814C00AE091F803C0BCF1480F05D1DA
:100880004FF0010C0CFA00FCC2F810C0401C082804
:10089000D1D31460B1F800C0BCF1FF0F34DD54684F
:1008A00000202EE000F1080C4FF0010808FA0CF3CC
:1008B000B1F800C00CEA03069E4221D183004FF03C
:1008C0000F0C0CFA03F7BC4305FA03FC4CEA0404D2
:1008D00091F803C0BCF1280F05D100F1080C08FA0B
:1008E0000CF8C2F8148091F803C0BCF1480F07D18E
:1008F00000F1080C4FF0010808FA0CF8C2F810805B
:10090000401C0828CED35460BDE8F0814161704797
:1009100070B504462046FFF773FD0546284670BDB6
:1009200000BFFEE708B50121102000F085F84FF464
:100930000050ADF8000010208DF8030003208DF862
:10094000020069460448FFF756FF4FF40051024881
:10095000FFF7DCFF08BD00000010014000BFFEE70C
:1009600010B54FF4E13000F019FC10BD70470000E5
:1009700070B5002100230F22C47804B3154C2468FD
:1009800004F4E064C4F5E064210AC1F10403CA4040
:10099000447804FA03F184781440214309010E4C91
:1009A0000678A155047804F01F050124AC400578B1
:1009B0006D11AD0005F1E025C5F8004109E00478AE
:1009C00004F01F050124AC40044D0678761145F86B
:1009D000264070BD0CED00E000E400E080E100E0A6
:1009E00002490143024A1160704700000000FA0505
:1009F0000CED00E07047000029B1064AD2690243BD
:100A0000044BDA6104E0034AD2698243014BDA61A4
:100A1000704700000010024029B1064A12690243E3
:100A2000044B1A6104E0034A12698243014B1A61C4
:100A3000704700000010024029B1064A9269024343
:100A4000044B9A6104E0034A92698243014B9A6124
:100A5000704700000010024029B1064AD2680243E4
:100A6000044BDA6004E0034AD2688243014BDA6047
:100A7000704700000010024030B500210022002421
:100A800000232D4D6D6805F00C0121B1042905D01E
:100A9000082923D105E0294D056022E0274D056096
:100AA0001FE0254D6D6805F47012234D6D6805F447
:100AB0008034022505EB92421CB9214D5543056057
:100AC0000BE01D4D6D6805F400351DB11C4D5543FF
:100AD000056002E0194D5543056002E0174D0560C1
:100AE00000BF00BF144D6D6805F0F0010909154DF8
:100AF0006B5C0568DD4045600F4D6D6805F4E06195
:100B0000090A104D6B5C4568DD4085600A4D6D68D3
:100B100005F46051C90A0B4D6B5C4568DD40C5604A
:100B2000054D6D6805F44041890B074D6B5CC56848
:100B3000B5FBF3F5056130BD0010024000127A00EC
:100B400000093D002200002032000020704710B54F
:100B500000F002F810BD00000CB5002001900090DC
:100B60003348006840F480303149086000BF3048A5
:100B7000006800F4003000900198401C019000983B
:100B800018B90198B0F5A06FF1D12948006800F4B8
:100B9000003010B10120009001E00020009000988A
:100BA000012843D12348006840F010002149086023
:100BB0000846006820F0030008600846006840F01E
:100BC000020008601A4840681949486008464068B1
:100BD00048600846406840F48060486008464068C5
:100BE00020F47C1048600846406840F4E8104860F3
:100BF0000846006840F08070086000BF0C4800683C
:100C000000F000700028F9D00948406820F0030087
:100C1000074948600846406840F00200486000BF4D
:100C20000348406800F00C000828F9D10CBD000012
:100C30000010024000200240042808D14FF0E021BB
:100C4000096941F004014FF0E022116107E04FF023
:100C5000E021096921F004014FF0E02211617047A1
:100C60007047000010B51348006840F001001149BA
:100C7000086008464068104908400E494860084628
:100C800000680E4908400B4908600846006820F4D7
:100C9000802008600846406820F4FE0048604FF459
:100CA0001F008860FFF753FF4FF0006004490860A1
:100CB00010BD0000001002400000FFF8FFFFF6FE2C
:100CC00008ED00E010B540F225511D4800F0DCF8B9
:100CD00010B31B4800F094F9C4B21A48008800F41D
:100CE0000040C8B91748008800F4804060B10A2C61
:100CF00003D000201349088020E01248008840F407
:100D000000401049088019E00D2C06D10D480088DC
:100D100040F480400B49088010E00A480088C0F386
:100D20000D0009490C5407480088401C05490880FB
:100D300008460088C72801DD0020088010BD00009B
:100D40000038014020000020E804002010B540F2E7
:100D500025511D4800F098F810B31B4800F050F9D9
:100D6000C4B21A48008800F40040C8B91748008887
:100D700000F4804060B10A2C03D0002013490880A1
:100D800021E01248008840F40040104908801AE031
:100D90000D2C06D10D48008840F480400B49088096
:100DA00011E00A480088C0F30D0009490C540748B7
:100DB0000088401C0549088008460088B0F5167F69
:100DC00001DB0020088010BD004800401400002016
:100DD0003800002021B1828942F40052828104E06F
:100DE00082894DF6FF731A408281704710B5044620
:100DF0002048844209D101218803FFF72DFE0021FC
:100E00004FF48040FFF728FE32E01B48844209D1AE
:100E100001214804FFF700FE00214FF40030FFF7E6
:100E2000FBFD25E01548844209D101218804FFF724
:100E3000F3FD00214FF48020FFF7EEFD18E010488D
:100E4000844209D10121C804FFF7E6FD00214FF4D7
:100E50000020FFF7E1FD0BE00A48844208D10121A0
:100E60000805FFF7D9FD00214FF48010FFF7D4FDEE
:100E700010BD000000380140004400400048004020
:100E8000004C00400050004070B502460024002392
:100E90000025002040F66A16B14200D100BFC1F320
:100EA000421501F01F03012606FA03F3012D02D1BA
:100EB0009689334006E0022D02D1168A334001E0C4
:100EC000968A33400C12012606FA04F41688344040
:100ED00013B10CB1012000E0002070BDF0B5034655
:100EE000002400260025002040F66A17B94200D1F0
:100EF00000BF1846C1F3421401F01F06012707FA8C
:100F000006F5012C01D10C3004E0022C01D1103087
:100F100000E014301AB107682F43076002E0076849
:100F2000AF430760F0BD00002DE9F04786B00546ED
:100F30000E460024A24600BFA1460027B08900B19A
:100F400000BF2F462C8A4CF6FF700440F088044303
:100F50002C82AC894EF6F3100440B08831890843E6
:100F6000718908430443AC81AC8A4FF6FF400440CA
:100F7000B0890443AC8201A8FFF77EFD1F48874279
:100F800002D1DDF810A001E0DDF80CA0A88900F482
:100F9000004040B10AEBCA0000EB0A10316849007A
:100FA000B0FBF1F807E00AEBCA0000EB0A10316869
:100FB0008900B0FBF1F86420B8FBF0F004012009CF
:100FC000642101FB1089A88900F4004040B132205F
:100FD00000EBC900B0FBF1F000F00700044308E0AB
:100FE000322000EB09106421B0FBF1F000F00F009B
:100FF00004432C8106B0BDE8F087000000380140B2
:1010000001468888C0F30800704700BFFEE730380B
:101010000A2801D20120704700207047014600BF16
:101020007047000010B56FF00400FFF705FE0A4896
:1010300000680A49B0FBF1F00949087008460078D9
:1010400000EB4001C1EBC0104FF6FF7101EAC00098
:101050000449088010BD00000000002000127A0042
:10106000160000201800002000BF054A128802F078
:101070004002002AF9D0C2B2014B1B1D1A807047F2
:1010800000380140FFF7CEFF4FF4A060FFF7A8FC47
:101090004FF4E13000F032F8FFF762FCFFF742FC5A
:1010A0001CE00F48008800F40040B8B10D4800680B
:1010B00008B9012000E000200A4908600020084922
:1010C00008800948FFF724FC0446214607A0FFF7E3
:1010D0008BF84FF416710448FFF79FF9E1E7000021
:1010E00014000020B40122423800002054726163D1
:1010F0006B446174653A25640D0A000010B586B032
:101100000446012144F20400FFF796FC4FF40070FE
:10111000ADF8140003208DF8160018208DF8170084
:1011200005A91C48FFF767FB4FF48060ADF8140079
:1011300004208DF8170005A91648FFF75CFB252051
:101140008DF8000003208DF801008DF802000120C9
:101150008DF803006846FFF70BFC01940020ADF802
:101160000800ADF80A00ADF80C00ADF810000C2036
:10117000ADF80E0001A90848FFF7D6FE012240F2A3
:1011800025510548FFF7AAFE01210348FFF722FE7B
:1011900006B010BD000801400038014010B586B00F
:1011A000044601210820FFF747FC01218804FFF7CE
:1011B00023FC2548FFF71AFE4FF48060ADF81000BD
:1011C00003208DF8120018208DF8130004A91F4881
:1011D000FFF711FB4FF40060ADF8100004208DF80C
:1011E000130004A91948FFF706FB00940020ADF88E
:1011F0000400ADF80600ADF80800ADF80C000C20B6
:10120000ADF80A0069461048FFF78EFE01210E482E
:10121000FFF7E0FD012240F225510B48FFF75EFE8B
:1012200027208DF8140002208DF8150003208DF87A
:10123000160001208DF8170005A8FFF799FB002084
:101240000349088006B010BD00480040000C014072
:101250001400002010B500290AD00878002807D013
:1012600005487844FFF7FCF8002801D0002010BDA5
:101270000248784410BD0000520000004A000000FF
:10128000040000080000000000000002000100004F
:1012900010000000C4130008000000203800000007
:1012A00028010008FC13000838000020D80B0000BB
:1012B000440100081001000043000000F8FFFFFF98
:1012C0000040404040404040404041414141414059
:1012D000404040404040404040404040404040400E
:1012E000400502020202020202020202020202029D
:1012F00002202020202020202020200202020202A2
:1013000002029090909090901010101010101010F9
:101310001010101010101010101010100202020205
:101320000202888888888888080808080808080849
:101330000808080808080808080808080202020245
:10134000400000000000000000000000000000005D
:10135000000000000000000000000000000000008D
:10136000000000000000000000000000000000007D
:10137000000000000000000000000000000000006D
:10138000000000000000000000000000000000005D
:10139000000000000000000000000000000000004D
:1013A000000000000000000000000000000000003D
:1013B000000000000000000000000000000000002D
:1013C0000000000000A24A0400000000000000002D
:1013D00001020304060708090000000000000000E5
:1013E00000000000000000000000010203040102F0
:0C13F000030406070809020406080000B8
:04000005080001A549
:00000001FF
